{
  "_format": "hh-sol-artifact-1",
  "contractName": "VoteRelay",
  "sourceName": "contracts/VoteRelay.sol",
  "abi": [
    {
      "inputs": [
        {
          "internalType": "contract ILayerZeroEndpoint",
          "name": "_endpoint",
          "type": "address"
        },
        {
          "internalType": "bytes",
          "name": "_starknetApp",
          "type": "bytes"
        }
      ],
      "stateMutability": "nonpayable",
      "type": "constructor"
    },
    {
      "anonymous": false,
      "inputs": [
        {
          "indexed": true,
          "internalType": "uint256",
          "name": "id",
          "type": "uint256"
        },
        {
          "indexed": false,
          "internalType": "bytes32",
          "name": "proposalHash",
          "type": "bytes32"
        }
      ],
      "name": "ProposalForwarded",
      "type": "event"
    },
    {
      "anonymous": false,
      "inputs": [
        {
          "indexed": true,
          "internalType": "uint256",
          "name": "id",
          "type": "uint256"
        },
        {
          "indexed": false,
          "internalType": "uint256",
          "name": "forVotes",
          "type": "uint256"
        },
        {
          "indexed": false,
          "internalType": "uint256",
          "name": "againstVotes",
          "type": "uint256"
        }
      ],
      "name": "VoteResultMirrored",
      "type": "event"
    },
    {
      "inputs": [],
      "name": "endpoint",
      "outputs": [
        {
          "internalType": "contract ILayerZeroEndpoint",
          "name": "",
          "type": "address"
        }
      ],
      "stateMutability": "view",
      "type": "function"
    },
    {
      "inputs": [
        {
          "internalType": "uint16",
          "name": "chainId",
          "type": "uint16"
        },
        {
          "internalType": "uint256",
          "name": "id",
          "type": "uint256"
        },
        {
          "internalType": "bytes32",
          "name": "hash",
          "type": "bytes32"
        }
      ],
      "name": "forwardProposal",
      "outputs": [],
      "stateMutability": "payable",
      "type": "function"
    },
    {
      "inputs": [
        {
          "internalType": "uint16",
          "name": "",
          "type": "uint16"
        },
        {
          "internalType": "bytes",
          "name": "",
          "type": "bytes"
        },
        {
          "internalType": "uint64",
          "name": "",
          "type": "uint64"
        },
        {
          "internalType": "bytes",
          "name": "payload",
          "type": "bytes"
        }
      ],
      "name": "lzReceive",
      "outputs": [],
      "stateMutability": "nonpayable",
      "type": "function"
    },
    {
      "inputs": [],
      "name": "starknetApp",
      "outputs": [
        {
          "internalType": "bytes",
          "name": "",
          "type": "bytes"
        }
      ],
      "stateMutability": "view",
      "type": "function"
    }
  ],
  "bytecode": "0x60806040523480156200001157600080fd5b50604051620010cc380380620010cc83398181016040528101906200003791906200029d565b816000806101000a81548173ffffffffffffffffffffffffffffffffffffffff021916908373ffffffffffffffffffffffffffffffffffffffff16021790555080600190816200008891906200054e565b50505062000635565b6000604051905090565b600080fd5b600080fd5b600073ffffffffffffffffffffffffffffffffffffffff82169050919050565b6000620000d282620000a5565b9050919050565b6000620000e682620000c5565b9050919050565b620000f881620000d9565b81146200010457600080fd5b50565b6000815190506200011881620000ed565b92915050565b600080fd5b600080fd5b6000601f19601f8301169050919050565b7f4e487b7100000000000000000000000000000000000000000000000000000000600052604160045260246000fd5b620001738262000128565b810181811067ffffffffffffffff8211171562000195576200019462000139565b5b80604052505050565b6000620001aa62000091565b9050620001b8828262000168565b919050565b600067ffffffffffffffff821115620001db57620001da62000139565b5b620001e68262000128565b9050602081019050919050565b60005b8381101562000213578082015181840152602081019050620001f6565b60008484015250505050565b6000620002366200023084620001bd565b6200019e565b90508281526020810184848401111562000255576200025462000123565b5b62000262848285620001f3565b509392505050565b600082601f8301126200028257620002816200011e565b5b8151620002948482602086016200021f565b91505092915050565b60008060408385031215620002b757620002b66200009b565b5b6000620002c78582860162000107565b925050602083015167ffffffffffffffff811115620002eb57620002ea620000a0565b5b620002f9858286016200026a565b9150509250929050565b600081519050919050565b7f4e487b7100000000000000000000000000000000000000000000000000000000600052602260045260246000fd5b600060028204905060018216806200035657607f821691505b6020821081036200036c576200036b6200030e565b5b50919050565b60008190508160005260206000209050919050565b60006020601f8301049050919050565b600082821b905092915050565b600060088302620003d67fffffffffffffffffffffffffffffffffffffffffffffffffffffffffffffffff8262000397565b620003e2868362000397565b95508019841693508086168417925050509392505050565b6000819050919050565b6000819050919050565b60006200042f620004296200042384620003fa565b62000404565b620003fa565b9050919050565b6000819050919050565b6200044b836200040e565b620004636200045a8262000436565b848454620003a4565b825550505050565b600090565b6200047a6200046b565b6200048781848462000440565b505050565b5b81811015620004af57620004a360008262000470565b6001810190506200048d565b5050565b601f821115620004fe57620004c88162000372565b620004d38462000387565b81016020851015620004e3578190505b620004fb620004f28562000387565b8301826200048c565b50505b505050565b600082821c905092915050565b6000620005236000198460080262000503565b1980831691505092915050565b60006200053e838362000510565b9150826002028217905092915050565b620005598262000303565b67ffffffffffffffff81111562000575576200057462000139565b5b6200058182546200033d565b6200058e828285620004b3565b600060209050601f831160018114620005c65760008415620005b1578287015190505b620005bd858262000530565b8655506200062d565b601f198416620005d68662000372565b60005b828110156200060057848901518255600182019150602085019450602081019050620005d9565b868310156200062057848901516200061c601f89168262000510565b8355505b6001600288020188555050505b505050505050565b610a8780620006456000396000f3fe60806040526004361061003e5760003560e01c80621d3567146100435780632f3401661461006c5780635e280f11146100975780639dc27f14146100c2575b600080fd5b34801561004f57600080fd5b5061006a60048036038101906100659190610460565b6100de565b005b34801561007857600080fd5b506100816101cb565b60405161008e9190610597565b60405180910390f35b3480156100a357600080fd5b506100ac610259565b6040516100b99190610638565b60405180910390f35b6100dc60048036038101906100d791906106bf565b61027d565b005b60008054906101000a900473ffffffffffffffffffffffffffffffffffffffff1673ffffffffffffffffffffffffffffffffffffffff163373ffffffffffffffffffffffffffffffffffffffff161461016c576040517f08c379a00000000000000000000000000000000000000000000000000000000081526004016101639061076f565b60405180910390fd5b60008060008484810190610180919061078f565b925092509250827ffbf71f69a8195448d2a5d97ceb0d6d1930f05f6b3fe1f5e31c7761f244db14b783836040516101b89291906107f1565b60405180910390a2505050505050505050565b600180546101d890610849565b80601f016020809104026020016040519081016040528092919081815260200182805461020490610849565b80156102515780601f1061022657610100808354040283529160200191610251565b820191906000526020600020905b81548152906001019060200180831161023457829003601f168201915b505050505081565b60008054906101000a900473ffffffffffffffffffffffffffffffffffffffff1681565b60008282604051602001610292929190610889565b604051602081830303815290604052905060008054906101000a900473ffffffffffffffffffffffffffffffffffffffff1673ffffffffffffffffffffffffffffffffffffffff1663c580310034866001853360006040518763ffffffff1660e01b81526004016103079594939291906109c2565b6000604051808303818588803b15801561032057600080fd5b505af1158015610334573d6000803e3d6000fd5b5050505050827fd0631c119c13f7a8000ccf66283368503d91d31a390157acd3a746ae92d2fbe8836040516103699190610a36565b60405180910390a250505050565b600080fd5b600080fd5b600061ffff82169050919050565b61039881610381565b81146103a357600080fd5b50565b6000813590506103b58161038f565b92915050565b600080fd5b600080fd5b600080fd5b60008083601f8401126103e0576103df6103bb565b5b8235905067ffffffffffffffff8111156103fd576103fc6103c0565b5b602083019150836001820283011115610419576104186103c5565b5b9250929050565b600067ffffffffffffffff82169050919050565b61043d81610420565b811461044857600080fd5b50565b60008135905061045a81610434565b92915050565b6000806000806000806080878903121561047d5761047c610377565b5b600061048b89828a016103a6565b965050602087013567ffffffffffffffff8111156104ac576104ab61037c565b5b6104b889828a016103ca565b955095505060406104cb89828a0161044b565b935050606087013567ffffffffffffffff8111156104ec576104eb61037c565b5b6104f889828a016103ca565b92509250509295509295509295565b600081519050919050565b600082825260208201905092915050565b60005b83811015610541578082015181840152602081019050610526565b60008484015250505050565b6000601f19601f8301169050919050565b600061056982610507565b6105738185610512565b9350610583818560208601610523565b61058c8161054d565b840191505092915050565b600060208201905081810360008301526105b1818461055e565b905092915050565b600073ffffffffffffffffffffffffffffffffffffffff82169050919050565b6000819050919050565b60006105fe6105f96105f4846105b9565b6105d9565b6105b9565b9050919050565b6000610610826105e3565b9050919050565b600061062282610605565b9050919050565b61063281610617565b82525050565b600060208201905061064d6000830184610629565b92915050565b6000819050919050565b61066681610653565b811461067157600080fd5b50565b6000813590506106838161065d565b92915050565b6000819050919050565b61069c81610689565b81146106a757600080fd5b50565b6000813590506106b981610693565b92915050565b6000806000606084860312156106d8576106d7610377565b5b60006106e6868287016103a6565b93505060206106f786828701610674565b9250506040610708868287016106aa565b9150509250925092565b600082825260208201905092915050565b7f696e76616c69642073656e646572000000000000000000000000000000000000600082015250565b6000610759600e83610712565b915061076482610723565b602082019050919050565b600060208201905081810360008301526107888161074c565b9050919050565b6000806000606084860312156107a8576107a7610377565b5b60006107b686828701610674565b93505060206107c786828701610674565b92505060406107d886828701610674565b9150509250925092565b6107eb81610653565b82525050565b600060408201905061080660008301856107e2565b61081360208301846107e2565b9392505050565b7f4e487b7100000000000000000000000000000000000000000000000000000000600052602260045260246000fd5b6000600282049050600182168061086157607f821691505b6020821081036108745761087361081a565b5b50919050565b61088381610689565b82525050565b600060408201905061089e60008301856107e2565b6108ab602083018461087a565b9392505050565b6108bb81610381565b82525050565b60008190508160005260206000209050919050565b600081546108e381610849565b6108ed8186610512565b94506001821660008114610908576001811461091e57610951565b60ff198316865281151560200286019350610951565b610927856108c1565b60005b838110156109495781548189015260018201915060208101905061092a565b808801955050505b50505092915050565b6000610965826105b9565b9050919050565b6109758161095a565b82525050565b6000610986826105b9565b9050919050565b6109968161097b565b82525050565b50565b60006109ac600083610512565b91506109b78261099c565b600082019050919050565b600060c0820190506109d760008301886108b2565b81810360208301526109e981876108d6565b905081810360408301526109fd818661055e565b9050610a0c606083018561096c565b610a19608083018461098d565b81810360a0830152610a2a8161099f565b90509695505050505050565b6000602082019050610a4b600083018461087a565b9291505056fea26469706673582212201026caffcb4f5d2a08de8d8bf03e7fbb5bb6f56f3f53550894c88c7517586c2864736f6c63430008140033",
  "linkReferences": {},
  "deployedLinkReferences": {}
}