{"contracts/bridge/LayerZeroAdapter.sol":{"LayerZeroAdapter":{"abi":[{"inputs":[{"internalType":"address","name":"_endpoint","type":"address"}],"stateMutability":"nonpayable","type":"constructor"},{"anonymous":false,"inputs":[{"indexed":false,"internalType":"uint16","name":"srcChainId","type":"uint16"},{"indexed":false,"internalType":"bytes","name":"srcAddress","type":"bytes"},{"indexed":false,"internalType":"bytes","name":"payload","type":"bytes"}],"name":"MessageReceived","type":"event"},{"anonymous":false,"inputs":[{"indexed":false,"internalType":"uint16","name":"dstChainId","type":"uint16"},{"indexed":true,"internalType":"address","name":"sender","type":"address"},{"indexed":false,"internalType":"bytes","name":"payload","type":"bytes"}],"name":"MessageSent","type":"event"},{"anonymous":false,"inputs":[{"indexed":true,"internalType":"address","name":"owner","type":"address"}],"name":"OwnerUpdated","type":"event"},{"inputs":[],"name":"endpoint","outputs":[{"internalType":"contract ILayerZeroEndpointV2","name":"","type":"address"}],"stateMutability":"view","type":"function"},{"inputs":[{"internalType":"uint16","name":"dstChainId","type":"uint16"},{"internalType":"bytes","name":"dstAddress","type":"bytes"},{"internalType":"bytes","name":"payload","type":"bytes"}],"name":"estimateFees","outputs":[{"internalType":"uint256","name":"nativeFee","type":"uint256"}],"stateMutability":"view","type":"function"},{"inputs":[],"name":"owner","outputs":[{"internalType":"address","name":"","type":"address"}],"stateMutability":"view","type":"function"},{"inputs":[{"internalType":"uint16","name":"dstChainId","type":"uint16"},{"internalType":"bytes","name":"dstAddress","type":"bytes"},{"internalType":"bytes","name":"payload","type":"bytes"}],"name":"sendMessage","outputs":[],"stateMutability":"payable","type":"function"},{"inputs":[{"internalType":"address","name":"_owner","type":"address"}],"name":"setOwner","outputs":[],"stateMutability":"nonpayable","type":"function"}],"evm":{"bytecode":{"linkReferences":{},"object":"60a0346100ea57601f6106c938819003918201601f19168301916001600160401b038311848410176100ef578084926020946040528339810103126100ea57516001600160a01b038116908190036100ea5780156100b857608052600080546001600160a01b031916339081178255604051917f4ffd725fc4a22075e9ec71c59edf9c38cdeb588a91b24fc5b61388c5be41282b9080a26105c39081610106823960805181818160900152818161022f01526102e70152f35b60405162461bcd60e51b815260206004820152600a6024820152690656e64706f696e743d360b41b6044820152606490fd5b600080fd5b634e487b7160e01b600052604160045260246000fdfe60806040908082526004918236101561001757600080fd5b600091823560e01c90816313af40351461039a5750806345e380a31461025e5780635e280f111461021b5780638da5cb5b146101f05763c662cc591461005c57600080fd5b61ffff926100693661049f565b949291939790971692855161007d816104fa565b878152865161008b816104fa565b8881527f00000000000000000000000000000000000000000000000000000000000000006001600160a01b031691823b156101ec57856101318c8c9695946101228b956101128f8f906100fe90519d8e9c8d9b8c9b6365fac10960e01b8d528c015260c060248c015260c48b019161052c565b9060031996878a84030160448b015261052c565b908487830301606488015261054d565b9184830301608485015261054d565b3360a4830152039134905af180156101e25761018e575b50506101888394957fae5f3571223b64a32b18c3fbc25fe0103eea01999b47abab5a41ecdee44c798c94519384938452866020850152339684019161052c565b0390a280f35b67ffffffffffffffff8197969297116101cf5784529394506101887fae5f3571223b64a32b18c3fbc25fe0103eea01999b47abab5a41ecdee44c798c610148565b634e487b7160e01b825260418752602482fd5b85513d88823e3d90fd5b8980fd5b5034610217578160031936011261021757905490516001600160a01b039091168152602090f35b5080fd5b5034610217578160031936011261021757517f00000000000000000000000000000000000000000000000000000000000000006001600160a01b03168152602090f35b5082903461037157818161ffff6102b96102dc6102cd8861027e3661049f565b9290959397918a5195610290876104fa565b86528a519b8c9a8b9a632e312de960e01b8c5216908a015260a060248a015260a489019161052c565b90600319948588840301604489015261052c565b9184830301606485015261054d565b6084820188905203817f00000000000000000000000000000000000000000000000000000000000000006001600160a01b03165afa928315610390578493610329575b6020848451908152f35b9091809350903d8411610388575b601f8201601f191683019067ffffffffffffffff82118483101761037557508391839183528101031261037157602092505190838061031f565b8280fd5b634e487b7160e01b865260419052602485fd5b3d9150610337565b82513d86823e3d90fd5b8385849234610371576020366003190112610371576001600160a01b03823581811693919290849003610468578454928316330361043c5750821561040f57506001600160a01b031916811782557f4ffd725fc4a22075e9ec71c59edf9c38cdeb588a91b24fc5b61388c5be41282b8280a280f35b606490602086519162461bcd60e51b8352820152600760248201526606f776e65723d360cc1b6044820152fd5b602060649262461bcd60e51b835282015260096024820152682727aa2fa7aba722a960b91b6044820152fd5b8480fd5b9181601f8401121561049a5782359167ffffffffffffffff831161049a576020838186019501011161049a57565b600080fd5b90606060031983011261049a5760043561ffff8116810361049a579167ffffffffffffffff9160243583811161049a57826104dc9160040161046c565b9390939260443591821161049a576104f69160040161046c565b9091565b6020810190811067ffffffffffffffff82111761051657604052565b634e487b7160e01b600052604160045260246000fd5b908060209392818452848401376000828201840152601f01601f1916010190565b919082519283825260005b848110610579575050826000602080949584010152601f8019910116010190565b60208183018101518483018201520161055856fea26469706673582212204ba0d201c9f5f73d578a60b63079af8e7627ca8f1fe965cdd8b2cf3f09b403e964736f6c63430008180033","opcodes":"PUSH1 0xA0 CALLVALUE PUSH2 0xEA JUMPI PUSH1 0x1F PUSH2 0x6C9 CODESIZE DUP2 SWAP1 SUB SWAP2 DUP3 ADD PUSH1 0x1F NOT AND DUP4 ADD SWAP2 PUSH1 0x1 PUSH1 0x1 PUSH1 0x40 SHL SUB DUP4 GT DUP5 DUP5 LT OR PUSH2 0xEF JUMPI DUP1 DUP5 SWAP3 PUSH1 0x20 SWAP5 PUSH1 0x40 MSTORE DUP4 CODECOPY DUP2 ADD SUB SLT PUSH2 0xEA JUMPI MLOAD PUSH1 0x1 PUSH1 0x1 PUSH1 0xA0 SHL SUB DUP2 AND SWAP1 DUP2 SWAP1 SUB PUSH2 0xEA JUMPI DUP1 ISZERO PUSH2 0xB8 JUMPI PUSH1 0x80 MSTORE PUSH1 0x0 DUP1 SLOAD PUSH1 0x1 PUSH1 0x1 PUSH1 0xA0 SHL SUB NOT AND CALLER SWAP1 DUP2 OR DUP3 SSTORE PUSH1 0x40 MLOAD SWAP2 PUSH32 0x4FFD725FC4A22075E9EC71C59EDF9C38CDEB588A91B24FC5B61388C5BE41282B SWAP1 DUP1 LOG2 PUSH2 0x5C3 SWAP1 DUP2 PUSH2 0x106 DUP3 CODECOPY PUSH1 0x80 MLOAD DUP2 DUP2 DUP2 PUSH1 0x90 ADD MSTORE DUP2 DUP2 PUSH2 0x22F ADD MSTORE PUSH2 0x2E7 ADD MSTORE RETURN JUMPDEST PUSH1 0x40 MLOAD PUSH3 0x461BCD PUSH1 0xE5 SHL DUP2 MSTORE PUSH1 0x20 PUSH1 0x4 DUP3 ADD MSTORE PUSH1 0xA PUSH1 0x24 DUP3 ADD MSTORE PUSH10 0x656E64706F696E743D3 PUSH1 0xB4 SHL PUSH1 0x44 DUP3 ADD MSTORE PUSH1 0x64 SWAP1 REVERT JUMPDEST PUSH1 0x0 DUP1 REVERT JUMPDEST PUSH4 0x4E487B71 PUSH1 0xE0 SHL PUSH1 0x0 MSTORE PUSH1 0x41 PUSH1 0x4 MSTORE PUSH1 0x24 PUSH1 0x0 REVERT INVALID PUSH1 0x80 PUSH1 0x40 SWAP1 DUP1 DUP3 MSTORE PUSH1 0x4 SWAP2 DUP3 CALLDATASIZE LT ISZERO PUSH2 0x17 JUMPI PUSH1 0x0 DUP1 REVERT JUMPDEST PUSH1 0x0 SWAP2 DUP3 CALLDATALOAD PUSH1 0xE0 SHR SWAP1 DUP2 PUSH4 0x13AF4035 EQ PUSH2 0x39A JUMPI POP DUP1 PUSH4 0x45E380A3 EQ PUSH2 0x25E JUMPI DUP1 PUSH4 0x5E280F11 EQ PUSH2 0x21B JUMPI DUP1 PUSH4 0x8DA5CB5B EQ PUSH2 0x1F0 JUMPI PUSH4 0xC662CC59 EQ PUSH2 0x5C JUMPI PUSH1 0x0 DUP1 REVERT JUMPDEST PUSH2 0xFFFF SWAP3 PUSH2 0x69 CALLDATASIZE PUSH2 0x49F JUMP JUMPDEST SWAP5 SWAP3 SWAP2 SWAP4 SWAP8 SWAP1 SWAP8 AND SWAP3 DUP6 MLOAD PUSH2 0x7D DUP2 PUSH2 0x4FA JUMP JUMPDEST DUP8 DUP2 MSTORE DUP7 MLOAD PUSH2 0x8B DUP2 PUSH2 0x4FA JUMP JUMPDEST DUP9 DUP2 MSTORE PUSH32 0x0 PUSH1 0x1 PUSH1 0x1 PUSH1 0xA0 SHL SUB AND SWAP2 DUP3 EXTCODESIZE ISZERO PUSH2 0x1EC JUMPI DUP6 PUSH2 0x131 DUP13 DUP13 SWAP7 SWAP6 SWAP5 PUSH2 0x122 DUP12 SWAP6 PUSH2 0x112 DUP16 DUP16 SWAP1 PUSH2 0xFE SWAP1 MLOAD SWAP14 DUP15 SWAP13 DUP14 SWAP12 DUP13 SWAP12 PUSH4 0x65FAC109 PUSH1 0xE0 SHL DUP14 MSTORE DUP13 ADD MSTORE PUSH1 0xC0 PUSH1 0x24 DUP13 ADD MSTORE PUSH1 0xC4 DUP12 ADD SWAP2 PUSH2 0x52C JUMP JUMPDEST SWAP1 PUSH1 0x3 NOT SWAP7 DUP8 DUP11 DUP5 SUB ADD PUSH1 0x44 DUP12 ADD MSTORE PUSH2 0x52C JUMP JUMPDEST SWAP1 DUP5 DUP8 DUP4 SUB ADD PUSH1 0x64 DUP9 ADD MSTORE PUSH2 0x54D JUMP JUMPDEST SWAP2 DUP5 DUP4 SUB ADD PUSH1 0x84 DUP6 ADD MSTORE PUSH2 0x54D JUMP JUMPDEST CALLER PUSH1 0xA4 DUP4 ADD MSTORE SUB SWAP2 CALLVALUE SWAP1 GAS CALL DUP1 ISZERO PUSH2 0x1E2 JUMPI PUSH2 0x18E JUMPI JUMPDEST POP POP PUSH2 0x188 DUP4 SWAP5 SWAP6 PUSH32 0xAE5F3571223B64A32B18C3FBC25FE0103EEA01999B47ABAB5A41ECDEE44C798C SWAP5 MLOAD SWAP4 DUP5 SWAP4 DUP5 MSTORE DUP7 PUSH1 0x20 DUP6 ADD MSTORE CALLER SWAP7 DUP5 ADD SWAP2 PUSH2 0x52C JUMP JUMPDEST SUB SWAP1 LOG2 DUP1 RETURN JUMPDEST PUSH8 0xFFFFFFFFFFFFFFFF DUP2 SWAP8 SWAP7 SWAP3 SWAP8 GT PUSH2 0x1CF JUMPI DUP5 MSTORE SWAP4 SWAP5 POP PUSH2 0x188 PUSH32 0xAE5F3571223B64A32B18C3FBC25FE0103EEA01999B47ABAB5A41ECDEE44C798C PUSH2 0x148 JUMP JUMPDEST PUSH4 0x4E487B71 PUSH1 0xE0 SHL DUP3 MSTORE PUSH1 0x41 DUP8 MSTORE PUSH1 0x24 DUP3 REVERT JUMPDEST DUP6 MLOAD RETURNDATASIZE DUP9 DUP3 RETURNDATACOPY RETURNDATASIZE SWAP1 REVERT JUMPDEST DUP10 DUP1 REVERT JUMPDEST POP CALLVALUE PUSH2 0x217 JUMPI DUP2 PUSH1 0x3 NOT CALLDATASIZE ADD SLT PUSH2 0x217 JUMPI SWAP1 SLOAD SWAP1 MLOAD PUSH1 0x1 PUSH1 0x1 PUSH1 0xA0 SHL SUB SWAP1 SWAP2 AND DUP2 MSTORE PUSH1 0x20 SWAP1 RETURN JUMPDEST POP DUP1 REVERT JUMPDEST POP CALLVALUE PUSH2 0x217 JUMPI DUP2 PUSH1 0x3 NOT CALLDATASIZE ADD SLT PUSH2 0x217 JUMPI MLOAD PUSH32 0x0 PUSH1 0x1 PUSH1 0x1 PUSH1 0xA0 SHL SUB AND DUP2 MSTORE PUSH1 0x20 SWAP1 RETURN JUMPDEST POP DUP3 SWAP1 CALLVALUE PUSH2 0x371 JUMPI DUP2 DUP2 PUSH2 0xFFFF PUSH2 0x2B9 PUSH2 0x2DC PUSH2 0x2CD DUP9 PUSH2 0x27E CALLDATASIZE PUSH2 0x49F JUMP JUMPDEST SWAP3 SWAP1 SWAP6 SWAP4 SWAP8 SWAP2 DUP11 MLOAD SWAP6 PUSH2 0x290 DUP8 PUSH2 0x4FA JUMP JUMPDEST DUP7 MSTORE DUP11 MLOAD SWAP12 DUP13 SWAP11 DUP12 SWAP11 PUSH4 0x2E312DE9 PUSH1 0xE0 SHL DUP13 MSTORE AND SWAP1 DUP11 ADD MSTORE PUSH1 0xA0 PUSH1 0x24 DUP11 ADD MSTORE PUSH1 0xA4 DUP10 ADD SWAP2 PUSH2 0x52C JUMP JUMPDEST SWAP1 PUSH1 0x3 NOT SWAP5 DUP6 DUP9 DUP5 SUB ADD PUSH1 0x44 DUP10 ADD MSTORE PUSH2 0x52C JUMP JUMPDEST SWAP2 DUP5 DUP4 SUB ADD PUSH1 0x64 DUP6 ADD MSTORE PUSH2 0x54D JUMP JUMPDEST PUSH1 0x84 DUP3 ADD DUP9 SWAP1 MSTORE SUB DUP2 PUSH32 0x0 PUSH1 0x1 PUSH1 0x1 PUSH1 0xA0 SHL SUB AND GAS STATICCALL SWAP3 DUP4 ISZERO PUSH2 0x390 JUMPI DUP5 SWAP4 PUSH2 0x329 JUMPI JUMPDEST PUSH1 0x20 DUP5 DUP5 MLOAD SWAP1 DUP2 MSTORE RETURN JUMPDEST SWAP1 SWAP2 DUP1 SWAP4 POP SWAP1 RETURNDATASIZE DUP5 GT PUSH2 0x388 JUMPI JUMPDEST PUSH1 0x1F DUP3 ADD PUSH1 0x1F NOT AND DUP4 ADD SWAP1 PUSH8 0xFFFFFFFFFFFFFFFF DUP3 GT DUP5 DUP4 LT OR PUSH2 0x375 JUMPI POP DUP4 SWAP2 DUP4 SWAP2 DUP4 MSTORE DUP2 ADD SUB SLT PUSH2 0x371 JUMPI PUSH1 0x20 SWAP3 POP MLOAD SWAP1 DUP4 DUP1 PUSH2 0x31F JUMP JUMPDEST DUP3 DUP1 REVERT JUMPDEST PUSH4 0x4E487B71 PUSH1 0xE0 SHL DUP7 MSTORE PUSH1 0x41 SWAP1 MSTORE PUSH1 0x24 DUP6 REVERT JUMPDEST RETURNDATASIZE SWAP2 POP PUSH2 0x337 JUMP JUMPDEST DUP3 MLOAD RETURNDATASIZE DUP7 DUP3 RETURNDATACOPY RETURNDATASIZE SWAP1 REVERT JUMPDEST DUP4 DUP6 DUP5 SWAP3 CALLVALUE PUSH2 0x371 JUMPI PUSH1 0x20 CALLDATASIZE PUSH1 0x3 NOT ADD SLT PUSH2 0x371 JUMPI PUSH1 0x1 PUSH1 0x1 PUSH1 0xA0 SHL SUB DUP3 CALLDATALOAD DUP2 DUP2 AND SWAP4 SWAP2 SWAP3 SWAP1 DUP5 SWAP1 SUB PUSH2 0x468 JUMPI DUP5 SLOAD SWAP3 DUP4 AND CALLER SUB PUSH2 0x43C JUMPI POP DUP3 ISZERO PUSH2 0x40F JUMPI POP PUSH1 0x1 PUSH1 0x1 PUSH1 0xA0 SHL SUB NOT AND DUP2 OR DUP3 SSTORE PUSH32 0x4FFD725FC4A22075E9EC71C59EDF9C38CDEB588A91B24FC5B61388C5BE41282B DUP3 DUP1 LOG2 DUP1 RETURN JUMPDEST PUSH1 0x64 SWAP1 PUSH1 0x20 DUP7 MLOAD SWAP2 PUSH3 0x461BCD PUSH1 0xE5 SHL DUP4 MSTORE DUP3 ADD MSTORE PUSH1 0x7 PUSH1 0x24 DUP3 ADD MSTORE PUSH7 0x6F776E65723D3 PUSH1 0xCC SHL PUSH1 0x44 DUP3 ADD MSTORE REVERT JUMPDEST PUSH1 0x20 PUSH1 0x64 SWAP3 PUSH3 0x461BCD PUSH1 0xE5 SHL DUP4 MSTORE DUP3 ADD MSTORE PUSH1 0x9 PUSH1 0x24 DUP3 ADD MSTORE PUSH9 0x2727AA2FA7ABA722A9 PUSH1 0xB9 SHL PUSH1 0x44 DUP3 ADD MSTORE REVERT JUMPDEST DUP5 DUP1 REVERT JUMPDEST SWAP2 DUP2 PUSH1 0x1F DUP5 ADD SLT ISZERO PUSH2 0x49A JUMPI DUP3 CALLDATALOAD SWAP2 PUSH8 0xFFFFFFFFFFFFFFFF DUP4 GT PUSH2 0x49A JUMPI PUSH1 0x20 DUP4 DUP2 DUP7 ADD SWAP6 ADD ADD GT PUSH2 0x49A JUMPI JUMP JUMPDEST PUSH1 0x0 DUP1 REVERT JUMPDEST SWAP1 PUSH1 0x60 PUSH1 0x3 NOT DUP4 ADD SLT PUSH2 0x49A JUMPI PUSH1 0x4 CALLDATALOAD PUSH2 0xFFFF DUP2 AND DUP2 SUB PUSH2 0x49A JUMPI SWAP2 PUSH8 0xFFFFFFFFFFFFFFFF SWAP2 PUSH1 0x24 CALLDATALOAD DUP4 DUP2 GT PUSH2 0x49A JUMPI DUP3 PUSH2 0x4DC SWAP2 PUSH1 0x4 ADD PUSH2 0x46C JUMP JUMPDEST SWAP4 SWAP1 SWAP4 SWAP3 PUSH1 0x44 CALLDATALOAD SWAP2 DUP3 GT PUSH2 0x49A JUMPI PUSH2 0x4F6 SWAP2 PUSH1 0x4 ADD PUSH2 0x46C JUMP JUMPDEST SWAP1 SWAP2 JUMP JUMPDEST PUSH1 0x20 DUP2 ADD SWAP1 DUP2 LT PUSH8 0xFFFFFFFFFFFFFFFF DUP3 GT OR PUSH2 0x516 JUMPI PUSH1 0x40 MSTORE JUMP JUMPDEST PUSH4 0x4E487B71 PUSH1 0xE0 SHL PUSH1 0x0 MSTORE PUSH1 0x41 PUSH1 0x4 MSTORE PUSH1 0x24 PUSH1 0x0 REVERT JUMPDEST SWAP1 DUP1 PUSH1 0x20 SWAP4 SWAP3 DUP2 DUP5 MSTORE DUP5 DUP5 ADD CALLDATACOPY PUSH1 0x0 DUP3 DUP3 ADD DUP5 ADD MSTORE PUSH1 0x1F ADD PUSH1 0x1F NOT AND ADD ADD SWAP1 JUMP JUMPDEST SWAP2 SWAP1 DUP3 MLOAD SWAP3 DUP4 DUP3 MSTORE PUSH1 0x0 JUMPDEST DUP5 DUP2 LT PUSH2 0x579 JUMPI POP POP DUP3 PUSH1 0x0 PUSH1 0x20 DUP1 SWAP5 SWAP6 DUP5 ADD ADD MSTORE PUSH1 0x1F DUP1 NOT SWAP2 ADD AND ADD ADD SWAP1 JUMP JUMPDEST PUSH1 0x20 DUP2 DUP4 ADD DUP2 ADD MLOAD DUP5 DUP4 ADD DUP3 ADD MSTORE ADD PUSH2 0x558 JUMP INVALID LOG2 PUSH5 0x6970667358 0x22 SLT KECCAK256 0x4B LOG0 0xD2 ADD 0xC9 CREATE2 0xF7 RETURNDATASIZE JUMPI DUP11 PUSH1 0xB6 ADDRESS PUSH26 0xAF8E7627CA8F1FE965CDD8B2CF3F09B403E964736F6C63430008 XOR STOP CALLER "},"methodIdentifiers":{"endpoint()":"5e280f11","estimateFees(uint16,bytes,bytes)":"45e380a3","owner()":"8da5cb5b","sendMessage(uint16,bytes,bytes)":"c662cc59","setOwner(address)":"13af4035"}}}}}