{"contracts/governance/GovernanceExecutor.sol":{"GovernanceExecutor":{"abi":[{"inputs":[{"internalType":"address","name":"_voteToken","type":"address"},{"internalType":"address","name":"_timelock","type":"address"},{"internalType":"address","name":"_rewardVault","type":"address"}],"stateMutability":"nonpayable","type":"constructor"},{"anonymous":false,"inputs":[{"indexed":true,"internalType":"address","name":"owner","type":"address"}],"name":"OwnerUpdated","type":"event"},{"anonymous":false,"inputs":[{"indexed":true,"internalType":"uint256","name":"proposalId","type":"uint256"},{"indexed":false,"internalType":"bytes32","name":"proposalHash","type":"bytes32"}],"name":"ProposalFinalized","type":"event"},{"anonymous":false,"inputs":[{"indexed":true,"internalType":"address","name":"rewardVault","type":"address"}],"name":"RewardVaultUpdated","type":"event"},{"anonymous":false,"inputs":[{"indexed":true,"internalType":"address","name":"timelock","type":"address"}],"name":"TimelockUpdated","type":"event"},{"anonymous":false,"inputs":[{"indexed":true,"internalType":"uint256","name":"proposalId","type":"uint256"},{"indexed":false,"internalType":"uint256","name":"forVotes","type":"uint256"},{"indexed":false,"internalType":"uint256","name":"againstVotes","type":"uint256"}],"name":"VoteMirrored","type":"event"},{"inputs":[{"internalType":"bytes32","name":"id","type":"bytes32"},{"internalType":"address","name":"target","type":"address"},{"internalType":"uint256","name":"value","type":"uint256"},{"internalType":"bytes","name":"data","type":"bytes"}],"name":"executeTimelock","outputs":[],"stateMutability":"payable","type":"function"},{"inputs":[{"internalType":"bytes32","name":"proposalHash","type":"bytes32"},{"internalType":"uint256","name":"proposalId","type":"uint256"}],"name":"onProposal","outputs":[],"stateMutability":"nonpayable","type":"function"},{"inputs":[{"internalType":"uint256","name":"proposalId","type":"uint256"},{"internalType":"uint256","name":"forVotes","type":"uint256"},{"internalType":"uint256","name":"againstVotes","type":"uint256"}],"name":"onVoteMirror","outputs":[],"stateMutability":"nonpayable","type":"function"},{"inputs":[],"name":"owner","outputs":[{"internalType":"address","name":"","type":"address"}],"stateMutability":"view","type":"function"},{"inputs":[],"name":"rewardVault","outputs":[{"internalType":"address","name":"","type":"address"}],"stateMutability":"view","type":"function"},{"inputs":[{"internalType":"bytes32","name":"id","type":"bytes32"},{"internalType":"address","name":"target","type":"address"},{"internalType":"uint256","name":"value","type":"uint256"},{"internalType":"bytes","name":"data","type":"bytes"},{"internalType":"uint256","name":"delay","type":"uint256"}],"name":"scheduleTimelock","outputs":[],"stateMutability":"nonpayable","type":"function"},{"inputs":[{"internalType":"address","name":"_owner","type":"address"}],"name":"setOwner","outputs":[],"stateMutability":"nonpayable","type":"function"},{"inputs":[{"internalType":"address","name":"_vault","type":"address"}],"name":"setRewardVault","outputs":[],"stateMutability":"nonpayable","type":"function"},{"inputs":[{"internalType":"address","name":"_timelock","type":"address"}],"name":"setTimelock","outputs":[],"stateMutability":"nonpayable","type":"function"},{"inputs":[{"internalType":"uint256","name":"","type":"uint256"}],"name":"tallies","outputs":[{"internalType":"uint256","name":"forVotes","type":"uint256"},{"internalType":"uint256","name":"againstVotes","type":"uint256"}],"stateMutability":"view","type":"function"},{"inputs":[],"name":"timelock","outputs":[{"internalType":"contract ITimelockControllerLike","name":"","type":"address"}],"stateMutability":"view","type":"function"},{"inputs":[{"internalType":"address","name":"to","type":"address"},{"internalType":"uint256","name":"amount","type":"uint256"}],"name":"unlockRewards","outputs":[],"stateMutability":"nonpayable","type":"function"},{"inputs":[],"name":"voteToken","outputs":[{"internalType":"address","name":"","type":"address"}],"stateMutability":"view","type":"function"}],"evm":{"bytecode":{"linkReferences":{},"object":"6080346100d157601f6108f038819003918201601f19168301916001600160401b038311848410176100d6578084926060946040528339810103126100d157610047816100ec565b906100606040610059602084016100ec565b92016100ec565b60018060a01b0319923384600054161760005560018060a01b0392838092168560015416176001551683600254161760025516906003541617600355604051337f4ffd725fc4a22075e9ec71c59edf9c38cdeb588a91b24fc5b61388c5be41282b600080a26107ef90816101018239f35b600080fd5b634e487b7160e01b600052604160045260246000fd5b51906001600160a01b03821682036100d15756fe6080604081815260048036101561001557600080fd5b600092833560e01c90816302f9875c146106935750806313af4035146105f3578063160d66ae146105ca5780631a32b2371461059a578063290b33aa146104dd5780633a2c6777146104b45780638125dd10146104405780638da5cb5b146104185780638ea74bfd146102d5578063a433e82e14610238578063bdacb303146101c4578063d33219b4146101975763d9c6f9e7146100b257600080fd5b8291346101935760a0366003190112610193576100cd6106f2565b9160643567ffffffffffffffff811161018f576100ed9036908301610708565b855490946001600160a01b0392916101089084163314610736565b826002541691823b1561018b57879461015486928851998a978896879563b2f49b3360e01b8752803590870152166024850152604435604485015260a0606485015260a4840191610798565b608435608483015203925af1908115610182575061016f5750f35b6101789061076e565b61017f5780f35b80fd5b513d84823e3d90fd5b8780fd5b8480fd5b5050fd5b5050346101c057816003193601126101c05760025490516001600160a01b039091168152602090f35b5080fd5b833461017f57602036600319011261017f576101de6106d7565b81546001600160a01b0391906101f79083163314610736565b16806bffffffffffffffffffffffff60a01b60025416176002557fc046b9e8f0cd9b70a3b838962e9c229277fbb7abee68ea0fad4acf2898ed2ca98280a280f35b509190346101c05760603660031901126101c057823590602435604435825183810181811067ffffffffffffffff8211176102c0577f98009c8637dc965cbc9df1c7fb159da7e11b348a7ce99558848cdf15ef7db56095969760019186528483526020830190848252888a52602052858920925183555191015582519182526020820152a280f35b604188634e487b7160e01b6000525260246000fd5b5090346104145780600319360112610414576102ef6106d7565b8354602492916001600160a01b039161030b9083163314610736565b816003541690835192602084019163a9059cbb60e01b835216858401528435604484015260448352608083019267ffffffffffffffff938181108582111761040057855251879283929083905af1903d156103fa573d8181116103e857835191601f8201601f19908116603f01168301908111838210176103d457845281528560203d92013e5b1561039b578380f35b606492916020601492519362461bcd60e51b855284015282015273149155d0549117d514905394d1915497d190525360621b6044820152fd5b85604188634e487b7160e01b600052526000fd5b634e487b7160e01b8752604186528487fd5b50610392565b86604189634e487b7160e01b600052526000fd5b8280fd5b5050346101c057816003193601126101c057905490516001600160a01b039091168152602090f35b833461017f57602036600319011261017f5761045a6106d7565b81546001600160a01b0391906104739083163314610736565b16806bffffffffffffffffffffffff60a01b60035416176003557f176fa4a8779fa7a62f55171df9681dcdcc47129f40852b980f7fb1e287569ca18280a280f35b5050346101c057816003193601126101c05760035490516001600160a01b039091168152602090f35b5090608036600319011261041457826104f46106f2565b9260643567ffffffffffffffff8111610414576105149036908301610708565b9460018060a01b039261052b848654163314610736565b836002541692833b15610596576105749087519889968795869563fce670fd60e01b87528035908701521660248501526044356044850152608060648501526084840191610798565b039134905af1908115610182575061058a575080f35b6105939061076e565b80f35b8580fd5b50346104145760203660031901126104145791828293358252602052206001815491015482519182526020820152f35b5050346101c057816003193601126101c05760015490516001600160a01b039091168152602090f35b508290346101c05760203660031901126101c05761060f6106d7565b8254906001600160a01b03906106283383851614610736565b1691821561066657506001600160a01b031916811782557f4ffd725fc4a22075e9ec71c59edf9c38cdeb588a91b24fc5b61388c5be41282b8280a280f35b606490602086519162461bcd60e51b8352820152600760248201526606f776e65723d360cc1b6044820152fd5b929050346106d357366003190112610414573581527ff257e92ef4a8fc0160d45d7dd26b63eb640d66f9606ea581fe295301ca58b7d2602060243592a280f35b8380fd5b600435906001600160a01b03821682036106ed57565b600080fd5b602435906001600160a01b03821682036106ed57565b9181601f840112156106ed5782359167ffffffffffffffff83116106ed57602083818601950101116106ed57565b1561073d57565b60405162461bcd60e51b81526020600482015260096024820152682727aa2fa7aba722a960b91b6044820152606490fd5b67ffffffffffffffff811161078257604052565b634e487b7160e01b600052604160045260246000fd5b908060209392818452848401376000828201840152601f01601f191601019056fea2646970667358221220a38e2e7971efbb7bf48dc54266054ab8046244e1e8d797536c3729bfa09cd59b64736f6c63430008180033","opcodes":"PUSH1 0x80 CALLVALUE PUSH2 0xD1 JUMPI PUSH1 0x1F PUSH2 0x8F0 CODESIZE DUP2 SWAP1 SUB SWAP2 DUP3 ADD PUSH1 0x1F NOT AND DUP4 ADD SWAP2 PUSH1 0x1 PUSH1 0x1 PUSH1 0x40 SHL SUB DUP4 GT DUP5 DUP5 LT OR PUSH2 0xD6 JUMPI DUP1 DUP5 SWAP3 PUSH1 0x60 SWAP5 PUSH1 0x40 MSTORE DUP4 CODECOPY DUP2 ADD SUB SLT PUSH2 0xD1 JUMPI PUSH2 0x47 DUP2 PUSH2 0xEC JUMP JUMPDEST SWAP1 PUSH2 0x60 PUSH1 0x40 PUSH2 0x59 PUSH1 0x20 DUP5 ADD PUSH2 0xEC JUMP JUMPDEST SWAP3 ADD PUSH2 0xEC JUMP JUMPDEST PUSH1 0x1 DUP1 PUSH1 0xA0 SHL SUB NOT SWAP3 CALLER DUP5 PUSH1 0x0 SLOAD AND OR PUSH1 0x0 SSTORE PUSH1 0x1 DUP1 PUSH1 0xA0 SHL SUB SWAP3 DUP4 DUP1 SWAP3 AND DUP6 PUSH1 0x1 SLOAD AND OR PUSH1 0x1 SSTORE AND DUP4 PUSH1 0x2 SLOAD AND OR PUSH1 0x2 SSTORE AND SWAP1 PUSH1 0x3 SLOAD AND OR PUSH1 0x3 SSTORE PUSH1 0x40 MLOAD CALLER PUSH32 0x4FFD725FC4A22075E9EC71C59EDF9C38CDEB588A91B24FC5B61388C5BE41282B PUSH1 0x0 DUP1 LOG2 PUSH2 0x7EF SWAP1 DUP2 PUSH2 0x101 DUP3 CODECOPY RETURN JUMPDEST PUSH1 0x0 DUP1 REVERT JUMPDEST PUSH4 0x4E487B71 PUSH1 0xE0 SHL PUSH1 0x0 MSTORE PUSH1 0x41 PUSH1 0x4 MSTORE PUSH1 0x24 PUSH1 0x0 REVERT JUMPDEST MLOAD SWAP1 PUSH1 0x1 PUSH1 0x1 PUSH1 0xA0 SHL SUB DUP3 AND DUP3 SUB PUSH2 0xD1 JUMPI JUMP INVALID PUSH1 0x80 PUSH1 0x40 DUP2 DUP2 MSTORE PUSH1 0x4 DUP1 CALLDATASIZE LT ISZERO PUSH2 0x15 JUMPI PUSH1 0x0 DUP1 REVERT JUMPDEST PUSH1 0x0 SWAP3 DUP4 CALLDATALOAD PUSH1 0xE0 SHR SWAP1 DUP2 PUSH4 0x2F9875C EQ PUSH2 0x693 JUMPI POP DUP1 PUSH4 0x13AF4035 EQ PUSH2 0x5F3 JUMPI DUP1 PUSH4 0x160D66AE EQ PUSH2 0x5CA JUMPI DUP1 PUSH4 0x1A32B237 EQ PUSH2 0x59A JUMPI DUP1 PUSH4 0x290B33AA EQ PUSH2 0x4DD JUMPI DUP1 PUSH4 0x3A2C6777 EQ PUSH2 0x4B4 JUMPI DUP1 PUSH4 0x8125DD10 EQ PUSH2 0x440 JUMPI DUP1 PUSH4 0x8DA5CB5B EQ PUSH2 0x418 JUMPI DUP1 PUSH4 0x8EA74BFD EQ PUSH2 0x2D5 JUMPI DUP1 PUSH4 0xA433E82E EQ PUSH2 0x238 JUMPI DUP1 PUSH4 0xBDACB303 EQ PUSH2 0x1C4 JUMPI DUP1 PUSH4 0xD33219B4 EQ PUSH2 0x197 JUMPI PUSH4 0xD9C6F9E7 EQ PUSH2 0xB2 JUMPI PUSH1 0x0 DUP1 REVERT JUMPDEST DUP3 SWAP2 CALLVALUE PUSH2 0x193 JUMPI PUSH1 0xA0 CALLDATASIZE PUSH1 0x3 NOT ADD SLT PUSH2 0x193 JUMPI PUSH2 0xCD PUSH2 0x6F2 JUMP JUMPDEST SWAP2 PUSH1 0x64 CALLDATALOAD PUSH8 0xFFFFFFFFFFFFFFFF DUP2 GT PUSH2 0x18F JUMPI PUSH2 0xED SWAP1 CALLDATASIZE SWAP1 DUP4 ADD PUSH2 0x708 JUMP JUMPDEST DUP6 SLOAD SWAP1 SWAP5 PUSH1 0x1 PUSH1 0x1 PUSH1 0xA0 SHL SUB SWAP3 SWAP2 PUSH2 0x108 SWAP1 DUP5 AND CALLER EQ PUSH2 0x736 JUMP JUMPDEST DUP3 PUSH1 0x2 SLOAD AND SWAP2 DUP3 EXTCODESIZE ISZERO PUSH2 0x18B JUMPI DUP8 SWAP5 PUSH2 0x154 DUP7 SWAP3 DUP9 MLOAD SWAP10 DUP11 SWAP8 DUP9 SWAP7 DUP8 SWAP6 PUSH4 0xB2F49B33 PUSH1 0xE0 SHL DUP8 MSTORE DUP1 CALLDATALOAD SWAP1 DUP8 ADD MSTORE AND PUSH1 0x24 DUP6 ADD MSTORE PUSH1 0x44 CALLDATALOAD PUSH1 0x44 DUP6 ADD MSTORE PUSH1 0xA0 PUSH1 0x64 DUP6 ADD MSTORE PUSH1 0xA4 DUP5 ADD SWAP2 PUSH2 0x798 JUMP JUMPDEST PUSH1 0x84 CALLDATALOAD PUSH1 0x84 DUP4 ADD MSTORE SUB SWAP3 GAS CALL SWAP1 DUP2 ISZERO PUSH2 0x182 JUMPI POP PUSH2 0x16F JUMPI POP RETURN JUMPDEST PUSH2 0x178 SWAP1 PUSH2 0x76E JUMP JUMPDEST PUSH2 0x17F JUMPI DUP1 RETURN JUMPDEST DUP1 REVERT JUMPDEST MLOAD RETURNDATASIZE DUP5 DUP3 RETURNDATACOPY RETURNDATASIZE SWAP1 REVERT JUMPDEST DUP8 DUP1 REVERT JUMPDEST DUP5 DUP1 REVERT JUMPDEST POP POP REVERT JUMPDEST POP POP CALLVALUE PUSH2 0x1C0 JUMPI DUP2 PUSH1 0x3 NOT CALLDATASIZE ADD SLT PUSH2 0x1C0 JUMPI PUSH1 0x2 SLOAD SWAP1 MLOAD PUSH1 0x1 PUSH1 0x1 PUSH1 0xA0 SHL SUB SWAP1 SWAP2 AND DUP2 MSTORE PUSH1 0x20 SWAP1 RETURN JUMPDEST POP DUP1 REVERT JUMPDEST DUP4 CALLVALUE PUSH2 0x17F JUMPI PUSH1 0x20 CALLDATASIZE PUSH1 0x3 NOT ADD SLT PUSH2 0x17F JUMPI PUSH2 0x1DE PUSH2 0x6D7 JUMP JUMPDEST DUP2 SLOAD PUSH1 0x1 PUSH1 0x1 PUSH1 0xA0 SHL SUB SWAP2 SWAP1 PUSH2 0x1F7 SWAP1 DUP4 AND CALLER EQ PUSH2 0x736 JUMP JUMPDEST AND DUP1 PUSH12 0xFFFFFFFFFFFFFFFFFFFFFFFF PUSH1 0xA0 SHL PUSH1 0x2 SLOAD AND OR PUSH1 0x2 SSTORE PUSH32 0xC046B9E8F0CD9B70A3B838962E9C229277FBB7ABEE68EA0FAD4ACF2898ED2CA9 DUP3 DUP1 LOG2 DUP1 RETURN JUMPDEST POP SWAP2 SWAP1 CALLVALUE PUSH2 0x1C0 JUMPI PUSH1 0x60 CALLDATASIZE PUSH1 0x3 NOT ADD SLT PUSH2 0x1C0 JUMPI DUP3 CALLDATALOAD SWAP1 PUSH1 0x24 CALLDATALOAD PUSH1 0x44 CALLDATALOAD DUP3 MLOAD DUP4 DUP2 ADD DUP2 DUP2 LT PUSH8 0xFFFFFFFFFFFFFFFF DUP3 GT OR PUSH2 0x2C0 JUMPI PUSH32 0x98009C8637DC965CBC9DF1C7FB159DA7E11B348A7CE99558848CDF15EF7DB560 SWAP6 SWAP7 SWAP8 PUSH1 0x1 SWAP2 DUP7 MSTORE DUP5 DUP4 MSTORE PUSH1 0x20 DUP4 ADD SWAP1 DUP5 DUP3 MSTORE DUP9 DUP11 MSTORE PUSH1 0x20 MSTORE DUP6 DUP10 KECCAK256 SWAP3 MLOAD DUP4 SSTORE MLOAD SWAP2 ADD SSTORE DUP3 MLOAD SWAP2 DUP3 MSTORE PUSH1 0x20 DUP3 ADD MSTORE LOG2 DUP1 RETURN JUMPDEST PUSH1 0x41 DUP9 PUSH4 0x4E487B71 PUSH1 0xE0 SHL PUSH1 0x0 MSTORE MSTORE PUSH1 0x24 PUSH1 0x0 REVERT JUMPDEST POP SWAP1 CALLVALUE PUSH2 0x414 JUMPI DUP1 PUSH1 0x3 NOT CALLDATASIZE ADD SLT PUSH2 0x414 JUMPI PUSH2 0x2EF PUSH2 0x6D7 JUMP JUMPDEST DUP4 SLOAD PUSH1 0x24 SWAP3 SWAP2 PUSH1 0x1 PUSH1 0x1 PUSH1 0xA0 SHL SUB SWAP2 PUSH2 0x30B SWAP1 DUP4 AND CALLER EQ PUSH2 0x736 JUMP JUMPDEST DUP2 PUSH1 0x3 SLOAD AND SWAP1 DUP4 MLOAD SWAP3 PUSH1 0x20 DUP5 ADD SWAP2 PUSH4 0xA9059CBB PUSH1 0xE0 SHL DUP4 MSTORE AND DUP6 DUP5 ADD MSTORE DUP5 CALLDATALOAD PUSH1 0x44 DUP5 ADD MSTORE PUSH1 0x44 DUP4 MSTORE PUSH1 0x80 DUP4 ADD SWAP3 PUSH8 0xFFFFFFFFFFFFFFFF SWAP4 DUP2 DUP2 LT DUP6 DUP3 GT OR PUSH2 0x400 JUMPI DUP6 MSTORE MLOAD DUP8 SWAP3 DUP4 SWAP3 SWAP1 DUP4 SWAP1 GAS CALL SWAP1 RETURNDATASIZE ISZERO PUSH2 0x3FA JUMPI RETURNDATASIZE DUP2 DUP2 GT PUSH2 0x3E8 JUMPI DUP4 MLOAD SWAP2 PUSH1 0x1F DUP3 ADD PUSH1 0x1F NOT SWAP1 DUP2 AND PUSH1 0x3F ADD AND DUP4 ADD SWAP1 DUP2 GT DUP4 DUP3 LT OR PUSH2 0x3D4 JUMPI DUP5 MSTORE DUP2 MSTORE DUP6 PUSH1 0x20 RETURNDATASIZE SWAP3 ADD RETURNDATACOPY JUMPDEST ISZERO PUSH2 0x39B JUMPI DUP4 DUP1 RETURN JUMPDEST PUSH1 0x64 SWAP3 SWAP2 PUSH1 0x20 PUSH1 0x14 SWAP3 MLOAD SWAP4 PUSH3 0x461BCD PUSH1 0xE5 SHL DUP6 MSTORE DUP5 ADD MSTORE DUP3 ADD MSTORE PUSH20 0x149155D0549117D514905394D1915497D1905253 PUSH1 0x62 SHL PUSH1 0x44 DUP3 ADD MSTORE REVERT JUMPDEST DUP6 PUSH1 0x41 DUP9 PUSH4 0x4E487B71 PUSH1 0xE0 SHL PUSH1 0x0 MSTORE MSTORE PUSH1 0x0 REVERT JUMPDEST PUSH4 0x4E487B71 PUSH1 0xE0 SHL DUP8 MSTORE PUSH1 0x41 DUP7 MSTORE DUP5 DUP8 REVERT JUMPDEST POP PUSH2 0x392 JUMP JUMPDEST DUP7 PUSH1 0x41 DUP10 PUSH4 0x4E487B71 PUSH1 0xE0 SHL PUSH1 0x0 MSTORE MSTORE PUSH1 0x0 REVERT JUMPDEST DUP3 DUP1 REVERT JUMPDEST POP POP CALLVALUE PUSH2 0x1C0 JUMPI DUP2 PUSH1 0x3 NOT CALLDATASIZE ADD SLT PUSH2 0x1C0 JUMPI SWAP1 SLOAD SWAP1 MLOAD PUSH1 0x1 PUSH1 0x1 PUSH1 0xA0 SHL SUB SWAP1 SWAP2 AND DUP2 MSTORE PUSH1 0x20 SWAP1 RETURN JUMPDEST DUP4 CALLVALUE PUSH2 0x17F JUMPI PUSH1 0x20 CALLDATASIZE PUSH1 0x3 NOT ADD SLT PUSH2 0x17F JUMPI PUSH2 0x45A PUSH2 0x6D7 JUMP JUMPDEST DUP2 SLOAD PUSH1 0x1 PUSH1 0x1 PUSH1 0xA0 SHL SUB SWAP2 SWAP1 PUSH2 0x473 SWAP1 DUP4 AND CALLER EQ PUSH2 0x736 JUMP JUMPDEST AND DUP1 PUSH12 0xFFFFFFFFFFFFFFFFFFFFFFFF PUSH1 0xA0 SHL PUSH1 0x3 SLOAD AND OR PUSH1 0x3 SSTORE PUSH32 0x176FA4A8779FA7A62F55171DF9681DCDCC47129F40852B980F7FB1E287569CA1 DUP3 DUP1 LOG2 DUP1 RETURN JUMPDEST POP POP CALLVALUE PUSH2 0x1C0 JUMPI DUP2 PUSH1 0x3 NOT CALLDATASIZE ADD SLT PUSH2 0x1C0 JUMPI PUSH1 0x3 SLOAD SWAP1 MLOAD PUSH1 0x1 PUSH1 0x1 PUSH1 0xA0 SHL SUB SWAP1 SWAP2 AND DUP2 MSTORE PUSH1 0x20 SWAP1 RETURN JUMPDEST POP SWAP1 PUSH1 0x80 CALLDATASIZE PUSH1 0x3 NOT ADD SLT PUSH2 0x414 JUMPI DUP3 PUSH2 0x4F4 PUSH2 0x6F2 JUMP JUMPDEST SWAP3 PUSH1 0x64 CALLDATALOAD PUSH8 0xFFFFFFFFFFFFFFFF DUP2 GT PUSH2 0x414 JUMPI PUSH2 0x514 SWAP1 CALLDATASIZE SWAP1 DUP4 ADD PUSH2 0x708 JUMP JUMPDEST SWAP5 PUSH1 0x1 DUP1 PUSH1 0xA0 SHL SUB SWAP3 PUSH2 0x52B DUP5 DUP7 SLOAD AND CALLER EQ PUSH2 0x736 JUMP JUMPDEST DUP4 PUSH1 0x2 SLOAD AND SWAP3 DUP4 EXTCODESIZE ISZERO PUSH2 0x596 JUMPI PUSH2 0x574 SWAP1 DUP8 MLOAD SWAP9 DUP10 SWAP7 DUP8 SWAP6 DUP7 SWAP6 PUSH4 0xFCE670FD PUSH1 0xE0 SHL DUP8 MSTORE DUP1 CALLDATALOAD SWAP1 DUP8 ADD MSTORE AND PUSH1 0x24 DUP6 ADD MSTORE PUSH1 0x44 CALLDATALOAD PUSH1 0x44 DUP6 ADD MSTORE PUSH1 0x80 PUSH1 0x64 DUP6 ADD MSTORE PUSH1 0x84 DUP5 ADD SWAP2 PUSH2 0x798 JUMP JUMPDEST SUB SWAP2 CALLVALUE SWAP1 GAS CALL SWAP1 DUP2 ISZERO PUSH2 0x182 JUMPI POP PUSH2 0x58A JUMPI POP DUP1 RETURN JUMPDEST PUSH2 0x593 SWAP1 PUSH2 0x76E JUMP JUMPDEST DUP1 RETURN JUMPDEST DUP6 DUP1 REVERT JUMPDEST POP CALLVALUE PUSH2 0x414 JUMPI PUSH1 0x20 CALLDATASIZE PUSH1 0x3 NOT ADD SLT PUSH2 0x414 JUMPI SWAP2 DUP3 DUP3 SWAP4 CALLDATALOAD DUP3 MSTORE PUSH1 0x20 MSTORE KECCAK256 PUSH1 0x1 DUP2 SLOAD SWAP2 ADD SLOAD DUP3 MLOAD SWAP2 DUP3 MSTORE PUSH1 0x20 DUP3 ADD MSTORE RETURN JUMPDEST POP POP CALLVALUE PUSH2 0x1C0 JUMPI DUP2 PUSH1 0x3 NOT CALLDATASIZE ADD SLT PUSH2 0x1C0 JUMPI PUSH1 0x1 SLOAD SWAP1 MLOAD PUSH1 0x1 PUSH1 0x1 PUSH1 0xA0 SHL SUB SWAP1 SWAP2 AND DUP2 MSTORE PUSH1 0x20 SWAP1 RETURN JUMPDEST POP DUP3 SWAP1 CALLVALUE PUSH2 0x1C0 JUMPI PUSH1 0x20 CALLDATASIZE PUSH1 0x3 NOT ADD SLT PUSH2 0x1C0 JUMPI PUSH2 0x60F PUSH2 0x6D7 JUMP JUMPDEST DUP3 SLOAD SWAP1 PUSH1 0x1 PUSH1 0x1 PUSH1 0xA0 SHL SUB SWAP1 PUSH2 0x628 CALLER DUP4 DUP6 AND EQ PUSH2 0x736 JUMP JUMPDEST AND SWAP2 DUP3 ISZERO PUSH2 0x666 JUMPI POP PUSH1 0x1 PUSH1 0x1 PUSH1 0xA0 SHL SUB NOT AND DUP2 OR DUP3 SSTORE PUSH32 0x4FFD725FC4A22075E9EC71C59EDF9C38CDEB588A91B24FC5B61388C5BE41282B DUP3 DUP1 LOG2 DUP1 RETURN JUMPDEST PUSH1 0x64 SWAP1 PUSH1 0x20 DUP7 MLOAD SWAP2 PUSH3 0x461BCD PUSH1 0xE5 SHL DUP4 MSTORE DUP3 ADD MSTORE PUSH1 0x7 PUSH1 0x24 DUP3 ADD MSTORE PUSH7 0x6F776E65723D3 PUSH1 0xCC SHL PUSH1 0x44 DUP3 ADD MSTORE REVERT JUMPDEST SWAP3 SWAP1 POP CALLVALUE PUSH2 0x6D3 JUMPI CALLDATASIZE PUSH1 0x3 NOT ADD SLT PUSH2 0x414 JUMPI CALLDATALOAD DUP2 MSTORE PUSH32 0xF257E92EF4A8FC0160D45D7DD26B63EB640D66F9606EA581FE295301CA58B7D2 PUSH1 0x20 PUSH1 0x24 CALLDATALOAD SWAP3 LOG2 DUP1 RETURN JUMPDEST DUP4 DUP1 REVERT JUMPDEST PUSH1 0x4 CALLDATALOAD SWAP1 PUSH1 0x1 PUSH1 0x1 PUSH1 0xA0 SHL SUB DUP3 AND DUP3 SUB PUSH2 0x6ED JUMPI JUMP JUMPDEST PUSH1 0x0 DUP1 REVERT JUMPDEST PUSH1 0x24 CALLDATALOAD SWAP1 PUSH1 0x1 PUSH1 0x1 PUSH1 0xA0 SHL SUB DUP3 AND DUP3 SUB PUSH2 0x6ED JUMPI JUMP JUMPDEST SWAP2 DUP2 PUSH1 0x1F DUP5 ADD SLT ISZERO PUSH2 0x6ED JUMPI DUP3 CALLDATALOAD SWAP2 PUSH8 0xFFFFFFFFFFFFFFFF DUP4 GT PUSH2 0x6ED JUMPI PUSH1 0x20 DUP4 DUP2 DUP7 ADD SWAP6 ADD ADD GT PUSH2 0x6ED JUMPI JUMP JUMPDEST ISZERO PUSH2 0x73D JUMPI JUMP JUMPDEST PUSH1 0x40 MLOAD PUSH3 0x461BCD PUSH1 0xE5 SHL DUP2 MSTORE PUSH1 0x20 PUSH1 0x4 DUP3 ADD MSTORE PUSH1 0x9 PUSH1 0x24 DUP3 ADD MSTORE PUSH9 0x2727AA2FA7ABA722A9 PUSH1 0xB9 SHL PUSH1 0x44 DUP3 ADD MSTORE PUSH1 0x64 SWAP1 REVERT JUMPDEST PUSH8 0xFFFFFFFFFFFFFFFF DUP2 GT PUSH2 0x782 JUMPI PUSH1 0x40 MSTORE JUMP JUMPDEST PUSH4 0x4E487B71 PUSH1 0xE0 SHL PUSH1 0x0 MSTORE PUSH1 0x41 PUSH1 0x4 MSTORE PUSH1 0x24 PUSH1 0x0 REVERT JUMPDEST SWAP1 DUP1 PUSH1 0x20 SWAP4 SWAP3 DUP2 DUP5 MSTORE DUP5 DUP5 ADD CALLDATACOPY PUSH1 0x0 DUP3 DUP3 ADD DUP5 ADD MSTORE PUSH1 0x1F ADD PUSH1 0x1F NOT AND ADD ADD SWAP1 JUMP INVALID LOG2 PUSH5 0x6970667358 0x22 SLT KECCAK256 LOG3 DUP15 0x2E PUSH26 0x71EFBB7BF48DC54266054AB8046244E1E8D797536C3729BFA09C 0xD5 SWAP12 PUSH5 0x736F6C6343 STOP ADDMOD XOR STOP CALLER "},"methodIdentifiers":{"executeTimelock(bytes32,address,uint256,bytes)":"290b33aa","onProposal(bytes32,uint256)":"02f9875c","onVoteMirror(uint256,uint256,uint256)":"a433e82e","owner()":"8da5cb5b","rewardVault()":"3a2c6777","scheduleTimelock(bytes32,address,uint256,bytes,uint256)":"d9c6f9e7","setOwner(address)":"13af4035","setRewardVault(address)":"8125dd10","setTimelock(address)":"bdacb303","tallies(uint256)":"1a32b237","timelock()":"d33219b4","unlockRewards(address,uint256)":"8ea74bfd","voteToken()":"160d66ae"}}}}}