{"contracts/governance/VoteRelay.sol":{"VoteRelay":{"abi":[{"inputs":[{"internalType":"address","name":"_bridge","type":"address"},{"internalType":"address","name":"_executor","type":"address"}],"stateMutability":"nonpayable","type":"constructor"},{"anonymous":false,"inputs":[{"indexed":true,"internalType":"address","name":"bridge","type":"address"}],"name":"BridgeUpdated","type":"event"},{"anonymous":false,"inputs":[{"indexed":true,"internalType":"address","name":"executor","type":"address"}],"name":"ExecutorUpdated","type":"event"},{"anonymous":false,"inputs":[{"indexed":true,"internalType":"address","name":"owner","type":"address"}],"name":"OwnerUpdated","type":"event"},{"anonymous":false,"inputs":[{"indexed":true,"internalType":"uint256","name":"proposalId","type":"uint256"},{"indexed":false,"internalType":"bytes32","name":"proposalHash","type":"bytes32"},{"indexed":false,"internalType":"uint16","name":"dstChainId","type":"uint16"}],"name":"ProposalSent","type":"event"},{"anonymous":false,"inputs":[{"indexed":true,"internalType":"uint256","name":"proposalId","type":"uint256"},{"indexed":false,"internalType":"uint256","name":"forVotes","type":"uint256"},{"indexed":false,"internalType":"uint256","name":"againstVotes","type":"uint256"},{"indexed":false,"internalType":"uint16","name":"dstChainId","type":"uint16"}],"name":"VoteMirrorSent","type":"event"},{"inputs":[],"name":"bridge","outputs":[{"internalType":"contract IBridgeAdapter","name":"","type":"address"}],"stateMutability":"view","type":"function"},{"inputs":[],"name":"executor","outputs":[{"internalType":"address","name":"","type":"address"}],"stateMutability":"view","type":"function"},{"inputs":[],"name":"owner","outputs":[{"internalType":"address","name":"","type":"address"}],"stateMutability":"view","type":"function"},{"inputs":[{"internalType":"uint256","name":"","type":"uint256"}],"name":"proposalHashById","outputs":[{"internalType":"bytes32","name":"","type":"bytes32"}],"stateMutability":"view","type":"function"},{"inputs":[{"internalType":"uint16","name":"dstChainId","type":"uint16"},{"internalType":"bytes","name":"dstAddress","type":"bytes"},{"internalType":"uint256","name":"proposalId","type":"uint256"},{"internalType":"bytes32","name":"proposalHash","type":"bytes32"}],"name":"sendProposal","outputs":[],"stateMutability":"payable","type":"function"},{"inputs":[{"internalType":"uint16","name":"dstChainId","type":"uint16"},{"internalType":"bytes","name":"dstAddress","type":"bytes"},{"internalType":"uint256","name":"proposalId","type":"uint256"},{"internalType":"uint256","name":"forVotes","type":"uint256"},{"internalType":"uint256","name":"againstVotes","type":"uint256"}],"name":"sendVoteMirror","outputs":[],"stateMutability":"payable","type":"function"},{"inputs":[{"internalType":"address","name":"_bridge","type":"address"}],"name":"setBridge","outputs":[],"stateMutability":"nonpayable","type":"function"},{"inputs":[{"internalType":"address","name":"_executor","type":"address"}],"name":"setExecutor","outputs":[],"stateMutability":"nonpayable","type":"function"}],"evm":{"bytecode":{"linkReferences":{},"object":"6080346100b857601f6106fb38819003918201601f19168301916001600160401b038311848410176100bd5780849260409485528339810103126100b857610052602061004b836100d3565b92016100d3565b9060018060a01b0319913383600054161760005560018060a01b0380921683600154161760015516906002541617600255604051337f4ffd725fc4a22075e9ec71c59edf9c38cdeb588a91b24fc5b61388c5be41282b600080a261061390816100e88239f35b600080fd5b634e487b7160e01b600052604160045260246000fd5b51906001600160a01b03821682036100b85756fe6040608081526004908136101561001557600080fd5b600091823560e01c90816310c906841461034857816319ce3005146101fe5781631c3c0ea8146101905781634c6da1b4146101685781638da5cb5b146101405781638dd14802146100ce57508063c34c08e5146100a65763e78cea921461007b57600080fd5b346100a257816003193601126100a25760015490516001600160a01b039091168152602090f35b5080fd5b50346100a257816003193601126100a25760025490516001600160a01b039091168152602090f35b8390346100a25760203660031901126100a257356001600160a01b038181169182900361013c576101039083541633146104f9565b600180546001600160a01b031916821790557fe1694c0b21fdceff6411daed547c7463c2341b9695387bc82595b5b9b1851d4a8280a280f35b8280fd5b5050346100a257816003193601126100a257905490516001600160a01b039091168152602090f35b90503461013c57602036600319011261013c5760209282913581526003845220549051908152f35b8390346100a25760203660031901126100a257356001600160a01b038181169182900361013c576101c59083541633146104f9565b600280546001600160a01b031916821790557fd9436ef9ce00ffeabc5da2489701502d3bd1a5ed7b254a1981fc5ffef9828e118280a280f35b919050608036600319011261013c576102156104b5565b9067ffffffffffffffff60243581811161032f5761023690369086016104cb565b9190604435956064359360018060a01b03610255818b541633146104f9565b888a52600360205285878b205586519260016020850152898885015286606085015260608452608084019584871090871117610333575090849392918a9588526001541690813b1561032f5763c662cc5960e01b8552859385938492607f19926102c59183918e6084840161055b565b03019134905af180156103255761030d575b505061ffff7f290979fd9c1246d69340b1a76779f3ab7f7de2828b453fa61726cf62f7b49c01938351928352166020820152a280f35b61031690610531565b6103215784386102d7565b8480fd5b84513d84823e3d90fd5b8580fd5b604190634e487b7160e01b6000525260246000fd5b91905060a036600319011261013c5761035f6104b5565b67ffffffffffffffff919060243583811161032f5761038190369086016104cb565b909360443595606435956084359360018060a01b036103a4818c541633146104f9565b875193600260208601528a898601528960608601528660808601526080855260a0850195858710908711176104a25750908a9392918589526001541691823b156103215763c662cc5960e01b865285938492609f199261040a9183918c60a4840161055b565b03019134905af1801561049857610458575b508251938452602084015261ffff16908201527ff1a12c4ae9132afa67c014a772ae2bbbf165690affe525ddd7da0f8d211aa86b90606090a280f35b7ff1a12c4ae9132afa67c014a772ae2bbbf165690affe525ddd7da0f8d211aa86b9492606094929761048c61ffff93610531565b9792945092945061041c565b84513d89823e3d90fd5b634e487b7160e01b8c526041905260248bfd5b6004359061ffff821682036104c657565b600080fd5b9181601f840112156104c65782359167ffffffffffffffff83116104c657602083818601950101116104c657565b1561050057565b60405162461bcd60e51b81526020600482015260096024820152682727aa2fa7aba722a960b91b6044820152606490fd5b67ffffffffffffffff811161054557604052565b634e487b7160e01b600052604160045260246000fd5b9261ffff601f93929695961684528060209260606020870152816060870152608086013760006080828601015282199283910116830192604060808286030191015284519081608085015260005b8281106105c957505060a093945080600085601f93860101520116010190565b86810182015185820160a0015281016105a956fea2646970667358221220c4f0248847b92be2b0e64813c6f3ddbf6f7cab25f58cd4a679c769f896d37ee664736f6c63430008180033","opcodes":"PUSH1 0x80 CALLVALUE PUSH2 0xB8 JUMPI PUSH1 0x1F PUSH2 0x6FB CODESIZE DUP2 SWAP1 SUB SWAP2 DUP3 ADD PUSH1 0x1F NOT AND DUP4 ADD SWAP2 PUSH1 0x1 PUSH1 0x1 PUSH1 0x40 SHL SUB DUP4 GT DUP5 DUP5 LT OR PUSH2 0xBD JUMPI DUP1 DUP5 SWAP3 PUSH1 0x40 SWAP5 DUP6 MSTORE DUP4 CODECOPY DUP2 ADD SUB SLT PUSH2 0xB8 JUMPI PUSH2 0x52 PUSH1 0x20 PUSH2 0x4B DUP4 PUSH2 0xD3 JUMP JUMPDEST SWAP3 ADD PUSH2 0xD3 JUMP JUMPDEST SWAP1 PUSH1 0x1 DUP1 PUSH1 0xA0 SHL SUB NOT SWAP2 CALLER DUP4 PUSH1 0x0 SLOAD AND OR PUSH1 0x0 SSTORE PUSH1 0x1 DUP1 PUSH1 0xA0 SHL SUB DUP1 SWAP3 AND DUP4 PUSH1 0x1 SLOAD AND OR PUSH1 0x1 SSTORE AND SWAP1 PUSH1 0x2 SLOAD AND OR PUSH1 0x2 SSTORE PUSH1 0x40 MLOAD CALLER PUSH32 0x4FFD725FC4A22075E9EC71C59EDF9C38CDEB588A91B24FC5B61388C5BE41282B PUSH1 0x0 DUP1 LOG2 PUSH2 0x613 SWAP1 DUP2 PUSH2 0xE8 DUP3 CODECOPY RETURN JUMPDEST PUSH1 0x0 DUP1 REVERT JUMPDEST PUSH4 0x4E487B71 PUSH1 0xE0 SHL PUSH1 0x0 MSTORE PUSH1 0x41 PUSH1 0x4 MSTORE PUSH1 0x24 PUSH1 0x0 REVERT JUMPDEST MLOAD SWAP1 PUSH1 0x1 PUSH1 0x1 PUSH1 0xA0 SHL SUB DUP3 AND DUP3 SUB PUSH2 0xB8 JUMPI JUMP INVALID PUSH1 0x40 PUSH1 0x80 DUP2 MSTORE PUSH1 0x4 SWAP1 DUP2 CALLDATASIZE LT ISZERO PUSH2 0x15 JUMPI PUSH1 0x0 DUP1 REVERT JUMPDEST PUSH1 0x0 SWAP2 DUP3 CALLDATALOAD PUSH1 0xE0 SHR SWAP1 DUP2 PUSH4 0x10C90684 EQ PUSH2 0x348 JUMPI DUP2 PUSH4 0x19CE3005 EQ PUSH2 0x1FE JUMPI DUP2 PUSH4 0x1C3C0EA8 EQ PUSH2 0x190 JUMPI DUP2 PUSH4 0x4C6DA1B4 EQ PUSH2 0x168 JUMPI DUP2 PUSH4 0x8DA5CB5B EQ PUSH2 0x140 JUMPI DUP2 PUSH4 0x8DD14802 EQ PUSH2 0xCE JUMPI POP DUP1 PUSH4 0xC34C08E5 EQ PUSH2 0xA6 JUMPI PUSH4 0xE78CEA92 EQ PUSH2 0x7B JUMPI PUSH1 0x0 DUP1 REVERT JUMPDEST CALLVALUE PUSH2 0xA2 JUMPI DUP2 PUSH1 0x3 NOT CALLDATASIZE ADD SLT PUSH2 0xA2 JUMPI PUSH1 0x1 SLOAD SWAP1 MLOAD PUSH1 0x1 PUSH1 0x1 PUSH1 0xA0 SHL SUB SWAP1 SWAP2 AND DUP2 MSTORE PUSH1 0x20 SWAP1 RETURN JUMPDEST POP DUP1 REVERT JUMPDEST POP CALLVALUE PUSH2 0xA2 JUMPI DUP2 PUSH1 0x3 NOT CALLDATASIZE ADD SLT PUSH2 0xA2 JUMPI PUSH1 0x2 SLOAD SWAP1 MLOAD PUSH1 0x1 PUSH1 0x1 PUSH1 0xA0 SHL SUB SWAP1 SWAP2 AND DUP2 MSTORE PUSH1 0x20 SWAP1 RETURN JUMPDEST DUP4 SWAP1 CALLVALUE PUSH2 0xA2 JUMPI PUSH1 0x20 CALLDATASIZE PUSH1 0x3 NOT ADD SLT PUSH2 0xA2 JUMPI CALLDATALOAD PUSH1 0x1 PUSH1 0x1 PUSH1 0xA0 SHL SUB DUP2 DUP2 AND SWAP2 DUP3 SWAP1 SUB PUSH2 0x13C JUMPI PUSH2 0x103 SWAP1 DUP4 SLOAD AND CALLER EQ PUSH2 0x4F9 JUMP JUMPDEST PUSH1 0x1 DUP1 SLOAD PUSH1 0x1 PUSH1 0x1 PUSH1 0xA0 SHL SUB NOT AND DUP3 OR SWAP1 SSTORE PUSH32 0xE1694C0B21FDCEFF6411DAED547C7463C2341B9695387BC82595B5B9B1851D4A DUP3 DUP1 LOG2 DUP1 RETURN JUMPDEST DUP3 DUP1 REVERT JUMPDEST POP POP CALLVALUE PUSH2 0xA2 JUMPI DUP2 PUSH1 0x3 NOT CALLDATASIZE ADD SLT PUSH2 0xA2 JUMPI SWAP1 SLOAD SWAP1 MLOAD PUSH1 0x1 PUSH1 0x1 PUSH1 0xA0 SHL SUB SWAP1 SWAP2 AND DUP2 MSTORE PUSH1 0x20 SWAP1 RETURN JUMPDEST SWAP1 POP CALLVALUE PUSH2 0x13C JUMPI PUSH1 0x20 CALLDATASIZE PUSH1 0x3 NOT ADD SLT PUSH2 0x13C JUMPI PUSH1 0x20 SWAP3 DUP3 SWAP2 CALLDATALOAD DUP2 MSTORE PUSH1 0x3 DUP5 MSTORE KECCAK256 SLOAD SWAP1 MLOAD SWAP1 DUP2 MSTORE RETURN JUMPDEST DUP4 SWAP1 CALLVALUE PUSH2 0xA2 JUMPI PUSH1 0x20 CALLDATASIZE PUSH1 0x3 NOT ADD SLT PUSH2 0xA2 JUMPI CALLDATALOAD PUSH1 0x1 PUSH1 0x1 PUSH1 0xA0 SHL SUB DUP2 DUP2 AND SWAP2 DUP3 SWAP1 SUB PUSH2 0x13C JUMPI PUSH2 0x1C5 SWAP1 DUP4 SLOAD AND CALLER EQ PUSH2 0x4F9 JUMP JUMPDEST PUSH1 0x2 DUP1 SLOAD PUSH1 0x1 PUSH1 0x1 PUSH1 0xA0 SHL SUB NOT AND DUP3 OR SWAP1 SSTORE PUSH32 0xD9436EF9CE00FFEABC5DA2489701502D3BD1A5ED7B254A1981FC5FFEF9828E11 DUP3 DUP1 LOG2 DUP1 RETURN JUMPDEST SWAP2 SWAP1 POP PUSH1 0x80 CALLDATASIZE PUSH1 0x3 NOT ADD SLT PUSH2 0x13C JUMPI PUSH2 0x215 PUSH2 0x4B5 JUMP JUMPDEST SWAP1 PUSH8 0xFFFFFFFFFFFFFFFF PUSH1 0x24 CALLDATALOAD DUP2 DUP2 GT PUSH2 0x32F JUMPI PUSH2 0x236 SWAP1 CALLDATASIZE SWAP1 DUP7 ADD PUSH2 0x4CB JUMP JUMPDEST SWAP2 SWAP1 PUSH1 0x44 CALLDATALOAD SWAP6 PUSH1 0x64 CALLDATALOAD SWAP4 PUSH1 0x1 DUP1 PUSH1 0xA0 SHL SUB PUSH2 0x255 DUP2 DUP12 SLOAD AND CALLER EQ PUSH2 0x4F9 JUMP JUMPDEST DUP9 DUP11 MSTORE PUSH1 0x3 PUSH1 0x20 MSTORE DUP6 DUP8 DUP12 KECCAK256 SSTORE DUP7 MLOAD SWAP3 PUSH1 0x1 PUSH1 0x20 DUP6 ADD MSTORE DUP10 DUP9 DUP6 ADD MSTORE DUP7 PUSH1 0x60 DUP6 ADD MSTORE PUSH1 0x60 DUP5 MSTORE PUSH1 0x80 DUP5 ADD SWAP6 DUP5 DUP8 LT SWAP1 DUP8 GT OR PUSH2 0x333 JUMPI POP SWAP1 DUP5 SWAP4 SWAP3 SWAP2 DUP11 SWAP6 DUP9 MSTORE PUSH1 0x1 SLOAD AND SWAP1 DUP2 EXTCODESIZE ISZERO PUSH2 0x32F JUMPI PUSH4 0xC662CC59 PUSH1 0xE0 SHL DUP6 MSTORE DUP6 SWAP4 DUP6 SWAP4 DUP5 SWAP3 PUSH1 0x7F NOT SWAP3 PUSH2 0x2C5 SWAP2 DUP4 SWAP2 DUP15 PUSH1 0x84 DUP5 ADD PUSH2 0x55B JUMP JUMPDEST SUB ADD SWAP2 CALLVALUE SWAP1 GAS CALL DUP1 ISZERO PUSH2 0x325 JUMPI PUSH2 0x30D JUMPI JUMPDEST POP POP PUSH2 0xFFFF PUSH32 0x290979FD9C1246D69340B1A76779F3AB7F7DE2828B453FA61726CF62F7B49C01 SWAP4 DUP4 MLOAD SWAP3 DUP4 MSTORE AND PUSH1 0x20 DUP3 ADD MSTORE LOG2 DUP1 RETURN JUMPDEST PUSH2 0x316 SWAP1 PUSH2 0x531 JUMP JUMPDEST PUSH2 0x321 JUMPI DUP5 CODESIZE PUSH2 0x2D7 JUMP JUMPDEST DUP5 DUP1 REVERT JUMPDEST DUP5 MLOAD RETURNDATASIZE DUP5 DUP3 RETURNDATACOPY RETURNDATASIZE SWAP1 REVERT JUMPDEST DUP6 DUP1 REVERT JUMPDEST PUSH1 0x41 SWAP1 PUSH4 0x4E487B71 PUSH1 0xE0 SHL PUSH1 0x0 MSTORE MSTORE PUSH1 0x24 PUSH1 0x0 REVERT JUMPDEST SWAP2 SWAP1 POP PUSH1 0xA0 CALLDATASIZE PUSH1 0x3 NOT ADD SLT PUSH2 0x13C JUMPI PUSH2 0x35F PUSH2 0x4B5 JUMP JUMPDEST PUSH8 0xFFFFFFFFFFFFFFFF SWAP2 SWAP1 PUSH1 0x24 CALLDATALOAD DUP4 DUP2 GT PUSH2 0x32F JUMPI PUSH2 0x381 SWAP1 CALLDATASIZE SWAP1 DUP7 ADD PUSH2 0x4CB JUMP JUMPDEST SWAP1 SWAP4 PUSH1 0x44 CALLDATALOAD SWAP6 PUSH1 0x64 CALLDATALOAD SWAP6 PUSH1 0x84 CALLDATALOAD SWAP4 PUSH1 0x1 DUP1 PUSH1 0xA0 SHL SUB PUSH2 0x3A4 DUP2 DUP13 SLOAD AND CALLER EQ PUSH2 0x4F9 JUMP JUMPDEST DUP8 MLOAD SWAP4 PUSH1 0x2 PUSH1 0x20 DUP7 ADD MSTORE DUP11 DUP10 DUP7 ADD MSTORE DUP10 PUSH1 0x60 DUP7 ADD MSTORE DUP7 PUSH1 0x80 DUP7 ADD MSTORE PUSH1 0x80 DUP6 MSTORE PUSH1 0xA0 DUP6 ADD SWAP6 DUP6 DUP8 LT SWAP1 DUP8 GT OR PUSH2 0x4A2 JUMPI POP SWAP1 DUP11 SWAP4 SWAP3 SWAP2 DUP6 DUP10 MSTORE PUSH1 0x1 SLOAD AND SWAP2 DUP3 EXTCODESIZE ISZERO PUSH2 0x321 JUMPI PUSH4 0xC662CC59 PUSH1 0xE0 SHL DUP7 MSTORE DUP6 SWAP4 DUP5 SWAP3 PUSH1 0x9F NOT SWAP3 PUSH2 0x40A SWAP2 DUP4 SWAP2 DUP13 PUSH1 0xA4 DUP5 ADD PUSH2 0x55B JUMP JUMPDEST SUB ADD SWAP2 CALLVALUE SWAP1 GAS CALL DUP1 ISZERO PUSH2 0x498 JUMPI PUSH2 0x458 JUMPI JUMPDEST POP DUP3 MLOAD SWAP4 DUP5 MSTORE PUSH1 0x20 DUP5 ADD MSTORE PUSH2 0xFFFF AND SWAP1 DUP3 ADD MSTORE PUSH32 0xF1A12C4AE9132AFA67C014A772AE2BBBF165690AFFE525DDD7DA0F8D211AA86B SWAP1 PUSH1 0x60 SWAP1 LOG2 DUP1 RETURN JUMPDEST PUSH32 0xF1A12C4AE9132AFA67C014A772AE2BBBF165690AFFE525DDD7DA0F8D211AA86B SWAP5 SWAP3 PUSH1 0x60 SWAP5 SWAP3 SWAP8 PUSH2 0x48C PUSH2 0xFFFF SWAP4 PUSH2 0x531 JUMP JUMPDEST SWAP8 SWAP3 SWAP5 POP SWAP3 SWAP5 POP PUSH2 0x41C JUMP JUMPDEST DUP5 MLOAD RETURNDATASIZE DUP10 DUP3 RETURNDATACOPY RETURNDATASIZE SWAP1 REVERT JUMPDEST PUSH4 0x4E487B71 PUSH1 0xE0 SHL DUP13 MSTORE PUSH1 0x41 SWAP1 MSTORE PUSH1 0x24 DUP12 REVERT JUMPDEST PUSH1 0x4 CALLDATALOAD SWAP1 PUSH2 0xFFFF DUP3 AND DUP3 SUB PUSH2 0x4C6 JUMPI JUMP JUMPDEST PUSH1 0x0 DUP1 REVERT JUMPDEST SWAP2 DUP2 PUSH1 0x1F DUP5 ADD SLT ISZERO PUSH2 0x4C6 JUMPI DUP3 CALLDATALOAD SWAP2 PUSH8 0xFFFFFFFFFFFFFFFF DUP4 GT PUSH2 0x4C6 JUMPI PUSH1 0x20 DUP4 DUP2 DUP7 ADD SWAP6 ADD ADD GT PUSH2 0x4C6 JUMPI JUMP JUMPDEST ISZERO PUSH2 0x500 JUMPI JUMP JUMPDEST PUSH1 0x40 MLOAD PUSH3 0x461BCD PUSH1 0xE5 SHL DUP2 MSTORE PUSH1 0x20 PUSH1 0x4 DUP3 ADD MSTORE PUSH1 0x9 PUSH1 0x24 DUP3 ADD MSTORE PUSH9 0x2727AA2FA7ABA722A9 PUSH1 0xB9 SHL PUSH1 0x44 DUP3 ADD MSTORE PUSH1 0x64 SWAP1 REVERT JUMPDEST PUSH8 0xFFFFFFFFFFFFFFFF DUP2 GT PUSH2 0x545 JUMPI PUSH1 0x40 MSTORE JUMP JUMPDEST PUSH4 0x4E487B71 PUSH1 0xE0 SHL PUSH1 0x0 MSTORE PUSH1 0x41 PUSH1 0x4 MSTORE PUSH1 0x24 PUSH1 0x0 REVERT JUMPDEST SWAP3 PUSH2 0xFFFF PUSH1 0x1F SWAP4 SWAP3 SWAP7 SWAP6 SWAP7 AND DUP5 MSTORE DUP1 PUSH1 0x20 SWAP3 PUSH1 0x60 PUSH1 0x20 DUP8 ADD MSTORE DUP2 PUSH1 0x60 DUP8 ADD MSTORE PUSH1 0x80 DUP7 ADD CALLDATACOPY PUSH1 0x0 PUSH1 0x80 DUP3 DUP7 ADD ADD MSTORE DUP3 NOT SWAP3 DUP4 SWAP2 ADD AND DUP4 ADD SWAP3 PUSH1 0x40 PUSH1 0x80 DUP3 DUP7 SUB ADD SWAP2 ADD MSTORE DUP5 MLOAD SWAP1 DUP2 PUSH1 0x80 DUP6 ADD MSTORE PUSH1 0x0 JUMPDEST DUP3 DUP2 LT PUSH2 0x5C9 JUMPI POP POP PUSH1 0xA0 SWAP4 SWAP5 POP DUP1 PUSH1 0x0 DUP6 PUSH1 0x1F SWAP4 DUP7 ADD ADD MSTORE ADD AND ADD ADD SWAP1 JUMP JUMPDEST DUP7 DUP2 ADD DUP3 ADD MLOAD DUP6 DUP3 ADD PUSH1 0xA0 ADD MSTORE DUP2 ADD PUSH2 0x5A9 JUMP INVALID LOG2 PUSH5 0x6970667358 0x22 SLT KECCAK256 0xC4 CREATE 0x24 DUP9 SELFBALANCE 0xB9 0x2B 0xE2 0xB0 0xE6 BASEFEE SGT 0xC6 RETURN 0xDD 0xBF PUSH16 0x7CAB25F58CD4A679C769F896D37EE664 PUSH20 0x6F6C634300081800330000000000000000000000 "},"methodIdentifiers":{"bridge()":"e78cea92","executor()":"c34c08e5","owner()":"8da5cb5b","proposalHashById(uint256)":"4c6da1b4","sendProposal(uint16,bytes,uint256,bytes32)":"19ce3005","sendVoteMirror(uint16,bytes,uint256,uint256,uint256)":"10c90684","setBridge(address)":"8dd14802","setExecutor(address)":"1c3c0ea8"}}}}}