{"contracts/bridge/VoteBridgeReceiver.sol":{"VoteBridgeReceiver":{"abi":[{"inputs":[{"internalType":"address","name":"_endpoint","type":"address"},{"internalType":"address","name":"_executor","type":"address"}],"stateMutability":"nonpayable","type":"constructor"},{"anonymous":false,"inputs":[{"indexed":true,"internalType":"address","name":"executor","type":"address"}],"name":"ExecutorUpdated","type":"event"},{"anonymous":false,"inputs":[{"indexed":true,"internalType":"address","name":"owner","type":"address"}],"name":"OwnerUpdated","type":"event"},{"inputs":[],"name":"endpoint","outputs":[{"internalType":"address","name":"","type":"address"}],"stateMutability":"view","type":"function"},{"inputs":[],"name":"executor","outputs":[{"internalType":"address","name":"","type":"address"}],"stateMutability":"view","type":"function"},{"inputs":[{"internalType":"uint32","name":"_srcEid","type":"uint32"},{"internalType":"bytes","name":"_path","type":"bytes"},{"internalType":"bytes","name":"_message","type":"bytes"}],"name":"lzReceive","outputs":[],"stateMutability":"payable","type":"function"},{"inputs":[],"name":"owner","outputs":[{"internalType":"address","name":"","type":"address"}],"stateMutability":"view","type":"function"},{"inputs":[{"internalType":"address","name":"_executor","type":"address"}],"name":"setExecutor","outputs":[],"stateMutability":"nonpayable","type":"function"}],"evm":{"bytecode":{"linkReferences":{},"object":"60a03461011f57601f6105fe38819003918201601f19168301916001600160401b0383118484101761012457808492604094855283398101031261011f57610052602061004b8361013a565b920161013a565b906001600160a01b0390818116156100ed5760805260018060a01b031990600092338385541617845516809160015416176001557fd9436ef9ce00ffeabc5da2489701502d3bd1a5ed7b254a1981fc5ffef9828e1160405192337f4ffd725fc4a22075e9ec71c59edf9c38cdeb588a91b24fc5b61388c5be41282b8280a280a26104af908161014f823960805181818160c201526101570152f35b60405162461bcd60e51b815260206004820152600a6024820152690656e64706f696e743d360b41b6044820152606490fd5b600080fd5b634e487b7160e01b600052604160045260246000fd5b51906001600160a01b038216820361011f5756fe608060408181526004918236101561001657600080fd5b600092833560e01c9182631c3c0ea8146103345750816359719a13146100f1575080635e280f11146100ae5780638da5cb5b146100875763c34c08e51461005c57600080fd5b3461008357816003193601126100835760015490516001600160a01b039091168152602090f35b5080fd5b5034610083578160031936011261008357905490516001600160a01b039091168152602090f35b5034610083578160031936011261008357517f00000000000000000000000000000000000000000000000000000000000000006001600160a01b03168152602090f35b8383606036600319011261008357823563ffffffff8116036100835760249081359367ffffffffffffffff9485811161029a57610131903690830161040e565b5050604494853590811161029a5761014c903690830161040e565b6001600160a01b03907f0000000000000000000000000000000000000000000000000000000000000000821633036103035780156102d25790869791833560f81c600181146000146102125750836060918101031261020e576101ae83610441565b506001541692833b1561020e578680946020978751988996879562be61d760e21b87528a820135908701520135908401525af190811561020557506101f257505080f35b6101fb9061044f565b6102025780f35b80fd5b513d84823e3d90fd5b8680fd5b6002919293959498509695961460001461029e579060808789969594938101031261029a5761024087610441565b506001541691823b1561029a57606492859160608851998a978896635219f41760e11b88526020830135908801528a820135908701520135908401525af1908115610205575061028e575080f35b6102979061044f565b80f35b8480fd5b855162461bcd60e51b81526020818501526010818701526f554e4b4e4f574e5f4d53475f5459504560801b81860152606490fd5b845162461bcd60e51b8152602081860152600d818801526c454d5054595f4d45535341474560981b818a0152606490fd5b845162461bcd60e51b8152602081860152600d818801526c13d3931657d153911413d25395609a1b818a0152606490fd5b8491843461040a57602036600319011261040a5781356001600160a01b0381811694918590036104065785541633036103d9575082156103a9575050600180546001600160a01b031916821790557fd9436ef9ce00ffeabc5da2489701502d3bd1a5ed7b254a1981fc5ffef9828e118280a280f35b906020606492519162461bcd60e51b8352820152600a60248201526906578656375746f723d360b41b6044820152fd5b62461bcd60e51b815260208382015260096024820152682727aa2fa7aba722a960b91b6044820152606490fd5b8580fd5b8380fd5b9181601f8401121561043c5782359167ffffffffffffffff831161043c576020838186019501011161043c57565b600080fd5b359060ff8216820361043c57565b67ffffffffffffffff811161046357604052565b634e487b7160e01b600052604160045260246000fdfea2646970667358221220287c14d41820fbb1fceb58700d24601f5e5837ca63df1fd5aa236392bd8967d364736f6c63430008180033","opcodes":"PUSH1 0xA0 CALLVALUE PUSH2 0x11F JUMPI PUSH1 0x1F PUSH2 0x5FE CODESIZE DUP2 SWAP1 SUB SWAP2 DUP3 ADD PUSH1 0x1F NOT AND DUP4 ADD SWAP2 PUSH1 0x1 PUSH1 0x1 PUSH1 0x40 SHL SUB DUP4 GT DUP5 DUP5 LT OR PUSH2 0x124 JUMPI DUP1 DUP5 SWAP3 PUSH1 0x40 SWAP5 DUP6 MSTORE DUP4 CODECOPY DUP2 ADD SUB SLT PUSH2 0x11F JUMPI PUSH2 0x52 PUSH1 0x20 PUSH2 0x4B DUP4 PUSH2 0x13A JUMP JUMPDEST SWAP3 ADD PUSH2 0x13A JUMP JUMPDEST SWAP1 PUSH1 0x1 PUSH1 0x1 PUSH1 0xA0 SHL SUB SWAP1 DUP2 DUP2 AND ISZERO PUSH2 0xED JUMPI PUSH1 0x80 MSTORE PUSH1 0x1 DUP1 PUSH1 0xA0 SHL SUB NOT SWAP1 PUSH1 0x0 SWAP3 CALLER DUP4 DUP6 SLOAD AND OR DUP5 SSTORE AND DUP1 SWAP2 PUSH1 0x1 SLOAD AND OR PUSH1 0x1 SSTORE PUSH32 0xD9436EF9CE00FFEABC5DA2489701502D3BD1A5ED7B254A1981FC5FFEF9828E11 PUSH1 0x40 MLOAD SWAP3 CALLER PUSH32 0x4FFD725FC4A22075E9EC71C59EDF9C38CDEB588A91B24FC5B61388C5BE41282B DUP3 DUP1 LOG2 DUP1 LOG2 PUSH2 0x4AF SWAP1 DUP2 PUSH2 0x14F DUP3 CODECOPY PUSH1 0x80 MLOAD DUP2 DUP2 DUP2 PUSH1 0xC2 ADD MSTORE PUSH2 0x157 ADD MSTORE RETURN JUMPDEST PUSH1 0x40 MLOAD PUSH3 0x461BCD PUSH1 0xE5 SHL DUP2 MSTORE PUSH1 0x20 PUSH1 0x4 DUP3 ADD MSTORE PUSH1 0xA PUSH1 0x24 DUP3 ADD MSTORE PUSH10 0x656E64706F696E743D3 PUSH1 0xB4 SHL PUSH1 0x44 DUP3 ADD MSTORE PUSH1 0x64 SWAP1 REVERT JUMPDEST PUSH1 0x0 DUP1 REVERT JUMPDEST PUSH4 0x4E487B71 PUSH1 0xE0 SHL PUSH1 0x0 MSTORE PUSH1 0x41 PUSH1 0x4 MSTORE PUSH1 0x24 PUSH1 0x0 REVERT JUMPDEST MLOAD SWAP1 PUSH1 0x1 PUSH1 0x1 PUSH1 0xA0 SHL SUB DUP3 AND DUP3 SUB PUSH2 0x11F JUMPI JUMP INVALID PUSH1 0x80 PUSH1 0x40 DUP2 DUP2 MSTORE PUSH1 0x4 SWAP2 DUP3 CALLDATASIZE LT ISZERO PUSH2 0x16 JUMPI PUSH1 0x0 DUP1 REVERT JUMPDEST PUSH1 0x0 SWAP3 DUP4 CALLDATALOAD PUSH1 0xE0 SHR SWAP2 DUP3 PUSH4 0x1C3C0EA8 EQ PUSH2 0x334 JUMPI POP DUP2 PUSH4 0x59719A13 EQ PUSH2 0xF1 JUMPI POP DUP1 PUSH4 0x5E280F11 EQ PUSH2 0xAE JUMPI DUP1 PUSH4 0x8DA5CB5B EQ PUSH2 0x87 JUMPI PUSH4 0xC34C08E5 EQ PUSH2 0x5C JUMPI PUSH1 0x0 DUP1 REVERT JUMPDEST CALLVALUE PUSH2 0x83 JUMPI DUP2 PUSH1 0x3 NOT CALLDATASIZE ADD SLT PUSH2 0x83 JUMPI PUSH1 0x1 SLOAD SWAP1 MLOAD PUSH1 0x1 PUSH1 0x1 PUSH1 0xA0 SHL SUB SWAP1 SWAP2 AND DUP2 MSTORE PUSH1 0x20 SWAP1 RETURN JUMPDEST POP DUP1 REVERT JUMPDEST POP CALLVALUE PUSH2 0x83 JUMPI DUP2 PUSH1 0x3 NOT CALLDATASIZE ADD SLT PUSH2 0x83 JUMPI SWAP1 SLOAD SWAP1 MLOAD PUSH1 0x1 PUSH1 0x1 PUSH1 0xA0 SHL SUB SWAP1 SWAP2 AND DUP2 MSTORE PUSH1 0x20 SWAP1 RETURN JUMPDEST POP CALLVALUE PUSH2 0x83 JUMPI DUP2 PUSH1 0x3 NOT CALLDATASIZE ADD SLT PUSH2 0x83 JUMPI MLOAD PUSH32 0x0 PUSH1 0x1 PUSH1 0x1 PUSH1 0xA0 SHL SUB AND DUP2 MSTORE PUSH1 0x20 SWAP1 RETURN JUMPDEST DUP4 DUP4 PUSH1 0x60 CALLDATASIZE PUSH1 0x3 NOT ADD SLT PUSH2 0x83 JUMPI DUP3 CALLDATALOAD PUSH4 0xFFFFFFFF DUP2 AND SUB PUSH2 0x83 JUMPI PUSH1 0x24 SWAP1 DUP2 CALLDATALOAD SWAP4 PUSH8 0xFFFFFFFFFFFFFFFF SWAP5 DUP6 DUP2 GT PUSH2 0x29A JUMPI PUSH2 0x131 SWAP1 CALLDATASIZE SWAP1 DUP4 ADD PUSH2 0x40E JUMP JUMPDEST POP POP PUSH1 0x44 SWAP5 DUP6 CALLDATALOAD SWAP1 DUP2 GT PUSH2 0x29A JUMPI PUSH2 0x14C SWAP1 CALLDATASIZE SWAP1 DUP4 ADD PUSH2 0x40E JUMP JUMPDEST PUSH1 0x1 PUSH1 0x1 PUSH1 0xA0 SHL SUB SWAP1 PUSH32 0x0 DUP3 AND CALLER SUB PUSH2 0x303 JUMPI DUP1 ISZERO PUSH2 0x2D2 JUMPI SWAP1 DUP7 SWAP8 SWAP2 DUP4 CALLDATALOAD PUSH1 0xF8 SHR PUSH1 0x1 DUP2 EQ PUSH1 0x0 EQ PUSH2 0x212 JUMPI POP DUP4 PUSH1 0x60 SWAP2 DUP2 ADD SUB SLT PUSH2 0x20E JUMPI PUSH2 0x1AE DUP4 PUSH2 0x441 JUMP JUMPDEST POP PUSH1 0x1 SLOAD AND SWAP3 DUP4 EXTCODESIZE ISZERO PUSH2 0x20E JUMPI DUP7 DUP1 SWAP5 PUSH1 0x20 SWAP8 DUP8 MLOAD SWAP9 DUP10 SWAP7 DUP8 SWAP6 PUSH3 0xBE61D7 PUSH1 0xE2 SHL DUP8 MSTORE DUP11 DUP3 ADD CALLDATALOAD SWAP1 DUP8 ADD MSTORE ADD CALLDATALOAD SWAP1 DUP5 ADD MSTORE GAS CALL SWAP1 DUP2 ISZERO PUSH2 0x205 JUMPI POP PUSH2 0x1F2 JUMPI POP POP DUP1 RETURN JUMPDEST PUSH2 0x1FB SWAP1 PUSH2 0x44F JUMP JUMPDEST PUSH2 0x202 JUMPI DUP1 RETURN JUMPDEST DUP1 REVERT JUMPDEST MLOAD RETURNDATASIZE DUP5 DUP3 RETURNDATACOPY RETURNDATASIZE SWAP1 REVERT JUMPDEST DUP7 DUP1 REVERT JUMPDEST PUSH1 0x2 SWAP2 SWAP3 SWAP4 SWAP6 SWAP5 SWAP9 POP SWAP7 SWAP6 SWAP7 EQ PUSH1 0x0 EQ PUSH2 0x29E JUMPI SWAP1 PUSH1 0x80 DUP8 DUP10 SWAP7 SWAP6 SWAP5 SWAP4 DUP2 ADD SUB SLT PUSH2 0x29A JUMPI PUSH2 0x240 DUP8 PUSH2 0x441 JUMP JUMPDEST POP PUSH1 0x1 SLOAD AND SWAP2 DUP3 EXTCODESIZE ISZERO PUSH2 0x29A JUMPI PUSH1 0x64 SWAP3 DUP6 SWAP2 PUSH1 0x60 DUP9 MLOAD SWAP10 DUP11 SWAP8 DUP9 SWAP7 PUSH4 0x5219F417 PUSH1 0xE1 SHL DUP9 MSTORE PUSH1 0x20 DUP4 ADD CALLDATALOAD SWAP1 DUP9 ADD MSTORE DUP11 DUP3 ADD CALLDATALOAD SWAP1 DUP8 ADD MSTORE ADD CALLDATALOAD SWAP1 DUP5 ADD MSTORE GAS CALL SWAP1 DUP2 ISZERO PUSH2 0x205 JUMPI POP PUSH2 0x28E JUMPI POP DUP1 RETURN JUMPDEST PUSH2 0x297 SWAP1 PUSH2 0x44F JUMP JUMPDEST DUP1 RETURN JUMPDEST DUP5 DUP1 REVERT JUMPDEST DUP6 MLOAD PUSH3 0x461BCD PUSH1 0xE5 SHL DUP2 MSTORE PUSH1 0x20 DUP2 DUP6 ADD MSTORE PUSH1 0x10 DUP2 DUP8 ADD MSTORE PUSH16 0x554E4B4E4F574E5F4D53475F54595045 PUSH1 0x80 SHL DUP2 DUP7 ADD MSTORE PUSH1 0x64 SWAP1 REVERT JUMPDEST DUP5 MLOAD PUSH3 0x461BCD PUSH1 0xE5 SHL DUP2 MSTORE PUSH1 0x20 DUP2 DUP7 ADD MSTORE PUSH1 0xD DUP2 DUP9 ADD MSTORE PUSH13 0x454D5054595F4D455353414745 PUSH1 0x98 SHL DUP2 DUP11 ADD MSTORE PUSH1 0x64 SWAP1 REVERT JUMPDEST DUP5 MLOAD PUSH3 0x461BCD PUSH1 0xE5 SHL DUP2 MSTORE PUSH1 0x20 DUP2 DUP7 ADD MSTORE PUSH1 0xD DUP2 DUP9 ADD MSTORE PUSH13 0x13D3931657D153911413D25395 PUSH1 0x9A SHL DUP2 DUP11 ADD MSTORE PUSH1 0x64 SWAP1 REVERT JUMPDEST DUP5 SWAP2 DUP5 CALLVALUE PUSH2 0x40A JUMPI PUSH1 0x20 CALLDATASIZE PUSH1 0x3 NOT ADD SLT PUSH2 0x40A JUMPI DUP2 CALLDATALOAD PUSH1 0x1 PUSH1 0x1 PUSH1 0xA0 SHL SUB DUP2 DUP2 AND SWAP5 SWAP2 DUP6 SWAP1 SUB PUSH2 0x406 JUMPI DUP6 SLOAD AND CALLER SUB PUSH2 0x3D9 JUMPI POP DUP3 ISZERO PUSH2 0x3A9 JUMPI POP POP PUSH1 0x1 DUP1 SLOAD PUSH1 0x1 PUSH1 0x1 PUSH1 0xA0 SHL SUB NOT AND DUP3 OR SWAP1 SSTORE PUSH32 0xD9436EF9CE00FFEABC5DA2489701502D3BD1A5ED7B254A1981FC5FFEF9828E11 DUP3 DUP1 LOG2 DUP1 RETURN JUMPDEST SWAP1 PUSH1 0x20 PUSH1 0x64 SWAP3 MLOAD SWAP2 PUSH3 0x461BCD PUSH1 0xE5 SHL DUP4 MSTORE DUP3 ADD MSTORE PUSH1 0xA PUSH1 0x24 DUP3 ADD MSTORE PUSH10 0x6578656375746F723D3 PUSH1 0xB4 SHL PUSH1 0x44 DUP3 ADD MSTORE REVERT JUMPDEST PUSH3 0x461BCD PUSH1 0xE5 SHL DUP2 MSTORE PUSH1 0x20 DUP4 DUP3 ADD MSTORE PUSH1 0x9 PUSH1 0x24 DUP3 ADD MSTORE PUSH9 0x2727AA2FA7ABA722A9 PUSH1 0xB9 SHL PUSH1 0x44 DUP3 ADD MSTORE PUSH1 0x64 SWAP1 REVERT JUMPDEST DUP6 DUP1 REVERT JUMPDEST DUP4 DUP1 REVERT JUMPDEST SWAP2 DUP2 PUSH1 0x1F DUP5 ADD SLT ISZERO PUSH2 0x43C JUMPI DUP3 CALLDATALOAD SWAP2 PUSH8 0xFFFFFFFFFFFFFFFF DUP4 GT PUSH2 0x43C JUMPI PUSH1 0x20 DUP4 DUP2 DUP7 ADD SWAP6 ADD ADD GT PUSH2 0x43C JUMPI JUMP JUMPDEST PUSH1 0x0 DUP1 REVERT JUMPDEST CALLDATALOAD SWAP1 PUSH1 0xFF DUP3 AND DUP3 SUB PUSH2 0x43C JUMPI JUMP JUMPDEST PUSH8 0xFFFFFFFFFFFFFFFF DUP2 GT PUSH2 0x463 JUMPI PUSH1 0x40 MSTORE JUMP JUMPDEST PUSH4 0x4E487B71 PUSH1 0xE0 SHL PUSH1 0x0 MSTORE PUSH1 0x41 PUSH1 0x4 MSTORE PUSH1 0x24 PUSH1 0x0 REVERT INVALID LOG2 PUSH5 0x6970667358 0x22 SLT KECCAK256 0x28 PUSH29 0x14D41820FBB1FCEB58700D24601F5E5837CA63DF1FD5AA236392BD8967 0xD3 PUSH5 0x736F6C6343 STOP ADDMOD XOR STOP CALLER "},"methodIdentifiers":{"endpoint()":"5e280f11","executor()":"c34c08e5","lzReceive(uint32,bytes,bytes)":"59719a13","owner()":"8da5cb5b","setExecutor(address)":"1c3c0ea8"}}}}}