{"contracts/ZIONToken.sol":{"ZIONToken":{"abi":[{"inputs":[{"internalType":"string","name":"_name","type":"string"},{"internalType":"string","name":"_symbol","type":"string"},{"internalType":"address","name":"_owner","type":"address"},{"internalType":"address","name":"_bridge","type":"address"},{"internalType":"address","name":"_governance","type":"address"},{"internalType":"address","name":"initialHolder","type":"address"},{"internalType":"uint256","name":"initialSupply","type":"uint256"}],"stateMutability":"nonpayable","type":"constructor"},{"anonymous":false,"inputs":[{"indexed":true,"internalType":"address","name":"owner","type":"address"},{"indexed":true,"internalType":"address","name":"spender","type":"address"},{"indexed":false,"internalType":"uint256","name":"value","type":"uint256"}],"name":"Approval","type":"event"},{"anonymous":false,"inputs":[{"indexed":true,"internalType":"address","name":"bridge","type":"address"}],"name":"BridgeUpdated","type":"event"},{"anonymous":false,"inputs":[{"indexed":true,"internalType":"address","name":"governance","type":"address"}],"name":"GovernanceUpdated","type":"event"},{"anonymous":false,"inputs":[{"indexed":true,"internalType":"address","name":"owner","type":"address"}],"name":"OwnerUpdated","type":"event"},{"anonymous":false,"inputs":[{"indexed":true,"internalType":"uint256","name":"chainId","type":"uint256"},{"indexed":false,"internalType":"uint256","name":"bps","type":"uint256"}],"name":"QuorumOverrideSet","type":"event"},{"anonymous":false,"inputs":[{"indexed":true,"internalType":"address","name":"from","type":"address"},{"indexed":true,"internalType":"address","name":"to","type":"address"},{"indexed":false,"internalType":"uint256","name":"value","type":"uint256"}],"name":"Transfer","type":"event"},{"inputs":[{"internalType":"address","name":"owner","type":"address"},{"internalType":"address","name":"spender","type":"address"}],"name":"allowance","outputs":[{"internalType":"uint256","name":"","type":"uint256"}],"stateMutability":"view","type":"function"},{"inputs":[{"internalType":"address","name":"spender","type":"address"},{"internalType":"uint256","name":"amount","type":"uint256"}],"name":"approve","outputs":[{"internalType":"bool","name":"","type":"bool"}],"stateMutability":"nonpayable","type":"function"},{"inputs":[{"internalType":"address","name":"account","type":"address"}],"name":"balanceOf","outputs":[{"internalType":"uint256","name":"","type":"uint256"}],"stateMutability":"view","type":"function"},{"inputs":[],"name":"bridge","outputs":[{"internalType":"address","name":"","type":"address"}],"stateMutability":"view","type":"function"},{"inputs":[{"internalType":"address","name":"from","type":"address"},{"internalType":"uint256","name":"amount","type":"uint256"}],"name":"bridgeBurn","outputs":[],"stateMutability":"nonpayable","type":"function"},{"inputs":[{"internalType":"address","name":"to","type":"address"},{"internalType":"uint256","name":"amount","type":"uint256"}],"name":"bridgeMint","outputs":[],"stateMutability":"nonpayable","type":"function"},{"inputs":[],"name":"decimals","outputs":[{"internalType":"uint8","name":"","type":"uint8"}],"stateMutability":"view","type":"function"},{"inputs":[],"name":"governance","outputs":[{"internalType":"address","name":"","type":"address"}],"stateMutability":"view","type":"function"},{"inputs":[{"internalType":"address","name":"from","type":"address"},{"internalType":"uint256","name":"amount","type":"uint256"}],"name":"governanceBurn","outputs":[],"stateMutability":"nonpayable","type":"function"},{"inputs":[{"internalType":"address","name":"to","type":"address"},{"internalType":"uint256","name":"amount","type":"uint256"}],"name":"governanceMint","outputs":[],"stateMutability":"nonpayable","type":"function"},{"inputs":[],"name":"name","outputs":[{"internalType":"string","name":"","type":"string"}],"stateMutability":"view","type":"function"},{"inputs":[],"name":"owner","outputs":[{"internalType":"address","name":"","type":"address"}],"stateMutability":"view","type":"function"},{"inputs":[{"internalType":"uint256","name":"","type":"uint256"}],"name":"quorumOverrideBps","outputs":[{"internalType":"uint256","name":"","type":"uint256"}],"stateMutability":"view","type":"function"},{"inputs":[{"internalType":"address","name":"_bridge","type":"address"}],"name":"setBridge","outputs":[],"stateMutability":"nonpayable","type":"function"},{"inputs":[{"internalType":"address","name":"_gov","type":"address"}],"name":"setGovernance","outputs":[],"stateMutability":"nonpayable","type":"function"},{"inputs":[{"internalType":"address","name":"_owner","type":"address"}],"name":"setOwner","outputs":[],"stateMutability":"nonpayable","type":"function"},{"inputs":[{"internalType":"uint256","name":"chainId","type":"uint256"},{"internalType":"uint256","name":"bps","type":"uint256"}],"name":"setQuorumOverride","outputs":[],"stateMutability":"nonpayable","type":"function"},{"inputs":[],"name":"symbol","outputs":[{"internalType":"string","name":"","type":"string"}],"stateMutability":"view","type":"function"},{"inputs":[],"name":"totalSupply","outputs":[{"internalType":"uint256","name":"","type":"uint256"}],"stateMutability":"view","type":"function"},{"inputs":[{"internalType":"address","name":"recipient","type":"address"},{"internalType":"uint256","name":"amount","type":"uint256"}],"name":"transfer","outputs":[{"internalType":"bool","name":"","type":"bool"}],"stateMutability":"nonpayable","type":"function"},{"inputs":[{"internalType":"address","name":"sender","type":"address"},{"internalType":"address","name":"recipient","type":"address"},{"internalType":"uint256","name":"amount","type":"uint256"}],"name":"transferFrom","outputs":[{"internalType":"bool","name":"","type":"bool"}],"stateMutability":"nonpayable","type":"function"}],"evm":{"bytecode":{"linkReferences":{},"object":"604060a08152346200053d5762001334803803806200001e8162000542565b928339810160e0828203126200053d5781516001600160401b03908181116200053d57826200004f91850162000568565b9160209081850151908382116200053d576200006d91860162000568565b936200007b868201620005da565b936200008a60608301620005da565b906200009960808401620005da565b9060c0620000aa60a08601620005da565b940151956012608052815198818a1162000527576000998a54936001948581811c911680156200051c575b8a82101462000508579081601f849311620004b0575b5089908d601f84116001146200044c579262000440575b5050600019600383901b1c191690841b178a555b80519182116200042c5782548381811c9116801562000421575b888210146200040d579081601f849311620003b8575b508790601f831160011462000354578b9262000348575b5050600019600383901b1c191690821b1790555b6001600160a01b039586169182156200031a579086809260018060a01b0319948560055416176005551683600654161760065516906007541617600755826200024c575b505050807f9d3e522e1e47a2f6009739342b9cc7b252a1888154e843ab55ee1c81745795ab91600554169351937f4ffd725fc4a22075e9ec71c59edf9c38cdeb588a91b24fc5b61388c5be41282b8480a280600654167fe1694c0b21fdceff6411daed547c7463c2341b9695387bc82595b5b9b1851d4a8480a2600754169180a2610d209081620006148239608051816106cd0152f35b8316918215620002d6577fddf252ad1be2c89b69c2b068fc378daa952ba7f163c4a11628f55a4df523b3ef7f9d3e522e1e47a2f6009739342b9cc7b252a1888154e843ab55ee1c81745795ab94939282620002ab8894600254620005ef565b60025584845260038252888420620002c5828254620005ef565b90558851908152a3903880620001b5565b855162461bcd60e51b815260048101839052601360248201527f45524332303a206d696e7420746f207a65726f000000000000000000000000006044820152606490fd5b885162461bcd60e51b815260048101869052600760248201526606f776e65723d360cc1b6044820152606490fd5b0151905038806200015d565b848c52888c208594509190601f1984168d5b8b828210620003a1575050841162000387575b505050811b01905562000171565b015160001960f88460031b161c1916905538808062000379565b838501518655889790950194938401930162000366565b909150838b52878b20601f840160051c81019189851062000402575b84939291601f87920160051c01915b828110620003f357505062000146565b8d8155859450869101620003e3565b9091508190620003d4565b634e487b7160e01b8b52602260045260248bfd5b90607f169062000130565b634e487b7160e01b8a52604160045260248afd5b01519050388062000102565b9190879450601f1984168380528c8420935b8d8282106200049957505084116200047f575b505050811b018a5562000116565b015160001960f88460031b161c1916905538808062000471565b8385015186558a979095019493840193016200045e565b9091508c8052898d20601f840160051c8101918b8510620004fd575b8e85949392601f8a930160051c0192905b838210620004ee57505050620000eb565b81558594508891018f620004dd565b9091508190620004cc565b634e487b7160e01b8d52602260045260248dfd5b90607f1690620000d5565b634e487b7160e01b600052604160045260246000fd5b600080fd5b6040519190601f01601f191682016001600160401b038111838210176200052757604052565b919080601f840112156200053d5782516001600160401b03811162000527576020906200059e601f8201601f1916830162000542565b928184528282870101116200053d5760005b818110620005c657508260009394955001015290565b8581018301518482018401528201620005b0565b51906001600160a01b03821682036200053d57565b91908201809211620005fd57565b634e487b7160e01b600052601160045260246000fdfe608060408181526004918236101561001657600080fd5b600092833560e01c91826306fdde031461094f57508163095ea7b31461092557816313af40351461088357816318160ddd1461086457816323b872dd146107b857816326c4250414610790578163285465e5146106f1578163313ce567146106b35781635aa6e6751461068a57816370a082311461065257816374f4f5471461061b5781638c2a993e146105e25781638da5cb5b146105b95781638dd148021461054457816395d89b4114610421578163a89ae7d0146102fb578163a9059cbb146102ca578163ab033ea914610252578163dd329b5c14610184578163dd62ed3e14610137575063e78cea921461010c57600080fd5b3461013357816003193601126101335760065490516001600160a01b039091168152602090f35b5080fd5b9050346101805781600319360112610180576020928291610156610a70565b61015e610a8b565b6001600160a01b03918216845291865283832091168252845220549051908152f35b8280fd5b9190503461018057806003193601126101805761019f610a70565b60075460243592916001600160a01b03916101bd9083163314610ad9565b1692831561021a57506020827fddf252ad1be2c89b69c2b068fc378daa952ba7f163c4a11628f55a4df523b3ef926101f88795600254610c00565b60025585855260038352808520610210838254610c00565b905551908152a380f35b6020606492519162461bcd60e51b8352820152601360248201527245524332303a206d696e7420746f207a65726f60681b6044820152fd5b83346102c75760203660031901126102c75761026c610a70565b6005546001600160a01b0391906102869083163314610aa1565b16806bffffffffffffffffffffffff60a01b60075416176007557f9d3e522e1e47a2f6009739342b9cc7b252a1888154e843ab55ee1c81745795ab8280a280f35b80fd5b5050346101335780600319360112610133576020906102f46102ea610a70565b6024359033610c23565b5160018152f35b838334610133578060031936011261013357610315610a70565b600754602435916001600160a01b03916103329083163314610ad9565b169182156103e7578284526003602052808420548281106103af5782908486526003602052038185205560025482810390811161039c578493927fddf252ad1be2c89b69c2b068fc378daa952ba7f163c4a11628f55a4df523b3ef9260209260025551908152a380f35b634e487b7160e01b855260118652602485fd5b815162461bcd60e51b81526020818801526012602482015271115490cc8c0e88189d5c9b88185b5bdd5b9d60721b6044820152606490fd5b5162461bcd60e51b8152602081860152601560248201527445524332303a206275726e2066726f6d207a65726f60581b6044820152606490fd5b8383346101335781600319360112610133578051908260018054908160011c906001831692831561053a575b60209384841081146105275783885290811561050b57506001146104b5575b505050829003601f01601f191682019267ffffffffffffffff8411838510176104a2575082918261049e925282610a27565b0390f35b634e487b7160e01b815260418552602490fd5b600187529192508591837fb10e2d527612073b26eecdfd717e6a320cf44b4afac2b0732d9fcbe2b7fa0cf65b8385106104f7575050505083010185808061046c565b8054888601830152930192849082016104e1565b60ff1916878501525050151560051b840101905085808061046c565b634e487b7160e01b895260228a52602489fd5b91607f169161044d565b83346102c75760203660031901126102c75761055e610a70565b6005546001600160a01b0391906105789083163314610aa1565b16806bffffffffffffffffffffffff60a01b60065416176006557fe1694c0b21fdceff6411daed547c7463c2341b9695387bc82595b5b9b1851d4a8280a280f35b50503461013357816003193601126101335760055490516001600160a01b039091168152602090f35b919050346101805780600319360112610180576105fd610a70565b60065460243592916001600160a01b03916101bd9083163314610b0f565b838334610133578060031936011261013357610635610a70565b600654602435916001600160a01b03916103329083163314610b0f565b5050346101335760203660031901126101335760209181906001600160a01b0361067a610a70565b1681526003845220549051908152f35b50503461013357816003193601126101335760075490516001600160a01b039091168152602090f35b5050346101335781600319360112610133576020905160ff7f0000000000000000000000000000000000000000000000000000000000000000168152f35b9050346101805781600319360112610180578035916024359161071f60018060a01b03600754163314610ad9565b612710831161076257507f90a5c2b853f5d313a0f9df36087e73f6f45300ca32e3cbccf9ed750a5f6d4a749160209184865260088352818187205551908152a280f35b6020606492519162461bcd60e51b8352820152600960248201526806270733e31303030360bc1b6044820152fd5b9050346101805760203660031901126101805760209282913581526008845220549051908152f35b83915034610133576060366003190112610133576107d4610a70565b6107dc610a8b565b6001600160a01b03821684526020838152858520338652905292849020546044359392848210610821576020866102f487878761081c8389033383610b8a565b610c23565b606490602087519162461bcd60e51b8352820152601d60248201527f45524332303a20696e73756666696369656e7420616c6c6f77616e63650000006044820152fd5b5050346101335781600319360112610133576020906002549051908152f35b839150346101335760203660031901126101335761089f610a70565b600554906001600160a01b03906108b93383851614610aa1565b169182156108f857506001600160a01b03191681176005557f4ffd725fc4a22075e9ec71c59edf9c38cdeb588a91b24fc5b61388c5be41282b8280a280f35b606490602086519162461bcd60e51b8352820152600760248201526606f776e65723d360cc1b6044820152fd5b5050346101335780600319360112610133576020906102f4610945610a70565b6024359033610b8a565b8490843461018057826003193601126101805782835460018160011c9060018316928315610a1d575b60209384841081146105275783885290811561050b57506001146109c857505050829003601f01601f191682019267ffffffffffffffff8411838510176104a2575082918261049e925282610a27565b8680529192508591837f290decd9548b62a8d60345a988386fc84ba6bc95484008f6362f93160ef3e5635b838510610a09575050505083010185808061046c565b8054888601830152930192849082016109f3565b91607f1691610978565b6020808252825181830181905290939260005b828110610a5c57505060409293506000838284010152601f8019910116010190565b818101860151848201604001528501610a3a565b600435906001600160a01b0382168203610a8657565b600080fd5b602435906001600160a01b0382168203610a8657565b15610aa857565b60405162461bcd60e51b81526020600482015260096024820152682727aa2fa7aba722a960b91b6044820152606490fd5b15610ae057565b60405162461bcd60e51b81526020600482015260076024820152662727aa2fa3a7ab60c91b6044820152606490fd5b15610b1657565b60405162461bcd60e51b815260206004820152600a6024820152694e4f545f42524944474560b01b6044820152606490fd5b15610b4f57565b60405162461bcd60e51b815260206004820152601360248201527245524332303a207a65726f206164647265737360681b6044820152606490fd5b90916001600160a01b03918216917f8c5be1e5ebec7d5bd14f71427d1e84f3dd0314c0f7b2291e5b200ac8c7c3b9259160209184151580610bf5575b610bcf90610b48565b8460005260048352604060002095169485600052825280604060002055604051908152a3565b508581161515610bc6565b91908201809211610c0d57565b634e487b7160e01b600052601160045260246000fd5b6001600160a01b039081169182151580610cdf575b610c4190610b48565b60009383855260036020526040852054818110610ca9577fddf252ad1be2c89b69c2b068fc378daa952ba7f163c4a11628f55a4df523b3ef9360209383604093888a52600387520383892055169586815220610c9e828254610c00565b9055604051908152a3565b60405162461bcd60e51b815260206004820152600e60248201526d45524332303a2062616c616e636560901b6044820152606490fd5b508082161515610c3856fea26469706673582212200f6a619d79295b1cc2eac25303a90f3b112c12358605efacae826b8a80f9551f64736f6c63430008180033","opcodes":"PUSH1 0x40 PUSH1 0xA0 DUP2 MSTORE CALLVALUE PUSH3 0x53D JUMPI PUSH3 0x1334 DUP1 CODESIZE SUB DUP1 PUSH3 0x1E DUP2 PUSH3 0x542 JUMP JUMPDEST SWAP3 DUP4 CODECOPY DUP2 ADD PUSH1 0xE0 DUP3 DUP3 SUB SLT PUSH3 0x53D JUMPI DUP2 MLOAD PUSH1 0x1 PUSH1 0x1 PUSH1 0x40 SHL SUB SWAP1 DUP2 DUP2 GT PUSH3 0x53D JUMPI DUP3 PUSH3 0x4F SWAP2 DUP6 ADD PUSH3 0x568 JUMP JUMPDEST SWAP2 PUSH1 0x20 SWAP1 DUP2 DUP6 ADD MLOAD SWAP1 DUP4 DUP3 GT PUSH3 0x53D JUMPI PUSH3 0x6D SWAP2 DUP7 ADD PUSH3 0x568 JUMP JUMPDEST SWAP4 PUSH3 0x7B DUP7 DUP3 ADD PUSH3 0x5DA JUMP JUMPDEST SWAP4 PUSH3 0x8A PUSH1 0x60 DUP4 ADD PUSH3 0x5DA JUMP JUMPDEST SWAP1 PUSH3 0x99 PUSH1 0x80 DUP5 ADD PUSH3 0x5DA JUMP JUMPDEST SWAP1 PUSH1 0xC0 PUSH3 0xAA PUSH1 0xA0 DUP7 ADD PUSH3 0x5DA JUMP JUMPDEST SWAP5 ADD MLOAD SWAP6 PUSH1 0x12 PUSH1 0x80 MSTORE DUP2 MLOAD SWAP9 DUP2 DUP11 GT PUSH3 0x527 JUMPI PUSH1 0x0 SWAP10 DUP11 SLOAD SWAP4 PUSH1 0x1 SWAP5 DUP6 DUP2 DUP2 SHR SWAP2 AND DUP1 ISZERO PUSH3 0x51C JUMPI JUMPDEST DUP11 DUP3 LT EQ PUSH3 0x508 JUMPI SWAP1 DUP2 PUSH1 0x1F DUP5 SWAP4 GT PUSH3 0x4B0 JUMPI JUMPDEST POP DUP10 SWAP1 DUP14 PUSH1 0x1F DUP5 GT PUSH1 0x1 EQ PUSH3 0x44C JUMPI SWAP3 PUSH3 0x440 JUMPI JUMPDEST POP POP PUSH1 0x0 NOT PUSH1 0x3 DUP4 SWAP1 SHL SHR NOT AND SWAP1 DUP5 SHL OR DUP11 SSTORE JUMPDEST DUP1 MLOAD SWAP2 DUP3 GT PUSH3 0x42C JUMPI DUP3 SLOAD DUP4 DUP2 DUP2 SHR SWAP2 AND DUP1 ISZERO PUSH3 0x421 JUMPI JUMPDEST DUP9 DUP3 LT EQ PUSH3 0x40D JUMPI SWAP1 DUP2 PUSH1 0x1F DUP5 SWAP4 GT PUSH3 0x3B8 JUMPI JUMPDEST POP DUP8 SWAP1 PUSH1 0x1F DUP4 GT PUSH1 0x1 EQ PUSH3 0x354 JUMPI DUP12 SWAP3 PUSH3 0x348 JUMPI JUMPDEST POP POP PUSH1 0x0 NOT PUSH1 0x3 DUP4 SWAP1 SHL SHR NOT AND SWAP1 DUP3 SHL OR SWAP1 SSTORE JUMPDEST PUSH1 0x1 PUSH1 0x1 PUSH1 0xA0 SHL SUB SWAP6 DUP7 AND SWAP2 DUP3 ISZERO PUSH3 0x31A JUMPI SWAP1 DUP7 DUP1 SWAP3 PUSH1 0x1 DUP1 PUSH1 0xA0 SHL SUB NOT SWAP5 DUP6 PUSH1 0x5 SLOAD AND OR PUSH1 0x5 SSTORE AND DUP4 PUSH1 0x6 SLOAD AND OR PUSH1 0x6 SSTORE AND SWAP1 PUSH1 0x7 SLOAD AND OR PUSH1 0x7 SSTORE DUP3 PUSH3 0x24C JUMPI JUMPDEST POP POP POP DUP1 PUSH32 0x9D3E522E1E47A2F6009739342B9CC7B252A1888154E843AB55EE1C81745795AB SWAP2 PUSH1 0x5 SLOAD AND SWAP4 MLOAD SWAP4 PUSH32 0x4FFD725FC4A22075E9EC71C59EDF9C38CDEB588A91B24FC5B61388C5BE41282B DUP5 DUP1 LOG2 DUP1 PUSH1 0x6 SLOAD AND PUSH32 0xE1694C0B21FDCEFF6411DAED547C7463C2341B9695387BC82595B5B9B1851D4A DUP5 DUP1 LOG2 PUSH1 0x7 SLOAD AND SWAP2 DUP1 LOG2 PUSH2 0xD20 SWAP1 DUP2 PUSH3 0x614 DUP3 CODECOPY PUSH1 0x80 MLOAD DUP2 PUSH2 0x6CD ADD MSTORE RETURN JUMPDEST DUP4 AND SWAP2 DUP3 ISZERO PUSH3 0x2D6 JUMPI PUSH32 0xDDF252AD1BE2C89B69C2B068FC378DAA952BA7F163C4A11628F55A4DF523B3EF PUSH32 0x9D3E522E1E47A2F6009739342B9CC7B252A1888154E843AB55EE1C81745795AB SWAP5 SWAP4 SWAP3 DUP3 PUSH3 0x2AB DUP9 SWAP5 PUSH1 0x2 SLOAD PUSH3 0x5EF JUMP JUMPDEST PUSH1 0x2 SSTORE DUP5 DUP5 MSTORE PUSH1 0x3 DUP3 MSTORE DUP9 DUP5 KECCAK256 PUSH3 0x2C5 DUP3 DUP3 SLOAD PUSH3 0x5EF JUMP JUMPDEST SWAP1 SSTORE DUP9 MLOAD SWAP1 DUP2 MSTORE LOG3 SWAP1 CODESIZE DUP1 PUSH3 0x1B5 JUMP JUMPDEST DUP6 MLOAD PUSH3 0x461BCD PUSH1 0xE5 SHL DUP2 MSTORE PUSH1 0x4 DUP2 ADD DUP4 SWAP1 MSTORE PUSH1 0x13 PUSH1 0x24 DUP3 ADD MSTORE PUSH32 0x45524332303A206D696E7420746F207A65726F00000000000000000000000000 PUSH1 0x44 DUP3 ADD MSTORE PUSH1 0x64 SWAP1 REVERT JUMPDEST DUP9 MLOAD PUSH3 0x461BCD PUSH1 0xE5 SHL DUP2 MSTORE PUSH1 0x4 DUP2 ADD DUP7 SWAP1 MSTORE PUSH1 0x7 PUSH1 0x24 DUP3 ADD MSTORE PUSH7 0x6F776E65723D3 PUSH1 0xCC SHL PUSH1 0x44 DUP3 ADD MSTORE PUSH1 0x64 SWAP1 REVERT JUMPDEST ADD MLOAD SWAP1 POP CODESIZE DUP1 PUSH3 0x15D JUMP JUMPDEST DUP5 DUP13 MSTORE DUP9 DUP13 KECCAK256 DUP6 SWAP5 POP SWAP2 SWAP1 PUSH1 0x1F NOT DUP5 AND DUP14 JUMPDEST DUP12 DUP3 DUP3 LT PUSH3 0x3A1 JUMPI POP POP DUP5 GT PUSH3 0x387 JUMPI JUMPDEST POP POP POP DUP2 SHL ADD SWAP1 SSTORE PUSH3 0x171 JUMP JUMPDEST ADD MLOAD PUSH1 0x0 NOT PUSH1 0xF8 DUP5 PUSH1 0x3 SHL AND SHR NOT AND SWAP1 SSTORE CODESIZE DUP1 DUP1 PUSH3 0x379 JUMP JUMPDEST DUP4 DUP6 ADD MLOAD DUP7 SSTORE DUP9 SWAP8 SWAP1 SWAP6 ADD SWAP5 SWAP4 DUP5 ADD SWAP4 ADD PUSH3 0x366 JUMP JUMPDEST SWAP1 SWAP2 POP DUP4 DUP12 MSTORE DUP8 DUP12 KECCAK256 PUSH1 0x1F DUP5 ADD PUSH1 0x5 SHR DUP2 ADD SWAP2 DUP10 DUP6 LT PUSH3 0x402 JUMPI JUMPDEST DUP5 SWAP4 SWAP3 SWAP2 PUSH1 0x1F DUP8 SWAP3 ADD PUSH1 0x5 SHR ADD SWAP2 JUMPDEST DUP3 DUP2 LT PUSH3 0x3F3 JUMPI POP POP PUSH3 0x146 JUMP JUMPDEST DUP14 DUP2 SSTORE DUP6 SWAP5 POP DUP7 SWAP2 ADD PUSH3 0x3E3 JUMP JUMPDEST SWAP1 SWAP2 POP DUP2 SWAP1 PUSH3 0x3D4 JUMP JUMPDEST PUSH4 0x4E487B71 PUSH1 0xE0 SHL DUP12 MSTORE PUSH1 0x22 PUSH1 0x4 MSTORE PUSH1 0x24 DUP12 REVERT JUMPDEST SWAP1 PUSH1 0x7F AND SWAP1 PUSH3 0x130 JUMP JUMPDEST PUSH4 0x4E487B71 PUSH1 0xE0 SHL DUP11 MSTORE PUSH1 0x41 PUSH1 0x4 MSTORE PUSH1 0x24 DUP11 REVERT JUMPDEST ADD MLOAD SWAP1 POP CODESIZE DUP1 PUSH3 0x102 JUMP JUMPDEST SWAP2 SWAP1 DUP8 SWAP5 POP PUSH1 0x1F NOT DUP5 AND DUP4 DUP1 MSTORE DUP13 DUP5 KECCAK256 SWAP4 JUMPDEST DUP14 DUP3 DUP3 LT PUSH3 0x499 JUMPI POP POP DUP5 GT PUSH3 0x47F JUMPI JUMPDEST POP POP POP DUP2 SHL ADD DUP11 SSTORE PUSH3 0x116 JUMP JUMPDEST ADD MLOAD PUSH1 0x0 NOT PUSH1 0xF8 DUP5 PUSH1 0x3 SHL AND SHR NOT AND SWAP1 SSTORE CODESIZE DUP1 DUP1 PUSH3 0x471 JUMP JUMPDEST DUP4 DUP6 ADD MLOAD DUP7 SSTORE DUP11 SWAP8 SWAP1 SWAP6 ADD SWAP5 SWAP4 DUP5 ADD SWAP4 ADD PUSH3 0x45E JUMP JUMPDEST SWAP1 SWAP2 POP DUP13 DUP1 MSTORE DUP10 DUP14 KECCAK256 PUSH1 0x1F DUP5 ADD PUSH1 0x5 SHR DUP2 ADD SWAP2 DUP12 DUP6 LT PUSH3 0x4FD JUMPI JUMPDEST DUP15 DUP6 SWAP5 SWAP4 SWAP3 PUSH1 0x1F DUP11 SWAP4 ADD PUSH1 0x5 SHR ADD SWAP3 SWAP1 JUMPDEST DUP4 DUP3 LT PUSH3 0x4EE JUMPI POP POP POP PUSH3 0xEB JUMP JUMPDEST DUP2 SSTORE DUP6 SWAP5 POP DUP9 SWAP2 ADD DUP16 PUSH3 0x4DD JUMP JUMPDEST SWAP1 SWAP2 POP DUP2 SWAP1 PUSH3 0x4CC JUMP JUMPDEST PUSH4 0x4E487B71 PUSH1 0xE0 SHL DUP14 MSTORE PUSH1 0x22 PUSH1 0x4 MSTORE PUSH1 0x24 DUP14 REVERT JUMPDEST SWAP1 PUSH1 0x7F AND SWAP1 PUSH3 0xD5 JUMP JUMPDEST PUSH4 0x4E487B71 PUSH1 0xE0 SHL PUSH1 0x0 MSTORE PUSH1 0x41 PUSH1 0x4 MSTORE PUSH1 0x24 PUSH1 0x0 REVERT JUMPDEST PUSH1 0x0 DUP1 REVERT JUMPDEST PUSH1 0x40 MLOAD SWAP2 SWAP1 PUSH1 0x1F ADD PUSH1 0x1F NOT AND DUP3 ADD PUSH1 0x1 PUSH1 0x1 PUSH1 0x40 SHL SUB DUP2 GT DUP4 DUP3 LT OR PUSH3 0x527 JUMPI PUSH1 0x40 MSTORE JUMP JUMPDEST SWAP2 SWAP1 DUP1 PUSH1 0x1F DUP5 ADD SLT ISZERO PUSH3 0x53D JUMPI DUP3 MLOAD PUSH1 0x1 PUSH1 0x1 PUSH1 0x40 SHL SUB DUP2 GT PUSH3 0x527 JUMPI PUSH1 0x20 SWAP1 PUSH3 0x59E PUSH1 0x1F DUP3 ADD PUSH1 0x1F NOT AND DUP4 ADD PUSH3 0x542 JUMP JUMPDEST SWAP3 DUP2 DUP5 MSTORE DUP3 DUP3 DUP8 ADD ADD GT PUSH3 0x53D JUMPI PUSH1 0x0 JUMPDEST DUP2 DUP2 LT PUSH3 0x5C6 JUMPI POP DUP3 PUSH1 0x0 SWAP4 SWAP5 SWAP6 POP ADD ADD MSTORE SWAP1 JUMP JUMPDEST DUP6 DUP2 ADD DUP4 ADD MLOAD DUP5 DUP3 ADD DUP5 ADD MSTORE DUP3 ADD PUSH3 0x5B0 JUMP JUMPDEST MLOAD SWAP1 PUSH1 0x1 PUSH1 0x1 PUSH1 0xA0 SHL SUB DUP3 AND DUP3 SUB PUSH3 0x53D JUMPI JUMP JUMPDEST SWAP2 SWAP1 DUP3 ADD DUP1 SWAP3 GT PUSH3 0x5FD JUMPI JUMP JUMPDEST PUSH4 0x4E487B71 PUSH1 0xE0 SHL PUSH1 0x0 MSTORE PUSH1 0x11 PUSH1 0x4 MSTORE PUSH1 0x24 PUSH1 0x0 REVERT INVALID PUSH1 0x80 PUSH1 0x40 DUP2 DUP2 MSTORE PUSH1 0x4 SWAP2 DUP3 CALLDATASIZE LT ISZERO PUSH2 0x16 JUMPI PUSH1 0x0 DUP1 REVERT JUMPDEST PUSH1 0x0 SWAP3 DUP4 CALLDATALOAD PUSH1 0xE0 SHR SWAP2 DUP3 PUSH4 0x6FDDE03 EQ PUSH2 0x94F JUMPI POP DUP2 PUSH4 0x95EA7B3 EQ PUSH2 0x925 JUMPI DUP2 PUSH4 0x13AF4035 EQ PUSH2 0x883 JUMPI DUP2 PUSH4 0x18160DDD EQ PUSH2 0x864 JUMPI DUP2 PUSH4 0x23B872DD EQ PUSH2 0x7B8 JUMPI DUP2 PUSH4 0x26C42504 EQ PUSH2 0x790 JUMPI DUP2 PUSH4 0x285465E5 EQ PUSH2 0x6F1 JUMPI DUP2 PUSH4 0x313CE567 EQ PUSH2 0x6B3 JUMPI DUP2 PUSH4 0x5AA6E675 EQ PUSH2 0x68A JUMPI DUP2 PUSH4 0x70A08231 EQ PUSH2 0x652 JUMPI DUP2 PUSH4 0x74F4F547 EQ PUSH2 0x61B JUMPI DUP2 PUSH4 0x8C2A993E EQ PUSH2 0x5E2 JUMPI DUP2 PUSH4 0x8DA5CB5B EQ PUSH2 0x5B9 JUMPI DUP2 PUSH4 0x8DD14802 EQ PUSH2 0x544 JUMPI DUP2 PUSH4 0x95D89B41 EQ PUSH2 0x421 JUMPI DUP2 PUSH4 0xA89AE7D0 EQ PUSH2 0x2FB JUMPI DUP2 PUSH4 0xA9059CBB EQ PUSH2 0x2CA JUMPI DUP2 PUSH4 0xAB033EA9 EQ PUSH2 0x252 JUMPI DUP2 PUSH4 0xDD329B5C EQ PUSH2 0x184 JUMPI DUP2 PUSH4 0xDD62ED3E EQ PUSH2 0x137 JUMPI POP PUSH4 0xE78CEA92 EQ PUSH2 0x10C JUMPI PUSH1 0x0 DUP1 REVERT JUMPDEST CALLVALUE PUSH2 0x133 JUMPI DUP2 PUSH1 0x3 NOT CALLDATASIZE ADD SLT PUSH2 0x133 JUMPI PUSH1 0x6 SLOAD SWAP1 MLOAD PUSH1 0x1 PUSH1 0x1 PUSH1 0xA0 SHL SUB SWAP1 SWAP2 AND DUP2 MSTORE PUSH1 0x20 SWAP1 RETURN JUMPDEST POP DUP1 REVERT JUMPDEST SWAP1 POP CALLVALUE PUSH2 0x180 JUMPI DUP2 PUSH1 0x3 NOT CALLDATASIZE ADD SLT PUSH2 0x180 JUMPI PUSH1 0x20 SWAP3 DUP3 SWAP2 PUSH2 0x156 PUSH2 0xA70 JUMP JUMPDEST PUSH2 0x15E PUSH2 0xA8B JUMP JUMPDEST PUSH1 0x1 PUSH1 0x1 PUSH1 0xA0 SHL SUB SWAP2 DUP3 AND DUP5 MSTORE SWAP2 DUP7 MSTORE DUP4 DUP4 KECCAK256 SWAP2 AND DUP3 MSTORE DUP5 MSTORE KECCAK256 SLOAD SWAP1 MLOAD SWAP1 DUP2 MSTORE RETURN JUMPDEST DUP3 DUP1 REVERT JUMPDEST SWAP2 SWAP1 POP CALLVALUE PUSH2 0x180 JUMPI DUP1 PUSH1 0x3 NOT CALLDATASIZE ADD SLT PUSH2 0x180 JUMPI PUSH2 0x19F PUSH2 0xA70 JUMP JUMPDEST PUSH1 0x7 SLOAD PUSH1 0x24 CALLDATALOAD SWAP3 SWAP2 PUSH1 0x1 PUSH1 0x1 PUSH1 0xA0 SHL SUB SWAP2 PUSH2 0x1BD SWAP1 DUP4 AND CALLER EQ PUSH2 0xAD9 JUMP JUMPDEST AND SWAP3 DUP4 ISZERO PUSH2 0x21A JUMPI POP PUSH1 0x20 DUP3 PUSH32 0xDDF252AD1BE2C89B69C2B068FC378DAA952BA7F163C4A11628F55A4DF523B3EF SWAP3 PUSH2 0x1F8 DUP8 SWAP6 PUSH1 0x2 SLOAD PUSH2 0xC00 JUMP JUMPDEST PUSH1 0x2 SSTORE DUP6 DUP6 MSTORE PUSH1 0x3 DUP4 MSTORE DUP1 DUP6 KECCAK256 PUSH2 0x210 DUP4 DUP3 SLOAD PUSH2 0xC00 JUMP JUMPDEST SWAP1 SSTORE MLOAD SWAP1 DUP2 MSTORE LOG3 DUP1 RETURN JUMPDEST PUSH1 0x20 PUSH1 0x64 SWAP3 MLOAD SWAP2 PUSH3 0x461BCD PUSH1 0xE5 SHL DUP4 MSTORE DUP3 ADD MSTORE PUSH1 0x13 PUSH1 0x24 DUP3 ADD MSTORE PUSH19 0x45524332303A206D696E7420746F207A65726F PUSH1 0x68 SHL PUSH1 0x44 DUP3 ADD MSTORE REVERT JUMPDEST DUP4 CALLVALUE PUSH2 0x2C7 JUMPI PUSH1 0x20 CALLDATASIZE PUSH1 0x3 NOT ADD SLT PUSH2 0x2C7 JUMPI PUSH2 0x26C PUSH2 0xA70 JUMP JUMPDEST PUSH1 0x5 SLOAD PUSH1 0x1 PUSH1 0x1 PUSH1 0xA0 SHL SUB SWAP2 SWAP1 PUSH2 0x286 SWAP1 DUP4 AND CALLER EQ PUSH2 0xAA1 JUMP JUMPDEST AND DUP1 PUSH12 0xFFFFFFFFFFFFFFFFFFFFFFFF PUSH1 0xA0 SHL PUSH1 0x7 SLOAD AND OR PUSH1 0x7 SSTORE PUSH32 0x9D3E522E1E47A2F6009739342B9CC7B252A1888154E843AB55EE1C81745795AB DUP3 DUP1 LOG2 DUP1 RETURN JUMPDEST DUP1 REVERT JUMPDEST POP POP CALLVALUE PUSH2 0x133 JUMPI DUP1 PUSH1 0x3 NOT CALLDATASIZE ADD SLT PUSH2 0x133 JUMPI PUSH1 0x20 SWAP1 PUSH2 0x2F4 PUSH2 0x2EA PUSH2 0xA70 JUMP JUMPDEST PUSH1 0x24 CALLDATALOAD SWAP1 CALLER PUSH2 0xC23 JUMP JUMPDEST MLOAD PUSH1 0x1 DUP2 MSTORE RETURN JUMPDEST DUP4 DUP4 CALLVALUE PUSH2 0x133 JUMPI DUP1 PUSH1 0x3 NOT CALLDATASIZE ADD SLT PUSH2 0x133 JUMPI PUSH2 0x315 PUSH2 0xA70 JUMP JUMPDEST PUSH1 0x7 SLOAD PUSH1 0x24 CALLDATALOAD SWAP2 PUSH1 0x1 PUSH1 0x1 PUSH1 0xA0 SHL SUB SWAP2 PUSH2 0x332 SWAP1 DUP4 AND CALLER EQ PUSH2 0xAD9 JUMP JUMPDEST AND SWAP2 DUP3 ISZERO PUSH2 0x3E7 JUMPI DUP3 DUP5 MSTORE PUSH1 0x3 PUSH1 0x20 MSTORE DUP1 DUP5 KECCAK256 SLOAD DUP3 DUP2 LT PUSH2 0x3AF JUMPI DUP3 SWAP1 DUP5 DUP7 MSTORE PUSH1 0x3 PUSH1 0x20 MSTORE SUB DUP2 DUP6 KECCAK256 SSTORE PUSH1 0x2 SLOAD DUP3 DUP2 SUB SWAP1 DUP2 GT PUSH2 0x39C JUMPI DUP5 SWAP4 SWAP3 PUSH32 0xDDF252AD1BE2C89B69C2B068FC378DAA952BA7F163C4A11628F55A4DF523B3EF SWAP3 PUSH1 0x20 SWAP3 PUSH1 0x2 SSTORE MLOAD SWAP1 DUP2 MSTORE LOG3 DUP1 RETURN JUMPDEST PUSH4 0x4E487B71 PUSH1 0xE0 SHL DUP6 MSTORE PUSH1 0x11 DUP7 MSTORE PUSH1 0x24 DUP6 REVERT JUMPDEST DUP2 MLOAD PUSH3 0x461BCD PUSH1 0xE5 SHL DUP2 MSTORE PUSH1 0x20 DUP2 DUP9 ADD MSTORE PUSH1 0x12 PUSH1 0x24 DUP3 ADD MSTORE PUSH18 0x115490CC8C0E88189D5C9B88185B5BDD5B9D PUSH1 0x72 SHL PUSH1 0x44 DUP3 ADD MSTORE PUSH1 0x64 SWAP1 REVERT JUMPDEST MLOAD PUSH3 0x461BCD PUSH1 0xE5 SHL DUP2 MSTORE PUSH1 0x20 DUP2 DUP7 ADD MSTORE PUSH1 0x15 PUSH1 0x24 DUP3 ADD MSTORE PUSH21 0x45524332303A206275726E2066726F6D207A65726F PUSH1 0x58 SHL PUSH1 0x44 DUP3 ADD MSTORE PUSH1 0x64 SWAP1 REVERT JUMPDEST DUP4 DUP4 CALLVALUE PUSH2 0x133 JUMPI DUP2 PUSH1 0x3 NOT CALLDATASIZE ADD SLT PUSH2 0x133 JUMPI DUP1 MLOAD SWAP1 DUP3 PUSH1 0x1 DUP1 SLOAD SWAP1 DUP2 PUSH1 0x1 SHR SWAP1 PUSH1 0x1 DUP4 AND SWAP3 DUP4 ISZERO PUSH2 0x53A JUMPI JUMPDEST PUSH1 0x20 SWAP4 DUP5 DUP5 LT DUP2 EQ PUSH2 0x527 JUMPI DUP4 DUP9 MSTORE SWAP1 DUP2 ISZERO PUSH2 0x50B JUMPI POP PUSH1 0x1 EQ PUSH2 0x4B5 JUMPI JUMPDEST POP POP POP DUP3 SWAP1 SUB PUSH1 0x1F ADD PUSH1 0x1F NOT AND DUP3 ADD SWAP3 PUSH8 0xFFFFFFFFFFFFFFFF DUP5 GT DUP4 DUP6 LT OR PUSH2 0x4A2 JUMPI POP DUP3 SWAP2 DUP3 PUSH2 0x49E SWAP3 MSTORE DUP3 PUSH2 0xA27 JUMP JUMPDEST SUB SWAP1 RETURN JUMPDEST PUSH4 0x4E487B71 PUSH1 0xE0 SHL DUP2 MSTORE PUSH1 0x41 DUP6 MSTORE PUSH1 0x24 SWAP1 REVERT JUMPDEST PUSH1 0x1 DUP8 MSTORE SWAP2 SWAP3 POP DUP6 SWAP2 DUP4 PUSH32 0xB10E2D527612073B26EECDFD717E6A320CF44B4AFAC2B0732D9FCBE2B7FA0CF6 JUMPDEST DUP4 DUP6 LT PUSH2 0x4F7 JUMPI POP POP POP POP DUP4 ADD ADD DUP6 DUP1 DUP1 PUSH2 0x46C JUMP JUMPDEST DUP1 SLOAD DUP9 DUP7 ADD DUP4 ADD MSTORE SWAP4 ADD SWAP3 DUP5 SWAP1 DUP3 ADD PUSH2 0x4E1 JUMP JUMPDEST PUSH1 0xFF NOT AND DUP8 DUP6 ADD MSTORE POP POP ISZERO ISZERO PUSH1 0x5 SHL DUP5 ADD ADD SWAP1 POP DUP6 DUP1 DUP1 PUSH2 0x46C JUMP JUMPDEST PUSH4 0x4E487B71 PUSH1 0xE0 SHL DUP10 MSTORE PUSH1 0x22 DUP11 MSTORE PUSH1 0x24 DUP10 REVERT JUMPDEST SWAP2 PUSH1 0x7F AND SWAP2 PUSH2 0x44D JUMP JUMPDEST DUP4 CALLVALUE PUSH2 0x2C7 JUMPI PUSH1 0x20 CALLDATASIZE PUSH1 0x3 NOT ADD SLT PUSH2 0x2C7 JUMPI PUSH2 0x55E PUSH2 0xA70 JUMP JUMPDEST PUSH1 0x5 SLOAD PUSH1 0x1 PUSH1 0x1 PUSH1 0xA0 SHL SUB SWAP2 SWAP1 PUSH2 0x578 SWAP1 DUP4 AND CALLER EQ PUSH2 0xAA1 JUMP JUMPDEST AND DUP1 PUSH12 0xFFFFFFFFFFFFFFFFFFFFFFFF PUSH1 0xA0 SHL PUSH1 0x6 SLOAD AND OR PUSH1 0x6 SSTORE PUSH32 0xE1694C0B21FDCEFF6411DAED547C7463C2341B9695387BC82595B5B9B1851D4A DUP3 DUP1 LOG2 DUP1 RETURN JUMPDEST POP POP CALLVALUE PUSH2 0x133 JUMPI DUP2 PUSH1 0x3 NOT CALLDATASIZE ADD SLT PUSH2 0x133 JUMPI PUSH1 0x5 SLOAD SWAP1 MLOAD PUSH1 0x1 PUSH1 0x1 PUSH1 0xA0 SHL SUB SWAP1 SWAP2 AND DUP2 MSTORE PUSH1 0x20 SWAP1 RETURN JUMPDEST SWAP2 SWAP1 POP CALLVALUE PUSH2 0x180 JUMPI DUP1 PUSH1 0x3 NOT CALLDATASIZE ADD SLT PUSH2 0x180 JUMPI PUSH2 0x5FD PUSH2 0xA70 JUMP JUMPDEST PUSH1 0x6 SLOAD PUSH1 0x24 CALLDATALOAD SWAP3 SWAP2 PUSH1 0x1 PUSH1 0x1 PUSH1 0xA0 SHL SUB SWAP2 PUSH2 0x1BD SWAP1 DUP4 AND CALLER EQ PUSH2 0xB0F JUMP JUMPDEST DUP4 DUP4 CALLVALUE PUSH2 0x133 JUMPI DUP1 PUSH1 0x3 NOT CALLDATASIZE ADD SLT PUSH2 0x133 JUMPI PUSH2 0x635 PUSH2 0xA70 JUMP JUMPDEST PUSH1 0x6 SLOAD PUSH1 0x24 CALLDATALOAD SWAP2 PUSH1 0x1 PUSH1 0x1 PUSH1 0xA0 SHL SUB SWAP2 PUSH2 0x332 SWAP1 DUP4 AND CALLER EQ PUSH2 0xB0F JUMP JUMPDEST POP POP CALLVALUE PUSH2 0x133 JUMPI PUSH1 0x20 CALLDATASIZE PUSH1 0x3 NOT ADD SLT PUSH2 0x133 JUMPI PUSH1 0x20 SWAP2 DUP2 SWAP1 PUSH1 0x1 PUSH1 0x1 PUSH1 0xA0 SHL SUB PUSH2 0x67A PUSH2 0xA70 JUMP JUMPDEST AND DUP2 MSTORE PUSH1 0x3 DUP5 MSTORE KECCAK256 SLOAD SWAP1 MLOAD SWAP1 DUP2 MSTORE RETURN JUMPDEST POP POP CALLVALUE PUSH2 0x133 JUMPI DUP2 PUSH1 0x3 NOT CALLDATASIZE ADD SLT PUSH2 0x133 JUMPI PUSH1 0x7 SLOAD SWAP1 MLOAD PUSH1 0x1 PUSH1 0x1 PUSH1 0xA0 SHL SUB SWAP1 SWAP2 AND DUP2 MSTORE PUSH1 0x20 SWAP1 RETURN JUMPDEST POP POP CALLVALUE PUSH2 0x133 JUMPI DUP2 PUSH1 0x3 NOT CALLDATASIZE ADD SLT PUSH2 0x133 JUMPI PUSH1 0x20 SWAP1 MLOAD PUSH1 0xFF PUSH32 0x0 AND DUP2 MSTORE RETURN JUMPDEST SWAP1 POP CALLVALUE PUSH2 0x180 JUMPI DUP2 PUSH1 0x3 NOT CALLDATASIZE ADD SLT PUSH2 0x180 JUMPI DUP1 CALLDATALOAD SWAP2 PUSH1 0x24 CALLDATALOAD SWAP2 PUSH2 0x71F PUSH1 0x1 DUP1 PUSH1 0xA0 SHL SUB PUSH1 0x7 SLOAD AND CALLER EQ PUSH2 0xAD9 JUMP JUMPDEST PUSH2 0x2710 DUP4 GT PUSH2 0x762 JUMPI POP PUSH32 0x90A5C2B853F5D313A0F9DF36087E73F6F45300CA32E3CBCCF9ED750A5F6D4A74 SWAP2 PUSH1 0x20 SWAP2 DUP5 DUP7 MSTORE PUSH1 0x8 DUP4 MSTORE DUP2 DUP2 DUP8 KECCAK256 SSTORE MLOAD SWAP1 DUP2 MSTORE LOG2 DUP1 RETURN JUMPDEST PUSH1 0x20 PUSH1 0x64 SWAP3 MLOAD SWAP2 PUSH3 0x461BCD PUSH1 0xE5 SHL DUP4 MSTORE DUP3 ADD MSTORE PUSH1 0x9 PUSH1 0x24 DUP3 ADD MSTORE PUSH9 0x6270733E313030303 PUSH1 0xBC SHL PUSH1 0x44 DUP3 ADD MSTORE REVERT JUMPDEST SWAP1 POP CALLVALUE PUSH2 0x180 JUMPI PUSH1 0x20 CALLDATASIZE PUSH1 0x3 NOT ADD SLT PUSH2 0x180 JUMPI PUSH1 0x20 SWAP3 DUP3 SWAP2 CALLDATALOAD DUP2 MSTORE PUSH1 0x8 DUP5 MSTORE KECCAK256 SLOAD SWAP1 MLOAD SWAP1 DUP2 MSTORE RETURN JUMPDEST DUP4 SWAP2 POP CALLVALUE PUSH2 0x133 JUMPI PUSH1 0x60 CALLDATASIZE PUSH1 0x3 NOT ADD SLT PUSH2 0x133 JUMPI PUSH2 0x7D4 PUSH2 0xA70 JUMP JUMPDEST PUSH2 0x7DC PUSH2 0xA8B JUMP JUMPDEST PUSH1 0x1 PUSH1 0x1 PUSH1 0xA0 SHL SUB DUP3 AND DUP5 MSTORE PUSH1 0x20 DUP4 DUP2 MSTORE DUP6 DUP6 KECCAK256 CALLER DUP7 MSTORE SWAP1 MSTORE SWAP3 DUP5 SWAP1 KECCAK256 SLOAD PUSH1 0x44 CALLDATALOAD SWAP4 SWAP3 DUP5 DUP3 LT PUSH2 0x821 JUMPI PUSH1 0x20 DUP7 PUSH2 0x2F4 DUP8 DUP8 DUP8 PUSH2 0x81C DUP4 DUP10 SUB CALLER DUP4 PUSH2 0xB8A JUMP JUMPDEST PUSH2 0xC23 JUMP JUMPDEST PUSH1 0x64 SWAP1 PUSH1 0x20 DUP8 MLOAD SWAP2 PUSH3 0x461BCD PUSH1 0xE5 SHL DUP4 MSTORE DUP3 ADD MSTORE PUSH1 0x1D PUSH1 0x24 DUP3 ADD MSTORE PUSH32 0x45524332303A20696E73756666696369656E7420616C6C6F77616E6365000000 PUSH1 0x44 DUP3 ADD MSTORE REVERT JUMPDEST POP POP CALLVALUE PUSH2 0x133 JUMPI DUP2 PUSH1 0x3 NOT CALLDATASIZE ADD SLT PUSH2 0x133 JUMPI PUSH1 0x20 SWAP1 PUSH1 0x2 SLOAD SWAP1 MLOAD SWAP1 DUP2 MSTORE RETURN JUMPDEST DUP4 SWAP2 POP CALLVALUE PUSH2 0x133 JUMPI PUSH1 0x20 CALLDATASIZE PUSH1 0x3 NOT ADD SLT PUSH2 0x133 JUMPI PUSH2 0x89F PUSH2 0xA70 JUMP JUMPDEST PUSH1 0x5 SLOAD SWAP1 PUSH1 0x1 PUSH1 0x1 PUSH1 0xA0 SHL SUB SWAP1 PUSH2 0x8B9 CALLER DUP4 DUP6 AND EQ PUSH2 0xAA1 JUMP JUMPDEST AND SWAP2 DUP3 ISZERO PUSH2 0x8F8 JUMPI POP PUSH1 0x1 PUSH1 0x1 PUSH1 0xA0 SHL SUB NOT AND DUP2 OR PUSH1 0x5 SSTORE PUSH32 0x4FFD725FC4A22075E9EC71C59EDF9C38CDEB588A91B24FC5B61388C5BE41282B DUP3 DUP1 LOG2 DUP1 RETURN JUMPDEST PUSH1 0x64 SWAP1 PUSH1 0x20 DUP7 MLOAD SWAP2 PUSH3 0x461BCD PUSH1 0xE5 SHL DUP4 MSTORE DUP3 ADD MSTORE PUSH1 0x7 PUSH1 0x24 DUP3 ADD MSTORE PUSH7 0x6F776E65723D3 PUSH1 0xCC SHL PUSH1 0x44 DUP3 ADD MSTORE REVERT JUMPDEST POP POP CALLVALUE PUSH2 0x133 JUMPI DUP1 PUSH1 0x3 NOT CALLDATASIZE ADD SLT PUSH2 0x133 JUMPI PUSH1 0x20 SWAP1 PUSH2 0x2F4 PUSH2 0x945 PUSH2 0xA70 JUMP JUMPDEST PUSH1 0x24 CALLDATALOAD SWAP1 CALLER PUSH2 0xB8A JUMP JUMPDEST DUP5 SWAP1 DUP5 CALLVALUE PUSH2 0x180 JUMPI DUP3 PUSH1 0x3 NOT CALLDATASIZE ADD SLT PUSH2 0x180 JUMPI DUP3 DUP4 SLOAD PUSH1 0x1 DUP2 PUSH1 0x1 SHR SWAP1 PUSH1 0x1 DUP4 AND SWAP3 DUP4 ISZERO PUSH2 0xA1D JUMPI JUMPDEST PUSH1 0x20 SWAP4 DUP5 DUP5 LT DUP2 EQ PUSH2 0x527 JUMPI DUP4 DUP9 MSTORE SWAP1 DUP2 ISZERO PUSH2 0x50B JUMPI POP PUSH1 0x1 EQ PUSH2 0x9C8 JUMPI POP POP POP DUP3 SWAP1 SUB PUSH1 0x1F ADD PUSH1 0x1F NOT AND DUP3 ADD SWAP3 PUSH8 0xFFFFFFFFFFFFFFFF DUP5 GT DUP4 DUP6 LT OR PUSH2 0x4A2 JUMPI POP DUP3 SWAP2 DUP3 PUSH2 0x49E SWAP3 MSTORE DUP3 PUSH2 0xA27 JUMP JUMPDEST DUP7 DUP1 MSTORE SWAP2 SWAP3 POP DUP6 SWAP2 DUP4 PUSH32 0x290DECD9548B62A8D60345A988386FC84BA6BC95484008F6362F93160EF3E563 JUMPDEST DUP4 DUP6 LT PUSH2 0xA09 JUMPI POP POP POP POP DUP4 ADD ADD DUP6 DUP1 DUP1 PUSH2 0x46C JUMP JUMPDEST DUP1 SLOAD DUP9 DUP7 ADD DUP4 ADD MSTORE SWAP4 ADD SWAP3 DUP5 SWAP1 DUP3 ADD PUSH2 0x9F3 JUMP JUMPDEST SWAP2 PUSH1 0x7F AND SWAP2 PUSH2 0x978 JUMP JUMPDEST PUSH1 0x20 DUP1 DUP3 MSTORE DUP3 MLOAD DUP2 DUP4 ADD DUP2 SWAP1 MSTORE SWAP1 SWAP4 SWAP3 PUSH1 0x0 JUMPDEST DUP3 DUP2 LT PUSH2 0xA5C JUMPI POP POP PUSH1 0x40 SWAP3 SWAP4 POP PUSH1 0x0 DUP4 DUP3 DUP5 ADD ADD MSTORE PUSH1 0x1F DUP1 NOT SWAP2 ADD AND ADD ADD SWAP1 JUMP JUMPDEST DUP2 DUP2 ADD DUP7 ADD MLOAD DUP5 DUP3 ADD PUSH1 0x40 ADD MSTORE DUP6 ADD PUSH2 0xA3A JUMP JUMPDEST PUSH1 0x4 CALLDATALOAD SWAP1 PUSH1 0x1 PUSH1 0x1 PUSH1 0xA0 SHL SUB DUP3 AND DUP3 SUB PUSH2 0xA86 JUMPI JUMP JUMPDEST PUSH1 0x0 DUP1 REVERT JUMPDEST PUSH1 0x24 CALLDATALOAD SWAP1 PUSH1 0x1 PUSH1 0x1 PUSH1 0xA0 SHL SUB DUP3 AND DUP3 SUB PUSH2 0xA86 JUMPI JUMP JUMPDEST ISZERO PUSH2 0xAA8 JUMPI JUMP JUMPDEST PUSH1 0x40 MLOAD PUSH3 0x461BCD PUSH1 0xE5 SHL DUP2 MSTORE PUSH1 0x20 PUSH1 0x4 DUP3 ADD MSTORE PUSH1 0x9 PUSH1 0x24 DUP3 ADD MSTORE PUSH9 0x2727AA2FA7ABA722A9 PUSH1 0xB9 SHL PUSH1 0x44 DUP3 ADD MSTORE PUSH1 0x64 SWAP1 REVERT JUMPDEST ISZERO PUSH2 0xAE0 JUMPI JUMP JUMPDEST PUSH1 0x40 MLOAD PUSH3 0x461BCD PUSH1 0xE5 SHL DUP2 MSTORE PUSH1 0x20 PUSH1 0x4 DUP3 ADD MSTORE PUSH1 0x7 PUSH1 0x24 DUP3 ADD MSTORE PUSH7 0x2727AA2FA3A7AB PUSH1 0xC9 SHL PUSH1 0x44 DUP3 ADD MSTORE PUSH1 0x64 SWAP1 REVERT JUMPDEST ISZERO PUSH2 0xB16 JUMPI JUMP JUMPDEST PUSH1 0x40 MLOAD PUSH3 0x461BCD PUSH1 0xE5 SHL DUP2 MSTORE PUSH1 0x20 PUSH1 0x4 DUP3 ADD MSTORE PUSH1 0xA PUSH1 0x24 DUP3 ADD MSTORE PUSH10 0x4E4F545F425249444745 PUSH1 0xB0 SHL PUSH1 0x44 DUP3 ADD MSTORE PUSH1 0x64 SWAP1 REVERT JUMPDEST ISZERO PUSH2 0xB4F JUMPI JUMP JUMPDEST PUSH1 0x40 MLOAD PUSH3 0x461BCD PUSH1 0xE5 SHL DUP2 MSTORE PUSH1 0x20 PUSH1 0x4 DUP3 ADD MSTORE PUSH1 0x13 PUSH1 0x24 DUP3 ADD MSTORE PUSH19 0x45524332303A207A65726F2061646472657373 PUSH1 0x68 SHL PUSH1 0x44 DUP3 ADD MSTORE PUSH1 0x64 SWAP1 REVERT JUMPDEST SWAP1 SWAP2 PUSH1 0x1 PUSH1 0x1 PUSH1 0xA0 SHL SUB SWAP2 DUP3 AND SWAP2 PUSH32 0x8C5BE1E5EBEC7D5BD14F71427D1E84F3DD0314C0F7B2291E5B200AC8C7C3B925 SWAP2 PUSH1 0x20 SWAP2 DUP5 ISZERO ISZERO DUP1 PUSH2 0xBF5 JUMPI JUMPDEST PUSH2 0xBCF SWAP1 PUSH2 0xB48 JUMP JUMPDEST DUP5 PUSH1 0x0 MSTORE PUSH1 0x4 DUP4 MSTORE PUSH1 0x40 PUSH1 0x0 KECCAK256 SWAP6 AND SWAP5 DUP6 PUSH1 0x0 MSTORE DUP3 MSTORE DUP1 PUSH1 0x40 PUSH1 0x0 KECCAK256 SSTORE PUSH1 0x40 MLOAD SWAP1 DUP2 MSTORE LOG3 JUMP JUMPDEST POP DUP6 DUP2 AND ISZERO ISZERO PUSH2 0xBC6 JUMP JUMPDEST SWAP2 SWAP1 DUP3 ADD DUP1 SWAP3 GT PUSH2 0xC0D JUMPI JUMP JUMPDEST PUSH4 0x4E487B71 PUSH1 0xE0 SHL PUSH1 0x0 MSTORE PUSH1 0x11 PUSH1 0x4 MSTORE PUSH1 0x24 PUSH1 0x0 REVERT JUMPDEST PUSH1 0x1 PUSH1 0x1 PUSH1 0xA0 SHL SUB SWAP1 DUP2 AND SWAP2 DUP3 ISZERO ISZERO DUP1 PUSH2 0xCDF JUMPI JUMPDEST PUSH2 0xC41 SWAP1 PUSH2 0xB48 JUMP JUMPDEST PUSH1 0x0 SWAP4 DUP4 DUP6 MSTORE PUSH1 0x3 PUSH1 0x20 MSTORE PUSH1 0x40 DUP6 KECCAK256 SLOAD DUP2 DUP2 LT PUSH2 0xCA9 JUMPI PUSH32 0xDDF252AD1BE2C89B69C2B068FC378DAA952BA7F163C4A11628F55A4DF523B3EF SWAP4 PUSH1 0x20 SWAP4 DUP4 PUSH1 0x40 SWAP4 DUP9 DUP11 MSTORE PUSH1 0x3 DUP8 MSTORE SUB DUP4 DUP10 KECCAK256 SSTORE AND SWAP6 DUP7 DUP2 MSTORE KECCAK256 PUSH2 0xC9E DUP3 DUP3 SLOAD PUSH2 0xC00 JUMP JUMPDEST SWAP1 SSTORE PUSH1 0x40 MLOAD SWAP1 DUP2 MSTORE LOG3 JUMP JUMPDEST PUSH1 0x40 MLOAD PUSH3 0x461BCD PUSH1 0xE5 SHL DUP2 MSTORE PUSH1 0x20 PUSH1 0x4 DUP3 ADD MSTORE PUSH1 0xE PUSH1 0x24 DUP3 ADD MSTORE PUSH14 0x45524332303A2062616C616E6365 PUSH1 0x90 SHL PUSH1 0x44 DUP3 ADD MSTORE PUSH1 0x64 SWAP1 REVERT JUMPDEST POP DUP1 DUP3 AND ISZERO ISZERO PUSH2 0xC38 JUMP INVALID LOG2 PUSH5 0x6970667358 0x22 SLT KECCAK256 0xF PUSH11 0x619D79295B1CC2EAC25303 0xA9 0xF EXTCODESIZE GT 0x2C SLT CALLDATALOAD DUP7 SDIV 0xEF 0xAC 0xAE DUP3 PUSH12 0x8A80F9551F64736F6C634300 ADDMOD XOR STOP CALLER "},"methodIdentifiers":{"allowance(address,address)":"dd62ed3e","approve(address,uint256)":"095ea7b3","balanceOf(address)":"70a08231","bridge()":"e78cea92","bridgeBurn(address,uint256)":"74f4f547","bridgeMint(address,uint256)":"8c2a993e","decimals()":"313ce567","governance()":"5aa6e675","governanceBurn(address,uint256)":"a89ae7d0","governanceMint(address,uint256)":"dd329b5c","name()":"06fdde03","owner()":"8da5cb5b","quorumOverrideBps(uint256)":"26c42504","setBridge(address)":"8dd14802","setGovernance(address)":"ab033ea9","setOwner(address)":"13af4035","setQuorumOverride(uint256,uint256)":"285465e5","symbol()":"95d89b41","totalSupply()":"18160ddd","transfer(address,uint256)":"a9059cbb","transferFrom(address,address,uint256)":"23b872dd"}}}}}