{"contracts/ZkBallot.sol":{"ZkBallot":{"abi":[{"inputs":[{"internalType":"address","name":"_verifier","type":"address"},{"internalType":"uint256","name":"_groupId","type":"uint256"},{"internalType":"uint64","name":"_votingStarts","type":"uint64"},{"internalType":"uint64","name":"_votingEnds","type":"uint64"},{"components":[{"internalType":"string","name":"title","type":"string"},{"internalType":"string","name":"description","type":"string"}],"internalType":"struct ZkBallot.Proposal[]","name":"_proposals","type":"tuple[]"}],"stateMutability":"nonpayable","type":"constructor"},{"inputs":[],"name":"InvalidOption","type":"error"},{"inputs":[],"name":"InvalidProof","type":"error"},{"inputs":[],"name":"NotAdmin","type":"error"},{"inputs":[],"name":"NullifierUsed","type":"error"},{"inputs":[],"name":"VotingClosed","type":"error"},{"inputs":[],"name":"VotingNotStarted","type":"error"},{"anonymous":false,"inputs":[],"name":"ResultsFinalized","type":"event"},{"anonymous":false,"inputs":[{"indexed":true,"internalType":"uint256","name":"optionId","type":"uint256"},{"indexed":false,"internalType":"uint256","name":"weight","type":"uint256"},{"indexed":false,"internalType":"uint256","name":"nullifierHash","type":"uint256"}],"name":"VoteSubmitted","type":"event"},{"inputs":[],"name":"admin","outputs":[{"internalType":"address","name":"","type":"address"}],"stateMutability":"view","type":"function"},{"inputs":[],"name":"finalizeResults","outputs":[],"stateMutability":"nonpayable","type":"function"},{"inputs":[],"name":"getWeightedTotals","outputs":[{"internalType":"uint256[]","name":"","type":"uint256[]"}],"stateMutability":"view","type":"function"},{"inputs":[],"name":"groupId","outputs":[{"internalType":"uint256","name":"","type":"uint256"}],"stateMutability":"view","type":"function"},{"inputs":[{"internalType":"uint256","name":"","type":"uint256"}],"name":"nullifierUsed","outputs":[{"internalType":"bool","name":"","type":"bool"}],"stateMutability":"view","type":"function"},{"inputs":[],"name":"numProposals","outputs":[{"internalType":"uint256","name":"","type":"uint256"}],"stateMutability":"view","type":"function"},{"inputs":[{"internalType":"uint256","name":"","type":"uint256"}],"name":"optionIdToWeightedTotal","outputs":[{"internalType":"uint256","name":"","type":"uint256"}],"stateMutability":"view","type":"function"},{"inputs":[{"internalType":"uint256","name":"","type":"uint256"}],"name":"proposals","outputs":[{"internalType":"string","name":"title","type":"string"},{"internalType":"string","name":"description","type":"string"}],"stateMutability":"view","type":"function"},{"inputs":[{"components":[{"internalType":"uint256[2]","name":"pA","type":"uint256[2]"},{"internalType":"uint256[2][2]","name":"pB","type":"uint256[2][2]"},{"internalType":"uint256[2]","name":"pC","type":"uint256[2]"},{"internalType":"uint256[4]","name":"pubSignals","type":"uint256[4]"},{"internalType":"uint32","name":"merkleTreeDepth","type":"uint32"},{"internalType":"uint256","name":"weight","type":"uint256"}],"internalType":"struct ZkBallot.VoteProof","name":"proof","type":"tuple"},{"internalType":"uint256","name":"optionId","type":"uint256"}],"name":"submitVote","outputs":[],"stateMutability":"nonpayable","type":"function"},{"inputs":[],"name":"verifier","outputs":[{"internalType":"contract ISemaphoreVerifier","name":"","type":"address"}],"stateMutability":"view","type":"function"},{"inputs":[],"name":"votingEnds","outputs":[{"internalType":"uint64","name":"","type":"uint64"}],"stateMutability":"view","type":"function"},{"inputs":[],"name":"votingStarts","outputs":[{"internalType":"uint64","name":"","type":"uint64"}],"stateMutability":"view","type":"function"}],"evm":{"bytecode":{"linkReferences":{},"object":"6101206040523480156200001257600080fd5b5060405162001f3538038062001f358339818101604052810190620000389190620006ab565b600073ffffffffffffffffffffffffffffffffffffffff168573ffffffffffffffffffffffffffffffffffffffff1603620000aa576040517f08c379a0000000000000000000000000000000000000000000000000000000008152600401620000a190620007b3565b60405180910390fd5b8167ffffffffffffffff168367ffffffffffffffff161062000103576040517f08c379a0000000000000000000000000000000000000000000000000000000008152600401620000fa9062000825565b60405180910390fd5b6002815110156200014b576040517f08c379a0000000000000000000000000000000000000000000000000000000008152600401620001429062000897565b60405180910390fd5b3373ffffffffffffffffffffffffffffffffffffffff1660808173ffffffffffffffffffffffffffffffffffffffff16815250508473ffffffffffffffffffffffffffffffffffffffff1660a08173ffffffffffffffffffffffffffffffffffffffff16815250508360c081815250508267ffffffffffffffff1660e08167ffffffffffffffff16815250508167ffffffffffffffff166101008167ffffffffffffffff168152505060005b81518110156200028a576000828281518110620002195762000218620008b9565b5b60200260200101519080600181540180825580915050600190039060005260206000209060020201600090919091909150600082015181600001908162000261919062000b29565b50602082015181600101908162000279919062000b29565b5050508080600101915050620001f7565b50505050505062000c10565b6000604051905090565b600080fd5b600080fd5b600073ffffffffffffffffffffffffffffffffffffffff82169050919050565b6000620002d782620002aa565b9050919050565b620002e981620002ca565b8114620002f557600080fd5b50565b6000815190506200030981620002de565b92915050565b6000819050919050565b62000324816200030f565b81146200033057600080fd5b50565b600081519050620003448162000319565b92915050565b600067ffffffffffffffff82169050919050565b62000369816200034a565b81146200037557600080fd5b50565b60008151905062000389816200035e565b92915050565b600080fd5b6000601f19601f8301169050919050565b7f4e487b7100000000000000000000000000000000000000000000000000000000600052604160045260246000fd5b620003df8262000394565b810181811067ffffffffffffffff82111715620004015762000400620003a5565b5b80604052505050565b60006200041662000296565b9050620004248282620003d4565b919050565b600067ffffffffffffffff821115620004475762000446620003a5565b5b602082029050602081019050919050565b600080fd5b600080fd5b600080fd5b600080fd5b600067ffffffffffffffff8211156200048a5762000489620003a5565b5b620004958262000394565b9050602081019050919050565b60005b83811015620004c2578082015181840152602081019050620004a5565b60008484015250505050565b6000620004e5620004df846200046c565b6200040a565b90508281526020810184848401111562000504576200050362000467565b5b62000511848285620004a2565b509392505050565b600082601f8301126200053157620005306200038f565b5b815162000543848260208601620004ce565b91505092915050565b6000604082840312156200056557620005646200045d565b5b6200057160406200040a565b9050600082015167ffffffffffffffff81111562000594576200059362000462565b5b620005a28482850162000519565b600083015250602082015167ffffffffffffffff811115620005c957620005c862000462565b5b620005d78482850162000519565b60208301525092915050565b6000620005fa620005f48462000429565b6200040a565b9050808382526020820190506020840283018581111562000620576200061f62000458565b5b835b818110156200066e57805167ffffffffffffffff8111156200064957620006486200038f565b5b8086016200065889826200054c565b8552602085019450505060208101905062000622565b5050509392505050565b600082601f83011262000690576200068f6200038f565b5b8151620006a2848260208601620005e3565b91505092915050565b600080600080600060a08688031215620006ca57620006c9620002a0565b5b6000620006da88828901620002f8565b9550506020620006ed8882890162000333565b9450506040620007008882890162000378565b9350506060620007138882890162000378565b925050608086015167ffffffffffffffff811115620007375762000736620002a5565b5b620007458882890162000678565b9150509295509295909350565b600082825260208201905092915050565b7f7665726966696572000000000000000000000000000000000000000000000000600082015250565b60006200079b60088362000752565b9150620007a88262000763565b602082019050919050565b60006020820190508181036000830152620007ce816200078c565b9050919050565b7f74696d6500000000000000000000000000000000000000000000000000000000600082015250565b60006200080d60048362000752565b91506200081a82620007d5565b602082019050919050565b600060208201905081810360008301526200084081620007fe565b9050919050565b7f6d696e2032206f7074696f6e7300000000000000000000000000000000000000600082015250565b60006200087f600d8362000752565b91506200088c8262000847565b602082019050919050565b60006020820190508181036000830152620008b28162000870565b9050919050565b7f4e487b7100000000000000000000000000000000000000000000000000000000600052603260045260246000fd5b600081519050919050565b7f4e487b7100000000000000000000000000000000000000000000000000000000600052602260045260246000fd5b600060028204905060018216806200093b57607f821691505b602082108103620009515762000950620008f3565b5b50919050565b60008190508160005260206000209050919050565b60006020601f8301049050919050565b600082821b905092915050565b600060088302620009bb7fffffffffffffffffffffffffffffffffffffffffffffffffffffffffffffffff826200097c565b620009c786836200097c565b95508019841693508086168417925050509392505050565b6000819050919050565b600062000a0a62000a04620009fe846200030f565b620009df565b6200030f565b9050919050565b6000819050919050565b62000a2683620009e9565b62000a3e62000a358262000a11565b84845462000989565b825550505050565b600090565b62000a5562000a46565b62000a6281848462000a1b565b505050565b5b8181101562000a8a5762000a7e60008262000a4b565b60018101905062000a68565b5050565b601f82111562000ad95762000aa38162000957565b62000aae846200096c565b8101602085101562000abe578190505b62000ad662000acd856200096c565b83018262000a67565b50505b505050565b600082821c905092915050565b600062000afe6000198460080262000ade565b1980831691505092915050565b600062000b19838362000aeb565b9150826002028217905092915050565b62000b3482620008e8565b67ffffffffffffffff81111562000b505762000b4f620003a5565b5b62000b5c825462000922565b62000b6982828562000a8e565b600060209050601f83116001811462000ba1576000841562000b8c578287015190505b62000b98858262000b0b565b86555062000c08565b601f19841662000bb18662000957565b60005b8281101562000bdb5784890151825560018201915060208501945060208101905062000bb4565b8683101562000bfb578489015162000bf7601f89168262000aeb565b8355505b6001600288020188555050505b505050505050565b60805160a05160c05160e051610100516112b662000c7f6000396000818161049701528181610837015261099001526000818161043301526108c30152600081816105f401526108e701526000818161069a015261085b01526000818161090b0152610a2101526112b66000f3fe608060405234801561001057600080fd5b50600436106100b45760003560e01c806360eeb0b81161007157806360eeb0b81461017e57806379f95ee9146101ae5780639331e613146101de578063a0f44c92146101fc578063f7d3d4f31461021a578063f851a44014610224576100b4565b8063013cf08b146100b95780630619e92a146100ea57806318afea4214610108578063280ee4ee146101245780632b7ac3f314610142578063400e394914610160575b600080fd5b6100d360048036038101906100ce9190610a7e565b610242565b6040516100e1929190610b3b565b60405180910390f35b6100f2610386565b6040516100ff9190610c30565b60405180910390f35b610122600480360381019061011d9190610c77565b610431565b005b61012c610835565b6040516101399190610cdc565b60405180910390f35b61014a610859565b6040516101579190610d76565b60405180910390f35b61016861087d565b6040516101759190610da0565b60405180910390f35b61019860048036038101906101939190610a7e565b610889565b6040516101a59190610da0565b60405180910390f35b6101c860048036038101906101c39190610a7e565b6108a1565b6040516101d59190610dd6565b60405180910390f35b6101e66108c1565b6040516101f39190610cdc565b60405180910390f35b6102046108e5565b6040516102119190610da0565b60405180910390f35b610222610909565b005b61022c610a1f565b6040516102399190610e12565b60405180910390f35b6000818154811061025257600080fd5b906000526020600020906002020160009150905080600001805461027590610e5c565b80601f01602080910402602001604051908101604052809291908181526020018280546102a190610e5c565b80156102ee5780601f106102c3576101008083540402835291602001916102ee565b820191906000526020600020905b8154815290600101906020018083116102d157829003601f168201915b50505050509080600101805461030390610e5c565b80601f016020809104026020016040519081016040528092919081815260200182805461032f90610e5c565b801561037c5780601f106103515761010080835404028352916020019161037c565b820191906000526020600020905b81548152906001019060200180831161035f57829003601f168201915b5050505050905082565b60606000808054905067ffffffffffffffff8111156103a8576103a7610e8d565b5b6040519080825280602002602001820160405280156103d65781602001602082028036833780820191505090505b50905060005b6000805490508110156104295760016000828152602001908152602001600020548282815181106104105761040f610ebc565b5b60200260200101818152505080806001019150506103dc565b508091505090565b7f000000000000000000000000000000000000000000000000000000000000000067ffffffffffffffff16421015610495576040517f7fa0120200000000000000000000000000000000000000000000000000000000815260040160405180910390fd5b7f000000000000000000000000000000000000000000000000000000000000000067ffffffffffffffff164211156104f9576040517f66b6cb4a00000000000000000000000000000000000000000000000000000000815260040160405180910390fd5b6000805490508110610537576040517f2a71953100000000000000000000000000000000000000000000000000000000815260040160405180910390fd5b6000826101000160006004811061055157610550610ebc565b5b602002013590506000836101000160016004811061057257610571610ebc565b5b602002013590506000846101000160026004811061059357610592610ebc565b5b602002013590506002600084815260200190815260200160002060009054906101000a900460ff16156105f2576040517f9281498500000000000000000000000000000000000000000000000000000000815260040160405180910390fd5b7f00000000000000000000000000000000000000000000000000000000000000008114610654576040517f08c379a000000000000000000000000000000000000000000000000000000000815260040161064b90610f37565b60405180910390fd5b838214610696576040517f08c379a000000000000000000000000000000000000000000000000000000000815260040161068d90610fa3565b60405180910390fd5b60007f000000000000000000000000000000000000000000000000000000000000000073ffffffffffffffffffffffffffffffffffffffff1663a23f019987600001886040018960c0018a610100018b6101800160208101906106f99190610fff565b6040518663ffffffff1660e01b8152600401610719959493929190611145565b602060405180830381865afa158015610736573d6000803e3d6000fd5b505050506040513d601f19601f8201168201806040525081019061075a91906111c7565b905080610793576040517f09bde33900000000000000000000000000000000000000000000000000000000815260040160405180910390fd5b60016002600086815260200190815260200160002060006101000a81548160ff021916908315150217905550856101a001356001600087815260200190815260200160002060008282546107e79190611223565b92505081905550847feae33df196a32d272e8aa809e6cf4f18536005fa3f76c93c4b4072f5c4766903876101a0013586604051610825929190611257565b60405180910390a2505050505050565b7f000000000000000000000000000000000000000000000000000000000000000081565b7f000000000000000000000000000000000000000000000000000000000000000081565b60008080549050905090565b60016020528060005260406000206000915090505481565b60026020528060005260406000206000915054906101000a900460ff1681565b7f000000000000000000000000000000000000000000000000000000000000000081565b7f000000000000000000000000000000000000000000000000000000000000000081565b7f000000000000000000000000000000000000000000000000000000000000000073ffffffffffffffffffffffffffffffffffffffff163373ffffffffffffffffffffffffffffffffffffffff161461098e576040517f7bfa4b9f00000000000000000000000000000000000000000000000000000000815260040160405180910390fd5b7f000000000000000000000000000000000000000000000000000000000000000067ffffffffffffffff1642116109f1576040517f66b6cb4a00000000000000000000000000000000000000000000000000000000815260040160405180910390fd5b7f53e61ec939fc5f8af4177b0bfacd0a92acdc2b8da37b061a0868e3bd5c542cb160405160405180910390a1565b7f000000000000000000000000000000000000000000000000000000000000000081565b600080fd5b6000819050919050565b610a5b81610a48565b8114610a6657600080fd5b50565b600081359050610a7881610a52565b92915050565b600060208284031215610a9457610a93610a43565b5b6000610aa284828501610a69565b91505092915050565b600081519050919050565b600082825260208201905092915050565b60005b83811015610ae5578082015181840152602081019050610aca565b60008484015250505050565b6000601f19601f8301169050919050565b6000610b0d82610aab565b610b178185610ab6565b9350610b27818560208601610ac7565b610b3081610af1565b840191505092915050565b60006040820190508181036000830152610b558185610b02565b90508181036020830152610b698184610b02565b90509392505050565b600081519050919050565b600082825260208201905092915050565b6000819050602082019050919050565b610ba781610a48565b82525050565b6000610bb98383610b9e565b60208301905092915050565b6000602082019050919050565b6000610bdd82610b72565b610be78185610b7d565b9350610bf283610b8e565b8060005b83811015610c23578151610c0a8882610bad565b9750610c1583610bc5565b925050600181019050610bf6565b5085935050505092915050565b60006020820190508181036000830152610c4a8184610bd2565b905092915050565b600080fd5b60006101c08284031215610c6e57610c6d610c52565b5b81905092915050565b6000806101e08385031215610c8f57610c8e610a43565b5b6000610c9d85828601610c57565b9250506101c0610caf85828601610a69565b9150509250929050565b600067ffffffffffffffff82169050919050565b610cd681610cb9565b82525050565b6000602082019050610cf16000830184610ccd565b92915050565b600073ffffffffffffffffffffffffffffffffffffffff82169050919050565b6000819050919050565b6000610d3c610d37610d3284610cf7565b610d17565b610cf7565b9050919050565b6000610d4e82610d21565b9050919050565b6000610d6082610d43565b9050919050565b610d7081610d55565b82525050565b6000602082019050610d8b6000830184610d67565b92915050565b610d9a81610a48565b82525050565b6000602082019050610db56000830184610d91565b92915050565b60008115159050919050565b610dd081610dbb565b82525050565b6000602082019050610deb6000830184610dc7565b92915050565b6000610dfc82610cf7565b9050919050565b610e0c81610df1565b82525050565b6000602082019050610e276000830184610e03565b92915050565b7f4e487b7100000000000000000000000000000000000000000000000000000000600052602260045260246000fd5b60006002820490506001821680610e7457607f821691505b602082108103610e8757610e86610e2d565b5b50919050565b7f4e487b7100000000000000000000000000000000000000000000000000000000600052604160045260246000fd5b7f4e487b7100000000000000000000000000000000000000000000000000000000600052603260045260246000fd5b7f62616420454e0000000000000000000000000000000000000000000000000000600082015250565b6000610f21600683610ab6565b9150610f2c82610eeb565b602082019050919050565b60006020820190508181036000830152610f5081610f14565b9050919050565b7f626164207369676e616c00000000000000000000000000000000000000000000600082015250565b6000610f8d600a83610ab6565b9150610f9882610f57565b602082019050919050565b60006020820190508181036000830152610fbc81610f80565b9050919050565b600063ffffffff82169050919050565b610fdc81610fc3565b8114610fe757600080fd5b50565b600081359050610ff981610fd3565b92915050565b60006020828403121561101557611014610a43565b5b600061102384828501610fea565b91505092915050565b82818337505050565b6110416040838361102c565b5050565b600060029050919050565b600081905092915050565b6000819050919050565b6110716040838361102c565b5050565b60006110818383611065565b60408301905092915050565b600082905092915050565b6000604082019050919050565b6110ae81611045565b6110b88184611050565b92506110c38261105b565b8060005b838110156110fc576110d9828461108d565b6110e38782611075565b96506110ee83611098565b9250506001810190506110c7565b505050505050565b6111106080838361102c565b5050565b600061112f61112a61112584610fc3565b610d17565b610a48565b9050919050565b61113f81611114565b82525050565b60006101a08201905061115b6000830188611035565b61116860408301876110a5565b61117560c0830186611035565b611183610100830185611104565b611191610180830184611136565b9695505050505050565b6111a481610dbb565b81146111af57600080fd5b50565b6000815190506111c18161119b565b92915050565b6000602082840312156111dd576111dc610a43565b5b60006111eb848285016111b2565b91505092915050565b7f4e487b7100000000000000000000000000000000000000000000000000000000600052601160045260246000fd5b600061122e82610a48565b915061123983610a48565b9250828201905080821115611251576112506111f4565b5b92915050565b600060408201905061126c6000830185610d91565b6112796020830184610d91565b939250505056fea26469706673582212208bc7d4346c65696fdf84cb60fc540cf35a093c0a073376649e508f27d955145364736f6c63430008170033","opcodes":"PUSH2 0x120 PUSH1 0x40 MSTORE CALLVALUE DUP1 ISZERO PUSH3 0x12 JUMPI PUSH1 0x0 DUP1 REVERT JUMPDEST POP PUSH1 0x40 MLOAD PUSH3 0x1F35 CODESIZE SUB DUP1 PUSH3 0x1F35 DUP4 CODECOPY DUP2 DUP2 ADD PUSH1 0x40 MSTORE DUP2 ADD SWAP1 PUSH3 0x38 SWAP2 SWAP1 PUSH3 0x6AB JUMP JUMPDEST PUSH1 0x0 PUSH20 0xFFFFFFFFFFFFFFFFFFFFFFFFFFFFFFFFFFFFFFFF AND DUP6 PUSH20 0xFFFFFFFFFFFFFFFFFFFFFFFFFFFFFFFFFFFFFFFF AND SUB PUSH3 0xAA JUMPI PUSH1 0x40 MLOAD PUSH32 0x8C379A000000000000000000000000000000000000000000000000000000000 DUP2 MSTORE PUSH1 0x4 ADD PUSH3 0xA1 SWAP1 PUSH3 0x7B3 JUMP JUMPDEST PUSH1 0x40 MLOAD DUP1 SWAP2 SUB SWAP1 REVERT JUMPDEST DUP2 PUSH8 0xFFFFFFFFFFFFFFFF AND DUP4 PUSH8 0xFFFFFFFFFFFFFFFF AND LT PUSH3 0x103 JUMPI PUSH1 0x40 MLOAD PUSH32 0x8C379A000000000000000000000000000000000000000000000000000000000 DUP2 MSTORE PUSH1 0x4 ADD PUSH3 0xFA SWAP1 PUSH3 0x825 JUMP JUMPDEST PUSH1 0x40 MLOAD DUP1 SWAP2 SUB SWAP1 REVERT JUMPDEST PUSH1 0x2 DUP2 MLOAD LT ISZERO PUSH3 0x14B JUMPI PUSH1 0x40 MLOAD PUSH32 0x8C379A000000000000000000000000000000000000000000000000000000000 DUP2 MSTORE PUSH1 0x4 ADD PUSH3 0x142 SWAP1 PUSH3 0x897 JUMP JUMPDEST PUSH1 0x40 MLOAD DUP1 SWAP2 SUB SWAP1 REVERT JUMPDEST CALLER PUSH20 0xFFFFFFFFFFFFFFFFFFFFFFFFFFFFFFFFFFFFFFFF AND PUSH1 0x80 DUP2 PUSH20 0xFFFFFFFFFFFFFFFFFFFFFFFFFFFFFFFFFFFFFFFF AND DUP2 MSTORE POP POP DUP5 PUSH20 0xFFFFFFFFFFFFFFFFFFFFFFFFFFFFFFFFFFFFFFFF AND PUSH1 0xA0 DUP2 PUSH20 0xFFFFFFFFFFFFFFFFFFFFFFFFFFFFFFFFFFFFFFFF AND DUP2 MSTORE POP POP DUP4 PUSH1 0xC0 DUP2 DUP2 MSTORE POP POP DUP3 PUSH8 0xFFFFFFFFFFFFFFFF AND PUSH1 0xE0 DUP2 PUSH8 0xFFFFFFFFFFFFFFFF AND DUP2 MSTORE POP POP DUP2 PUSH8 0xFFFFFFFFFFFFFFFF AND PUSH2 0x100 DUP2 PUSH8 0xFFFFFFFFFFFFFFFF AND DUP2 MSTORE POP POP PUSH1 0x0 JUMPDEST DUP2 MLOAD DUP2 LT ISZERO PUSH3 0x28A JUMPI PUSH1 0x0 DUP3 DUP3 DUP2 MLOAD DUP2 LT PUSH3 0x219 JUMPI PUSH3 0x218 PUSH3 0x8B9 JUMP JUMPDEST JUMPDEST PUSH1 0x20 MUL PUSH1 0x20 ADD ADD MLOAD SWAP1 DUP1 PUSH1 0x1 DUP2 SLOAD ADD DUP1 DUP3 SSTORE DUP1 SWAP2 POP POP PUSH1 0x1 SWAP1 SUB SWAP1 PUSH1 0x0 MSTORE PUSH1 0x20 PUSH1 0x0 KECCAK256 SWAP1 PUSH1 0x2 MUL ADD PUSH1 0x0 SWAP1 SWAP2 SWAP1 SWAP2 SWAP1 SWAP2 POP PUSH1 0x0 DUP3 ADD MLOAD DUP2 PUSH1 0x0 ADD SWAP1 DUP2 PUSH3 0x261 SWAP2 SWAP1 PUSH3 0xB29 JUMP JUMPDEST POP PUSH1 0x20 DUP3 ADD MLOAD DUP2 PUSH1 0x1 ADD SWAP1 DUP2 PUSH3 0x279 SWAP2 SWAP1 PUSH3 0xB29 JUMP JUMPDEST POP POP POP DUP1 DUP1 PUSH1 0x1 ADD SWAP2 POP POP PUSH3 0x1F7 JUMP JUMPDEST POP POP POP POP POP POP PUSH3 0xC10 JUMP JUMPDEST PUSH1 0x0 PUSH1 0x40 MLOAD SWAP1 POP SWAP1 JUMP JUMPDEST PUSH1 0x0 DUP1 REVERT JUMPDEST PUSH1 0x0 DUP1 REVERT JUMPDEST PUSH1 0x0 PUSH20 0xFFFFFFFFFFFFFFFFFFFFFFFFFFFFFFFFFFFFFFFF DUP3 AND SWAP1 POP SWAP2 SWAP1 POP JUMP JUMPDEST PUSH1 0x0 PUSH3 0x2D7 DUP3 PUSH3 0x2AA JUMP JUMPDEST SWAP1 POP SWAP2 SWAP1 POP JUMP JUMPDEST PUSH3 0x2E9 DUP2 PUSH3 0x2CA JUMP JUMPDEST DUP2 EQ PUSH3 0x2F5 JUMPI PUSH1 0x0 DUP1 REVERT JUMPDEST POP JUMP JUMPDEST PUSH1 0x0 DUP2 MLOAD SWAP1 POP PUSH3 0x309 DUP2 PUSH3 0x2DE JUMP JUMPDEST SWAP3 SWAP2 POP POP JUMP JUMPDEST PUSH1 0x0 DUP2 SWAP1 POP SWAP2 SWAP1 POP JUMP JUMPDEST PUSH3 0x324 DUP2 PUSH3 0x30F JUMP JUMPDEST DUP2 EQ PUSH3 0x330 JUMPI PUSH1 0x0 DUP1 REVERT JUMPDEST POP JUMP JUMPDEST PUSH1 0x0 DUP2 MLOAD SWAP1 POP PUSH3 0x344 DUP2 PUSH3 0x319 JUMP JUMPDEST SWAP3 SWAP2 POP POP JUMP JUMPDEST PUSH1 0x0 PUSH8 0xFFFFFFFFFFFFFFFF DUP3 AND SWAP1 POP SWAP2 SWAP1 POP JUMP JUMPDEST PUSH3 0x369 DUP2 PUSH3 0x34A JUMP JUMPDEST DUP2 EQ PUSH3 0x375 JUMPI PUSH1 0x0 DUP1 REVERT JUMPDEST POP JUMP JUMPDEST PUSH1 0x0 DUP2 MLOAD SWAP1 POP PUSH3 0x389 DUP2 PUSH3 0x35E JUMP JUMPDEST SWAP3 SWAP2 POP POP JUMP JUMPDEST PUSH1 0x0 DUP1 REVERT JUMPDEST PUSH1 0x0 PUSH1 0x1F NOT PUSH1 0x1F DUP4 ADD AND SWAP1 POP SWAP2 SWAP1 POP JUMP JUMPDEST PUSH32 0x4E487B7100000000000000000000000000000000000000000000000000000000 PUSH1 0x0 MSTORE PUSH1 0x41 PUSH1 0x4 MSTORE PUSH1 0x24 PUSH1 0x0 REVERT JUMPDEST PUSH3 0x3DF DUP3 PUSH3 0x394 JUMP JUMPDEST DUP2 ADD DUP2 DUP2 LT PUSH8 0xFFFFFFFFFFFFFFFF DUP3 GT OR ISZERO PUSH3 0x401 JUMPI PUSH3 0x400 PUSH3 0x3A5 JUMP JUMPDEST JUMPDEST DUP1 PUSH1 0x40 MSTORE POP POP POP JUMP JUMPDEST PUSH1 0x0 PUSH3 0x416 PUSH3 0x296 JUMP JUMPDEST SWAP1 POP PUSH3 0x424 DUP3 DUP3 PUSH3 0x3D4 JUMP JUMPDEST SWAP2 SWAP1 POP JUMP JUMPDEST PUSH1 0x0 PUSH8 0xFFFFFFFFFFFFFFFF DUP3 GT ISZERO PUSH3 0x447 JUMPI PUSH3 0x446 PUSH3 0x3A5 JUMP JUMPDEST JUMPDEST PUSH1 0x20 DUP3 MUL SWAP1 POP PUSH1 0x20 DUP2 ADD SWAP1 POP SWAP2 SWAP1 POP JUMP JUMPDEST PUSH1 0x0 DUP1 REVERT JUMPDEST PUSH1 0x0 DUP1 REVERT JUMPDEST PUSH1 0x0 DUP1 REVERT JUMPDEST PUSH1 0x0 DUP1 REVERT JUMPDEST PUSH1 0x0 PUSH8 0xFFFFFFFFFFFFFFFF DUP3 GT ISZERO PUSH3 0x48A JUMPI PUSH3 0x489 PUSH3 0x3A5 JUMP JUMPDEST JUMPDEST PUSH3 0x495 DUP3 PUSH3 0x394 JUMP JUMPDEST SWAP1 POP PUSH1 0x20 DUP2 ADD SWAP1 POP SWAP2 SWAP1 POP JUMP JUMPDEST PUSH1 0x0 JUMPDEST DUP4 DUP2 LT ISZERO PUSH3 0x4C2 JUMPI DUP1 DUP3 ADD MLOAD DUP2 DUP5 ADD MSTORE PUSH1 0x20 DUP2 ADD SWAP1 POP PUSH3 0x4A5 JUMP JUMPDEST PUSH1 0x0 DUP5 DUP5 ADD MSTORE POP POP POP POP JUMP JUMPDEST PUSH1 0x0 PUSH3 0x4E5 PUSH3 0x4DF DUP5 PUSH3 0x46C JUMP JUMPDEST PUSH3 0x40A JUMP JUMPDEST SWAP1 POP DUP3 DUP2 MSTORE PUSH1 0x20 DUP2 ADD DUP5 DUP5 DUP5 ADD GT ISZERO PUSH3 0x504 JUMPI PUSH3 0x503 PUSH3 0x467 JUMP JUMPDEST JUMPDEST PUSH3 0x511 DUP5 DUP3 DUP6 PUSH3 0x4A2 JUMP JUMPDEST POP SWAP4 SWAP3 POP POP POP JUMP JUMPDEST PUSH1 0x0 DUP3 PUSH1 0x1F DUP4 ADD SLT PUSH3 0x531 JUMPI PUSH3 0x530 PUSH3 0x38F JUMP JUMPDEST JUMPDEST DUP2 MLOAD PUSH3 0x543 DUP5 DUP3 PUSH1 0x20 DUP7 ADD PUSH3 0x4CE JUMP JUMPDEST SWAP2 POP POP SWAP3 SWAP2 POP POP JUMP JUMPDEST PUSH1 0x0 PUSH1 0x40 DUP3 DUP5 SUB SLT ISZERO PUSH3 0x565 JUMPI PUSH3 0x564 PUSH3 0x45D JUMP JUMPDEST JUMPDEST PUSH3 0x571 PUSH1 0x40 PUSH3 0x40A JUMP JUMPDEST SWAP1 POP PUSH1 0x0 DUP3 ADD MLOAD PUSH8 0xFFFFFFFFFFFFFFFF DUP2 GT ISZERO PUSH3 0x594 JUMPI PUSH3 0x593 PUSH3 0x462 JUMP JUMPDEST JUMPDEST PUSH3 0x5A2 DUP5 DUP3 DUP6 ADD PUSH3 0x519 JUMP JUMPDEST PUSH1 0x0 DUP4 ADD MSTORE POP PUSH1 0x20 DUP3 ADD MLOAD PUSH8 0xFFFFFFFFFFFFFFFF DUP2 GT ISZERO PUSH3 0x5C9 JUMPI PUSH3 0x5C8 PUSH3 0x462 JUMP JUMPDEST JUMPDEST PUSH3 0x5D7 DUP5 DUP3 DUP6 ADD PUSH3 0x519 JUMP JUMPDEST PUSH1 0x20 DUP4 ADD MSTORE POP SWAP3 SWAP2 POP POP JUMP JUMPDEST PUSH1 0x0 PUSH3 0x5FA PUSH3 0x5F4 DUP5 PUSH3 0x429 JUMP JUMPDEST PUSH3 0x40A JUMP JUMPDEST SWAP1 POP DUP1 DUP4 DUP3 MSTORE PUSH1 0x20 DUP3 ADD SWAP1 POP PUSH1 0x20 DUP5 MUL DUP4 ADD DUP6 DUP2 GT ISZERO PUSH3 0x620 JUMPI PUSH3 0x61F PUSH3 0x458 JUMP JUMPDEST JUMPDEST DUP4 JUMPDEST DUP2 DUP2 LT ISZERO PUSH3 0x66E JUMPI DUP1 MLOAD PUSH8 0xFFFFFFFFFFFFFFFF DUP2 GT ISZERO PUSH3 0x649 JUMPI PUSH3 0x648 PUSH3 0x38F JUMP JUMPDEST JUMPDEST DUP1 DUP7 ADD PUSH3 0x658 DUP10 DUP3 PUSH3 0x54C JUMP JUMPDEST DUP6 MSTORE PUSH1 0x20 DUP6 ADD SWAP5 POP POP POP PUSH1 0x20 DUP2 ADD SWAP1 POP PUSH3 0x622 JUMP JUMPDEST POP POP POP SWAP4 SWAP3 POP POP POP JUMP JUMPDEST PUSH1 0x0 DUP3 PUSH1 0x1F DUP4 ADD SLT PUSH3 0x690 JUMPI PUSH3 0x68F PUSH3 0x38F JUMP JUMPDEST JUMPDEST DUP2 MLOAD PUSH3 0x6A2 DUP5 DUP3 PUSH1 0x20 DUP7 ADD PUSH3 0x5E3 JUMP JUMPDEST SWAP2 POP POP SWAP3 SWAP2 POP POP JUMP JUMPDEST PUSH1 0x0 DUP1 PUSH1 0x0 DUP1 PUSH1 0x0 PUSH1 0xA0 DUP7 DUP9 SUB SLT ISZERO PUSH3 0x6CA JUMPI PUSH3 0x6C9 PUSH3 0x2A0 JUMP JUMPDEST JUMPDEST PUSH1 0x0 PUSH3 0x6DA DUP9 DUP3 DUP10 ADD PUSH3 0x2F8 JUMP JUMPDEST SWAP6 POP POP PUSH1 0x20 PUSH3 0x6ED DUP9 DUP3 DUP10 ADD PUSH3 0x333 JUMP JUMPDEST SWAP5 POP POP PUSH1 0x40 PUSH3 0x700 DUP9 DUP3 DUP10 ADD PUSH3 0x378 JUMP JUMPDEST SWAP4 POP POP PUSH1 0x60 PUSH3 0x713 DUP9 DUP3 DUP10 ADD PUSH3 0x378 JUMP JUMPDEST SWAP3 POP POP PUSH1 0x80 DUP7 ADD MLOAD PUSH8 0xFFFFFFFFFFFFFFFF DUP2 GT ISZERO PUSH3 0x737 JUMPI PUSH3 0x736 PUSH3 0x2A5 JUMP JUMPDEST JUMPDEST PUSH3 0x745 DUP9 DUP3 DUP10 ADD PUSH3 0x678 JUMP JUMPDEST SWAP2 POP POP SWAP3 SWAP6 POP SWAP3 SWAP6 SWAP1 SWAP4 POP JUMP JUMPDEST PUSH1 0x0 DUP3 DUP3 MSTORE PUSH1 0x20 DUP3 ADD SWAP1 POP SWAP3 SWAP2 POP POP JUMP JUMPDEST PUSH32 0x7665726966696572000000000000000000000000000000000000000000000000 PUSH1 0x0 DUP3 ADD MSTORE POP JUMP JUMPDEST PUSH1 0x0 PUSH3 0x79B PUSH1 0x8 DUP4 PUSH3 0x752 JUMP JUMPDEST SWAP2 POP PUSH3 0x7A8 DUP3 PUSH3 0x763 JUMP JUMPDEST PUSH1 0x20 DUP3 ADD SWAP1 POP SWAP2 SWAP1 POP JUMP JUMPDEST PUSH1 0x0 PUSH1 0x20 DUP3 ADD SWAP1 POP DUP2 DUP2 SUB PUSH1 0x0 DUP4 ADD MSTORE PUSH3 0x7CE DUP2 PUSH3 0x78C JUMP JUMPDEST SWAP1 POP SWAP2 SWAP1 POP JUMP JUMPDEST PUSH32 0x74696D6500000000000000000000000000000000000000000000000000000000 PUSH1 0x0 DUP3 ADD MSTORE POP JUMP JUMPDEST PUSH1 0x0 PUSH3 0x80D PUSH1 0x4 DUP4 PUSH3 0x752 JUMP JUMPDEST SWAP2 POP PUSH3 0x81A DUP3 PUSH3 0x7D5 JUMP JUMPDEST PUSH1 0x20 DUP3 ADD SWAP1 POP SWAP2 SWAP1 POP JUMP JUMPDEST PUSH1 0x0 PUSH1 0x20 DUP3 ADD SWAP1 POP DUP2 DUP2 SUB PUSH1 0x0 DUP4 ADD MSTORE PUSH3 0x840 DUP2 PUSH3 0x7FE JUMP JUMPDEST SWAP1 POP SWAP2 SWAP1 POP JUMP JUMPDEST PUSH32 0x6D696E2032206F7074696F6E7300000000000000000000000000000000000000 PUSH1 0x0 DUP3 ADD MSTORE POP JUMP JUMPDEST PUSH1 0x0 PUSH3 0x87F PUSH1 0xD DUP4 PUSH3 0x752 JUMP JUMPDEST SWAP2 POP PUSH3 0x88C DUP3 PUSH3 0x847 JUMP JUMPDEST PUSH1 0x20 DUP3 ADD SWAP1 POP SWAP2 SWAP1 POP JUMP JUMPDEST PUSH1 0x0 PUSH1 0x20 DUP3 ADD SWAP1 POP DUP2 DUP2 SUB PUSH1 0x0 DUP4 ADD MSTORE PUSH3 0x8B2 DUP2 PUSH3 0x870 JUMP JUMPDEST SWAP1 POP SWAP2 SWAP1 POP JUMP JUMPDEST PUSH32 0x4E487B7100000000000000000000000000000000000000000000000000000000 PUSH1 0x0 MSTORE PUSH1 0x32 PUSH1 0x4 MSTORE PUSH1 0x24 PUSH1 0x0 REVERT JUMPDEST PUSH1 0x0 DUP2 MLOAD SWAP1 POP SWAP2 SWAP1 POP JUMP JUMPDEST PUSH32 0x4E487B7100000000000000000000000000000000000000000000000000000000 PUSH1 0x0 MSTORE PUSH1 0x22 PUSH1 0x4 MSTORE PUSH1 0x24 PUSH1 0x0 REVERT JUMPDEST PUSH1 0x0 PUSH1 0x2 DUP3 DIV SWAP1 POP PUSH1 0x1 DUP3 AND DUP1 PUSH3 0x93B JUMPI PUSH1 0x7F DUP3 AND SWAP2 POP JUMPDEST PUSH1 0x20 DUP3 LT DUP2 SUB PUSH3 0x951 JUMPI PUSH3 0x950 PUSH3 0x8F3 JUMP JUMPDEST JUMPDEST POP SWAP2 SWAP1 POP JUMP JUMPDEST PUSH1 0x0 DUP2 SWAP1 POP DUP2 PUSH1 0x0 MSTORE PUSH1 0x20 PUSH1 0x0 KECCAK256 SWAP1 POP SWAP2 SWAP1 POP JUMP JUMPDEST PUSH1 0x0 PUSH1 0x20 PUSH1 0x1F DUP4 ADD DIV SWAP1 POP SWAP2 SWAP1 POP JUMP JUMPDEST PUSH1 0x0 DUP3 DUP3 SHL SWAP1 POP SWAP3 SWAP2 POP POP JUMP JUMPDEST PUSH1 0x0 PUSH1 0x8 DUP4 MUL PUSH3 0x9BB PUSH32 0xFFFFFFFFFFFFFFFFFFFFFFFFFFFFFFFFFFFFFFFFFFFFFFFFFFFFFFFFFFFFFFFF DUP3 PUSH3 0x97C JUMP JUMPDEST PUSH3 0x9C7 DUP7 DUP4 PUSH3 0x97C JUMP JUMPDEST SWAP6 POP DUP1 NOT DUP5 AND SWAP4 POP DUP1 DUP7 AND DUP5 OR SWAP3 POP POP POP SWAP4 SWAP3 POP POP POP JUMP JUMPDEST PUSH1 0x0 DUP2 SWAP1 POP SWAP2 SWAP1 POP JUMP JUMPDEST PUSH1 0x0 PUSH3 0xA0A PUSH3 0xA04 PUSH3 0x9FE DUP5 PUSH3 0x30F JUMP JUMPDEST PUSH3 0x9DF JUMP JUMPDEST PUSH3 0x30F JUMP JUMPDEST SWAP1 POP SWAP2 SWAP1 POP JUMP JUMPDEST PUSH1 0x0 DUP2 SWAP1 POP SWAP2 SWAP1 POP JUMP JUMPDEST PUSH3 0xA26 DUP4 PUSH3 0x9E9 JUMP JUMPDEST PUSH3 0xA3E PUSH3 0xA35 DUP3 PUSH3 0xA11 JUMP JUMPDEST DUP5 DUP5 SLOAD PUSH3 0x989 JUMP JUMPDEST DUP3 SSTORE POP POP POP POP JUMP JUMPDEST PUSH1 0x0 SWAP1 JUMP JUMPDEST PUSH3 0xA55 PUSH3 0xA46 JUMP JUMPDEST PUSH3 0xA62 DUP2 DUP5 DUP5 PUSH3 0xA1B JUMP JUMPDEST POP POP POP JUMP JUMPDEST JUMPDEST DUP2 DUP2 LT ISZERO PUSH3 0xA8A JUMPI PUSH3 0xA7E PUSH1 0x0 DUP3 PUSH3 0xA4B JUMP JUMPDEST PUSH1 0x1 DUP2 ADD SWAP1 POP PUSH3 0xA68 JUMP JUMPDEST POP POP JUMP JUMPDEST PUSH1 0x1F DUP3 GT ISZERO PUSH3 0xAD9 JUMPI PUSH3 0xAA3 DUP2 PUSH3 0x957 JUMP JUMPDEST PUSH3 0xAAE DUP5 PUSH3 0x96C JUMP JUMPDEST DUP2 ADD PUSH1 0x20 DUP6 LT ISZERO PUSH3 0xABE JUMPI DUP2 SWAP1 POP JUMPDEST PUSH3 0xAD6 PUSH3 0xACD DUP6 PUSH3 0x96C JUMP JUMPDEST DUP4 ADD DUP3 PUSH3 0xA67 JUMP JUMPDEST POP POP JUMPDEST POP POP POP JUMP JUMPDEST PUSH1 0x0 DUP3 DUP3 SHR SWAP1 POP SWAP3 SWAP2 POP POP JUMP JUMPDEST PUSH1 0x0 PUSH3 0xAFE PUSH1 0x0 NOT DUP5 PUSH1 0x8 MUL PUSH3 0xADE JUMP JUMPDEST NOT DUP1 DUP4 AND SWAP2 POP POP SWAP3 SWAP2 POP POP JUMP JUMPDEST PUSH1 0x0 PUSH3 0xB19 DUP4 DUP4 PUSH3 0xAEB JUMP JUMPDEST SWAP2 POP DUP3 PUSH1 0x2 MUL DUP3 OR SWAP1 POP SWAP3 SWAP2 POP POP JUMP JUMPDEST PUSH3 0xB34 DUP3 PUSH3 0x8E8 JUMP JUMPDEST PUSH8 0xFFFFFFFFFFFFFFFF DUP2 GT ISZERO PUSH3 0xB50 JUMPI PUSH3 0xB4F PUSH3 0x3A5 JUMP JUMPDEST JUMPDEST PUSH3 0xB5C DUP3 SLOAD PUSH3 0x922 JUMP JUMPDEST PUSH3 0xB69 DUP3 DUP3 DUP6 PUSH3 0xA8E JUMP JUMPDEST PUSH1 0x0 PUSH1 0x20 SWAP1 POP PUSH1 0x1F DUP4 GT PUSH1 0x1 DUP2 EQ PUSH3 0xBA1 JUMPI PUSH1 0x0 DUP5 ISZERO PUSH3 0xB8C JUMPI DUP3 DUP8 ADD MLOAD SWAP1 POP JUMPDEST PUSH3 0xB98 DUP6 DUP3 PUSH3 0xB0B JUMP JUMPDEST DUP7 SSTORE POP PUSH3 0xC08 JUMP JUMPDEST PUSH1 0x1F NOT DUP5 AND PUSH3 0xBB1 DUP7 PUSH3 0x957 JUMP JUMPDEST PUSH1 0x0 JUMPDEST DUP3 DUP2 LT ISZERO PUSH3 0xBDB JUMPI DUP5 DUP10 ADD MLOAD DUP3 SSTORE PUSH1 0x1 DUP3 ADD SWAP2 POP PUSH1 0x20 DUP6 ADD SWAP5 POP PUSH1 0x20 DUP2 ADD SWAP1 POP PUSH3 0xBB4 JUMP JUMPDEST DUP7 DUP4 LT ISZERO PUSH3 0xBFB JUMPI DUP5 DUP10 ADD MLOAD PUSH3 0xBF7 PUSH1 0x1F DUP10 AND DUP3 PUSH3 0xAEB JUMP JUMPDEST DUP4 SSTORE POP JUMPDEST PUSH1 0x1 PUSH1 0x2 DUP9 MUL ADD DUP9 SSTORE POP POP POP JUMPDEST POP POP POP POP POP POP JUMP JUMPDEST PUSH1 0x80 MLOAD PUSH1 0xA0 MLOAD PUSH1 0xC0 MLOAD PUSH1 0xE0 MLOAD PUSH2 0x100 MLOAD PUSH2 0x12B6 PUSH3 0xC7F PUSH1 0x0 CODECOPY PUSH1 0x0 DUP2 DUP2 PUSH2 0x497 ADD MSTORE DUP2 DUP2 PUSH2 0x837 ADD MSTORE PUSH2 0x990 ADD MSTORE PUSH1 0x0 DUP2 DUP2 PUSH2 0x433 ADD MSTORE PUSH2 0x8C3 ADD MSTORE PUSH1 0x0 DUP2 DUP2 PUSH2 0x5F4 ADD MSTORE PUSH2 0x8E7 ADD MSTORE PUSH1 0x0 DUP2 DUP2 PUSH2 0x69A ADD MSTORE PUSH2 0x85B ADD MSTORE PUSH1 0x0 DUP2 DUP2 PUSH2 0x90B ADD MSTORE PUSH2 0xA21 ADD MSTORE PUSH2 0x12B6 PUSH1 0x0 RETURN INVALID PUSH1 0x80 PUSH1 0x40 MSTORE CALLVALUE DUP1 ISZERO PUSH2 0x10 JUMPI PUSH1 0x0 DUP1 REVERT JUMPDEST POP PUSH1 0x4 CALLDATASIZE LT PUSH2 0xB4 JUMPI PUSH1 0x0 CALLDATALOAD PUSH1 0xE0 SHR DUP1 PUSH4 0x60EEB0B8 GT PUSH2 0x71 JUMPI DUP1 PUSH4 0x60EEB0B8 EQ PUSH2 0x17E JUMPI DUP1 PUSH4 0x79F95EE9 EQ PUSH2 0x1AE JUMPI DUP1 PUSH4 0x9331E613 EQ PUSH2 0x1DE JUMPI DUP1 PUSH4 0xA0F44C92 EQ PUSH2 0x1FC JUMPI DUP1 PUSH4 0xF7D3D4F3 EQ PUSH2 0x21A JUMPI DUP1 PUSH4 0xF851A440 EQ PUSH2 0x224 JUMPI PUSH2 0xB4 JUMP JUMPDEST DUP1 PUSH4 0x13CF08B EQ PUSH2 0xB9 JUMPI DUP1 PUSH4 0x619E92A EQ PUSH2 0xEA JUMPI DUP1 PUSH4 0x18AFEA42 EQ PUSH2 0x108 JUMPI DUP1 PUSH4 0x280EE4EE EQ PUSH2 0x124 JUMPI DUP1 PUSH4 0x2B7AC3F3 EQ PUSH2 0x142 JUMPI DUP1 PUSH4 0x400E3949 EQ PUSH2 0x160 JUMPI JUMPDEST PUSH1 0x0 DUP1 REVERT JUMPDEST PUSH2 0xD3 PUSH1 0x4 DUP1 CALLDATASIZE SUB DUP2 ADD SWAP1 PUSH2 0xCE SWAP2 SWAP1 PUSH2 0xA7E JUMP JUMPDEST PUSH2 0x242 JUMP JUMPDEST PUSH1 0x40 MLOAD PUSH2 0xE1 SWAP3 SWAP2 SWAP1 PUSH2 0xB3B JUMP JUMPDEST PUSH1 0x40 MLOAD DUP1 SWAP2 SUB SWAP1 RETURN JUMPDEST PUSH2 0xF2 PUSH2 0x386 JUMP JUMPDEST PUSH1 0x40 MLOAD PUSH2 0xFF SWAP2 SWAP1 PUSH2 0xC30 JUMP JUMPDEST PUSH1 0x40 MLOAD DUP1 SWAP2 SUB SWAP1 RETURN JUMPDEST PUSH2 0x122 PUSH1 0x4 DUP1 CALLDATASIZE SUB DUP2 ADD SWAP1 PUSH2 0x11D SWAP2 SWAP1 PUSH2 0xC77 JUMP JUMPDEST PUSH2 0x431 JUMP JUMPDEST STOP JUMPDEST PUSH2 0x12C PUSH2 0x835 JUMP JUMPDEST PUSH1 0x40 MLOAD PUSH2 0x139 SWAP2 SWAP1 PUSH2 0xCDC JUMP JUMPDEST PUSH1 0x40 MLOAD DUP1 SWAP2 SUB SWAP1 RETURN JUMPDEST PUSH2 0x14A PUSH2 0x859 JUMP JUMPDEST PUSH1 0x40 MLOAD PUSH2 0x157 SWAP2 SWAP1 PUSH2 0xD76 JUMP JUMPDEST PUSH1 0x40 MLOAD DUP1 SWAP2 SUB SWAP1 RETURN JUMPDEST PUSH2 0x168 PUSH2 0x87D JUMP JUMPDEST PUSH1 0x40 MLOAD PUSH2 0x175 SWAP2 SWAP1 PUSH2 0xDA0 JUMP JUMPDEST PUSH1 0x40 MLOAD DUP1 SWAP2 SUB SWAP1 RETURN JUMPDEST PUSH2 0x198 PUSH1 0x4 DUP1 CALLDATASIZE SUB DUP2 ADD SWAP1 PUSH2 0x193 SWAP2 SWAP1 PUSH2 0xA7E JUMP JUMPDEST PUSH2 0x889 JUMP JUMPDEST PUSH1 0x40 MLOAD PUSH2 0x1A5 SWAP2 SWAP1 PUSH2 0xDA0 JUMP JUMPDEST PUSH1 0x40 MLOAD DUP1 SWAP2 SUB SWAP1 RETURN JUMPDEST PUSH2 0x1C8 PUSH1 0x4 DUP1 CALLDATASIZE SUB DUP2 ADD SWAP1 PUSH2 0x1C3 SWAP2 SWAP1 PUSH2 0xA7E JUMP JUMPDEST PUSH2 0x8A1 JUMP JUMPDEST PUSH1 0x40 MLOAD PUSH2 0x1D5 SWAP2 SWAP1 PUSH2 0xDD6 JUMP JUMPDEST PUSH1 0x40 MLOAD DUP1 SWAP2 SUB SWAP1 RETURN JUMPDEST PUSH2 0x1E6 PUSH2 0x8C1 JUMP JUMPDEST PUSH1 0x40 MLOAD PUSH2 0x1F3 SWAP2 SWAP1 PUSH2 0xCDC JUMP JUMPDEST PUSH1 0x40 MLOAD DUP1 SWAP2 SUB SWAP1 RETURN JUMPDEST PUSH2 0x204 PUSH2 0x8E5 JUMP JUMPDEST PUSH1 0x40 MLOAD PUSH2 0x211 SWAP2 SWAP1 PUSH2 0xDA0 JUMP JUMPDEST PUSH1 0x40 MLOAD DUP1 SWAP2 SUB SWAP1 RETURN JUMPDEST PUSH2 0x222 PUSH2 0x909 JUMP JUMPDEST STOP JUMPDEST PUSH2 0x22C PUSH2 0xA1F JUMP JUMPDEST PUSH1 0x40 MLOAD PUSH2 0x239 SWAP2 SWAP1 PUSH2 0xE12 JUMP JUMPDEST PUSH1 0x40 MLOAD DUP1 SWAP2 SUB SWAP1 RETURN JUMPDEST PUSH1 0x0 DUP2 DUP2 SLOAD DUP2 LT PUSH2 0x252 JUMPI PUSH1 0x0 DUP1 REVERT JUMPDEST SWAP1 PUSH1 0x0 MSTORE PUSH1 0x20 PUSH1 0x0 KECCAK256 SWAP1 PUSH1 0x2 MUL ADD PUSH1 0x0 SWAP2 POP SWAP1 POP DUP1 PUSH1 0x0 ADD DUP1 SLOAD PUSH2 0x275 SWAP1 PUSH2 0xE5C JUMP JUMPDEST DUP1 PUSH1 0x1F ADD PUSH1 0x20 DUP1 SWAP2 DIV MUL PUSH1 0x20 ADD PUSH1 0x40 MLOAD SWAP1 DUP2 ADD PUSH1 0x40 MSTORE DUP1 SWAP3 SWAP2 SWAP1 DUP2 DUP2 MSTORE PUSH1 0x20 ADD DUP3 DUP1 SLOAD PUSH2 0x2A1 SWAP1 PUSH2 0xE5C JUMP JUMPDEST DUP1 ISZERO PUSH2 0x2EE JUMPI DUP1 PUSH1 0x1F LT PUSH2 0x2C3 JUMPI PUSH2 0x100 DUP1 DUP4 SLOAD DIV MUL DUP4 MSTORE SWAP2 PUSH1 0x20 ADD SWAP2 PUSH2 0x2EE JUMP JUMPDEST DUP3 ADD SWAP2 SWAP1 PUSH1 0x0 MSTORE PUSH1 0x20 PUSH1 0x0 KECCAK256 SWAP1 JUMPDEST DUP2 SLOAD DUP2 MSTORE SWAP1 PUSH1 0x1 ADD SWAP1 PUSH1 0x20 ADD DUP1 DUP4 GT PUSH2 0x2D1 JUMPI DUP3 SWAP1 SUB PUSH1 0x1F AND DUP3 ADD SWAP2 JUMPDEST POP POP POP POP POP SWAP1 DUP1 PUSH1 0x1 ADD DUP1 SLOAD PUSH2 0x303 SWAP1 PUSH2 0xE5C JUMP JUMPDEST DUP1 PUSH1 0x1F ADD PUSH1 0x20 DUP1 SWAP2 DIV MUL PUSH1 0x20 ADD PUSH1 0x40 MLOAD SWAP1 DUP2 ADD PUSH1 0x40 MSTORE DUP1 SWAP3 SWAP2 SWAP1 DUP2 DUP2 MSTORE PUSH1 0x20 ADD DUP3 DUP1 SLOAD PUSH2 0x32F SWAP1 PUSH2 0xE5C JUMP JUMPDEST DUP1 ISZERO PUSH2 0x37C JUMPI DUP1 PUSH1 0x1F LT PUSH2 0x351 JUMPI PUSH2 0x100 DUP1 DUP4 SLOAD DIV MUL DUP4 MSTORE SWAP2 PUSH1 0x20 ADD SWAP2 PUSH2 0x37C JUMP JUMPDEST DUP3 ADD SWAP2 SWAP1 PUSH1 0x0 MSTORE PUSH1 0x20 PUSH1 0x0 KECCAK256 SWAP1 JUMPDEST DUP2 SLOAD DUP2 MSTORE SWAP1 PUSH1 0x1 ADD SWAP1 PUSH1 0x20 ADD DUP1 DUP4 GT PUSH2 0x35F JUMPI DUP3 SWAP1 SUB PUSH1 0x1F AND DUP3 ADD SWAP2 JUMPDEST POP POP POP POP POP SWAP1 POP DUP3 JUMP JUMPDEST PUSH1 0x60 PUSH1 0x0 DUP1 DUP1 SLOAD SWAP1 POP PUSH8 0xFFFFFFFFFFFFFFFF DUP2 GT ISZERO PUSH2 0x3A8 JUMPI PUSH2 0x3A7 PUSH2 0xE8D JUMP JUMPDEST JUMPDEST PUSH1 0x40 MLOAD SWAP1 DUP1 DUP3 MSTORE DUP1 PUSH1 0x20 MUL PUSH1 0x20 ADD DUP3 ADD PUSH1 0x40 MSTORE DUP1 ISZERO PUSH2 0x3D6 JUMPI DUP2 PUSH1 0x20 ADD PUSH1 0x20 DUP3 MUL DUP1 CALLDATASIZE DUP4 CALLDATACOPY DUP1 DUP3 ADD SWAP2 POP POP SWAP1 POP JUMPDEST POP SWAP1 POP PUSH1 0x0 JUMPDEST PUSH1 0x0 DUP1 SLOAD SWAP1 POP DUP2 LT ISZERO PUSH2 0x429 JUMPI PUSH1 0x1 PUSH1 0x0 DUP3 DUP2 MSTORE PUSH1 0x20 ADD SWAP1 DUP2 MSTORE PUSH1 0x20 ADD PUSH1 0x0 KECCAK256 SLOAD DUP3 DUP3 DUP2 MLOAD DUP2 LT PUSH2 0x410 JUMPI PUSH2 0x40F PUSH2 0xEBC JUMP JUMPDEST JUMPDEST PUSH1 0x20 MUL PUSH1 0x20 ADD ADD DUP2 DUP2 MSTORE POP POP DUP1 DUP1 PUSH1 0x1 ADD SWAP2 POP POP PUSH2 0x3DC JUMP JUMPDEST POP DUP1 SWAP2 POP POP SWAP1 JUMP JUMPDEST PUSH32 0x0 PUSH8 0xFFFFFFFFFFFFFFFF AND TIMESTAMP LT ISZERO PUSH2 0x495 JUMPI PUSH1 0x40 MLOAD PUSH32 0x7FA0120200000000000000000000000000000000000000000000000000000000 DUP2 MSTORE PUSH1 0x4 ADD PUSH1 0x40 MLOAD DUP1 SWAP2 SUB SWAP1 REVERT JUMPDEST PUSH32 0x0 PUSH8 0xFFFFFFFFFFFFFFFF AND TIMESTAMP GT ISZERO PUSH2 0x4F9 JUMPI PUSH1 0x40 MLOAD PUSH32 0x66B6CB4A00000000000000000000000000000000000000000000000000000000 DUP2 MSTORE PUSH1 0x4 ADD PUSH1 0x40 MLOAD DUP1 SWAP2 SUB SWAP1 REVERT JUMPDEST PUSH1 0x0 DUP1 SLOAD SWAP1 POP DUP2 LT PUSH2 0x537 JUMPI PUSH1 0x40 MLOAD PUSH32 0x2A71953100000000000000000000000000000000000000000000000000000000 DUP2 MSTORE PUSH1 0x4 ADD PUSH1 0x40 MLOAD DUP1 SWAP2 SUB SWAP1 REVERT JUMPDEST PUSH1 0x0 DUP3 PUSH2 0x100 ADD PUSH1 0x0 PUSH1 0x4 DUP2 LT PUSH2 0x551 JUMPI PUSH2 0x550 PUSH2 0xEBC JUMP JUMPDEST JUMPDEST PUSH1 0x20 MUL ADD CALLDATALOAD SWAP1 POP PUSH1 0x0 DUP4 PUSH2 0x100 ADD PUSH1 0x1 PUSH1 0x4 DUP2 LT PUSH2 0x572 JUMPI PUSH2 0x571 PUSH2 0xEBC JUMP JUMPDEST JUMPDEST PUSH1 0x20 MUL ADD CALLDATALOAD SWAP1 POP PUSH1 0x0 DUP5 PUSH2 0x100 ADD PUSH1 0x2 PUSH1 0x4 DUP2 LT PUSH2 0x593 JUMPI PUSH2 0x592 PUSH2 0xEBC JUMP JUMPDEST JUMPDEST PUSH1 0x20 MUL ADD CALLDATALOAD SWAP1 POP PUSH1 0x2 PUSH1 0x0 DUP5 DUP2 MSTORE PUSH1 0x20 ADD SWAP1 DUP2 MSTORE PUSH1 0x20 ADD PUSH1 0x0 KECCAK256 PUSH1 0x0 SWAP1 SLOAD SWAP1 PUSH2 0x100 EXP SWAP1 DIV PUSH1 0xFF AND ISZERO PUSH2 0x5F2 JUMPI PUSH1 0x40 MLOAD PUSH32 0x9281498500000000000000000000000000000000000000000000000000000000 DUP2 MSTORE PUSH1 0x4 ADD PUSH1 0x40 MLOAD DUP1 SWAP2 SUB SWAP1 REVERT JUMPDEST PUSH32 0x0 DUP2 EQ PUSH2 0x654 JUMPI PUSH1 0x40 MLOAD PUSH32 0x8C379A000000000000000000000000000000000000000000000000000000000 DUP2 MSTORE PUSH1 0x4 ADD PUSH2 0x64B SWAP1 PUSH2 0xF37 JUMP JUMPDEST PUSH1 0x40 MLOAD DUP1 SWAP2 SUB SWAP1 REVERT JUMPDEST DUP4 DUP3 EQ PUSH2 0x696 JUMPI PUSH1 0x40 MLOAD PUSH32 0x8C379A000000000000000000000000000000000000000000000000000000000 DUP2 MSTORE PUSH1 0x4 ADD PUSH2 0x68D SWAP1 PUSH2 0xFA3 JUMP JUMPDEST PUSH1 0x40 MLOAD DUP1 SWAP2 SUB SWAP1 REVERT JUMPDEST PUSH1 0x0 PUSH32 0x0 PUSH20 0xFFFFFFFFFFFFFFFFFFFFFFFFFFFFFFFFFFFFFFFF AND PUSH4 0xA23F0199 DUP8 PUSH1 0x0 ADD DUP9 PUSH1 0x40 ADD DUP10 PUSH1 0xC0 ADD DUP11 PUSH2 0x100 ADD DUP12 PUSH2 0x180 ADD PUSH1 0x20 DUP2 ADD SWAP1 PUSH2 0x6F9 SWAP2 SWAP1 PUSH2 0xFFF JUMP JUMPDEST PUSH1 0x40 MLOAD DUP7 PUSH4 0xFFFFFFFF AND PUSH1 0xE0 SHL DUP2 MSTORE PUSH1 0x4 ADD PUSH2 0x719 SWAP6 SWAP5 SWAP4 SWAP3 SWAP2 SWAP1 PUSH2 0x1145 JUMP JUMPDEST PUSH1 0x20 PUSH1 0x40 MLOAD DUP1 DUP4 SUB DUP2 DUP7 GAS STATICCALL ISZERO DUP1 ISZERO PUSH2 0x736 JUMPI RETURNDATASIZE PUSH1 0x0 DUP1 RETURNDATACOPY RETURNDATASIZE PUSH1 0x0 REVERT JUMPDEST POP POP POP POP PUSH1 0x40 MLOAD RETURNDATASIZE PUSH1 0x1F NOT PUSH1 0x1F DUP3 ADD AND DUP3 ADD DUP1 PUSH1 0x40 MSTORE POP DUP2 ADD SWAP1 PUSH2 0x75A SWAP2 SWAP1 PUSH2 0x11C7 JUMP JUMPDEST SWAP1 POP DUP1 PUSH2 0x793 JUMPI PUSH1 0x40 MLOAD PUSH32 0x9BDE33900000000000000000000000000000000000000000000000000000000 DUP2 MSTORE PUSH1 0x4 ADD PUSH1 0x40 MLOAD DUP1 SWAP2 SUB SWAP1 REVERT JUMPDEST PUSH1 0x1 PUSH1 0x2 PUSH1 0x0 DUP7 DUP2 MSTORE PUSH1 0x20 ADD SWAP1 DUP2 MSTORE PUSH1 0x20 ADD PUSH1 0x0 KECCAK256 PUSH1 0x0 PUSH2 0x100 EXP DUP2 SLOAD DUP2 PUSH1 0xFF MUL NOT AND SWAP1 DUP4 ISZERO ISZERO MUL OR SWAP1 SSTORE POP DUP6 PUSH2 0x1A0 ADD CALLDATALOAD PUSH1 0x1 PUSH1 0x0 DUP8 DUP2 MSTORE PUSH1 0x20 ADD SWAP1 DUP2 MSTORE PUSH1 0x20 ADD PUSH1 0x0 KECCAK256 PUSH1 0x0 DUP3 DUP3 SLOAD PUSH2 0x7E7 SWAP2 SWAP1 PUSH2 0x1223 JUMP JUMPDEST SWAP3 POP POP DUP2 SWAP1 SSTORE POP DUP5 PUSH32 0xEAE33DF196A32D272E8AA809E6CF4F18536005FA3F76C93C4B4072F5C4766903 DUP8 PUSH2 0x1A0 ADD CALLDATALOAD DUP7 PUSH1 0x40 MLOAD PUSH2 0x825 SWAP3 SWAP2 SWAP1 PUSH2 0x1257 JUMP JUMPDEST PUSH1 0x40 MLOAD DUP1 SWAP2 SUB SWAP1 LOG2 POP POP POP POP POP POP JUMP JUMPDEST PUSH32 0x0 DUP2 JUMP JUMPDEST PUSH32 0x0 DUP2 JUMP JUMPDEST PUSH1 0x0 DUP1 DUP1 SLOAD SWAP1 POP SWAP1 POP SWAP1 JUMP JUMPDEST PUSH1 0x1 PUSH1 0x20 MSTORE DUP1 PUSH1 0x0 MSTORE PUSH1 0x40 PUSH1 0x0 KECCAK256 PUSH1 0x0 SWAP2 POP SWAP1 POP SLOAD DUP2 JUMP JUMPDEST PUSH1 0x2 PUSH1 0x20 MSTORE DUP1 PUSH1 0x0 MSTORE PUSH1 0x40 PUSH1 0x0 KECCAK256 PUSH1 0x0 SWAP2 POP SLOAD SWAP1 PUSH2 0x100 EXP SWAP1 DIV PUSH1 0xFF AND DUP2 JUMP JUMPDEST PUSH32 0x0 DUP2 JUMP JUMPDEST PUSH32 0x0 DUP2 JUMP JUMPDEST PUSH32 0x0 PUSH20 0xFFFFFFFFFFFFFFFFFFFFFFFFFFFFFFFFFFFFFFFF AND CALLER PUSH20 0xFFFFFFFFFFFFFFFFFFFFFFFFFFFFFFFFFFFFFFFF AND EQ PUSH2 0x98E JUMPI PUSH1 0x40 MLOAD PUSH32 0x7BFA4B9F00000000000000000000000000000000000000000000000000000000 DUP2 MSTORE PUSH1 0x4 ADD PUSH1 0x40 MLOAD DUP1 SWAP2 SUB SWAP1 REVERT JUMPDEST PUSH32 0x0 PUSH8 0xFFFFFFFFFFFFFFFF AND TIMESTAMP GT PUSH2 0x9F1 JUMPI PUSH1 0x40 MLOAD PUSH32 0x66B6CB4A00000000000000000000000000000000000000000000000000000000 DUP2 MSTORE PUSH1 0x4 ADD PUSH1 0x40 MLOAD DUP1 SWAP2 SUB SWAP1 REVERT JUMPDEST PUSH32 0x53E61EC939FC5F8AF4177B0BFACD0A92ACDC2B8DA37B061A0868E3BD5C542CB1 PUSH1 0x40 MLOAD PUSH1 0x40 MLOAD DUP1 SWAP2 SUB SWAP1 LOG1 JUMP JUMPDEST PUSH32 0x0 DUP2 JUMP JUMPDEST PUSH1 0x0 DUP1 REVERT JUMPDEST PUSH1 0x0 DUP2 SWAP1 POP SWAP2 SWAP1 POP JUMP JUMPDEST PUSH2 0xA5B DUP2 PUSH2 0xA48 JUMP JUMPDEST DUP2 EQ PUSH2 0xA66 JUMPI PUSH1 0x0 DUP1 REVERT JUMPDEST POP JUMP JUMPDEST PUSH1 0x0 DUP2 CALLDATALOAD SWAP1 POP PUSH2 0xA78 DUP2 PUSH2 0xA52 JUMP JUMPDEST SWAP3 SWAP2 POP POP JUMP JUMPDEST PUSH1 0x0 PUSH1 0x20 DUP3 DUP5 SUB SLT ISZERO PUSH2 0xA94 JUMPI PUSH2 0xA93 PUSH2 0xA43 JUMP JUMPDEST JUMPDEST PUSH1 0x0 PUSH2 0xAA2 DUP5 DUP3 DUP6 ADD PUSH2 0xA69 JUMP JUMPDEST SWAP2 POP POP SWAP3 SWAP2 POP POP JUMP JUMPDEST PUSH1 0x0 DUP2 MLOAD SWAP1 POP SWAP2 SWAP1 POP JUMP JUMPDEST PUSH1 0x0 DUP3 DUP3 MSTORE PUSH1 0x20 DUP3 ADD SWAP1 POP SWAP3 SWAP2 POP POP JUMP JUMPDEST PUSH1 0x0 JUMPDEST DUP4 DUP2 LT ISZERO PUSH2 0xAE5 JUMPI DUP1 DUP3 ADD MLOAD DUP2 DUP5 ADD MSTORE PUSH1 0x20 DUP2 ADD SWAP1 POP PUSH2 0xACA JUMP JUMPDEST PUSH1 0x0 DUP5 DUP5 ADD MSTORE POP POP POP POP JUMP JUMPDEST PUSH1 0x0 PUSH1 0x1F NOT PUSH1 0x1F DUP4 ADD AND SWAP1 POP SWAP2 SWAP1 POP JUMP JUMPDEST PUSH1 0x0 PUSH2 0xB0D DUP3 PUSH2 0xAAB JUMP JUMPDEST PUSH2 0xB17 DUP2 DUP6 PUSH2 0xAB6 JUMP JUMPDEST SWAP4 POP PUSH2 0xB27 DUP2 DUP6 PUSH1 0x20 DUP7 ADD PUSH2 0xAC7 JUMP JUMPDEST PUSH2 0xB30 DUP2 PUSH2 0xAF1 JUMP JUMPDEST DUP5 ADD SWAP2 POP POP SWAP3 SWAP2 POP POP JUMP JUMPDEST PUSH1 0x0 PUSH1 0x40 DUP3 ADD SWAP1 POP DUP2 DUP2 SUB PUSH1 0x0 DUP4 ADD MSTORE PUSH2 0xB55 DUP2 DUP6 PUSH2 0xB02 JUMP JUMPDEST SWAP1 POP DUP2 DUP2 SUB PUSH1 0x20 DUP4 ADD MSTORE PUSH2 0xB69 DUP2 DUP5 PUSH2 0xB02 JUMP JUMPDEST SWAP1 POP SWAP4 SWAP3 POP POP POP JUMP JUMPDEST PUSH1 0x0 DUP2 MLOAD SWAP1 POP SWAP2 SWAP1 POP JUMP JUMPDEST PUSH1 0x0 DUP3 DUP3 MSTORE PUSH1 0x20 DUP3 ADD SWAP1 POP SWAP3 SWAP2 POP POP JUMP JUMPDEST PUSH1 0x0 DUP2 SWAP1 POP PUSH1 0x20 DUP3 ADD SWAP1 POP SWAP2 SWAP1 POP JUMP JUMPDEST PUSH2 0xBA7 DUP2 PUSH2 0xA48 JUMP JUMPDEST DUP3 MSTORE POP POP JUMP JUMPDEST PUSH1 0x0 PUSH2 0xBB9 DUP4 DUP4 PUSH2 0xB9E JUMP JUMPDEST PUSH1 0x20 DUP4 ADD SWAP1 POP SWAP3 SWAP2 POP POP JUMP JUMPDEST PUSH1 0x0 PUSH1 0x20 DUP3 ADD SWAP1 POP SWAP2 SWAP1 POP JUMP JUMPDEST PUSH1 0x0 PUSH2 0xBDD DUP3 PUSH2 0xB72 JUMP JUMPDEST PUSH2 0xBE7 DUP2 DUP6 PUSH2 0xB7D JUMP JUMPDEST SWAP4 POP PUSH2 0xBF2 DUP4 PUSH2 0xB8E JUMP JUMPDEST DUP1 PUSH1 0x0 JUMPDEST DUP4 DUP2 LT ISZERO PUSH2 0xC23 JUMPI DUP2 MLOAD PUSH2 0xC0A DUP9 DUP3 PUSH2 0xBAD JUMP JUMPDEST SWAP8 POP PUSH2 0xC15 DUP4 PUSH2 0xBC5 JUMP JUMPDEST SWAP3 POP POP PUSH1 0x1 DUP2 ADD SWAP1 POP PUSH2 0xBF6 JUMP JUMPDEST POP DUP6 SWAP4 POP POP POP POP SWAP3 SWAP2 POP POP JUMP JUMPDEST PUSH1 0x0 PUSH1 0x20 DUP3 ADD SWAP1 POP DUP2 DUP2 SUB PUSH1 0x0 DUP4 ADD MSTORE PUSH2 0xC4A DUP2 DUP5 PUSH2 0xBD2 JUMP JUMPDEST SWAP1 POP SWAP3 SWAP2 POP POP JUMP JUMPDEST PUSH1 0x0 DUP1 REVERT JUMPDEST PUSH1 0x0 PUSH2 0x1C0 DUP3 DUP5 SUB SLT ISZERO PUSH2 0xC6E JUMPI PUSH2 0xC6D PUSH2 0xC52 JUMP JUMPDEST JUMPDEST DUP2 SWAP1 POP SWAP3 SWAP2 POP POP JUMP JUMPDEST PUSH1 0x0 DUP1 PUSH2 0x1E0 DUP4 DUP6 SUB SLT ISZERO PUSH2 0xC8F JUMPI PUSH2 0xC8E PUSH2 0xA43 JUMP JUMPDEST JUMPDEST PUSH1 0x0 PUSH2 0xC9D DUP6 DUP3 DUP7 ADD PUSH2 0xC57 JUMP JUMPDEST SWAP3 POP POP PUSH2 0x1C0 PUSH2 0xCAF DUP6 DUP3 DUP7 ADD PUSH2 0xA69 JUMP JUMPDEST SWAP2 POP POP SWAP3 POP SWAP3 SWAP1 POP JUMP JUMPDEST PUSH1 0x0 PUSH8 0xFFFFFFFFFFFFFFFF DUP3 AND SWAP1 POP SWAP2 SWAP1 POP JUMP JUMPDEST PUSH2 0xCD6 DUP2 PUSH2 0xCB9 JUMP JUMPDEST DUP3 MSTORE POP POP JUMP JUMPDEST PUSH1 0x0 PUSH1 0x20 DUP3 ADD SWAP1 POP PUSH2 0xCF1 PUSH1 0x0 DUP4 ADD DUP5 PUSH2 0xCCD JUMP JUMPDEST SWAP3 SWAP2 POP POP JUMP JUMPDEST PUSH1 0x0 PUSH20 0xFFFFFFFFFFFFFFFFFFFFFFFFFFFFFFFFFFFFFFFF DUP3 AND SWAP1 POP SWAP2 SWAP1 POP JUMP JUMPDEST PUSH1 0x0 DUP2 SWAP1 POP SWAP2 SWAP1 POP JUMP JUMPDEST PUSH1 0x0 PUSH2 0xD3C PUSH2 0xD37 PUSH2 0xD32 DUP5 PUSH2 0xCF7 JUMP JUMPDEST PUSH2 0xD17 JUMP JUMPDEST PUSH2 0xCF7 JUMP JUMPDEST SWAP1 POP SWAP2 SWAP1 POP JUMP JUMPDEST PUSH1 0x0 PUSH2 0xD4E DUP3 PUSH2 0xD21 JUMP JUMPDEST SWAP1 POP SWAP2 SWAP1 POP JUMP JUMPDEST PUSH1 0x0 PUSH2 0xD60 DUP3 PUSH2 0xD43 JUMP JUMPDEST SWAP1 POP SWAP2 SWAP1 POP JUMP JUMPDEST PUSH2 0xD70 DUP2 PUSH2 0xD55 JUMP JUMPDEST DUP3 MSTORE POP POP JUMP JUMPDEST PUSH1 0x0 PUSH1 0x20 DUP3 ADD SWAP1 POP PUSH2 0xD8B PUSH1 0x0 DUP4 ADD DUP5 PUSH2 0xD67 JUMP JUMPDEST SWAP3 SWAP2 POP POP JUMP JUMPDEST PUSH2 0xD9A DUP2 PUSH2 0xA48 JUMP JUMPDEST DUP3 MSTORE POP POP JUMP JUMPDEST PUSH1 0x0 PUSH1 0x20 DUP3 ADD SWAP1 POP PUSH2 0xDB5 PUSH1 0x0 DUP4 ADD DUP5 PUSH2 0xD91 JUMP JUMPDEST SWAP3 SWAP2 POP POP JUMP JUMPDEST PUSH1 0x0 DUP2 ISZERO ISZERO SWAP1 POP SWAP2 SWAP1 POP JUMP JUMPDEST PUSH2 0xDD0 DUP2 PUSH2 0xDBB JUMP JUMPDEST DUP3 MSTORE POP POP JUMP JUMPDEST PUSH1 0x0 PUSH1 0x20 DUP3 ADD SWAP1 POP PUSH2 0xDEB PUSH1 0x0 DUP4 ADD DUP5 PUSH2 0xDC7 JUMP JUMPDEST SWAP3 SWAP2 POP POP JUMP JUMPDEST PUSH1 0x0 PUSH2 0xDFC DUP3 PUSH2 0xCF7 JUMP JUMPDEST SWAP1 POP SWAP2 SWAP1 POP JUMP JUMPDEST PUSH2 0xE0C DUP2 PUSH2 0xDF1 JUMP JUMPDEST DUP3 MSTORE POP POP JUMP JUMPDEST PUSH1 0x0 PUSH1 0x20 DUP3 ADD SWAP1 POP PUSH2 0xE27 PUSH1 0x0 DUP4 ADD DUP5 PUSH2 0xE03 JUMP JUMPDEST SWAP3 SWAP2 POP POP JUMP JUMPDEST PUSH32 0x4E487B7100000000000000000000000000000000000000000000000000000000 PUSH1 0x0 MSTORE PUSH1 0x22 PUSH1 0x4 MSTORE PUSH1 0x24 PUSH1 0x0 REVERT JUMPDEST PUSH1 0x0 PUSH1 0x2 DUP3 DIV SWAP1 POP PUSH1 0x1 DUP3 AND DUP1 PUSH2 0xE74 JUMPI PUSH1 0x7F DUP3 AND SWAP2 POP JUMPDEST PUSH1 0x20 DUP3 LT DUP2 SUB PUSH2 0xE87 JUMPI PUSH2 0xE86 PUSH2 0xE2D JUMP JUMPDEST JUMPDEST POP SWAP2 SWAP1 POP JUMP JUMPDEST PUSH32 0x4E487B7100000000000000000000000000000000000000000000000000000000 PUSH1 0x0 MSTORE PUSH1 0x41 PUSH1 0x4 MSTORE PUSH1 0x24 PUSH1 0x0 REVERT JUMPDEST PUSH32 0x4E487B7100000000000000000000000000000000000000000000000000000000 PUSH1 0x0 MSTORE PUSH1 0x32 PUSH1 0x4 MSTORE PUSH1 0x24 PUSH1 0x0 REVERT JUMPDEST PUSH32 0x62616420454E0000000000000000000000000000000000000000000000000000 PUSH1 0x0 DUP3 ADD MSTORE POP JUMP JUMPDEST PUSH1 0x0 PUSH2 0xF21 PUSH1 0x6 DUP4 PUSH2 0xAB6 JUMP JUMPDEST SWAP2 POP PUSH2 0xF2C DUP3 PUSH2 0xEEB JUMP JUMPDEST PUSH1 0x20 DUP3 ADD SWAP1 POP SWAP2 SWAP1 POP JUMP JUMPDEST PUSH1 0x0 PUSH1 0x20 DUP3 ADD SWAP1 POP DUP2 DUP2 SUB PUSH1 0x0 DUP4 ADD MSTORE PUSH2 0xF50 DUP2 PUSH2 0xF14 JUMP JUMPDEST SWAP1 POP SWAP2 SWAP1 POP JUMP JUMPDEST PUSH32 0x626164207369676E616C00000000000000000000000000000000000000000000 PUSH1 0x0 DUP3 ADD MSTORE POP JUMP JUMPDEST PUSH1 0x0 PUSH2 0xF8D PUSH1 0xA DUP4 PUSH2 0xAB6 JUMP JUMPDEST SWAP2 POP PUSH2 0xF98 DUP3 PUSH2 0xF57 JUMP JUMPDEST PUSH1 0x20 DUP3 ADD SWAP1 POP SWAP2 SWAP1 POP JUMP JUMPDEST PUSH1 0x0 PUSH1 0x20 DUP3 ADD SWAP1 POP DUP2 DUP2 SUB PUSH1 0x0 DUP4 ADD MSTORE PUSH2 0xFBC DUP2 PUSH2 0xF80 JUMP JUMPDEST SWAP1 POP SWAP2 SWAP1 POP JUMP JUMPDEST PUSH1 0x0 PUSH4 0xFFFFFFFF DUP3 AND SWAP1 POP SWAP2 SWAP1 POP JUMP JUMPDEST PUSH2 0xFDC DUP2 PUSH2 0xFC3 JUMP JUMPDEST DUP2 EQ PUSH2 0xFE7 JUMPI PUSH1 0x0 DUP1 REVERT JUMPDEST POP JUMP JUMPDEST PUSH1 0x0 DUP2 CALLDATALOAD SWAP1 POP PUSH2 0xFF9 DUP2 PUSH2 0xFD3 JUMP JUMPDEST SWAP3 SWAP2 POP POP JUMP JUMPDEST PUSH1 0x0 PUSH1 0x20 DUP3 DUP5 SUB SLT ISZERO PUSH2 0x1015 JUMPI PUSH2 0x1014 PUSH2 0xA43 JUMP JUMPDEST JUMPDEST PUSH1 0x0 PUSH2 0x1023 DUP5 DUP3 DUP6 ADD PUSH2 0xFEA JUMP JUMPDEST SWAP2 POP POP SWAP3 SWAP2 POP POP JUMP JUMPDEST DUP3 DUP2 DUP4 CALLDATACOPY POP POP POP JUMP JUMPDEST PUSH2 0x1041 PUSH1 0x40 DUP4 DUP4 PUSH2 0x102C JUMP JUMPDEST POP POP JUMP JUMPDEST PUSH1 0x0 PUSH1 0x2 SWAP1 POP SWAP2 SWAP1 POP JUMP JUMPDEST PUSH1 0x0 DUP2 SWAP1 POP SWAP3 SWAP2 POP POP JUMP JUMPDEST PUSH1 0x0 DUP2 SWAP1 POP SWAP2 SWAP1 POP JUMP JUMPDEST PUSH2 0x1071 PUSH1 0x40 DUP4 DUP4 PUSH2 0x102C JUMP JUMPDEST POP POP JUMP JUMPDEST PUSH1 0x0 PUSH2 0x1081 DUP4 DUP4 PUSH2 0x1065 JUMP JUMPDEST PUSH1 0x40 DUP4 ADD SWAP1 POP SWAP3 SWAP2 POP POP JUMP JUMPDEST PUSH1 0x0 DUP3 SWAP1 POP SWAP3 SWAP2 POP POP JUMP JUMPDEST PUSH1 0x0 PUSH1 0x40 DUP3 ADD SWAP1 POP SWAP2 SWAP1 POP JUMP JUMPDEST PUSH2 0x10AE DUP2 PUSH2 0x1045 JUMP JUMPDEST PUSH2 0x10B8 DUP2 DUP5 PUSH2 0x1050 JUMP JUMPDEST SWAP3 POP PUSH2 0x10C3 DUP3 PUSH2 0x105B JUMP JUMPDEST DUP1 PUSH1 0x0 JUMPDEST DUP4 DUP2 LT ISZERO PUSH2 0x10FC JUMPI PUSH2 0x10D9 DUP3 DUP5 PUSH2 0x108D JUMP JUMPDEST PUSH2 0x10E3 DUP8 DUP3 PUSH2 0x1075 JUMP JUMPDEST SWAP7 POP PUSH2 0x10EE DUP4 PUSH2 0x1098 JUMP JUMPDEST SWAP3 POP POP PUSH1 0x1 DUP2 ADD SWAP1 POP PUSH2 0x10C7 JUMP JUMPDEST POP POP POP POP POP POP JUMP JUMPDEST PUSH2 0x1110 PUSH1 0x80 DUP4 DUP4 PUSH2 0x102C JUMP JUMPDEST POP POP JUMP JUMPDEST PUSH1 0x0 PUSH2 0x112F PUSH2 0x112A PUSH2 0x1125 DUP5 PUSH2 0xFC3 JUMP JUMPDEST PUSH2 0xD17 JUMP JUMPDEST PUSH2 0xA48 JUMP JUMPDEST SWAP1 POP SWAP2 SWAP1 POP JUMP JUMPDEST PUSH2 0x113F DUP2 PUSH2 0x1114 JUMP JUMPDEST DUP3 MSTORE POP POP JUMP JUMPDEST PUSH1 0x0 PUSH2 0x1A0 DUP3 ADD SWAP1 POP PUSH2 0x115B PUSH1 0x0 DUP4 ADD DUP9 PUSH2 0x1035 JUMP JUMPDEST PUSH2 0x1168 PUSH1 0x40 DUP4 ADD DUP8 PUSH2 0x10A5 JUMP JUMPDEST PUSH2 0x1175 PUSH1 0xC0 DUP4 ADD DUP7 PUSH2 0x1035 JUMP JUMPDEST PUSH2 0x1183 PUSH2 0x100 DUP4 ADD DUP6 PUSH2 0x1104 JUMP JUMPDEST PUSH2 0x1191 PUSH2 0x180 DUP4 ADD DUP5 PUSH2 0x1136 JUMP JUMPDEST SWAP7 SWAP6 POP POP POP POP POP POP JUMP JUMPDEST PUSH2 0x11A4 DUP2 PUSH2 0xDBB JUMP JUMPDEST DUP2 EQ PUSH2 0x11AF JUMPI PUSH1 0x0 DUP1 REVERT JUMPDEST POP JUMP JUMPDEST PUSH1 0x0 DUP2 MLOAD SWAP1 POP PUSH2 0x11C1 DUP2 PUSH2 0x119B JUMP JUMPDEST SWAP3 SWAP2 POP POP JUMP JUMPDEST PUSH1 0x0 PUSH1 0x20 DUP3 DUP5 SUB SLT ISZERO PUSH2 0x11DD JUMPI PUSH2 0x11DC PUSH2 0xA43 JUMP JUMPDEST JUMPDEST PUSH1 0x0 PUSH2 0x11EB DUP5 DUP3 DUP6 ADD PUSH2 0x11B2 JUMP JUMPDEST SWAP2 POP POP SWAP3 SWAP2 POP POP JUMP JUMPDEST PUSH32 0x4E487B7100000000000000000000000000000000000000000000000000000000 PUSH1 0x0 MSTORE PUSH1 0x11 PUSH1 0x4 MSTORE PUSH1 0x24 PUSH1 0x0 REVERT JUMPDEST PUSH1 0x0 PUSH2 0x122E DUP3 PUSH2 0xA48 JUMP JUMPDEST SWAP2 POP PUSH2 0x1239 DUP4 PUSH2 0xA48 JUMP JUMPDEST SWAP3 POP DUP3 DUP3 ADD SWAP1 POP DUP1 DUP3 GT ISZERO PUSH2 0x1251 JUMPI PUSH2 0x1250 PUSH2 0x11F4 JUMP JUMPDEST JUMPDEST SWAP3 SWAP2 POP POP JUMP JUMPDEST PUSH1 0x0 PUSH1 0x40 DUP3 ADD SWAP1 POP PUSH2 0x126C PUSH1 0x0 DUP4 ADD DUP6 PUSH2 0xD91 JUMP JUMPDEST PUSH2 0x1279 PUSH1 0x20 DUP4 ADD DUP5 PUSH2 0xD91 JUMP JUMPDEST SWAP4 SWAP3 POP POP POP JUMP INVALID LOG2 PUSH5 0x6970667358 0x22 SLT KECCAK256 DUP12 0xC7 0xD4 CALLVALUE PUSH13 0x65696FDF84CB60FC540CF35A09 EXTCODECOPY EXP SMOD CALLER PUSH23 0x649E508F27D955145364736F6C63430008170033000000 "},"methodIdentifiers":{"admin()":"f851a440","finalizeResults()":"f7d3d4f3","getWeightedTotals()":"0619e92a","groupId()":"a0f44c92","nullifierUsed(uint256)":"79f95ee9","numProposals()":"400e3949","optionIdToWeightedTotal(uint256)":"60eeb0b8","proposals(uint256)":"013cf08b","submitVote((uint256[2],uint256[2][2],uint256[2],uint256[4],uint32,uint256),uint256)":"18afea42","verifier()":"2b7ac3f3","votingEnds()":"280ee4ee","votingStarts()":"9331e613"}}}}}