{"@semaphore-protocol/contracts/base/SemaphoreVerifier.sol":{"SemaphoreVerifier":{"abi":[{"inputs":[],"stateMutability":"nonpayable","type":"constructor"},{"inputs":[{"internalType":"uint256","name":"actual","type":"uint256"},{"internalType":"uint256","name":"expected","type":"uint256"}],"name":"Semaphore__VKPtBytesMaxDepthInvariantViolated","type":"error"},{"inputs":[{"internalType":"uint256[2]","name":"_pA","type":"uint256[2]"},{"internalType":"uint256[2][2]","name":"_pB","type":"uint256[2][2]"},{"internalType":"uint256[2]","name":"_pC","type":"uint256[2]"},{"internalType":"uint256[4]","name":"_pubSignals","type":"uint256[4]"},{"internalType":"uint256","name":"merkleTreeDepth","type":"uint256"}],"name":"verifyProof","outputs":[{"internalType":"bool","name":"","type":"bool"}],"stateMutability":"view","type":"function"}],"evm":{"bytecode":{"linkReferences":{},"object":"60806040523480156200001157600080fd5b506200002460206200002a60201b60201c565b62000197565b60006020600e8360ff166200004091906200010e565b6200004c91906200010e565b90508060405180613820016040528061380081526020016200412661380091395114620000d157604051806138200160405280613800815260200162004126613800913951816040517fbd6021b5000000000000000000000000000000000000000000000000000000008152600401620000c89291906200016a565b60405180910390fd5b5050565b6000819050919050565b7f4e487b7100000000000000000000000000000000000000000000000000000000600052601160045260246000fd5b60006200011b82620000d5565b91506200012883620000d5565b92508282026200013881620000d5565b91508282048414831517620001525762000151620000df565b5b5092915050565b6200016481620000d5565b82525050565b600060408201905062000181600083018562000159565b62000190602083018462000159565b9392505050565b613f7f80620001a76000396000f3fe608060405234801561001057600080fd5b506004361061002b5760003560e01c8063a23f019914610030575b600080fd5b61004a600480360381019061004591906105bc565b610060565b6040516100579190610655565b60405180910390f35b60008061006c83610463565b90506103ff565b7f30644e72e131a029b85045b68181585d2833e84879b9709143e1f593f000000181106100a4576000805260206000f35b50565b60006040518381528460208201528560408201526040816060836007611f40fa9150816100d8576000805260206000f35b8251604082015260208301516060820152604083608083600660c8fa915081610105576000805260206000f35b505050505050565b600060808601600087016080890151815260a08901516020820152610140600088013560e08b015160c08c0151846100a7565b61015a60208801356101208b01516101008c0151846100a7565b61017460408801356101608b01516101408c0151846100a7565b61018e60608801356101a08b01516101808c0151846100a7565b833582527f30644e72e131a029b85045b68181585d97816a916871ca8d3c208c16d87cfd4760208501357f30644e72e131a029b85045b68181585d97816a916871ca8d3c208c16d87cfd4703066020830152843560408301526020850135606083015260408501356080830152606085013560a08301527f245229d9b076b3c0e8a4d70bde8c1cccffa08a9fae7557b165b3b0dbd653e2c760c08301527f253ec85988dbb84e46e94b5efa3373b47a000b4ac6c86b2d4b798d274a18230260e08301527f07090a82e8fabbd39299be24705b92cf208ee8b3487f6f2b39ff27978a29a1db6101008301527f2424bcc1f60a5472685fd50705b2809626e170120acaf441e133a2bd5e61d2446101208301527f0ae1135cffdaf227c5dc266740607aa930bc3bd92ddc2b135086d9da2dfd3e2a6101408301527f2b86859fd3d55c9d150fb3f0aeba798826493dd73d357ab0f9fdaced9fc81829610160830152600088015161018083015260206000018801516101a08301527f198e9393920d483a7260bfb731fb5d25f1aa493335a9e71297e485b7aef312c26101c08301527f1800deef121f1e76426a00665e5c4479674322d4f75edadd46debd5cd992f6ed6101e08301527f090689d0585ff075ec9e99ad690c3395bc4b313370b38ef355acdadcd122975b6102008301527f12c85ea5db8c6deb4aab71808dcb408fe3d1e7690c43d37b4ce6cc0166fa7daa61022083015285356102408301526020860135610260830152885161028083015260208901516102a083015260408901516102c083015260608901516102e08301526020826103008460086203aeb5fa8251811693505050509695505050505050565b60405161038081016040526104176000860135610073565b6104246020860135610073565b6104316040860135610073565b61043e6060860135610073565b61044b6080860135610073565b610459828287898b8d61010d565b8060005260206000f35b61046b6104f3565b6000604051806138200160405280613800815260200161074a6138009139905060006020600e60018661049e919061069f565b6104a891906106d3565b6104b291906106d3565b60206104be9190610715565b905060005b600e8110156104eb5760208102820183015160208202850181815250508060010190506104c3565b505050919050565b604051806101c00160405280600e90602082028036833780820191505090505090565b600080fd5b600080fd5b60008190508260206002028201111561053c5761053b61051b565b5b92915050565b60008190508260406002028201111561055e5761055d61051b565b5b92915050565b6000819050826020600402820111156105805761057f61051b565b5b92915050565b6000819050919050565b61059981610586565b81146105a457600080fd5b50565b6000813590506105b681610590565b92915050565b60008060008060006101a086880312156105d9576105d8610516565b5b60006105e788828901610520565b95505060406105f888828901610542565b94505060c061060988828901610520565b93505061010061061b88828901610564565b92505061018061062d888289016105a7565b9150509295509295909350565b60008115159050919050565b61064f8161063a565b82525050565b600060208201905061066a6000830184610646565b92915050565b7f4e487b7100000000000000000000000000000000000000000000000000000000600052601160045260246000fd5b60006106aa82610586565b91506106b583610586565b92508282039050818111156106cd576106cc610670565b5b92915050565b60006106de82610586565b91506106e983610586565b92508282026106f781610586565b9150828204841483151761070e5761070d610670565b5b5092915050565b600061072082610586565b915061072b83610586565b925082820190508082111561074357610742610670565b5b9291505056fe223d042d480e6b8aa96ee92c5dc053d7cbac9eeb12b25c7879ef678bc1b67cee0411c9a50fe4fd731c874ea1c7f6411e6ea6037266e687d27cc15452527a38a61c366fb513bd7061f1ffe1b01679ef6935509bdebb0f6a2359ed3c2c55167a8c06c41ae91c52f2b27f7bf76e73f6299ce59f6f67c03b5c1d15ee23ccbace2cf12fad2a9783fc2ba49001eacd3a33e34c302753636d3c46357636dae6c8b2024b19c6002888dcd3e33699c10634a806d2aae224c3d7e59cec5a9b8719b066d2640c3bc3c927533404b7618b19082e24eb2ca334e7bf9dceb958bd3551e9fe7f57270e9bcc58594f6192a2b99d2846f622de39b5937b2a7323cc45e25fcb2093d01e7d1a66aaffd026340c02261fd998650c044a8b0c7fd711e04213a1cd2cd3512424444f3b3621df8c36b258f3554a9c5e2a21a5331717c8aba346c7ac63c97616e036c1a88f983c82227849b01847266a1175919ac332c27799549ce18d36ee0b0ca3b0483c8e42c91944242fc36b40ca910518f9d85a25be8e4a7ef43663ad110cf5e0d819a05a811f7a0c166628530ba6f6d353e8e6a433c064d6fadf060c19bce756e115841dd94ff44541d5ad78130187d67f3c560c2a590bd0937657090dd7a106857421eb01a5bfc3823aa5eb877b1e10e8bdf45de359928b28d1ca3927b6c7af8f5185344561cdfc3a5b049d381fde19a6c1d178c748b30bc5b89cb315ea7c4084328d608b151e9b174a74fb47f84cd5cc4c9093f63d23d8f66704010d1c16cf84a74fbaaec21f0190d887251440559389739fa03a9c82722c6a538014faebe5560369ec0b8807a88ecfa006f7f9795caf1bfcfe261555534cf4e78d0c962615261ca9c1f65cd755e00bc013abf1533a12e81b80b32fc41b0d1fa86d2792793df783c78305175c60e000c53fd96ee07ceb78e470a6c64a1b477c55342096d8bc28b6870f36fc685e6509823ed594339011cb6dde0e8f8d7cc1cc582e109542c42e7879d5f2509059905ece1bd8860e7c820343aa1b30461df91eae951eea6862ae37a2a4392c5801737849adb507f0a3137699241517a3f1ebbb3a48093d3e06748b6704617f4cffeeab1a9c5b788923f7fe09a498749dd9ac9f32532e5f917fa4593965b59fbd36e7644390ba01391b8379a4a204c1c29fd1d17cde2a0dccfc2e6d40de5187062a63a944a907d0d7bb6eb30533a3454057778ed3af1b8f89159c77020c893f3cb7a2a4cc3085dafdab413391192963d2d6f8a71b7d0f073ae26eab905914ac7acdb75527b816507bf5874f1b62510b138763c6981b2efe76868b9464962feb51deeca8613af2840c9a8ddc525770423f41089edc6b246bb276850c226ed5ae364e91f840b7be0a963dde7ea0a2bcb2f32ea644064b2f6a7a99b512977e15a4a74d0f72d1eba14b0c87e9b647421aaed72562744c141a465001f19b05dc38a491b248c97ec7920c03da29e69d805df6dae9ad29c6b80ed2c6a0818f6e04bd3aa8e1a17b0d67c6815feeb8bfe9b3a575bde437ab71141cb929c4998d91a32baae52fc164831ff6bd12474cd8c91189b69f1e8cdb71640c5be902277c48337d1db6b1fb81c89e8689cb10b7ee6af8b9fc5975a730f6eb2dd837a46f2ba2ee8ea9442a9eebd87ed57f594f044c7860b39595eae6ce4d0e119bc8b722e52ff60236302b2e6f4a139f15e63aa0641ae765f3e71c32fb759d25214f618153620b583fbd2abc2eef9a26789f3b5296e90551877a37d362dc95013c611347b3d133ed9045be2c36f8689a0120c4078d12d8cd28c006bc61dda22f0a9559eca7cc75db51c369b05e74c952d5a8ae39b06ed01c8698f4d74d58dc0fee282026bc113cc251580beab7bfbddf2209056fce08c4e356b1a06f1bc9440d019ab06a355bdbfa51b1e5b89fa8e1a59cc3ed78efdebf14cccd425778a0f124c852ffd0bec3eb73101770bf74c9166c2c319e247e5c5b8249ead357af4312127605c73a5a074f7eb1b6d2c28c7c6b2ab38d9c3b722b38d1e1c7e336198f251834bb051ac66b2bf5d94722271108ff7809e00c8ba5e6d4786d99e65953e3d828358bc8e9b03c31481e07909d86cc8386494aa0c6b1fddb6e83911200d2d5bf21309d93ca7e97b55d43c9396f92716ff1ad99b73dc929c566de6c6c721bd04808666e4182c159d4cfd305e1f6f5cfe4ce9243ab5388c2a5a0ab74b600e4bd5e28cfb007611bda022f417d399841a00e543b14076672113b21e9bdf4942eb3fc1281dff49430dbc9d0748814312f5356a1024539516ae19e8b6eb6379421cc83243dc2b640abc1728422276ba4ad24cab39fc7d1ef6cf3d82fe82c9f89efaa7b005cff4d9542e3250c36bf32561e274f8fa928dd3a8d11f4f76c36a4cdeb5e6420b886f89543b54f0403091d51cd88895fbd55aea86d19db8b89cfd55255f8030c0aa8002fb14fb9b4feda737c210d4289d62a014e4bdbf708ad21b53ef62d9625e79b70d1ee02eb3f6c25bfaa7b9a4e1566b0fa70c6c0ca072191897838a3601f5834e4b1f3c4c2be7d246854a9826812062ce203a9f7818ab884a0306b3622121c37e25e942cedbf3bdbd4a53cf3cb4628a36081e1824aa583add4bafc91a62afb6907df29510dce8c6d157e612b5e727779e8b3e7fd963468244becb827b928e70c1e2ea6a01e47e3cf63e6bbf4fb480a106ae94bf1b7711fa98c010b9e5b0d6670f5a24582a747e1d1ae1e0e8da63d7d202210d96dd5078fa58eccd43e361fe26476a17c1dda8d2d1b630ccd263ecd5644529afc3e2973f6961ff3f8712627464f05a8ebb85e8e465599614ced7bec41fcda74ec9f51ae39c392672bc7242ab9a6d1c669a478ceb584e3bc6e1635e3202ec53cbb6f3cc42bbfd7659607c00dd63e17922e2e955c38d47347fd269336d27cb9b9c7a3218c3808507bbc994d19593a3350d5604598530c93362e2836f90f7daa675f73b40bc04d67b0625e3d1682034112be41166846a800dec3f04dc45f7878bd2c5493e443f44efc5c08af0828e223ee37c2d4dfa133c8df747c3ddd415da67e911f2f5cb609a58df64bd0127bfd549e5e8dcf4b22291715f2ad5668cd6c711c2a39c3ffebe93243df40b00dc2c61595d602f4f7b03af6a919263956b5943cb3f5f890bde70de7336233871273f3665d807e7209eb64729ea54ea6c825cd711a8f188a7c8dbfd0626e74a40bfda4e183722faf414237fa9ed12319fb5ee54d43ab955e00453801982db97016fea2e34746afb310849831a045eaa63da4744f1c2b576a49f12273f48ce5d311264fa5d1e4446967b2178473890cc9252ed102c5db6c56368a0987c6ffbb7519546a1616aca8f207e875ebf37977f96c1dfa32ddf16d7eaded9047ab15142f1953bcaad2e145cb2a759cdd65eb7cf493b281b71b0faa6010e30a38b51275192fdb1ef3113503a9db688b32a0b79f3a8125d7967b3962373fb886332a135f7706d774b685f236c190a046ec7fc6147a84260794c543230c4d3f90cc091d0e602cb5b76f44713c49cc24cb3e1715ba081787296b94dbe25ab57742ebf6553df405159d91bd6a0a9c639b0cc27cc39dae457f45225c4bb554264af8e229a52524115001b9e8d8b1463cd86a016c3610f87fc2a10f63bdfcc00cfa99353a4c1a52125537cf6072615205c38045b8ad31d155bdd8acf80c7dc627a7506e642a177c2e83916c6303325ed9513361098830271102ac5dbf285e2645915eeda77a56931ce67dd1edcaac1b03358eb6b2ad3780bd1cd201b91d4bb2e603e01279351fd10f6023308217b2764eb38cf098e1c6c012990e188af20730587292407996a3931169abb3cf5bec07393ad7585ceee78751fbf5ff424901737ab76642aa52bc9f296b6c4e7849d8a1dc8fac95f48fdb8c72807d23a5f2c03978154fd39761dc221ea1e1dab146320bebfe3a0183861132ea13acf7957f9a66f2e61d3b12cea7f31255c43af69be48744c759de67f363030b809ea5be5de707545d1f29dbfcd272110b2f7ac7d7b3f94893762fca13700b74cec691bc57d216ba04e992bd0dc9470652c5b2ba7b972dd68bf8c271556b57ad4521c067a072d75ee09268562cea9d1e6db4b3e0185f2add0d49d60e16168c2f3ea91e2cb05678f2c9d9abe232b3400a96b6eed42e7041c98baa152253971225378ac4cd9589c80cea28c06b5706782650ef83382c54ccfabafaec8096c519ab5670c7d4dea2535c64db2b7dfcb5531664dbfaf0f45d6ce2782683f87e6c9e9b7176f08511ac1663869adf9337eef0212ae8907761700bdea4b480f20f788dd08ca4126dcf4ea462e890f3026344760e50a74cf13a9f5c3eac33a38c6f9e8d3c2638bee309a4180afd6097c52766e41377037809e690222f9afca6e1ee39ba95846bbe912379a938f6ffcb493f5cbc2f87ae4a5a564f795b6078c1e1511c63404183176bfc6f03ec587766d8868cec078706f23a72811efcac3f7cd3a6cc38973d57adbf99bb615d8e364d4c50c9352f0458a92e188177e4bce9f874dc537aad6cd91252f12b862fd0a167a95e41c90207f0a72e420364482932d9117f37989fd77ff9721943ed566b65624a02ca8a10cee567471a2b01cfa286f3095713ffe5855c06f17158e33e9ebfdc1c792a88239ea34b3e8a5d1d26599fcf453537fb16a91f9520317a01c7de1bb5a768d72509b3a1bb0c0be55876c4b91957b7e86412654bf272b7b9c52f2217e9713c7dcc2cea70065cb1bf0b68c86a3592a5134384be8b10de004c31233b783577694dc613aa1864f9d5017a46cb107be441f821a85315b79f39968d6407f343a2c619980005f278bae49a9a15a54132c50388e69f4211ceddee99195f07736b502fadee0302a786d79c25a2be297edd39eaee413dc553146ff7d83bbbb8bc71447b66052eaf36a4dae40401cfa571b55ad8b5fbced37e67860085bc6afc5412d809ce8a166d04b67debdf8e674bd6074bf67031d3b4c558647dc4a3c5443eba23086683232f97fa7f391323e066175feb3572aed60c343c3e3c11ed309c00ffa29cdd37209fbbee38f2dda9c1984658fa4ab5794a3a5fd19da7613c554cee69db7a51d50271f86b9bc2d6ec259de0541bad8d207075dd0547401a7de8a0b1daa2667e6427df2b01c10bf56b288b324ac4cef462dfefebd92740e7216b15eb1a85b182e30b61eb77f42c4efc0b1513d486de63d1023f3169e5e76c3bbed64b4ca350e9641ff842cd59778fb6c75d197511f3158ecac8fafd21db5fa652725be434580ff921095e6eefdda8f7648172826e435e08a93109b1f040d88ec1b01ce3e2dfa59202746d05612699c335d4031f388561fa2c6b3a4c224df74140c58c5dd7391459182427fdf7ec0b8c5a7003e3ae6c19d8da47804a75d62ba4a1f8ce1835d7eb660dcfad648630a6037241a73af244b1612eb375d852712a10182e1339d176471f24611b2e7aad1a1fba1f1eb3193a87a0261e98dbe77fb30944edc6ef5726acda2df51df9c66f51695783648873bc167bc8199afdcf98a6a39dfc14933634cc2500ba85a4d757b2bb24f2686c8fc2b20d23f68ecc5bbd889d70db8222f9c94eeb2a615fc377bd707e1d297df70f60076d184ea30144439d2a02827ccc4b74d6d5083ff5f9b4474040e1db95e7dd4ac08bc49f0df5e04b1601e531087a66e1a9a009736eb920f83da4d3d81d49a3d16a2718b7af21f590d120ac5775d56e87966717c8dd6f1cf33271c97ced9829c0500a8353d922a4ee36cd2a64e8ef99db06b02b4fe13e06cbc8e9f0fb007f7feb24277fef8ce8403846d681b8b77c7fe85ca42df40a5f7f4555887344c54fdcca240d9e1220c9df8a305f4a6ed0b5fcf3258c26e306f7f4400a8b466a46f73b1bb30628e8f53ae183179a89ea09bcab1abe8c1903a292e81db108e9af23cd1c7249087803195ef86af9d7aef43f671bbe28d505c92b5167e06202018a4b1c482dde448604793a2b6d734c3a59f599b457794f109890a7f2fcb50131c7e510faf117da23344b6e50403670b103e8b1b0fea27f1fb6977c76473f7a1d148b69a5526768ac7032ce91f0e138973b3e4d30745fdf22846c8fc4704252020b4a141726ef713f5eda605ded818ee69d101490d5a8b6079b1bc515838f1ad835d87623adef3b1673ca9735ab72d8fc938e206a524e5820d47a675b313cd4b857527f3e6ddd2b5646e5fd9f206aad5bcfaae6cb0958e6064e79c61f6d53a00688e7f217a0c8579ba3daf9d4df5dec16f013a124413f152383c6f75c1a392e6e1375277f1130c2274d8668773addb783207cf58cf4c0b61fc40e1150f35476075a72e0ee5366fb0655cf4a0497d1f4e068e5df2ad7299205c9dff32c5c83675eedfce89d2270ae3115d2ce98dd7cbe37603bce52504e8022de7321ef7d49d583634074d556fb103ed40b5355a61457e7055b2218fc620e269d005f007d6b2f3e7ba54cd6a2beb190223080a1fd94230f409ab223c5b7940c5e61cdfabe2eb8188f70cac4d7b7cdeed9b964792d7dfb6fc0b228a7270e542a586a34c5b50461b05614cbf3ce228c130522513793ec263f9afa96e23f4e5a25ccf30168e9ef4fd1cb902c95ca8d67a13580dd07994094b221708f8c7d6797107dfa97fd9047fae9cf80f48b206884949b324e4ab03212f3298c48189876961cff7a1fcb4f40c410ceb353cb8ab907a0f6b2821dbf82766ec762967ba2394420b8533e0ab744d5db86e30a3e73a80bf621a2b5d8555b0fc416389d5cf532650c9d9b203b72e7887fbc30ac7978146860ea4aa1ff0d96dca2c65666304cacbb1b84d4afa11231f3a4a3c62a0029a39f5ea31d907a92070494990427e7ca6f8814107581ede64e20dce54fffbc6443cec3ca1cb0054c5142187cd21bcb166b7916737e84151e0282876e43177c3830524e3b6ac2eab243a067de3319f8d0b8b42ba33cadc4f1787f00a8a107c76e563325b43a6646961320196dbfc00c4f22da2ad6e07defcb0c49b161fe87df3cfd5eb9a824fd772a69712e947b3b1cfb21d40b96f280c977d717eb22a136ec5d2830fd84afb5096cef17868a451961bb84672cb182b3ace6be4f9319b65c2ae1e672d5a27b5fdf78973fee79c7bd09c81aee019e150e3d992f5175dd609d7b7468a978428a5bbf291b77f900d1c682cba1bf2c04f3db93c0870db5a439e9ff0f2ac65d19edda31f6bf64e9f827516b3f68e72e6c4ce5c33d2f1d00d4c7c691e5d39dfea1c0eb590de777e5fe64365545646f01879179e76aed29e2392a6df0ac85ea6a285e0d3a1112e8593c23c3e33df5a2086975bbb71f10a74a76f43bcb0035481860c6478f23fe914df449b50e56c4922c6feb5c47ad32b1054c98e31df1659881f884939536961bedeff8cfbb6e12820549855c647dcdf03d05c6a490d5541098d6d83bae7da0112a822e0abcece25020f9c4e3fcfa0d305a923e4fb0d9ef583cb141debfeb931c909ef1d4fdf6eac905a3b3663e889c49eb5920e769bbfe9f9dfc905554300bb2b4285c6a5889b2741f9e528d112bd8a059eaa510cbd9a7458598d27775bcf6d851a0d359ebb81dec011469a48978d7076fca2af28c59792502dd9dfafd8198891ec51eace408f26b164c3f0507f0a41247ba9cc307b4b94b3d3f5d56584e9857ab9a62171fd1a495227511480052b638116e221c76d0f32004f3b18905cc8bb20bfda3f78da0b8f51a93b95f80b84b770b1c52be3e7d00588b0ba9d3e4259080b42c95b31b5414732f83002ed31eaca2531766a09552eb1667a9419192ca335b08d93693e5584abc0feccdb53345bdae7349c42b119570c762f1f5497eaf898e4ba2d378d9d8d20d18d01d38cb6ac78d93961c1ecbfaadd4b0cf999b972ce4900cee9faacdf8298a1f31cefa55f5f930d149b63b7a33e385a688aa8a4ff3ff8d88e501dd7466b4751a02607dc91fd27ebb066b51f8dca8d64dec062d3f8ea6a3e2859d139c17e9f225bce5f60cf5c72fe58b511983c067ecab88071786feb4f6cf83e1b5ac35878e199ea7d2467ea66b53853f7ba20a91bb44a4a5f621404375051cbac31997a3661641e4ce35beb44e3d00fd9b7a3bd47e118fcb21c62281b148dfe4097c147e11227cf6075dbc7987ebce58711ed50e2b6a94c1478db414a834345cb2b5c21cb5252bdf93e4bc24d639e1ebd80550001fa9aa1e7d6abcba326c2b2feade8fd8d90d98245785a60faadbc0c044b2e2e0ac808e16fec60b3b73baedd29acee1a34418a77190ddb42dd8be0f01727d46faa6e2f1efd9704d30f9a969470e4da9840714f25459703bda113aa3c2812d841e053b5c08cfdd2d8d92ef7a0bb685e53d211b7dedfae2ee1a8c3ec8d9ac7e35f291d4793e4bf05115a7eb7bcc164a1f53d80f03cbd30fb82d7807479517b4e29b3da4950b96a023a331e52c721c66f5e2292bb6d910684eb13c86f172f66f59a093f8a002333c8767bd594ceb63e9c6a2c41f32b4847858f72bc734df639c032604ae71ff65afbbdcf42acc7ec195f3a39c2a0f1adf6230de3995bce023cdfc6af1e85d9121f84de4a34b9c7fc4ff920c7617fa977e81dac861e637d8d9e4636487afa55618f35f7455af8321f8d6d50d6e09f9221e154ad381a5b58d1c8771be1f47f3aae8a9769151cd84c1434fabcb9b0ea204dbfbd3e404128c8252d607169ef5305bb12a59e44ac4be9147055a6f200d2547a25e17e027bda4423048f3c6c595d6f83124767da34e0e4b96c26f5c940cbd5f2d0cea7678b80aeed4b0de78259c86a2c207dc0f28fcbe22a1252e5d3c1a9b6c59c30e6d1e3c5efae27acc27e9b7bd23af3dd7963a0aa8361b4df2f24312b6c60fbf4cd948013007113196f6ac1743fa7e5ea98b243de8dcd13c1e74d81754b2b575981673e3d30c65ddad7f120e97aa29818478eb56702759f4b78f822764d40d5e2bdd09263e2b6e6e9ffe9ac935ab67e9db1f40a102118409dc99a623dfe208849634939164215af8831f8dee4c3c0ae36d054691c9c8389211c2ce04645153c868372f37d106c5c4bfba4e2f73309d53390894a6b2338810da3f0d103e33717f00caddc108323574de85c6887720561ad0c9946bc510bd3954ad4d264461fb0d2dea03b815969e1b2bbeb995d30f774fa49411323d20ea4f4f1652161a104ad60c9b35ef38783a9f951bd969e107846affc11754708b694168ab9922ae691abdea5ac8f12f90a1a147b5ac63088f4c3de32e81d38e79a93612d9f91286d17dc13dcabf49975e2a37743d997ebc56d11b71c2e430890eb9fb7c7d3b1411153db07129358c9ebfd849d1a12de7ff39ec458b616a3e6885bee7114f7a0a98b996681afa7f3a7ea25fc6d9f2b48af7c5d8c8db0d55892bb64461752f932838a60cc9aa8717f4308e6074996b7b71f077a1fd9d8353af5c086aebed16b70ca941047448572c947a8308b479f74524a74c384d926e4be36e8068bc635df62eca6b343a7a210d0d33c3b4af4a7abbc05fe1e9bb5f05d813c4b345f87d92731a555fdc02239e64e699a0452f86cf48897ca897335ce11e771a7023596868e32fac0dc1fe2d940e1f4f616ac0ebbe2a3d09afe81eb7d39dc4f01db8fc61036a0fe35ae395adcf5bc2a3284d5fa887014dcb6f05249f5e12a4844fd2767d414108037905d11e86a5a9d3b03cbe3094e9468d3fb3c1a20738c08877269a69147e1f79d21604dcfb2ca75a44e38aa87cf8f3f56f639c8501d336f2e72a8748669520898e9f4eab7b0f918e10b9fc35a024f4d0578c0e46463cbf360606fa47ade409b99372d699342f4c7e3c807a133ee3be1c92422cf2f0e5492136e815061041142ad77d8e80c9a778bc04e8a62e550908c55974693603d8670bf9205553bf7f22f3a31aa3f9f3c040048df27710a8e485049abfabb71b51cbbd87126e83cf2403459743b0ca82a0801415ea160bad9d326888db19ea8b86bbcfacb48ac3c4120491b8939d07f0074c444ee02f79917f5ded067d7e0529b0437b71fe6355170e2bcf73774c5976acfbc99b1116384b11930bca6187dac5e662bb9250487f0845244615cb6c1b8f74aad86d9f900ceff74ee731a9dffebc26096a1e6a772680f713d96452a6838856d42998627803ee2f11b5c92aefe23347dca76e056925af421ebdc1084ebff25636eecb4979bae3ef273bf07f263db1ab126cd0ae2efcd17e262a259618e7ebbc227d2834ccd1106eecbdfd16dd9ae0591ed64166f06c1bb101ca18eda5f2ebb513cbbee577b5e3bb8ae3f3a1022a5e47e08a06b8fc708a772284c84a005818061688fe45ff37d6fa24b4f99587fc5e9a1208b3edf4d060d00cfc0f918b739604150598b74b981255a70d772a67f23f51c34212958b45a0352537c964c421601b62787e6eb7307b99a9d6eefd0286f927fb25f22e7e9eaf951e30310e4606c228e2f5c3df3eea02457bb4777af8546fb61bb1434221d998840f5caab9c8ada0b5a094dd9129eea5421c1320ae7a666b56c960be0dd4c1eddc1dd1def16e2a0ffc68a449be9d160b00ca35599e7ad7cd1afdae000cbc76dea82ae0eb79a34fa9a3c73bd9f1eca8731aea913ca7d138958a32c09c1c521df6a228ff689e68fdc639c190119604c98a1845806a317af901568ec8dc47593915f11bd5a5860f93500e39351520da5f095ec6557f54e0d5628fe9cf1a20d52c426c021f0968bcefd07ac634d7e6e02d45eb6afa85d28b307f5d2e3f2cd6d744fb4421f2833d7149f60d11dcbb89ee41fb333bc14037365be840e59e8a8125337b5b0e7fe46c0ba668aaf4f86c425b774b92962238e74504c1aa28c900313f46f4a305eabcd9e897a673272f5abe83d4d8d9115470bda3725f442ec9d6710973f9bc178d1f105079da9461b9caae4bacaee5a859dbfb43ce7c43d8779a8813ecc3ae11fdba29cb4c24bb0e770eb1d4e5c23d9a51a3cc86c7d41b35312fc5c943f96505f0e7da79e615a61755ed4526892b42ce1e80b5b027537bf53f0b536d4bbc0b1eb2f81535a276e50897a2baf3bbfd981468b91fccfbec6cec8bdc988f00235015d6ce1db45302f8e286e96e26e4f64ef5534ab8a55a9ffe215f896d7ae7bffd1315122998316a3bb389bfa1146d940d7e2718edb570f12cdcc57377f8ca2378023f10e9f89b3f0a2c44497c8a7b705786220397dce0083335027a9ce9839f60234a05bd730e143866824a0e9b7672adaa64b679dfdd86c8e54fb2df83438c202d23c1a987db7a304a2d504e5c4573592c119fcda1ccfe5a07d5643c4a9c0633029b04e14de53677bf90dc7badde802e588fdca2b9081ba20f4712e662c12adb263f5e4fd893704c5f229914cd8f37bdc3f9409e617507850604f2f59d390fe61356ec3a15573f75c899e017e73b010f13e7da632944c0fd82c0306520c0294f1cc2bdbaa1bb156d612fae11081c85317b706a2fa61a101f2d4da6ef66e293ea2b08dfba194136733553ec65648fc7842fa0a29d44f7d1f4c157af7b29bd02d71fc121aee6a1fcb2dfd17bc1c8f305fdd81c168809a74bb54ea5869b1a41f19d1386af604cbb138efe8dda480060758e274bdf502d2bcf9b5210e31798b08adc06adec496d6a730820969cfbf60ab07a2a8f7cfcfcf2020d4cac60d127fefafe06c39f25af1748848c37d1eabbd6a84a9a735afce06a5922e8a80af1bfc7eb5f213dbb816f4ac87aa15aef8541b1abe3fb4d11d8b0b082989a0fff41ad9bdb2c1e41cbe348a7f3d5e2408d19b26817183d1f6d3b51f27a915274efd9598ff18a1568510b7bb366f4387eea8fd2b20fdd95fb6a612958b5c25262c32ab3eed75c08521336bddf41556b79cee9b90b0c1cb4d36245c25a7f8b248567fb4248313d2d0893b893b14eaf3aed6820ae987b88da0cba5dad3c5b267c9012405514767b01540a25e982ae7e1c98d06b14cc56241ab9b09543440957bfbeb9c384a74b651744fc2b7ca4e19a45031fc838edb3805964d6533a4a5583ac57d9a9f6e6da65031f337363365bc9b5fd48a47eea62400d67f2ea62958d6be5aaecac89816a750694411d68a42334efcf85a8c9a7be83a1bfafb695f018b712b2467ea0ee670a007512aa7d8366d1a3d2b42e79b1d4da40b35516129b8c702ad81a7f98ff65fa182637cd5a4109ce830689c683abee5c84210eaf1765dc8cb5a37f14c8b6b5992d3c9778d5cb3ab0bfe4b296e2ed90ed19619b8b353c1043b40e03b568a049a417276cb455cc5d461db37b0b4f6b34f1bb429a76968726205617095e1d39b92d09dae1c6d2e4114c5439c81baa28594cc0ab76e7f32c25c4f780c9e9d6e46a5a0a23d3bedfe1b14bff3eec36492bb9329f56ddbf7f5e1f122838e96dcfe98c4613a1149cf273a308c777146d7f4be2160aac12980d97661fad18cf682b7c5e242b74aaa132494d280ca444d5d2a99cd2bd426ff82d443e2b44b8441733bd450d29b8403a3843d4a77b6c70539d8965e57af369d6f32feab13450f3fa985aed18142569f4ef08c2a1947dcb6e99b5ac52cdd5876c50f02bd6afd62fc810a755110f47bd52a43c690f658374e9f7c2bc4285c641c7116a4ccd2c94f684cbeb7f2a17a29f16b646ebe94c4b2e2c4bc375cd7b002111dd55c4d212e9360cec88c188098ba052f475e7cb4a6e7200d33425128781eaf3d355ad53a1b998c6b7738252010fc33b3e282beee7dc668308b10bf602c3df7d350d3da0502cdcaaa7208ef32b3d056c6314e54e7dae918489566f31f7dabe318e0b9dd84addda1189d383a11d52417a894df6ce25f92e97d2086495b8c9acdd9f312fff2aa2524d2e11438d0f7226bcc9aed34857296ce6dd82b82f1d086ac24d3b9e51ec3c767a89e0e0d10fdee6a4513d6ec8f9e2d416c8b87b0c1deaf66702ef14b11f42f9754ae688c220151e7e27c0331111bf9346db0f4a36d000ac49d03c561a45e23383a0b61d2717cf331edb43a227be4cc3ae2dd0999e07593a95e62cb170d4e11787ca9032a411b76e488a5eb5703a63e3c43341cd111141c3353d6c634422e63a8ee3a948e62aaa17be5319a2c4b81597c87a78dd744742127d8f4c942e30a6884a7c40c05a1ceb38f341d5107f31308f3985d72707ee4cc450aeb79b3122d18ab3a811ca3226dbf8986be11183f7bd4bcfc17db4b68fe9a92cc4921fe17aa0352f5778718601a871c9a11ac0eac37adf26c0e380d9e4d4d4c1441bcd52438332f3ec1bce2c1dbda7ce884258ecbf26f6e40029d770ebbe895ac8ce51007d38939c48cf3ed31be5e75237314f6570dec86f57b27a19ad986e3070688999218f5ef741abdb302a72ede4e7a6441460b73289ee24090a357e7752cf5820dc8e949ba37881518729e2a51ec1246cd16a5566177add7278a5621052e6a7690f43d0603332cc618e1cc1f8149c8e2b77a892261a86c37bbc1586b3e8e0c6a77847d3b94d32fbe3e614b8a5528c397ee0565c1d305c4679583c7a2273a4263fd7c0e4c0c3cd1593d70f1645829fddd22d3b28fe608eba622b2dd67dc8282192da3762413ba678ab7f0908dffa0610ac0133c5f7bdfe3469934c78bcb4177d2c1fc618bbac6c2ede6a05c83ee4f9ca0f735c449b31ebaf60e184880a7ce6053dbe5c6abf673b02bc2213ecf7b788d4fab17371a424493bb49447855cfb413af131de52bd75a50b706d0602afc4587fbcbe9da6daf807c3efc632bb8fbc8a3ccadaf73b827542745fa828bd99e6ae097936294db584bb7eefa8dd7b63144064f7114041a88e69d6e9c6053751ef135a8f6549527e22bfc0580a02a7dd72e9eb6b6a6e73b3f6ec2690251c32a5e4b55b022f9cc73fd585424afedcd1ffbf7e46d2a8e3a86b52a937a6291abff8ffde1de3add8b76c0a6f372e2b921d601c5f3128e5851706eb60ae7b2820e0459978a083b67d71ecd1f963b5cc7eedf8334fe85839f968fba857a2319f27b0a430b6ed3d09e7f91bfd70cbd9677656b8b31b140f215fd20ca25c0ae20d0be867f7f893f3fd8631d41e77ce901edbcd29df2ae3e3d61869ee4163105d12006b141b5277c0afb385b10c30f42eded577b0e99fcdafb69648bc81c015daf22d79b8879e27e7000430adcd96d6f7c67fcf386a473752668e64c09b2f8010a30475cfbf8a76a0346f7df43a3eba83f47f139060103130b1a484e7814623d85413be6b6d4ca7746460f0466a5068d54dc9378ec2e46cda7d08deb8a254260e2701edcd7cedeaae1c11de85b2fd1e5dab42fa36e547682937ff684364921b513f1f570a240fd09cbc6fdd1ffb9183668427b376483f723438dee5cc5a6eb961a12eadf23a07b9fefd2e17ee0d74db1ef80caa7745b9c9f7685fec9b02e5ebb13b2f668953cf91fefe0b441ff07a2f2938f468bc7efd380bef43a030e5fdc41a71118eac608ef4b794efe03a23dd034f13156c02f2762e6e8772b11c7dcf8ddff32b942a6404366c746c10e3065f1f7932e240446c85c3f8ee5aab85b7727506fb03f113eb05dac7306c758fb6565545232934cfe1a99a5fc63945a4b6d1a652d02a5f2b3ca600b10335fa312440e1314c0d0ec80ce8a5d39733ebf716b76e6e010fab721321f8c4cb709dc6ee730944453978383e604695b098845acc161c28fe2a8338a9a5abae29f5d98d6af2ad0372b92ca7b779ce0ee3a79adc1cb4262eb52dabefef57a8a4ff07ffd5d517eb5caadc84ce32d254ba4b746d19d19b89a5311192d39b9a603bba160da80fda0469b41c2255ac4d0a46402a2844225ffd25392f46658280ce7b17e40eefb529673a2b3d8f6e25757e9a445e44c7a7149bece401de74823933559559239322e9363220d322cea2ddba2f6d5610fe883885986d15c53cfddb0f8bccedaee3a4492f2ac1be55d6f0b2f1e7af5f4caff10177904f2ba1a14949b45d15d45e07b4b3c206ed751f86b5f37d70a24a4d8a7dc389aaf71839769f1f11e18063e3bc10c490bc546d8b35242a93ec4d6b61cacee4f1d4b01800f7c3137ebc9ac731f7b4d6375c01a874f29000c1b3f4727b65c77a2d51051bfcdece5c62826292caa2da6ec16b9974d2eb7fd3c2c20d1863db12ef1440be09c696e6067fa41ad890ee8388c0290186e494cbc202e7667d19b56353cece99092b1d93eed7d26456f285906aa196059ebbbc157fbde72b8acab6be8efce28d2ccb3b61db9903623cc781638310a16f00286bdea868004a462fa0f56043371e26b39e1d54a4f3e8d8a84d975ae267f7e0b886137b4969b4ae68008ac9462d3b1ab6aefcc6dfd4c6d8c49baf866c8ceaffba9af800d551cd8ebb6fb61dc79344231508ea598b14f2b92a32f4ecfc2e1ded34505db040216fdd1307594fb8f07d225265caca14dccb262c43230defa44d79efbf96195b8852817b9c2a1a0cee7b065a720651f4d30a03b23445d588a657ec81881b38a6ca7c96ae7d30a228eda72f8f278929640191de8b4c95a163f7b35d9fc5f38dd11499e2f3f0484fee4d4e2e67e80ed738c79c531bb034d0e3f7703ae1cd93d0334f8cce0e6fd7bbeeb9cd1a4ba16824f4df329914baf49fe4ae2e518d85cd88bc2a4d7511486305611aa901d1333f199a38fc9c772c5b6dde72d9d9ef90dbe2a7ff20cb9685c2b30ef80c066995da220811544bd79b867d6a45c5f9d5f81246ee7bd867bae77ce1f1a5fd1347a12ac6258ea35211b6ba1a86831915843d88896e58f458f0d5765917c35e035fed90d06219d345c5ec7d3a0ae95883cede928acb380f8ef8b4b6859ef9652abcbb767e6e79b2dd22e5978eed3edd65fc15f583b875d14e2dc2f2a0d8543c03e599fcafefc67dbe7ab22b856e4e31201c5375c3b33927afe8894adefadbb90a284cbaf5f51b1acad87234b1b54a7d39eab320c9a28687261383db782c01572088b914ab44d993bfdc7273e34954b1bbf0dbc661d1c4081b3e81da92ddfcc52a05e0e97cb23e1404ff3331f83623c8f4c394b5d49037bb8cf64b6414d60779217e540739dd851a21e60d671a6dba94845f42487c32ec098a9c4c0c198198431b389bd1a4d6c9f88d6fbb6beb8c25a7f86151da3048fb29ce506076f3b7339701f60ddbcde529f2adcdebd2bf02940c1a9a378e0488c29a0ac38a17a9118bc5165cea4c3361c2b7edc485fb90f788d1b4ecf249b38701ce1ef0472003d9dba70bcbbc1e5599b61380fae8aa7c48f7dc2c543713ffc9a72a801e1a77f9f37c810cf8a31e0bb5eb4cdb46f2fc5fca97133ad03ab9cf53883b270a01260c7c534a0e20cd40e05e747fb3bdc07b3cfc50b3ceac18f059ef4f65565f447208335fb828df7cb07583a984136302cd3baf3b3d9f9177ef97f584b0daab7f0493d2577326d35e5c2e4f1092a1339918cbdbfcb5b1dda82c318103401d4a9e8fc321815909daf60bcb32e37020e105d8b9bc3aa31900cd3459046ab97eb228675846b691180e9f207b3ae8c1bc03ba74ac6509f094c0f38b729ef60c4c7b50851903cc56108c762e6d29f106ad148cfef47e8479947c29adc1aa4b32cf6e3574bba10c0b05616e878eee4c82e3229ca0d438bffebad485cacee4ed2a22cd64971813efb1038aaf3a42fc9a5721f69b7bb52a6ce9ea6e3e58b180be065509ab930ac979932e59d3453f983dff90e45f917cd74501a646319fd22c952f3152b077d56558401f0bf595db464070ab32553b095f4421524c20568df7ac803a3d299b3dab568d0b68d795eb7b68b11c333b381a2838bd9398fe371f08d48f2ded24e60e02654f18b33a4cd6eeb86b9fafe856f33753ca1cc6756dc4f843e03039dfde879a76b715e0ee169afa10d37a8062aece61391764ffc6d4dc6ddcb56f35880bb13c705625c616a97b05678348ce1d52718bb1d8521cff5a3d2ce5b37f7c190dc478622826a0882f49d8c0fd3be124ef75a7a107778ff66b5be2b66c0b64c2084809ede3070dbc7e5de51ff90466ae52b47a293b4cff6f0cb064b6dde4e00650a68b154129426faa9a237e4bf88eb59b094786cf49a96fdc54cf6c819e1b67e2b0d687070f1bd148d0b2faf46659e6db194bfdd5d037aea060737952bc30026f8547737d057bb63c3cfdbcbdafcf387bcb4fc35f3477a87e3ccbaf160e2d20c48a71df9e305d73a39971d2c9a4bd7407a5ddee537fa604400fd37215765e44250f2105af234b853c647b3463939121612eb301cea282f0c1d679ae8902417e66c9f1f5fb1bbf10b5716793e28145726e9198d7457af95c327f336967b14ad14fd25fa0fe0ada5d6553e357275b59357fc2213e1faf714a22eee3d5d3d502838fcde32e542e73f204baf6916a3af968db423019f558a87c104c514bd8f164d03d3deba7e81d29d896aae409cad919a995cc8717b7a078c623bd3af80c056dc1716d04353903644e9c312415bd756683697eb1ba4fea32c710d0f0129ae756984b52611993255a0912167ac123d1a2c9b10380a309d7f3b067b628e9da5085d98b90b0cd852d54cf1e2971b4c37d511fbd55ca08e2b56ee7fb91386192555f1757dde458601ce287c5e5b611ff5fb58751b3eb8335a8b5cde2fd2873522cea0e9bf6f5c5560ca0091a58ee20042ac02237bf01843886e4439d859a785362913c0cead1e4691f47e5ac7ec132d0c7136a9487fb0c6cf292b07e5515eb2ae942d4aaef2dfc7f29b08f57557514cdeac066d9eea594a5c5388e8f1064dcf19fe4be16d57b0d411f5962d5ee0c6521d26c8c6fe86327b03254322abdba93545fd5e401b3e53190159193393db9909fa9676e06ab64c9e48ae9981d2e69de2dd98343508eb30b6e21d7303d99b13772c5e79df4f97c1bbc6fd5e3c84bd65f35b2defc06148f58032d5aa07d8cc37953bb5f5d2aabea56e1b0b161eed95deafbb48ef9e8b233d5cb164f1b6eb4908f591b45bc4d4385a161cf46bc1b287369a5eecdfcfd140b62e0188576c886eecbe7191a7406798f0fb4bfa0c7182c135ef595ef570294f7aec71396e7b28ab67accf1c37de37ebc942bed502f53651a61fc62a1dcfc29d1ce5e11aa2dd7e1659029917e203cc816abc533dca943664bfe41e3d298abf64dc30d0bd1ec3ca032b7d27b8bf71a2e76ccd0c4a313642b6aad073167b8b133ce76790a7414fcd29c4f31df7e37573a174b7c889dd737f94b684a8b25d8972355897802e3d9093c471054ebfe17ab81c9b7c3ba9691693fe99c34802330498b1ed8fd2602a9d7085929301c5121009e4b9187a06c767ef9aceab2202d20926e03c1ef01e3862f91f2e868c1e148e0f7dc7297989c352cd6e56879888e7e21c0948f5229075542292ff5d8f4d6bf02b27e289f82bc3934ec7bcf5d4ce5d7aa9dbf2f5f21f44b7c70aa59847e1db36ccf30b8a33fa13c5e388ff5b92db2fc5d6da62fb51a65e37ad91961d99c8583a8172b9d247352118cee44b22465bef9865665a47e132192686d14d21ba0886af62d7f0eb51f413ff2bd98316a356183f58208a416185c7baccbc02f141efff3fb4a95e8d3b2695a0f0690c232d8b39605b46885fb305bc541a04645fb6f733b27d7950a233599ced31ad97e8d3297094dba4abd6f295be8a9589ac33d6f04a426390f6e6cd70aec289a6d1ef3264c887280ad42a8103c52bb2708e2a6917efb3fd9145bd1729c2c9fa67f01aba05ab47c56441cdf0816a0b76cabc81cc9f6bae4de63668f12ae669284b5aeca54be6780354b726e0a7bff238cb5cb4c216fcf0f507f40d3679c0acbaef83dd4b5b0db2a9e52c3a6048f17c79c4a7abafdff1d3f955b5da5e0816d44f817b705f484c771f1bac29428973b30874c1236177adc709f0a6b2d32745835162f5ed9ce69f36f156031e40b2e26c32addc2ceb297648d3fc271a548b9bf788bff4b2023cab820c4a4ee8f201bbb92dcd070b78863668016c24160c2c053dadb24001af4042a1e5124603307507505dd11a39d879137103f9972ad0f6d79ea24cc16610e1c9dd1984cda871a826ce5032975f4592fbd0f5263322cce7e33fdfb2d490fb4e80b7d17de89ad1558b7b9d3f4bd40213cc2af89ca9145e8b344d1bf504bf6256fae4e8c478adb09dc052add4308658eccc8e68ae4f8012d05f472b4c1c625a39319bca758748b08d4989195c225dcb4557ffb9dbb42cc431f4ecfdb0adf7e327cd5218b56b33723fde2d94ad2036e9a94304bc121f6c1845a1327d89a6f55bb9ca81eb91e07cd0f43871c3ac1f1e37bd2755613ed7b3a3ec11a3eb8fff749ab22f92446f62f85152339e3e373c4e4ad9b657f5e665676790ca0bf8e005767aedd4269d107d4f11e6b4bc7a2e4217c1c3cc2e298e450d010fd622c47e2cd7880e64b2e6b2e6fdf28958ca1ae65967871544bd1afd71c06b4b39318d5a076091a1266627ad1b40f0ceb66234377758d63f8c56e66c0af644ead06b4e987bde957467e75938f14040e31fe264d2cc1f55a3fce3ce86a68196d2a06336102c14d0cc892fc871d6f4219b29228092e58a02047d8debf48ba1442ea38aceb82605e8bfa7460c49af4960e0528ae6d904bb6c6379fef10cb1d1bc6e867054acf978041ce99becefb219322efa15c26a14170452119318cb1073b15b978fd05c40a5001560edf21df4aac16a534da5b52c672bb3326879104eb32db6e815036dc9e43a1d4144af33f09e71ca3cd855c325dbfd0f9e724f144d2c396c83b3300a1bbf691d33a4269b796f80484ff397ef3704d677718224f0eccd23a454a584ad7563bcd916c624a6d9fac09bac86d726aa8c5f4c6c45de2836d6d88f69cecc73ec17c882e29c728b3078316569eaf77c8ec57e85b52ee30cd6212133a17ca3a4e87bcfd7507598616214d0e2b188f173ee86cce1a411c0d2ff80e1ead326474358dbf412f8e540c01aa91173f752e069ecc268a7427e0935db3acd27fb7bc097e2b2c58d5a6acdd1fb4c10ef703b9687c4c6f9deddc9c9d3ef5ba1d9a87529d0a7387bc569c6c642913c425fa7538cb83e2a689d5caeac55b325d3597547ef6c8dc122a2a6d000c344eec023e56786b482a73477d0fd36701f0eddd08298e43913144c3f7b879d09887612efec260abd0d45688e61558f0288cbddd8b5774e48466f164d5e522b544131414d6f2fe1a75dc3f898674bca43b786b3eebb0e2ac53ea6336d2d0496f23399c133eef87007a5128b3f86d3ff94bdd1a0143b28d4b72e7b02b2022147764b03a20a11d5fb29aa2ab37f2917d0b42ef10170b5f8614bc6e4decda4186dfafba37a2646970667358221220855e962d113b1fd7e6a9a3cf563cf9228bb998c48cc08d7d2ee7d95c5cbb48de64736f6c63430008170033223d042d480e6b8aa96ee92c5dc053d7cbac9eeb12b25c7879ef678bc1b67cee0411c9a50fe4fd731c874ea1c7f6411e6ea6037266e687d27cc15452527a38a61c366fb513bd7061f1ffe1b01679ef6935509bdebb0f6a2359ed3c2c55167a8c06c41ae91c52f2b27f7bf76e73f6299ce59f6f67c03b5c1d15ee23ccbace2cf12fad2a9783fc2ba49001eacd3a33e34c302753636d3c46357636dae6c8b2024b19c6002888dcd3e33699c10634a806d2aae224c3d7e59cec5a9b8719b066d2640c3bc3c927533404b7618b19082e24eb2ca334e7bf9dceb958bd3551e9fe7f57270e9bcc58594f6192a2b99d2846f622de39b5937b2a7323cc45e25fcb2093d01e7d1a66aaffd026340c02261fd998650c044a8b0c7fd711e04213a1cd2cd3512424444f3b3621df8c36b258f3554a9c5e2a21a5331717c8aba346c7ac63c97616e036c1a88f983c82227849b01847266a1175919ac332c27799549ce18d36ee0b0ca3b0483c8e42c91944242fc36b40ca910518f9d85a25be8e4a7ef43663ad110cf5e0d819a05a811f7a0c166628530ba6f6d353e8e6a433c064d6fadf060c19bce756e115841dd94ff44541d5ad78130187d67f3c560c2a590bd0937657090dd7a106857421eb01a5bfc3823aa5eb877b1e10e8bdf45de359928b28d1ca3927b6c7af8f5185344561cdfc3a5b049d381fde19a6c1d178c748b30bc5b89cb315ea7c4084328d608b151e9b174a74fb47f84cd5cc4c9093f63d23d8f66704010d1c16cf84a74fbaaec21f0190d887251440559389739fa03a9c82722c6a538014faebe5560369ec0b8807a88ecfa006f7f9795caf1bfcfe261555534cf4e78d0c962615261ca9c1f65cd755e00bc013abf1533a12e81b80b32fc41b0d1fa86d2792793df783c78305175c60e000c53fd96ee07ceb78e470a6c64a1b477c55342096d8bc28b6870f36fc685e6509823ed594339011cb6dde0e8f8d7cc1cc582e109542c42e7879d5f2509059905ece1bd8860e7c820343aa1b30461df91eae951eea6862ae37a2a4392c5801737849adb507f0a3137699241517a3f1ebbb3a48093d3e06748b6704617f4cffeeab1a9c5b788923f7fe09a498749dd9ac9f32532e5f917fa4593965b59fbd36e7644390ba01391b8379a4a204c1c29fd1d17cde2a0dccfc2e6d40de5187062a63a944a907d0d7bb6eb30533a3454057778ed3af1b8f89159c77020c893f3cb7a2a4cc3085dafdab413391192963d2d6f8a71b7d0f073ae26eab905914ac7acdb75527b816507bf5874f1b62510b138763c6981b2efe76868b9464962feb51deeca8613af2840c9a8ddc525770423f41089edc6b246bb276850c226ed5ae364e91f840b7be0a963dde7ea0a2bcb2f32ea644064b2f6a7a99b512977e15a4a74d0f72d1eba14b0c87e9b647421aaed72562744c141a465001f19b05dc38a491b248c97ec7920c03da29e69d805df6dae9ad29c6b80ed2c6a0818f6e04bd3aa8e1a17b0d67c6815feeb8bfe9b3a575bde437ab71141cb929c4998d91a32baae52fc164831ff6bd12474cd8c91189b69f1e8cdb71640c5be902277c48337d1db6b1fb81c89e8689cb10b7ee6af8b9fc5975a730f6eb2dd837a46f2ba2ee8ea9442a9eebd87ed57f594f044c7860b39595eae6ce4d0e119bc8b722e52ff60236302b2e6f4a139f15e63aa0641ae765f3e71c32fb759d25214f618153620b583fbd2abc2eef9a26789f3b5296e90551877a37d362dc95013c611347b3d133ed9045be2c36f8689a0120c4078d12d8cd28c006bc61dda22f0a9559eca7cc75db51c369b05e74c952d5a8ae39b06ed01c8698f4d74d58dc0fee282026bc113cc251580beab7bfbddf2209056fce08c4e356b1a06f1bc9440d019ab06a355bdbfa51b1e5b89fa8e1a59cc3ed78efdebf14cccd425778a0f124c852ffd0bec3eb73101770bf74c9166c2c319e247e5c5b8249ead357af4312127605c73a5a074f7eb1b6d2c28c7c6b2ab38d9c3b722b38d1e1c7e336198f251834bb051ac66b2bf5d94722271108ff7809e00c8ba5e6d4786d99e65953e3d828358bc8e9b03c31481e07909d86cc8386494aa0c6b1fddb6e83911200d2d5bf21309d93ca7e97b55d43c9396f92716ff1ad99b73dc929c566de6c6c721bd04808666e4182c159d4cfd305e1f6f5cfe4ce9243ab5388c2a5a0ab74b600e4bd5e28cfb007611bda022f417d399841a00e543b14076672113b21e9bdf4942eb3fc1281dff49430dbc9d0748814312f5356a1024539516ae19e8b6eb6379421cc83243dc2b640abc1728422276ba4ad24cab39fc7d1ef6cf3d82fe82c9f89efaa7b005cff4d9542e3250c36bf32561e274f8fa928dd3a8d11f4f76c36a4cdeb5e6420b886f89543b54f0403091d51cd88895fbd55aea86d19db8b89cfd55255f8030c0aa8002fb14fb9b4feda737c210d4289d62a014e4bdbf708ad21b53ef62d9625e79b70d1ee02eb3f6c25bfaa7b9a4e1566b0fa70c6c0ca072191897838a3601f5834e4b1f3c4c2be7d246854a9826812062ce203a9f7818ab884a0306b3622121c37e25e942cedbf3bdbd4a53cf3cb4628a36081e1824aa583add4bafc91a62afb6907df29510dce8c6d157e612b5e727779e8b3e7fd963468244becb827b928e70c1e2ea6a01e47e3cf63e6bbf4fb480a106ae94bf1b7711fa98c010b9e5b0d6670f5a24582a747e1d1ae1e0e8da63d7d202210d96dd5078fa58eccd43e361fe26476a17c1dda8d2d1b630ccd263ecd5644529afc3e2973f6961ff3f8712627464f05a8ebb85e8e465599614ced7bec41fcda74ec9f51ae39c392672bc7242ab9a6d1c669a478ceb584e3bc6e1635e3202ec53cbb6f3cc42bbfd7659607c00dd63e17922e2e955c38d47347fd269336d27cb9b9c7a3218c3808507bbc994d19593a3350d5604598530c93362e2836f90f7daa675f73b40bc04d67b0625e3d1682034112be41166846a800dec3f04dc45f7878bd2c5493e443f44efc5c08af0828e223ee37c2d4dfa133c8df747c3ddd415da67e911f2f5cb609a58df64bd0127bfd549e5e8dcf4b22291715f2ad5668cd6c711c2a39c3ffebe93243df40b00dc2c61595d602f4f7b03af6a919263956b5943cb3f5f890bde70de7336233871273f3665d807e7209eb64729ea54ea6c825cd711a8f188a7c8dbfd0626e74a40bfda4e183722faf414237fa9ed12319fb5ee54d43ab955e00453801982db97016fea2e34746afb310849831a045eaa63da4744f1c2b576a49f12273f48ce5d311264fa5d1e4446967b2178473890cc9252ed102c5db6c56368a0987c6ffbb7519546a1616aca8f207e875ebf37977f96c1dfa32ddf16d7eaded9047ab15142f1953bcaad2e145cb2a759cdd65eb7cf493b281b71b0faa6010e30a38b51275192fdb1ef3113503a9db688b32a0b79f3a8125d7967b3962373fb886332a135f7706d774b685f236c190a046ec7fc6147a84260794c543230c4d3f90cc091d0e602cb5b76f44713c49cc24cb3e1715ba081787296b94dbe25ab57742ebf6553df405159d91bd6a0a9c639b0cc27cc39dae457f45225c4bb554264af8e229a52524115001b9e8d8b1463cd86a016c3610f87fc2a10f63bdfcc00cfa99353a4c1a52125537cf6072615205c38045b8ad31d155bdd8acf80c7dc627a7506e642a177c2e83916c6303325ed9513361098830271102ac5dbf285e2645915eeda77a56931ce67dd1edcaac1b03358eb6b2ad3780bd1cd201b91d4bb2e603e01279351fd10f6023308217b2764eb38cf098e1c6c012990e188af20730587292407996a3931169abb3cf5bec07393ad7585ceee78751fbf5ff424901737ab76642aa52bc9f296b6c4e7849d8a1dc8fac95f48fdb8c72807d23a5f2c03978154fd39761dc221ea1e1dab146320bebfe3a0183861132ea13acf7957f9a66f2e61d3b12cea7f31255c43af69be48744c759de67f363030b809ea5be5de707545d1f29dbfcd272110b2f7ac7d7b3f94893762fca13700b74cec691bc57d216ba04e992bd0dc9470652c5b2ba7b972dd68bf8c271556b57ad4521c067a072d75ee09268562cea9d1e6db4b3e0185f2add0d49d60e16168c2f3ea91e2cb05678f2c9d9abe232b3400a96b6eed42e7041c98baa152253971225378ac4cd9589c80cea28c06b5706782650ef83382c54ccfabafaec8096c519ab5670c7d4dea2535c64db2b7dfcb5531664dbfaf0f45d6ce2782683f87e6c9e9b7176f08511ac1663869adf9337eef0212ae8907761700bdea4b480f20f788dd08ca4126dcf4ea462e890f3026344760e50a74cf13a9f5c3eac33a38c6f9e8d3c2638bee309a4180afd6097c52766e41377037809e690222f9afca6e1ee39ba95846bbe912379a938f6ffcb493f5cbc2f87ae4a5a564f795b6078c1e1511c63404183176bfc6f03ec587766d8868cec078706f23a72811efcac3f7cd3a6cc38973d57adbf99bb615d8e364d4c50c9352f0458a92e188177e4bce9f874dc537aad6cd91252f12b862fd0a167a95e41c90207f0a72e420364482932d9117f37989fd77ff9721943ed566b65624a02ca8a10cee567471a2b01cfa286f3095713ffe5855c06f17158e33e9ebfdc1c792a88239ea34b3e8a5d1d26599fcf453537fb16a91f9520317a01c7de1bb5a768d72509b3a1bb0c0be55876c4b91957b7e86412654bf272b7b9c52f2217e9713c7dcc2cea70065cb1bf0b68c86a3592a5134384be8b10de004c31233b783577694dc613aa1864f9d5017a46cb107be441f821a85315b79f39968d6407f343a2c619980005f278bae49a9a15a54132c50388e69f4211ceddee99195f07736b502fadee0302a786d79c25a2be297edd39eaee413dc553146ff7d83bbbb8bc71447b66052eaf36a4dae40401cfa571b55ad8b5fbced37e67860085bc6afc5412d809ce8a166d04b67debdf8e674bd6074bf67031d3b4c558647dc4a3c5443eba23086683232f97fa7f391323e066175feb3572aed60c343c3e3c11ed309c00ffa29cdd37209fbbee38f2dda9c1984658fa4ab5794a3a5fd19da7613c554cee69db7a51d50271f86b9bc2d6ec259de0541bad8d207075dd0547401a7de8a0b1daa2667e6427df2b01c10bf56b288b324ac4cef462dfefebd92740e7216b15eb1a85b182e30b61eb77f42c4efc0b1513d486de63d1023f3169e5e76c3bbed64b4ca350e9641ff842cd59778fb6c75d197511f3158ecac8fafd21db5fa652725be434580ff921095e6eefdda8f7648172826e435e08a93109b1f040d88ec1b01ce3e2dfa59202746d05612699c335d4031f388561fa2c6b3a4c224df74140c58c5dd7391459182427fdf7ec0b8c5a7003e3ae6c19d8da47804a75d62ba4a1f8ce1835d7eb660dcfad648630a6037241a73af244b1612eb375d852712a10182e1339d176471f24611b2e7aad1a1fba1f1eb3193a87a0261e98dbe77fb30944edc6ef5726acda2df51df9c66f51695783648873bc167bc8199afdcf98a6a39dfc14933634cc2500ba85a4d757b2bb24f2686c8fc2b20d23f68ecc5bbd889d70db8222f9c94eeb2a615fc377bd707e1d297df70f60076d184ea30144439d2a02827ccc4b74d6d5083ff5f9b4474040e1db95e7dd4ac08bc49f0df5e04b1601e531087a66e1a9a009736eb920f83da4d3d81d49a3d16a2718b7af21f590d120ac5775d56e87966717c8dd6f1cf33271c97ced9829c0500a8353d922a4ee36cd2a64e8ef99db06b02b4fe13e06cbc8e9f0fb007f7feb24277fef8ce8403846d681b8b77c7fe85ca42df40a5f7f4555887344c54fdcca240d9e1220c9df8a305f4a6ed0b5fcf3258c26e306f7f4400a8b466a46f73b1bb30628e8f53ae183179a89ea09bcab1abe8c1903a292e81db108e9af23cd1c7249087803195ef86af9d7aef43f671bbe28d505c92b5167e06202018a4b1c482dde448604793a2b6d734c3a59f599b457794f109890a7f2fcb50131c7e510faf117da23344b6e50403670b103e8b1b0fea27f1fb6977c76473f7a1d148b69a5526768ac7032ce91f0e138973b3e4d30745fdf22846c8fc4704252020b4a141726ef713f5eda605ded818ee69d101490d5a8b6079b1bc515838f1ad835d87623adef3b1673ca9735ab72d8fc938e206a524e5820d47a675b313cd4b857527f3e6ddd2b5646e5fd9f206aad5bcfaae6cb0958e6064e79c61f6d53a00688e7f217a0c8579ba3daf9d4df5dec16f013a124413f152383c6f75c1a392e6e1375277f1130c2274d8668773addb783207cf58cf4c0b61fc40e1150f35476075a72e0ee5366fb0655cf4a0497d1f4e068e5df2ad7299205c9dff32c5c83675eedfce89d2270ae3115d2ce98dd7cbe37603bce52504e8022de7321ef7d49d583634074d556fb103ed40b5355a61457e7055b2218fc620e269d005f007d6b2f3e7ba54cd6a2beb190223080a1fd94230f409ab223c5b7940c5e61cdfabe2eb8188f70cac4d7b7cdeed9b964792d7dfb6fc0b228a7270e542a586a34c5b50461b05614cbf3ce228c130522513793ec263f9afa96e23f4e5a25ccf30168e9ef4fd1cb902c95ca8d67a13580dd07994094b221708f8c7d6797107dfa97fd9047fae9cf80f48b206884949b324e4ab03212f3298c48189876961cff7a1fcb4f40c410ceb353cb8ab907a0f6b2821dbf82766ec762967ba2394420b8533e0ab744d5db86e30a3e73a80bf621a2b5d8555b0fc416389d5cf532650c9d9b203b72e7887fbc30ac7978146860ea4aa1ff0d96dca2c65666304cacbb1b84d4afa11231f3a4a3c62a0029a39f5ea31d907a92070494990427e7ca6f8814107581ede64e20dce54fffbc6443cec3ca1cb0054c5142187cd21bcb166b7916737e84151e0282876e43177c3830524e3b6ac2eab243a067de3319f8d0b8b42ba33cadc4f1787f00a8a107c76e563325b43a6646961320196dbfc00c4f22da2ad6e07defcb0c49b161fe87df3cfd5eb9a824fd772a69712e947b3b1cfb21d40b96f280c977d717eb22a136ec5d2830fd84afb5096cef17868a451961bb84672cb182b3ace6be4f9319b65c2ae1e672d5a27b5fdf78973fee79c7bd09c81aee019e150e3d992f5175dd609d7b7468a978428a5bbf291b77f900d1c682cba1bf2c04f3db93c0870db5a439e9ff0f2ac65d19edda31f6bf64e9f827516b3f68e72e6c4ce5c33d2f1d00d4c7c691e5d39dfea1c0eb590de777e5fe64365545646f01879179e76aed29e2392a6df0ac85ea6a285e0d3a1112e8593c23c3e33df5a2086975bbb71f10a74a76f43bcb0035481860c6478f23fe914df449b50e56c4922c6feb5c47ad32b1054c98e31df1659881f884939536961bedeff8cfbb6e12820549855c647dcdf03d05c6a490d5541098d6d83bae7da0112a822e0abcece25020f9c4e3fcfa0d305a923e4fb0d9ef583cb141debfeb931c909ef1d4fdf6eac905a3b3663e889c49eb5920e769bbfe9f9dfc905554300bb2b4285c6a5889b2741f9e528d112bd8a059eaa510cbd9a7458598d27775bcf6d851a0d359ebb81dec011469a48978d7076fca2af28c59792502dd9dfafd8198891ec51eace408f26b164c3f0507f0a41247ba9cc307b4b94b3d3f5d56584e9857ab9a62171fd1a495227511480052b638116e221c76d0f32004f3b18905cc8bb20bfda3f78da0b8f51a93b95f80b84b770b1c52be3e7d00588b0ba9d3e4259080b42c95b31b5414732f83002ed31eaca2531766a09552eb1667a9419192ca335b08d93693e5584abc0feccdb53345bdae7349c42b119570c762f1f5497eaf898e4ba2d378d9d8d20d18d01d38cb6ac78d93961c1ecbfaadd4b0cf999b972ce4900cee9faacdf8298a1f31cefa55f5f930d149b63b7a33e385a688aa8a4ff3ff8d88e501dd7466b4751a02607dc91fd27ebb066b51f8dca8d64dec062d3f8ea6a3e2859d139c17e9f225bce5f60cf5c72fe58b511983c067ecab88071786feb4f6cf83e1b5ac35878e199ea7d2467ea66b53853f7ba20a91bb44a4a5f621404375051cbac31997a3661641e4ce35beb44e3d00fd9b7a3bd47e118fcb21c62281b148dfe4097c147e11227cf6075dbc7987ebce58711ed50e2b6a94c1478db414a834345cb2b5c21cb5252bdf93e4bc24d639e1ebd80550001fa9aa1e7d6abcba326c2b2feade8fd8d90d98245785a60faadbc0c044b2e2e0ac808e16fec60b3b73baedd29acee1a34418a77190ddb42dd8be0f01727d46faa6e2f1efd9704d30f9a969470e4da9840714f25459703bda113aa3c2812d841e053b5c08cfdd2d8d92ef7a0bb685e53d211b7dedfae2ee1a8c3ec8d9ac7e35f291d4793e4bf05115a7eb7bcc164a1f53d80f03cbd30fb82d7807479517b4e29b3da4950b96a023a331e52c721c66f5e2292bb6d910684eb13c86f172f66f59a093f8a002333c8767bd594ceb63e9c6a2c41f32b4847858f72bc734df639c032604ae71ff65afbbdcf42acc7ec195f3a39c2a0f1adf6230de3995bce023cdfc6af1e85d9121f84de4a34b9c7fc4ff920c7617fa977e81dac861e637d8d9e4636487afa55618f35f7455af8321f8d6d50d6e09f9221e154ad381a5b58d1c8771be1f47f3aae8a9769151cd84c1434fabcb9b0ea204dbfbd3e404128c8252d607169ef5305bb12a59e44ac4be9147055a6f200d2547a25e17e027bda4423048f3c6c595d6f83124767da34e0e4b96c26f5c940cbd5f2d0cea7678b80aeed4b0de78259c86a2c207dc0f28fcbe22a1252e5d3c1a9b6c59c30e6d1e3c5efae27acc27e9b7bd23af3dd7963a0aa8361b4df2f24312b6c60fbf4cd948013007113196f6ac1743fa7e5ea98b243de8dcd13c1e74d81754b2b575981673e3d30c65ddad7f120e97aa29818478eb56702759f4b78f822764d40d5e2bdd09263e2b6e6e9ffe9ac935ab67e9db1f40a102118409dc99a623dfe208849634939164215af8831f8dee4c3c0ae36d054691c9c8389211c2ce04645153c868372f37d106c5c4bfba4e2f73309d53390894a6b2338810da3f0d103e33717f00caddc108323574de85c6887720561ad0c9946bc510bd3954ad4d264461fb0d2dea03b815969e1b2bbeb995d30f774fa49411323d20ea4f4f1652161a104ad60c9b35ef38783a9f951bd969e107846affc11754708b694168ab9922ae691abdea5ac8f12f90a1a147b5ac63088f4c3de32e81d38e79a93612d9f91286d17dc13dcabf49975e2a37743d997ebc56d11b71c2e430890eb9fb7c7d3b1411153db07129358c9ebfd849d1a12de7ff39ec458b616a3e6885bee7114f7a0a98b996681afa7f3a7ea25fc6d9f2b48af7c5d8c8db0d55892bb64461752f932838a60cc9aa8717f4308e6074996b7b71f077a1fd9d8353af5c086aebed16b70ca941047448572c947a8308b479f74524a74c384d926e4be36e8068bc635df62eca6b343a7a210d0d33c3b4af4a7abbc05fe1e9bb5f05d813c4b345f87d92731a555fdc02239e64e699a0452f86cf48897ca897335ce11e771a7023596868e32fac0dc1fe2d940e1f4f616ac0ebbe2a3d09afe81eb7d39dc4f01db8fc61036a0fe35ae395adcf5bc2a3284d5fa887014dcb6f05249f5e12a4844fd2767d414108037905d11e86a5a9d3b03cbe3094e9468d3fb3c1a20738c08877269a69147e1f79d21604dcfb2ca75a44e38aa87cf8f3f56f639c8501d336f2e72a8748669520898e9f4eab7b0f918e10b9fc35a024f4d0578c0e46463cbf360606fa47ade409b99372d699342f4c7e3c807a133ee3be1c92422cf2f0e5492136e815061041142ad77d8e80c9a778bc04e8a62e550908c55974693603d8670bf9205553bf7f22f3a31aa3f9f3c040048df27710a8e485049abfabb71b51cbbd87126e83cf2403459743b0ca82a0801415ea160bad9d326888db19ea8b86bbcfacb48ac3c4120491b8939d07f0074c444ee02f79917f5ded067d7e0529b0437b71fe6355170e2bcf73774c5976acfbc99b1116384b11930bca6187dac5e662bb9250487f0845244615cb6c1b8f74aad86d9f900ceff74ee731a9dffebc26096a1e6a772680f713d96452a6838856d42998627803ee2f11b5c92aefe23347dca76e056925af421ebdc1084ebff25636eecb4979bae3ef273bf07f263db1ab126cd0ae2efcd17e262a259618e7ebbc227d2834ccd1106eecbdfd16dd9ae0591ed64166f06c1bb101ca18eda5f2ebb513cbbee577b5e3bb8ae3f3a1022a5e47e08a06b8fc708a772284c84a005818061688fe45ff37d6fa24b4f99587fc5e9a1208b3edf4d060d00cfc0f918b739604150598b74b981255a70d772a67f23f51c34212958b45a0352537c964c421601b62787e6eb7307b99a9d6eefd0286f927fb25f22e7e9eaf951e30310e4606c228e2f5c3df3eea02457bb4777af8546fb61bb1434221d998840f5caab9c8ada0b5a094dd9129eea5421c1320ae7a666b56c960be0dd4c1eddc1dd1def16e2a0ffc68a449be9d160b00ca35599e7ad7cd1afdae000cbc76dea82ae0eb79a34fa9a3c73bd9f1eca8731aea913ca7d138958a32c09c1c521df6a228ff689e68fdc639c190119604c98a1845806a317af901568ec8dc47593915f11bd5a5860f93500e39351520da5f095ec6557f54e0d5628fe9cf1a20d52c426c021f0968bcefd07ac634d7e6e02d45eb6afa85d28b307f5d2e3f2cd6d744fb4421f2833d7149f60d11dcbb89ee41fb333bc14037365be840e59e8a8125337b5b0e7fe46c0ba668aaf4f86c425b774b92962238e74504c1aa28c900313f46f4a305eabcd9e897a673272f5abe83d4d8d9115470bda3725f442ec9d6710973f9bc178d1f105079da9461b9caae4bacaee5a859dbfb43ce7c43d8779a8813ecc3ae11fdba29cb4c24bb0e770eb1d4e5c23d9a51a3cc86c7d41b35312fc5c943f96505f0e7da79e615a61755ed4526892b42ce1e80b5b027537bf53f0b536d4bbc0b1eb2f81535a276e50897a2baf3bbfd981468b91fccfbec6cec8bdc988f00235015d6ce1db45302f8e286e96e26e4f64ef5534ab8a55a9ffe215f896d7ae7bffd1315122998316a3bb389bfa1146d940d7e2718edb570f12cdcc57377f8ca2378023f10e9f89b3f0a2c44497c8a7b705786220397dce0083335027a9ce9839f60234a05bd730e143866824a0e9b7672adaa64b679dfdd86c8e54fb2df83438c202d23c1a987db7a304a2d504e5c4573592c119fcda1ccfe5a07d5643c4a9c0633029b04e14de53677bf90dc7badde802e588fdca2b9081ba20f4712e662c12adb263f5e4fd893704c5f229914cd8f37bdc3f9409e617507850604f2f59d390fe61356ec3a15573f75c899e017e73b010f13e7da632944c0fd82c0306520c0294f1cc2bdbaa1bb156d612fae11081c85317b706a2fa61a101f2d4da6ef66e293ea2b08dfba194136733553ec65648fc7842fa0a29d44f7d1f4c157af7b29bd02d71fc121aee6a1fcb2dfd17bc1c8f305fdd81c168809a74bb54ea5869b1a41f19d1386af604cbb138efe8dda480060758e274bdf502d2bcf9b5210e31798b08adc06adec496d6a730820969cfbf60ab07a2a8f7cfcfcf2020d4cac60d127fefafe06c39f25af1748848c37d1eabbd6a84a9a735afce06a5922e8a80af1bfc7eb5f213dbb816f4ac87aa15aef8541b1abe3fb4d11d8b0b082989a0fff41ad9bdb2c1e41cbe348a7f3d5e2408d19b26817183d1f6d3b51f27a915274efd9598ff18a1568510b7bb366f4387eea8fd2b20fdd95fb6a612958b5c25262c32ab3eed75c08521336bddf41556b79cee9b90b0c1cb4d36245c25a7f8b248567fb4248313d2d0893b893b14eaf3aed6820ae987b88da0cba5dad3c5b267c9012405514767b01540a25e982ae7e1c98d06b14cc56241ab9b09543440957bfbeb9c384a74b651744fc2b7ca4e19a45031fc838edb3805964d6533a4a5583ac57d9a9f6e6da65031f337363365bc9b5fd48a47eea62400d67f2ea62958d6be5aaecac89816a750694411d68a42334efcf85a8c9a7be83a1bfafb695f018b712b2467ea0ee670a007512aa7d8366d1a3d2b42e79b1d4da40b35516129b8c702ad81a7f98ff65fa182637cd5a4109ce830689c683abee5c84210eaf1765dc8cb5a37f14c8b6b5992d3c9778d5cb3ab0bfe4b296e2ed90ed19619b8b353c1043b40e03b568a049a417276cb455cc5d461db37b0b4f6b34f1bb429a76968726205617095e1d39b92d09dae1c6d2e4114c5439c81baa28594cc0ab76e7f32c25c4f780c9e9d6e46a5a0a23d3bedfe1b14bff3eec36492bb9329f56ddbf7f5e1f122838e96dcfe98c4613a1149cf273a308c777146d7f4be2160aac12980d97661fad18cf682b7c5e242b74aaa132494d280ca444d5d2a99cd2bd426ff82d443e2b44b8441733bd450d29b8403a3843d4a77b6c70539d8965e57af369d6f32feab13450f3fa985aed18142569f4ef08c2a1947dcb6e99b5ac52cdd5876c50f02bd6afd62fc810a755110f47bd52a43c690f658374e9f7c2bc4285c641c7116a4ccd2c94f684cbeb7f2a17a29f16b646ebe94c4b2e2c4bc375cd7b002111dd55c4d212e9360cec88c188098ba052f475e7cb4a6e7200d33425128781eaf3d355ad53a1b998c6b7738252010fc33b3e282beee7dc668308b10bf602c3df7d350d3da0502cdcaaa7208ef32b3d056c6314e54e7dae918489566f31f7dabe318e0b9dd84addda1189d383a11d52417a894df6ce25f92e97d2086495b8c9acdd9f312fff2aa2524d2e11438d0f7226bcc9aed34857296ce6dd82b82f1d086ac24d3b9e51ec3c767a89e0e0d10fdee6a4513d6ec8f9e2d416c8b87b0c1deaf66702ef14b11f42f9754ae688c220151e7e27c0331111bf9346db0f4a36d000ac49d03c561a45e23383a0b61d2717cf331edb43a227be4cc3ae2dd0999e07593a95e62cb170d4e11787ca9032a411b76e488a5eb5703a63e3c43341cd111141c3353d6c634422e63a8ee3a948e62aaa17be5319a2c4b81597c87a78dd744742127d8f4c942e30a6884a7c40c05a1ceb38f341d5107f31308f3985d72707ee4cc450aeb79b3122d18ab3a811ca3226dbf8986be11183f7bd4bcfc17db4b68fe9a92cc4921fe17aa0352f5778718601a871c9a11ac0eac37adf26c0e380d9e4d4d4c1441bcd52438332f3ec1bce2c1dbda7ce884258ecbf26f6e40029d770ebbe895ac8ce51007d38939c48cf3ed31be5e75237314f6570dec86f57b27a19ad986e3070688999218f5ef741abdb302a72ede4e7a6441460b73289ee24090a357e7752cf5820dc8e949ba37881518729e2a51ec1246cd16a5566177add7278a5621052e6a7690f43d0603332cc618e1cc1f8149c8e2b77a892261a86c37bbc1586b3e8e0c6a77847d3b94d32fbe3e614b8a5528c397ee0565c1d305c4679583c7a2273a4263fd7c0e4c0c3cd1593d70f1645829fddd22d3b28fe608eba622b2dd67dc8282192da3762413ba678ab7f0908dffa0610ac0133c5f7bdfe3469934c78bcb4177d2c1fc618bbac6c2ede6a05c83ee4f9ca0f735c449b31ebaf60e184880a7ce6053dbe5c6abf673b02bc2213ecf7b788d4fab17371a424493bb49447855cfb413af131de52bd75a50b706d0602afc4587fbcbe9da6daf807c3efc632bb8fbc8a3ccadaf73b827542745fa828bd99e6ae097936294db584bb7eefa8dd7b63144064f7114041a88e69d6e9c6053751ef135a8f6549527e22bfc0580a02a7dd72e9eb6b6a6e73b3f6ec2690251c32a5e4b55b022f9cc73fd585424afedcd1ffbf7e46d2a8e3a86b52a937a6291abff8ffde1de3add8b76c0a6f372e2b921d601c5f3128e5851706eb60ae7b2820e0459978a083b67d71ecd1f963b5cc7eedf8334fe85839f968fba857a2319f27b0a430b6ed3d09e7f91bfd70cbd9677656b8b31b140f215fd20ca25c0ae20d0be867f7f893f3fd8631d41e77ce901edbcd29df2ae3e3d61869ee4163105d12006b141b5277c0afb385b10c30f42eded577b0e99fcdafb69648bc81c015daf22d79b8879e27e7000430adcd96d6f7c67fcf386a473752668e64c09b2f8010a30475cfbf8a76a0346f7df43a3eba83f47f139060103130b1a484e7814623d85413be6b6d4ca7746460f0466a5068d54dc9378ec2e46cda7d08deb8a254260e2701edcd7cedeaae1c11de85b2fd1e5dab42fa36e547682937ff684364921b513f1f570a240fd09cbc6fdd1ffb9183668427b376483f723438dee5cc5a6eb961a12eadf23a07b9fefd2e17ee0d74db1ef80caa7745b9c9f7685fec9b02e5ebb13b2f668953cf91fefe0b441ff07a2f2938f468bc7efd380bef43a030e5fdc41a71118eac608ef4b794efe03a23dd034f13156c02f2762e6e8772b11c7dcf8ddff32b942a6404366c746c10e3065f1f7932e240446c85c3f8ee5aab85b7727506fb03f113eb05dac7306c758fb6565545232934cfe1a99a5fc63945a4b6d1a652d02a5f2b3ca600b10335fa312440e1314c0d0ec80ce8a5d39733ebf716b76e6e010fab721321f8c4cb709dc6ee730944453978383e604695b098845acc161c28fe2a8338a9a5abae29f5d98d6af2ad0372b92ca7b779ce0ee3a79adc1cb4262eb52dabefef57a8a4ff07ffd5d517eb5caadc84ce32d254ba4b746d19d19b89a5311192d39b9a603bba160da80fda0469b41c2255ac4d0a46402a2844225ffd25392f46658280ce7b17e40eefb529673a2b3d8f6e25757e9a445e44c7a7149bece401de74823933559559239322e9363220d322cea2ddba2f6d5610fe883885986d15c53cfddb0f8bccedaee3a4492f2ac1be55d6f0b2f1e7af5f4caff10177904f2ba1a14949b45d15d45e07b4b3c206ed751f86b5f37d70a24a4d8a7dc389aaf71839769f1f11e18063e3bc10c490bc546d8b35242a93ec4d6b61cacee4f1d4b01800f7c3137ebc9ac731f7b4d6375c01a874f29000c1b3f4727b65c77a2d51051bfcdece5c62826292caa2da6ec16b9974d2eb7fd3c2c20d1863db12ef1440be09c696e6067fa41ad890ee8388c0290186e494cbc202e7667d19b56353cece99092b1d93eed7d26456f285906aa196059ebbbc157fbde72b8acab6be8efce28d2ccb3b61db9903623cc781638310a16f00286bdea868004a462fa0f56043371e26b39e1d54a4f3e8d8a84d975ae267f7e0b886137b4969b4ae68008ac9462d3b1ab6aefcc6dfd4c6d8c49baf866c8ceaffba9af800d551cd8ebb6fb61dc79344231508ea598b14f2b92a32f4ecfc2e1ded34505db040216fdd1307594fb8f07d225265caca14dccb262c43230defa44d79efbf96195b8852817b9c2a1a0cee7b065a720651f4d30a03b23445d588a657ec81881b38a6ca7c96ae7d30a228eda72f8f278929640191de8b4c95a163f7b35d9fc5f38dd11499e2f3f0484fee4d4e2e67e80ed738c79c531bb034d0e3f7703ae1cd93d0334f8cce0e6fd7bbeeb9cd1a4ba16824f4df329914baf49fe4ae2e518d85cd88bc2a4d7511486305611aa901d1333f199a38fc9c772c5b6dde72d9d9ef90dbe2a7ff20cb9685c2b30ef80c066995da220811544bd79b867d6a45c5f9d5f81246ee7bd867bae77ce1f1a5fd1347a12ac6258ea35211b6ba1a86831915843d88896e58f458f0d5765917c35e035fed90d06219d345c5ec7d3a0ae95883cede928acb380f8ef8b4b6859ef9652abcbb767e6e79b2dd22e5978eed3edd65fc15f583b875d14e2dc2f2a0d8543c03e599fcafefc67dbe7ab22b856e4e31201c5375c3b33927afe8894adefadbb90a284cbaf5f51b1acad87234b1b54a7d39eab320c9a28687261383db782c01572088b914ab44d993bfdc7273e34954b1bbf0dbc661d1c4081b3e81da92ddfcc52a05e0e97cb23e1404ff3331f83623c8f4c394b5d49037bb8cf64b6414d60779217e540739dd851a21e60d671a6dba94845f42487c32ec098a9c4c0c198198431b389bd1a4d6c9f88d6fbb6beb8c25a7f86151da3048fb29ce506076f3b7339701f60ddbcde529f2adcdebd2bf02940c1a9a378e0488c29a0ac38a17a9118bc5165cea4c3361c2b7edc485fb90f788d1b4ecf249b38701ce1ef0472003d9dba70bcbbc1e5599b61380fae8aa7c48f7dc2c543713ffc9a72a801e1a77f9f37c810cf8a31e0bb5eb4cdb46f2fc5fca97133ad03ab9cf53883b270a01260c7c534a0e20cd40e05e747fb3bdc07b3cfc50b3ceac18f059ef4f65565f447208335fb828df7cb07583a984136302cd3baf3b3d9f9177ef97f584b0daab7f0493d2577326d35e5c2e4f1092a1339918cbdbfcb5b1dda82c318103401d4a9e8fc321815909daf60bcb32e37020e105d8b9bc3aa31900cd3459046ab97eb228675846b691180e9f207b3ae8c1bc03ba74ac6509f094c0f38b729ef60c4c7b50851903cc56108c762e6d29f106ad148cfef47e8479947c29adc1aa4b32cf6e3574bba10c0b05616e878eee4c82e3229ca0d438bffebad485cacee4ed2a22cd64971813efb1038aaf3a42fc9a5721f69b7bb52a6ce9ea6e3e58b180be065509ab930ac979932e59d3453f983dff90e45f917cd74501a646319fd22c952f3152b077d56558401f0bf595db464070ab32553b095f4421524c20568df7ac803a3d299b3dab568d0b68d795eb7b68b11c333b381a2838bd9398fe371f08d48f2ded24e60e02654f18b33a4cd6eeb86b9fafe856f33753ca1cc6756dc4f843e03039dfde879a76b715e0ee169afa10d37a8062aece61391764ffc6d4dc6ddcb56f35880bb13c705625c616a97b05678348ce1d52718bb1d8521cff5a3d2ce5b37f7c190dc478622826a0882f49d8c0fd3be124ef75a7a107778ff66b5be2b66c0b64c2084809ede3070dbc7e5de51ff90466ae52b47a293b4cff6f0cb064b6dde4e00650a68b154129426faa9a237e4bf88eb59b094786cf49a96fdc54cf6c819e1b67e2b0d687070f1bd148d0b2faf46659e6db194bfdd5d037aea060737952bc30026f8547737d057bb63c3cfdbcbdafcf387bcb4fc35f3477a87e3ccbaf160e2d20c48a71df9e305d73a39971d2c9a4bd7407a5ddee537fa604400fd37215765e44250f2105af234b853c647b3463939121612eb301cea282f0c1d679ae8902417e66c9f1f5fb1bbf10b5716793e28145726e9198d7457af95c327f336967b14ad14fd25fa0fe0ada5d6553e357275b59357fc2213e1faf714a22eee3d5d3d502838fcde32e542e73f204baf6916a3af968db423019f558a87c104c514bd8f164d03d3deba7e81d29d896aae409cad919a995cc8717b7a078c623bd3af80c056dc1716d04353903644e9c312415bd756683697eb1ba4fea32c710d0f0129ae756984b52611993255a0912167ac123d1a2c9b10380a309d7f3b067b628e9da5085d98b90b0cd852d54cf1e2971b4c37d511fbd55ca08e2b56ee7fb91386192555f1757dde458601ce287c5e5b611ff5fb58751b3eb8335a8b5cde2fd2873522cea0e9bf6f5c5560ca0091a58ee20042ac02237bf01843886e4439d859a785362913c0cead1e4691f47e5ac7ec132d0c7136a9487fb0c6cf292b07e5515eb2ae942d4aaef2dfc7f29b08f57557514cdeac066d9eea594a5c5388e8f1064dcf19fe4be16d57b0d411f5962d5ee0c6521d26c8c6fe86327b03254322abdba93545fd5e401b3e53190159193393db9909fa9676e06ab64c9e48ae9981d2e69de2dd98343508eb30b6e21d7303d99b13772c5e79df4f97c1bbc6fd5e3c84bd65f35b2defc06148f58032d5aa07d8cc37953bb5f5d2aabea56e1b0b161eed95deafbb48ef9e8b233d5cb164f1b6eb4908f591b45bc4d4385a161cf46bc1b287369a5eecdfcfd140b62e0188576c886eecbe7191a7406798f0fb4bfa0c7182c135ef595ef570294f7aec71396e7b28ab67accf1c37de37ebc942bed502f53651a61fc62a1dcfc29d1ce5e11aa2dd7e1659029917e203cc816abc533dca943664bfe41e3d298abf64dc30d0bd1ec3ca032b7d27b8bf71a2e76ccd0c4a313642b6aad073167b8b133ce76790a7414fcd29c4f31df7e37573a174b7c889dd737f94b684a8b25d8972355897802e3d9093c471054ebfe17ab81c9b7c3ba9691693fe99c34802330498b1ed8fd2602a9d7085929301c5121009e4b9187a06c767ef9aceab2202d20926e03c1ef01e3862f91f2e868c1e148e0f7dc7297989c352cd6e56879888e7e21c0948f5229075542292ff5d8f4d6bf02b27e289f82bc3934ec7bcf5d4ce5d7aa9dbf2f5f21f44b7c70aa59847e1db36ccf30b8a33fa13c5e388ff5b92db2fc5d6da62fb51a65e37ad91961d99c8583a8172b9d247352118cee44b22465bef9865665a47e132192686d14d21ba0886af62d7f0eb51f413ff2bd98316a356183f58208a416185c7baccbc02f141efff3fb4a95e8d3b2695a0f0690c232d8b39605b46885fb305bc541a04645fb6f733b27d7950a233599ced31ad97e8d3297094dba4abd6f295be8a9589ac33d6f04a426390f6e6cd70aec289a6d1ef3264c887280ad42a8103c52bb2708e2a6917efb3fd9145bd1729c2c9fa67f01aba05ab47c56441cdf0816a0b76cabc81cc9f6bae4de63668f12ae669284b5aeca54be6780354b726e0a7bff238cb5cb4c216fcf0f507f40d3679c0acbaef83dd4b5b0db2a9e52c3a6048f17c79c4a7abafdff1d3f955b5da5e0816d44f817b705f484c771f1bac29428973b30874c1236177adc709f0a6b2d32745835162f5ed9ce69f36f156031e40b2e26c32addc2ceb297648d3fc271a548b9bf788bff4b2023cab820c4a4ee8f201bbb92dcd070b78863668016c24160c2c053dadb24001af4042a1e5124603307507505dd11a39d879137103f9972ad0f6d79ea24cc16610e1c9dd1984cda871a826ce5032975f4592fbd0f5263322cce7e33fdfb2d490fb4e80b7d17de89ad1558b7b9d3f4bd40213cc2af89ca9145e8b344d1bf504bf6256fae4e8c478adb09dc052add4308658eccc8e68ae4f8012d05f472b4c1c625a39319bca758748b08d4989195c225dcb4557ffb9dbb42cc431f4ecfdb0adf7e327cd5218b56b33723fde2d94ad2036e9a94304bc121f6c1845a1327d89a6f55bb9ca81eb91e07cd0f43871c3ac1f1e37bd2755613ed7b3a3ec11a3eb8fff749ab22f92446f62f85152339e3e373c4e4ad9b657f5e665676790ca0bf8e005767aedd4269d107d4f11e6b4bc7a2e4217c1c3cc2e298e450d010fd622c47e2cd7880e64b2e6b2e6fdf28958ca1ae65967871544bd1afd71c06b4b39318d5a076091a1266627ad1b40f0ceb66234377758d63f8c56e66c0af644ead06b4e987bde957467e75938f14040e31fe264d2cc1f55a3fce3ce86a68196d2a06336102c14d0cc892fc871d6f4219b29228092e58a02047d8debf48ba1442ea38aceb82605e8bfa7460c49af4960e0528ae6d904bb6c6379fef10cb1d1bc6e867054acf978041ce99becefb219322efa15c26a14170452119318cb1073b15b978fd05c40a5001560edf21df4aac16a534da5b52c672bb3326879104eb32db6e815036dc9e43a1d4144af33f09e71ca3cd855c325dbfd0f9e724f144d2c396c83b3300a1bbf691d33a4269b796f80484ff397ef3704d677718224f0eccd23a454a584ad7563bcd916c624a6d9fac09bac86d726aa8c5f4c6c45de2836d6d88f69cecc73ec17c882e29c728b3078316569eaf77c8ec57e85b52ee30cd6212133a17ca3a4e87bcfd7507598616214d0e2b188f173ee86cce1a411c0d2ff80e1ead326474358dbf412f8e540c01aa91173f752e069ecc268a7427e0935db3acd27fb7bc097e2b2c58d5a6acdd1fb4c10ef703b9687c4c6f9deddc9c9d3ef5ba1d9a87529d0a7387bc569c6c642913c425fa7538cb83e2a689d5caeac55b325d3597547ef6c8dc122a2a6d000c344eec023e56786b482a73477d0fd36701f0eddd08298e43913144c3f7b879d09887612efec260abd0d45688e61558f0288cbddd8b5774e48466f164d5e522b544131414d6f2fe1a75dc3f898674bca43b786b3eebb0e2ac53ea6336d2d0496f23399c133eef87007a5128b3f86d3ff94bdd1a0143b28d4b72e7b02b2022147764b03a20a11d5fb29aa2ab37f2917d0b42ef10170b5f8614bc6e4decda4186dfafba37","opcodes":"PUSH1 0x80 PUSH1 0x40 MSTORE CALLVALUE DUP1 ISZERO PUSH3 0x11 JUMPI PUSH1 0x0 DUP1 REVERT JUMPDEST POP PUSH3 0x24 PUSH1 0x20 PUSH3 0x2A PUSH1 0x20 SHL PUSH1 0x20 SHR JUMP JUMPDEST PUSH3 0x197 JUMP JUMPDEST PUSH1 0x0 PUSH1 0x20 PUSH1 0xE DUP4 PUSH1 0xFF AND PUSH3 0x40 SWAP2 SWAP1 PUSH3 0x10E JUMP JUMPDEST PUSH3 0x4C SWAP2 SWAP1 PUSH3 0x10E JUMP JUMPDEST SWAP1 POP DUP1 PUSH1 0x40 MLOAD DUP1 PUSH2 0x3820 ADD PUSH1 0x40 MSTORE DUP1 PUSH2 0x3800 DUP2 MSTORE PUSH1 0x20 ADD PUSH3 0x4126 PUSH2 0x3800 SWAP2 CODECOPY MLOAD EQ PUSH3 0xD1 JUMPI PUSH1 0x40 MLOAD DUP1 PUSH2 0x3820 ADD PUSH1 0x40 MSTORE DUP1 PUSH2 0x3800 DUP2 MSTORE PUSH1 0x20 ADD PUSH3 0x4126 PUSH2 0x3800 SWAP2 CODECOPY MLOAD DUP2 PUSH1 0x40 MLOAD PUSH32 0xBD6021B500000000000000000000000000000000000000000000000000000000 DUP2 MSTORE PUSH1 0x4 ADD PUSH3 0xC8 SWAP3 SWAP2 SWAP1 PUSH3 0x16A JUMP JUMPDEST PUSH1 0x40 MLOAD DUP1 SWAP2 SUB SWAP1 REVERT JUMPDEST POP POP JUMP JUMPDEST PUSH1 0x0 DUP2 SWAP1 POP SWAP2 SWAP1 POP JUMP JUMPDEST PUSH32 0x4E487B7100000000000000000000000000000000000000000000000000000000 PUSH1 0x0 MSTORE PUSH1 0x11 PUSH1 0x4 MSTORE PUSH1 0x24 PUSH1 0x0 REVERT JUMPDEST PUSH1 0x0 PUSH3 0x11B DUP3 PUSH3 0xD5 JUMP JUMPDEST SWAP2 POP PUSH3 0x128 DUP4 PUSH3 0xD5 JUMP JUMPDEST SWAP3 POP DUP3 DUP3 MUL PUSH3 0x138 DUP2 PUSH3 0xD5 JUMP JUMPDEST SWAP2 POP DUP3 DUP3 DIV DUP5 EQ DUP4 ISZERO OR PUSH3 0x152 JUMPI PUSH3 0x151 PUSH3 0xDF JUMP JUMPDEST JUMPDEST POP SWAP3 SWAP2 POP POP JUMP JUMPDEST PUSH3 0x164 DUP2 PUSH3 0xD5 JUMP JUMPDEST DUP3 MSTORE POP POP JUMP JUMPDEST PUSH1 0x0 PUSH1 0x40 DUP3 ADD SWAP1 POP PUSH3 0x181 PUSH1 0x0 DUP4 ADD DUP6 PUSH3 0x159 JUMP JUMPDEST PUSH3 0x190 PUSH1 0x20 DUP4 ADD DUP5 PUSH3 0x159 JUMP JUMPDEST SWAP4 SWAP3 POP POP POP JUMP JUMPDEST PUSH2 0x3F7F DUP1 PUSH3 0x1A7 PUSH1 0x0 CODECOPY PUSH1 0x0 RETURN INVALID PUSH1 0x80 PUSH1 0x40 MSTORE CALLVALUE DUP1 ISZERO PUSH2 0x10 JUMPI PUSH1 0x0 DUP1 REVERT JUMPDEST POP PUSH1 0x4 CALLDATASIZE LT PUSH2 0x2B JUMPI PUSH1 0x0 CALLDATALOAD PUSH1 0xE0 SHR DUP1 PUSH4 0xA23F0199 EQ PUSH2 0x30 JUMPI JUMPDEST PUSH1 0x0 DUP1 REVERT JUMPDEST PUSH2 0x4A PUSH1 0x4 DUP1 CALLDATASIZE SUB DUP2 ADD SWAP1 PUSH2 0x45 SWAP2 SWAP1 PUSH2 0x5BC JUMP JUMPDEST PUSH2 0x60 JUMP JUMPDEST PUSH1 0x40 MLOAD PUSH2 0x57 SWAP2 SWAP1 PUSH2 0x655 JUMP JUMPDEST PUSH1 0x40 MLOAD DUP1 SWAP2 SUB SWAP1 RETURN JUMPDEST PUSH1 0x0 DUP1 PUSH2 0x6C DUP4 PUSH2 0x463 JUMP JUMPDEST SWAP1 POP PUSH2 0x3FF JUMP JUMPDEST PUSH32 0x30644E72E131A029B85045B68181585D2833E84879B9709143E1F593F0000001 DUP2 LT PUSH2 0xA4 JUMPI PUSH1 0x0 DUP1 MSTORE PUSH1 0x20 PUSH1 0x0 RETURN JUMPDEST POP JUMP JUMPDEST PUSH1 0x0 PUSH1 0x40 MLOAD DUP4 DUP2 MSTORE DUP5 PUSH1 0x20 DUP3 ADD MSTORE DUP6 PUSH1 0x40 DUP3 ADD MSTORE PUSH1 0x40 DUP2 PUSH1 0x60 DUP4 PUSH1 0x7 PUSH2 0x1F40 STATICCALL SWAP2 POP DUP2 PUSH2 0xD8 JUMPI PUSH1 0x0 DUP1 MSTORE PUSH1 0x20 PUSH1 0x0 RETURN JUMPDEST DUP3 MLOAD PUSH1 0x40 DUP3 ADD MSTORE PUSH1 0x20 DUP4 ADD MLOAD PUSH1 0x60 DUP3 ADD MSTORE PUSH1 0x40 DUP4 PUSH1 0x80 DUP4 PUSH1 0x6 PUSH1 0xC8 STATICCALL SWAP2 POP DUP2 PUSH2 0x105 JUMPI PUSH1 0x0 DUP1 MSTORE PUSH1 0x20 PUSH1 0x0 RETURN JUMPDEST POP POP POP POP POP POP JUMP JUMPDEST PUSH1 0x0 PUSH1 0x80 DUP7 ADD PUSH1 0x0 DUP8 ADD PUSH1 0x80 DUP10 ADD MLOAD DUP2 MSTORE PUSH1 0xA0 DUP10 ADD MLOAD PUSH1 0x20 DUP3 ADD MSTORE PUSH2 0x140 PUSH1 0x0 DUP9 ADD CALLDATALOAD PUSH1 0xE0 DUP12 ADD MLOAD PUSH1 0xC0 DUP13 ADD MLOAD DUP5 PUSH2 0xA7 JUMP JUMPDEST PUSH2 0x15A PUSH1 0x20 DUP9 ADD CALLDATALOAD PUSH2 0x120 DUP12 ADD MLOAD PUSH2 0x100 DUP13 ADD MLOAD DUP5 PUSH2 0xA7 JUMP JUMPDEST PUSH2 0x174 PUSH1 0x40 DUP9 ADD CALLDATALOAD PUSH2 0x160 DUP12 ADD MLOAD PUSH2 0x140 DUP13 ADD MLOAD DUP5 PUSH2 0xA7 JUMP JUMPDEST PUSH2 0x18E PUSH1 0x60 DUP9 ADD CALLDATALOAD PUSH2 0x1A0 DUP12 ADD MLOAD PUSH2 0x180 DUP13 ADD MLOAD DUP5 PUSH2 0xA7 JUMP JUMPDEST DUP4 CALLDATALOAD DUP3 MSTORE PUSH32 0x30644E72E131A029B85045B68181585D97816A916871CA8D3C208C16D87CFD47 PUSH1 0x20 DUP6 ADD CALLDATALOAD PUSH32 0x30644E72E131A029B85045B68181585D97816A916871CA8D3C208C16D87CFD47 SUB MOD PUSH1 0x20 DUP4 ADD MSTORE DUP5 CALLDATALOAD PUSH1 0x40 DUP4 ADD MSTORE PUSH1 0x20 DUP6 ADD CALLDATALOAD PUSH1 0x60 DUP4 ADD MSTORE PUSH1 0x40 DUP6 ADD CALLDATALOAD PUSH1 0x80 DUP4 ADD MSTORE PUSH1 0x60 DUP6 ADD CALLDATALOAD PUSH1 0xA0 DUP4 ADD MSTORE PUSH32 0x245229D9B076B3C0E8A4D70BDE8C1CCCFFA08A9FAE7557B165B3B0DBD653E2C7 PUSH1 0xC0 DUP4 ADD MSTORE PUSH32 0x253EC85988DBB84E46E94B5EFA3373B47A000B4AC6C86B2D4B798D274A182302 PUSH1 0xE0 DUP4 ADD MSTORE PUSH32 0x7090A82E8FABBD39299BE24705B92CF208EE8B3487F6F2B39FF27978A29A1DB PUSH2 0x100 DUP4 ADD MSTORE PUSH32 0x2424BCC1F60A5472685FD50705B2809626E170120ACAF441E133A2BD5E61D244 PUSH2 0x120 DUP4 ADD MSTORE PUSH32 0xAE1135CFFDAF227C5DC266740607AA930BC3BD92DDC2B135086D9DA2DFD3E2A PUSH2 0x140 DUP4 ADD MSTORE PUSH32 0x2B86859FD3D55C9D150FB3F0AEBA798826493DD73D357AB0F9FDACED9FC81829 PUSH2 0x160 DUP4 ADD MSTORE PUSH1 0x0 DUP9 ADD MLOAD PUSH2 0x180 DUP4 ADD MSTORE PUSH1 0x20 PUSH1 0x0 ADD DUP9 ADD MLOAD PUSH2 0x1A0 DUP4 ADD MSTORE PUSH32 0x198E9393920D483A7260BFB731FB5D25F1AA493335A9E71297E485B7AEF312C2 PUSH2 0x1C0 DUP4 ADD MSTORE PUSH32 0x1800DEEF121F1E76426A00665E5C4479674322D4F75EDADD46DEBD5CD992F6ED PUSH2 0x1E0 DUP4 ADD MSTORE PUSH32 0x90689D0585FF075EC9E99AD690C3395BC4B313370B38EF355ACDADCD122975B PUSH2 0x200 DUP4 ADD MSTORE PUSH32 0x12C85EA5DB8C6DEB4AAB71808DCB408FE3D1E7690C43D37B4CE6CC0166FA7DAA PUSH2 0x220 DUP4 ADD MSTORE DUP6 CALLDATALOAD PUSH2 0x240 DUP4 ADD MSTORE PUSH1 0x20 DUP7 ADD CALLDATALOAD PUSH2 0x260 DUP4 ADD MSTORE DUP9 MLOAD PUSH2 0x280 DUP4 ADD MSTORE PUSH1 0x20 DUP10 ADD MLOAD PUSH2 0x2A0 DUP4 ADD MSTORE PUSH1 0x40 DUP10 ADD MLOAD PUSH2 0x2C0 DUP4 ADD MSTORE PUSH1 0x60 DUP10 ADD MLOAD PUSH2 0x2E0 DUP4 ADD MSTORE PUSH1 0x20 DUP3 PUSH2 0x300 DUP5 PUSH1 0x8 PUSH3 0x3AEB5 STATICCALL DUP3 MLOAD DUP2 AND SWAP4 POP POP POP POP SWAP7 SWAP6 POP POP POP POP POP POP JUMP JUMPDEST PUSH1 0x40 MLOAD PUSH2 0x380 DUP2 ADD PUSH1 0x40 MSTORE PUSH2 0x417 PUSH1 0x0 DUP7 ADD CALLDATALOAD PUSH2 0x73 JUMP JUMPDEST PUSH2 0x424 PUSH1 0x20 DUP7 ADD CALLDATALOAD PUSH2 0x73 JUMP JUMPDEST PUSH2 0x431 PUSH1 0x40 DUP7 ADD CALLDATALOAD PUSH2 0x73 JUMP JUMPDEST PUSH2 0x43E PUSH1 0x60 DUP7 ADD CALLDATALOAD PUSH2 0x73 JUMP JUMPDEST PUSH2 0x44B PUSH1 0x80 DUP7 ADD CALLDATALOAD PUSH2 0x73 JUMP JUMPDEST PUSH2 0x459 DUP3 DUP3 DUP8 DUP10 DUP12 DUP14 PUSH2 0x10D JUMP JUMPDEST DUP1 PUSH1 0x0 MSTORE PUSH1 0x20 PUSH1 0x0 RETURN JUMPDEST PUSH2 0x46B PUSH2 0x4F3 JUMP JUMPDEST PUSH1 0x0 PUSH1 0x40 MLOAD DUP1 PUSH2 0x3820 ADD PUSH1 0x40 MSTORE DUP1 PUSH2 0x3800 DUP2 MSTORE PUSH1 0x20 ADD PUSH2 0x74A PUSH2 0x3800 SWAP2 CODECOPY SWAP1 POP PUSH1 0x0 PUSH1 0x20 PUSH1 0xE PUSH1 0x1 DUP7 PUSH2 0x49E SWAP2 SWAP1 PUSH2 0x69F JUMP JUMPDEST PUSH2 0x4A8 SWAP2 SWAP1 PUSH2 0x6D3 JUMP JUMPDEST PUSH2 0x4B2 SWAP2 SWAP1 PUSH2 0x6D3 JUMP JUMPDEST PUSH1 0x20 PUSH2 0x4BE SWAP2 SWAP1 PUSH2 0x715 JUMP JUMPDEST SWAP1 POP PUSH1 0x0 JUMPDEST PUSH1 0xE DUP2 LT ISZERO PUSH2 0x4EB JUMPI PUSH1 0x20 DUP2 MUL DUP3 ADD DUP4 ADD MLOAD PUSH1 0x20 DUP3 MUL DUP6 ADD DUP2 DUP2 MSTORE POP POP DUP1 PUSH1 0x1 ADD SWAP1 POP PUSH2 0x4C3 JUMP JUMPDEST POP POP POP SWAP2 SWAP1 POP JUMP JUMPDEST PUSH1 0x40 MLOAD DUP1 PUSH2 0x1C0 ADD PUSH1 0x40 MSTORE DUP1 PUSH1 0xE SWAP1 PUSH1 0x20 DUP3 MUL DUP1 CALLDATASIZE DUP4 CALLDATACOPY DUP1 DUP3 ADD SWAP2 POP POP SWAP1 POP POP SWAP1 JUMP JUMPDEST PUSH1 0x0 DUP1 REVERT JUMPDEST PUSH1 0x0 DUP1 REVERT JUMPDEST PUSH1 0x0 DUP2 SWAP1 POP DUP3 PUSH1 0x20 PUSH1 0x2 MUL DUP3 ADD GT ISZERO PUSH2 0x53C JUMPI PUSH2 0x53B PUSH2 0x51B JUMP JUMPDEST JUMPDEST SWAP3 SWAP2 POP POP JUMP JUMPDEST PUSH1 0x0 DUP2 SWAP1 POP DUP3 PUSH1 0x40 PUSH1 0x2 MUL DUP3 ADD GT ISZERO PUSH2 0x55E JUMPI PUSH2 0x55D PUSH2 0x51B JUMP JUMPDEST JUMPDEST SWAP3 SWAP2 POP POP JUMP JUMPDEST PUSH1 0x0 DUP2 SWAP1 POP DUP3 PUSH1 0x20 PUSH1 0x4 MUL DUP3 ADD GT ISZERO PUSH2 0x580 JUMPI PUSH2 0x57F PUSH2 0x51B JUMP JUMPDEST JUMPDEST SWAP3 SWAP2 POP POP JUMP JUMPDEST PUSH1 0x0 DUP2 SWAP1 POP SWAP2 SWAP1 POP JUMP JUMPDEST PUSH2 0x599 DUP2 PUSH2 0x586 JUMP JUMPDEST DUP2 EQ PUSH2 0x5A4 JUMPI PUSH1 0x0 DUP1 REVERT JUMPDEST POP JUMP JUMPDEST PUSH1 0x0 DUP2 CALLDATALOAD SWAP1 POP PUSH2 0x5B6 DUP2 PUSH2 0x590 JUMP JUMPDEST SWAP3 SWAP2 POP POP JUMP JUMPDEST PUSH1 0x0 DUP1 PUSH1 0x0 DUP1 PUSH1 0x0 PUSH2 0x1A0 DUP7 DUP9 SUB SLT ISZERO PUSH2 0x5D9 JUMPI PUSH2 0x5D8 PUSH2 0x516 JUMP JUMPDEST JUMPDEST PUSH1 0x0 PUSH2 0x5E7 DUP9 DUP3 DUP10 ADD PUSH2 0x520 JUMP JUMPDEST SWAP6 POP POP PUSH1 0x40 PUSH2 0x5F8 DUP9 DUP3 DUP10 ADD PUSH2 0x542 JUMP JUMPDEST SWAP5 POP POP PUSH1 0xC0 PUSH2 0x609 DUP9 DUP3 DUP10 ADD PUSH2 0x520 JUMP JUMPDEST SWAP4 POP POP PUSH2 0x100 PUSH2 0x61B DUP9 DUP3 DUP10 ADD PUSH2 0x564 JUMP JUMPDEST SWAP3 POP POP PUSH2 0x180 PUSH2 0x62D DUP9 DUP3 DUP10 ADD PUSH2 0x5A7 JUMP JUMPDEST SWAP2 POP POP SWAP3 SWAP6 POP SWAP3 SWAP6 SWAP1 SWAP4 POP JUMP JUMPDEST PUSH1 0x0 DUP2 ISZERO ISZERO SWAP1 POP SWAP2 SWAP1 POP JUMP JUMPDEST PUSH2 0x64F DUP2 PUSH2 0x63A JUMP JUMPDEST DUP3 MSTORE POP POP JUMP JUMPDEST PUSH1 0x0 PUSH1 0x20 DUP3 ADD SWAP1 POP PUSH2 0x66A PUSH1 0x0 DUP4 ADD DUP5 PUSH2 0x646 JUMP JUMPDEST SWAP3 SWAP2 POP POP JUMP JUMPDEST PUSH32 0x4E487B7100000000000000000000000000000000000000000000000000000000 PUSH1 0x0 MSTORE PUSH1 0x11 PUSH1 0x4 MSTORE PUSH1 0x24 PUSH1 0x0 REVERT JUMPDEST PUSH1 0x0 PUSH2 0x6AA DUP3 PUSH2 0x586 JUMP JUMPDEST SWAP2 POP PUSH2 0x6B5 DUP4 PUSH2 0x586 JUMP JUMPDEST SWAP3 POP DUP3 DUP3 SUB SWAP1 POP DUP2 DUP2 GT ISZERO PUSH2 0x6CD JUMPI PUSH2 0x6CC PUSH2 0x670 JUMP JUMPDEST JUMPDEST SWAP3 SWAP2 POP POP JUMP JUMPDEST PUSH1 0x0 PUSH2 0x6DE DUP3 PUSH2 0x586 JUMP JUMPDEST SWAP2 POP PUSH2 0x6E9 DUP4 PUSH2 0x586 JUMP JUMPDEST SWAP3 POP DUP3 DUP3 MUL PUSH2 0x6F7 DUP2 PUSH2 0x586 JUMP JUMPDEST SWAP2 POP DUP3 DUP3 DIV DUP5 EQ DUP4 ISZERO OR PUSH2 0x70E JUMPI PUSH2 0x70D PUSH2 0x670 JUMP JUMPDEST JUMPDEST POP SWAP3 SWAP2 POP POP JUMP JUMPDEST PUSH1 0x0 PUSH2 0x720 DUP3 PUSH2 0x586 JUMP JUMPDEST SWAP2 POP PUSH2 0x72B DUP4 PUSH2 0x586 JUMP JUMPDEST SWAP3 POP DUP3 DUP3 ADD SWAP1 POP DUP1 DUP3 GT ISZERO PUSH2 0x743 JUMPI PUSH2 0x742 PUSH2 0x670 JUMP JUMPDEST JUMPDEST SWAP3 SWAP2 POP POP JUMP INVALID 0x22 RETURNDATASIZE DIV 0x2D BASEFEE 0xE PUSH12 0x8AA96EE92C5DC053D7CBAC9E 0xEB SLT 0xB2 0x5C PUSH25 0x79EF678BC1B67CEE0411C9A50FE4FD731C874EA1C7F6411E6E 0xA6 SUB PUSH19 0x66E687D27CC15452527A38A61C366FB513BD70 PUSH2 0xF1FF 0xE1 0xB0 AND PUSH26 0xEF6935509BDEBB0F6A2359ED3C2C55167A8C06C41AE91C52F2B2 PUSH32 0x7BF76E73F6299CE59F6F67C03B5C1D15EE23CCBACE2CF12FAD2A9783FC2BA490 ADD 0xEA 0xCD GASPRICE CALLER 0xE3 0x4C ADDRESS 0x27 MSTORE8 PUSH4 0x6D3C4635 PUSH23 0x36DAE6C8B2024B19C6002888DCD3E33699C10634A806D2 0xAA 0xE2 0x24 0xC3 0xD7 0xE5 SWAP13 0xEC GAS SWAP12 DUP8 NOT 0xB0 PUSH7 0xD2640C3BC3C927 MSTORE8 CALLVALUE DIV 0xB7 PUSH2 0x8B19 ADDMOD 0x2E 0x24 0xEB 0x2C LOG3 CALLVALUE 0xE7 0xBF SWAP14 0xCE 0xB9 PC 0xBD CALLDATALOAD MLOAD 0xE9 INVALID PUSH32 0x57270E9BCC58594F6192A2B99D2846F622DE39B5937B2A7323CC45E25FCB2093 0xD0 0x1E PUSH30 0x1A66AAFFD026340C02261FD998650C044A8B0C7FD711E04213A1CD2CD351 0x24 0x24 PREVRANDAO 0x4F EXTCODESIZE CALLDATASIZE 0x21 0xDF DUP13 CALLDATASIZE 0xB2 PC RETURN SSTORE 0x4A SWAP13 0x5E 0x2A 0x21 0xA5 CALLER OR OR 0xC8 0xAB LOG3 CHAINID 0xC7 0xAC PUSH4 0xC97616E0 CALLDATASIZE 0xC1 0xA8 DUP16 SWAP9 EXTCODECOPY DUP3 0x22 PUSH25 0x49B01847266A1175919AC332C27799549CE18D36EE0B0CA3B0 BASEFEE EXTCODECOPY DUP15 TIMESTAMP 0xC9 NOT PREVRANDAO 0x24 0x2F 0xC3 PUSH12 0x40CA910518F9D85A25BE8E4A PUSH31 0xF43663AD110CF5E0D819A05A811F7A0C166628530BA6F6D353E8E6A433C064 0xD6 STATICCALL 0xDF MOD 0xC NOT 0xBC 0xE7 JUMP 0xE1 ISZERO DUP5 SAR 0xD9 0x4F DELEGATECALL GASLIMIT COINBASE 0xD5 0xAD PUSH25 0x130187D67F3C560C2A590BD0937657090DD7A106857421EB01 0xA5 0xBF 0xC3 DUP3 GASPRICE 0xA5 0xEB DUP8 PUSH28 0x1E10E8BDF45DE359928B28D1CA3927B6C7AF8F5185344561CDFC3A5B DIV SWAP14 CODESIZE 0x1F 0xDE NOT 0xA6 0xC1 0xD1 PUSH25 0xC748B30BC5B89CB315EA7C4084328D608B151E9B174A74FB47 0xF8 0x4C 0xD5 0xCC 0x4C SWAP1 SWAP4 0xF6 RETURNDATASIZE 0x23 0xD8 0xF6 PUSH8 0x4010D1C16CF84A7 0x4F 0xBA 0xAE 0xC2 0x1F ADD SWAP1 0xD8 DUP8 0x25 EQ BLOCKHASH SSTORE SWAP4 DUP10 PUSH20 0x9FA03A9C82722C6A538014FAEBE5560369EC0B88 SMOD 0xA8 DUP15 0xCF LOG0 MOD 0xF7 0xF9 PUSH26 0x5CAF1BFCFE261555534CF4E78D0C962615261CA9C1F65CD755E0 SIGNEXTEND 0xC0 SGT 0xAB CALL MSTORE8 GASPRICE SLT 0xE8 SHL DUP1 0xB3 0x2F 0xC4 SHL 0xD 0x1F 0xA8 PUSH14 0x2792793DF783C78305175C60E000 0xC5 EXTCODEHASH 0xD9 PUSH15 0xE07CEB78E470A6C64A1B477C553420 SWAP7 0xD8 0xBC 0x28 0xB6 DUP8 0xF CALLDATASIZE 0xFC PUSH9 0x5E6509823ED5943390 GT 0xCB PUSH14 0xDE0E8F8D7CC1CC582E109542C42E PUSH25 0x79D5F2509059905ECE1BD8860E7C820343AA1B30461DF91EAE SWAP6 0x1E 0xEA PUSH9 0x62AE37A2A4392C5801 PUSH20 0x7849ADB507F0A3137699241517A3F1EBBB3A4809 RETURNDATASIZE RETURNDATACOPY MOD PUSH21 0x8B6704617F4CFFEEAB1A9C5B788923F7FE09A49874 SWAP14 0xD9 0xAC SWAP16 ORIGIN MSTORE8 0x2E PUSH0 SWAP2 PUSH32 0xA4593965B59FBD36E7644390BA01391B8379A4A204C1C29FD1D17CDE2A0DCCFC 0x2E PUSH14 0x40DE5187062A63A944A907D0D7BB PUSH15 0xB30533A3454057778ED3AF1B8F8915 SWAP13 PUSH24 0x20C893F3CB7A2A4CC3085DAFDAB413391192963D2D6F8A7 SHL PUSH30 0xF073AE26EAB905914AC7ACDB75527B816507BF5874F1B62510B138763C6 SWAP9 SHL 0x2E INVALID PUSH23 0x868B9464962FEB51DEECA8613AF2840C9A8DDC52577042 EXTCODEHASH COINBASE ADDMOD SWAP15 0xDC PUSH12 0x246BB276850C226ED5AE364E SWAP2 0xF8 BLOCKHASH 0xB7 0xBE EXP SWAP7 RETURNDATASIZE 0xDE PUSH31 0xA0A2BCB2F32EA644064B2F6A7A99B512977E15A4A74D0F72D1EBA14B0C87E9 0xB6 SELFBALANCE TIMESTAMP BYTE 0xAE 0xD7 0x25 PUSH3 0x744C14 BYTE CHAINID POP ADD CALL SWAP12 SDIV 0xDC CODESIZE LOG4 SWAP2 0xB2 BASEFEE 0xC9 PUSH31 0xC7920C03DA29E69D805DF6DAE9AD29C6B80ED2C6A0818F6E04BD3AA8E1A17B 0xD PUSH8 0xC6815FEEB8BFE9B3 0xA5 PUSH22 0xBDE437AB71141CB929C4998D91A32BAAE52FC164831F 0xF6 0xBD SLT SELFBALANCE 0x4C 0xD8 0xC9 GT DUP10 0xB6 SWAP16 0x1E DUP13 0xDB PUSH18 0x640C5BE902277C48337D1DB6B1FB81C89E86 DUP10 0xCB LT 0xB7 0xEE PUSH11 0xF8B9FC5975A730F6EB2DD8 CALLDATACOPY LOG4 PUSH16 0x2BA2EE8EA9442A9EEBD87ED57F594F04 0x4C PUSH25 0x60B39595EAE6CE4D0E119BC8B722E52FF60236302B2E6F4A13 SWAP16 ISZERO 0xE6 GASPRICE LOG0 PUSH5 0x1AE765F3E7 SHR ORIGIN 0xFB PUSH22 0x9D25214F618153620B583FBD2ABC2EEF9A26789F3B52 SWAP7 0xE9 SDIV MLOAD DUP8 PUSH27 0x37D362DC95013C611347B3D133ED9045BE2C36F8689A0120C4078D SLT 0xD8 0xCD 0x28 0xC0 MOD 0xBC PUSH2 0xDDA2 0x2F EXP SWAP6 MSIZE 0xEC 0xA7 0xCC PUSH22 0xDB51C369B05E74C952D5A8AE39B06ED01C8698F4D74D PC 0xDC 0xF 0xEE 0x28 KECCAK256 0x26 0xBC GT EXTCODECOPY 0xC2 MLOAD PC SIGNEXTEND 0xEA 0xB7 0xBF 0xBD 0xDF 0x22 MULMOD SDIV PUSH16 0xCE08C4E356B1A06F1BC9440D019AB06A CALLDATALOAD JUMPDEST 0xDB STATICCALL MLOAD 0xB1 0xE5 0xB8 SWAP16 0xA8 0xE1 0xA5 SWAP13 0xC3 0xED PUSH25 0xEFDEBF14CCCD425778A0F124C852FFD0BEC3EB73101770BF74 0xC9 AND PUSH13 0x2C319E247E5C5B8249EAD357AF NUMBER SLT SLT PUSH23 0x5C73A5A074F7EB1B6D2C28C7C6B2AB38D9C3B722B38D1 0xE1 0xC7 0xE3 CALLDATASIZE NOT DUP16 0x25 XOR CALLVALUE 0xBB SDIV BYTE 0xC6 PUSH12 0x2BF5D94722271108FF7809E0 0xC DUP12 0xA5 0xE6 0xD4 PUSH25 0x6D99E65953E3D828358BC8E9B03C31481E07909D86CC838649 0x4A LOG0 0xC6 0xB1 REVERT 0xDB PUSH15 0x83911200D2D5BF21309D93CA7E97B5 0x5D NUMBER 0xC9 CODECOPY PUSH16 0x92716FF1AD99B73DC929C566DE6C6C72 SHL 0xD0 BASEFEE ADDMOD PUSH7 0x6E4182C159D4CF 0xD3 SDIV 0xE1 0xF6 CREATE2 0xCF 0xE4 0xCE SWAP3 NUMBER 0xAB MSTORE8 DUP9 0xC2 0xA5 LOG0 0xAB PUSH21 0xB600E4BD5E28CFB007611BDA022F417D399841A00E SLOAD EXTCODESIZE EQ SMOD PUSH7 0x72113B21E9BDF4 SWAP5 0x2E 0xB3 0xFC SLT DUP2 0xDF DELEGATECALL SWAP5 ADDRESS 0xDB 0xC9 0xD0 PUSH21 0x8814312F5356A1024539516AE19E8B6EB6379421CC DUP4 0x24 RETURNDATASIZE 0xC2 0xB6 BLOCKHASH 0xAB 0xC1 PUSH19 0x8422276BA4AD24CAB39FC7D1EF6CF3D82FE82C SWAP16 DUP10 0xEF 0xAA PUSH28 0x5CFF4D9542E3250C36BF32561E274F8FA928DD3A8D11F4F76C36A4 0xCD 0xEB 0x5E PUSH5 0x20B886F895 NUMBER 0xB5 0x4F DIV SUB MULMOD SAR MLOAD 0xCD DUP9 DUP10 PUSH0 0xBD SSTORE 0xAE 0xA8 PUSH14 0x19DB8B89CFD55255F8030C0AA800 0x2F 0xB1 0x4F 0xB9 0xB4 INVALID 0xDA PUSH20 0x7C210D4289D62A014E4BDBF708AD21B53EF62D96 0x25 0xE7 SWAP12 PUSH17 0xD1EE02EB3F6C25BFAA7B9A4E1566B0FA70 0xC6 0xC0 0xCA SMOD 0x21 SWAP2 DUP10 PUSH25 0x38A3601F5834E4B1F3C4C2BE7D246854A9826812062CE203A9 0xF7 DUP2 DUP11 0xB8 DUP5 LOG0 ADDRESS PUSH12 0x3622121C37E25E942CEDBF3B 0xDB 0xD4 0xA5 EXTCODECOPY RETURN 0xCB CHAINID 0x28 LOG3 PUSH1 0x81 0xE1 DUP3 0x4A 0xA5 DUP4 0xAD 0xD4 0xBA 0xFC SWAP2 0xA6 0x2A 0xFB PUSH10 0x7DF29510DCE8C6D157E PUSH2 0x2B5E PUSH19 0x7779E8B3E7FD963468244BECB827B928E70C1E 0x2E 0xA6 LOG0 0x1E SELFBALANCE 0xE3 0xCF PUSH4 0xE6BBF4FB BASEFEE EXP LT PUSH11 0xE94BF1B7711FA98C010B9E JUMPDEST 0xD PUSH7 0x70F5A24582A747 0xE1 0xD1 0xAE 0x1E 0xE DUP14 0xA6 RETURNDATASIZE PUSH30 0x202210D96DD5078FA58ECCD43E361FE26476A17C1DDA8D2D1B630CCD263E 0xCD JUMP PREVRANDAO MSTORE SWAP11 0xFC RETURNDATACOPY 0x29 PUSH20 0xF6961FF3F8712627464F05A8EBB85E8E46559961 0x4C 0xED PUSH28 0xEC41FCDA74EC9F51AE39C392672BC7242AB9A6D1C669A478CEB584E3 0xBC PUSH15 0x1635E3202EC53CBB6F3CC42BBFD765 SWAP7 SMOD 0xC0 0xD 0xD6 RETURNDATACOPY OR SWAP3 0x2E 0x2E SWAP6 0x5C CODESIZE 0xD4 PUSH20 0x47FD269336D27CB9B9C7A3218C3808507BBC994D NOT MSIZE GASPRICE CALLER POP 0xD5 PUSH1 0x45 SWAP9 MSTORE8 0xC SWAP4 CALLDATASIZE 0x2E 0x28 CALLDATASIZE 0xF9 0xF PUSH30 0xAA675F73B40BC04D67B0625E3D1682034112BE41166846A800DEC3F04DC4 PUSH0 PUSH25 0x78BD2C5493E443F44EFC5C08AF0828E223EE37C2D4DFA133C8 0xDF PUSH21 0x7C3DDD415DA67E911F2F5CB609A58DF64BD0127BFD SLOAD SWAP15 0x5E DUP14 0xCF 0x4B 0x22 0x29 OR ISZERO CALLCODE 0xAD JUMP PUSH9 0xCD6C711C2A39C3FFEB 0xE9 ORIGIN NUMBER 0xDF BLOCKHASH 0xB0 0xD 0xC2 0xC6 ISZERO SWAP6 0xD6 MUL DELEGATECALL 0xF7 0xB0 GASPRICE 0xF6 0xA9 NOT 0x26 CODECOPY JUMP 0xB5 SWAP5 EXTCODECOPY 0xB3 CREATE2 0xF8 SWAP1 0xBD 0xE7 0xD 0xE7 CALLER PUSH3 0x338712 PUSH20 0xF3665D807E7209EB64729EA54EA6C825CD711A8F XOR DUP11 PUSH29 0x8DBFD0626E74A40BFDA4E183722FAF414237FA9ED12319FB5EE54D43AB SWAP6 0x5E STOP GASLIMIT CODESIZE ADD SWAP9 0x2D 0xB9 PUSH17 0x16FEA2E34746AFB310849831A045EAA63D LOG4 PUSH21 0x4F1C2B576A49F12273F48CE5D311264FA5D1E44469 PUSH8 0xB2178473890CC925 0x2E 0xD1 MUL 0xC5 0xDB PUSH13 0x56368A0987C6FFBB7519546A16 AND 0xAC 0xA8 CALLCODE SMOD 0xE8 PUSH22 0xEBF37977F96C1DFA32DDF16D7EADED9047AB15142F19 MSTORE8 0xBC 0xAA 0xD2 0xE1 GASLIMIT 0xCB 0x2A PUSH22 0x9CDD65EB7CF493B281B71B0FAA6010E30A38B5127519 0x2F 0xDB 0x1E RETURN GT CALLDATALOAD SUB 0xA9 0xDB PUSH9 0x8B32A0B79F3A8125D7 SWAP7 PUSH28 0x3962373FB886332A135F7706D774B685F236C190A046EC7FC6147A84 0x26 SMOD SWAP5 0xC5 NUMBER 0x23 0xC 0x4D EXTCODEHASH SWAP1 0xCC MULMOD SAR 0xE PUSH1 0x2C 0xB5 0xB7 PUSH16 0x44713C49CC24CB3E1715BA081787296B SWAP5 0xDB 0xE2 GAS 0xB5 PUSH24 0x42EBF6553DF405159D91BD6A0A9C639B0CC27CC39DAE457F GASLIMIT 0x22 0x5C 0x4B 0xB5 SLOAD 0x26 0x4A 0xF8 0xE2 0x29 0xA5 0x25 0x24 GT POP ADD 0xB9 0xE8 0xD8 0xB1 CHAINID EXTCODECOPY 0xD8 PUSH11 0x16C3610F87FC2A10F63BD 0xFC 0xC0 0xC STATICCALL SWAP10 CALLDATALOAD GASPRICE 0x4C BYTE MSTORE SLT SSTORE CALLDATACOPY 0xCF PUSH1 0x72 PUSH2 0x5205 0xC3 DUP1 GASLIMIT 0xB8 0xAD BALANCE 0xD1 SSTORE 0xBD 0xD8 0xAC 0xF8 0xC PUSH30 0xC627A7506E642A177C2E83916C6303325ED9513361098830271102AC5DBF 0x28 0x5E 0x26 GASLIMIT SWAP2 0x5E 0xED 0xA7 PUSH27 0x56931CE67DD1EDCAAC1B03358EB6B2AD3780BD1CD201B91D4BB2E6 SUB 0xE0 SLT PUSH26 0x351FD10F6023308217B2764EB38CF098E1C6C012990E188AF207 ADDRESS PC PUSH19 0x92407996A3931169ABB3CF5BEC07393AD7585C 0xEE 0xE7 DUP8 MLOAD 0xFB CREATE2 SELFDESTRUCT TIMESTAMP 0x49 ADD PUSH20 0x7AB76642AA52BC9F296B6C4E7849D8A1DC8FAC95 DELEGATECALL DUP16 0xDB DUP13 PUSH19 0x807D23A5F2C03978154FD39761DC221EA1E1DA 0xB1 CHAINID ORIGIN SIGNEXTEND 0xEB INVALID GASPRICE ADD DUP4 DUP7 GT ORIGIN 0xEA SGT 0xAC 0xF7 SWAP6 PUSH32 0x9A66F2E61D3B12CEA7F31255C43AF69BE48744C759DE67F363030B809EA5BE5D 0xE7 SMOD SLOAD 0x5D 0x1F 0x29 0xDB 0xFC 0xD2 PUSH19 0x110B2F7AC7D7B3F94893762FCA13700B74CEC6 SWAP2 0xBC JUMPI 0xD2 AND 0xBA DIV 0xE9 SWAP3 0xBD 0xD 0xC9 SELFBALANCE MOD MSTORE 0xC5 0xB2 0xBA PUSH28 0x972DD68BF8C271556B57AD4521C067A072D75EE09268562CEA9D1E6D 0xB4 0xB3 0xE0 XOR PUSH0 0x2A 0xDD 0xD 0x49 0xD6 0xE AND AND DUP13 0x2F RETURNDATACOPY 0xA9 0x1E 0x2C 0xB0 JUMP PUSH25 0xF2C9D9ABE232B3400A96B6EED42E7041C98BAA152253971225 CALLDATACOPY DUP11 0xC4 0xCD SWAP6 DUP10 0xC8 0xC 0xEA 0x28 0xC0 PUSH12 0x5706782650EF83382C54CCFA 0xBA STATICCALL 0xEC DUP1 SWAP7 0xC5 NOT 0xAB JUMP PUSH17 0xC7D4DEA2535C64DB2B7DFCB5531664DBFA CREATE DELEGATECALL 0x5D PUSH13 0xE2782683F87E6C9E9B7176F085 GT 0xAC AND PUSH4 0x869ADF93 CALLDATACOPY 0xEE CREATE 0x21 0x2A 0xE8 SWAP1 PUSH24 0x61700BDEA4B480F20F788DD08CA4126DCF4EA462E890F302 PUSH4 0x44760E50 0xA7 0x4C CALL GASPRICE SWAP16 0x5C RETURNDATACOPY 0xAC CALLER LOG3 DUP13 PUSH16 0x9E8D3C2638BEE309A4180AFD6097C527 PUSH7 0xE41377037809E6 SWAP1 0x22 0x2F SWAP11 0xFC 0xA6 0xE1 0xEE CODECOPY 0xBA SWAP6 DUP5 PUSH12 0xBE912379A938F6FFCB493F5C 0xBC 0x2F DUP8 0xAE 0x4A GAS JUMP 0x4F PUSH26 0x5B6078C1E1511C63404183176BFC6F03EC587766D8868CEC0787 MOD CALLCODE GASPRICE PUSH19 0x811EFCAC3F7CD3A6CC38973D57ADBF99BB615D DUP15 CALLDATASIZE 0x4D 0x4C POP 0xC9 CALLDATALOAD 0x2F DIV PC 0xA9 0x2E XOR DUP2 PUSH24 0xE4BCE9F874DC537AAD6CD91252F12B862FD0A167A95E41C9 MUL SMOD CREATE 0xA7 0x2E TIMESTAMP SUB PUSH5 0x482932D911 PUSH32 0x37989FD77FF9721943ED566B65624A02CA8A10CEE567471A2B01CFA286F30957 SGT SELFDESTRUCT 0xE5 DUP6 0x5C MOD CALL PUSH18 0x58E33E9EBFDC1C792A88239EA34B3E8A5D1D 0x26 MSIZE SWAP16 0xCF GASLIMIT CALLDATALOAD CALLDATACOPY 0xFB AND 0xA9 0x1F SWAP6 KECCAK256 BALANCE PUSH27 0x1C7DE1BB5A768D72509B3A1BB0C0BE55876C4B91957B7E8641265 0x4B CALLCODE PUSH19 0xB7B9C52F2217E9713C7DCC2CEA70065CB1BF0B PUSH9 0xC86A3592A5134384BE DUP12 LT 0xDE STOP 0x4C BALANCE 0x23 EXTCODESIZE PUSH25 0x3577694DC613AA1864F9D5017A46CB107BE441F821A85315B7 SWAP16 CODECOPY SWAP7 DUP14 PUSH5 0x7F343A2C6 NOT SWAP9 STOP SDIV CALLCODE PUSH25 0xBAE49A9A15A54132C50388E69F4211CEDDEE99195F07736B50 0x2F 0xAD 0xEE SUB MUL 0xA7 DUP7 0xD7 SWAP13 0x25 LOG2 0xBE 0x29 PUSH31 0xDD39EAEE413DC553146FF7D83BBBB8BC71447B66052EAF36A4DAE40401CFA5 PUSH18 0xB55AD8B5FBCED37E67860085BC6AFC5412D8 MULMOD 0xCE DUP11 AND PUSH14 0x4B67DEBDF8E674BD6074BF67031 0xD3 0xB4 0xC5 PC PUSH5 0x7DC4A3C544 RETURNDATACOPY 0xBA 0x23 ADDMOD PUSH7 0x83232F97FA7F39 SGT 0x23 0xE0 PUSH7 0x175FEB3572AED6 0xC CALLVALUE EXTCODECOPY RETURNDATACOPY EXTCODECOPY GT 0xED ADDRESS SWAP13 STOP SELFDESTRUCT LOG2 SWAP13 0xDD CALLDATACOPY KECCAK256 SWAP16 0xBB 0xEE CODESIZE CALLCODE 0xDD 0xA9 0xC1 SWAP9 CHAINID PC STATICCALL 0x4A 0xB5 PUSH26 0x4A3A5FD19DA7613C554CEE69DB7A51D50271F86B9BC2D6EC259D 0xE0 SLOAD SHL 0xAD DUP14 KECCAK256 PUSH17 0x75DD0547401A7DE8A0B1DAA2667E6427DF 0x2B ADD 0xC1 SIGNEXTEND CREATE2 PUSH12 0x288B324AC4CEF462DFEFEBD9 0x27 BLOCKHASH 0xE7 0x21 PUSH12 0x15EB1A85B182E30B61EB77F4 0x2C 0x4E 0xFC SIGNEXTEND ISZERO SGT 0xD4 DUP7 0xDE PUSH4 0xD1023F31 PUSH10 0xE5E76C3BBED64B4CA350 0xE9 PUSH5 0x1FF842CD59 PUSH24 0x8FB6C75D197511F3158ECAC8FAFD21DB5FA652725BE43458 0xF 0xF9 0x21 MULMOD 0x5E PUSH15 0xEFDDA8F7648172826E435E08A93109 0xB1 CREATE BLOCKHASH 0xD8 DUP15 0xC1 0xB0 SHR 0xE3 0xE2 0xDF 0xA5 SWAP3 MUL PUSH21 0x6D05612699C335D4031F388561FA2C6B3A4C224DF7 COINBASE BLOCKHASH 0xC5 DUP13 0x5D 0xD7 CODECOPY EQ MSIZE XOR 0x24 0x27 REVERT 0xF7 0xEC SIGNEXTEND DUP13 GAS PUSH17 0x3E3AE6C19D8DA47804A75D62BA4A1F8CE XOR CALLDATALOAD 0xD7 0xEB PUSH7 0xDCFAD648630A6 SUB PUSH19 0x41A73AF244B1612EB375D852712A10182E1339 0xD1 PUSH23 0x471F24611B2E7AAD1A1FBA1F1EB3193A87A0261E98DBE7 PUSH32 0xB30944EDC6EF5726ACDA2DF51DF9C66F51695783648873BC167BC8199AFDCF98 0xA6 LOG3 SWAP14 0xFC EQ SWAP4 CALLDATASIZE CALLVALUE 0xCC 0x25 STOP 0xBA DUP6 LOG4 0xD7 JUMPI 0xB2 0xBB 0x24 CALLCODE PUSH9 0x6C8FC2B20D23F68ECC JUMPDEST 0xBD DUP9 SWAP14 PUSH17 0xDB8222F9C94EEB2A615FC377BD707E1D29 PUSH30 0xF70F60076D184EA30144439D2A02827CCC4B74D6D5083FF5F9B4474040E1 0xDB SWAP6 0xE7 0xDD 0x4A 0xC0 DUP12 0xC4 SWAP16 0xD CREATE2 0xE0 0x4B AND ADD 0xE5 BALANCE ADDMOD PUSH27 0x66E1A9A009736EB920F83DA4D3D81D49A3D16A2718B7AF21F590D1 KECCAK256 0xAC JUMPI PUSH22 0xD56E87966717C8DD6F1CF33271C97CED9829C0500A83 MSTORE8 0xD9 0x22 LOG4 0xEE CALLDATASIZE 0xCD 0x2A PUSH5 0xE8EF99DB06 0xB0 0x2B 0x4F 0xE1 RETURNDATACOPY MOD 0xCB 0xC8 0xE9 CREATE 0xFB STOP PUSH32 0x7FEB24277FEF8CE8403846D681B8B77C7FE85CA42DF40A5F7F4555887344C54F 0xDC 0xCA 0x24 0xD SWAP15 SLT KECCAK256 0xC9 0xDF DUP11 ADDRESS PUSH0 0x4A PUSH15 0xD0B5FCF3258C26E306F7F4400A8B46 PUSH11 0x46F73B1BB30628E8F53AE1 DUP4 OR SWAP11 DUP10 0xEA MULMOD 0xBC 0xAB BYTE 0xBE DUP13 NOT SUB LOG2 SWAP3 0xE8 SAR 0xB1 ADDMOD 0xE9 0xAF 0x23 0xCD SHR PUSH19 0x49087803195EF86AF9D7AEF43F671BBE28D505 0xC9 0x2B MLOAD PUSH8 0xE06202018A4B1C48 0x2D 0xDE PREVRANDAO DUP7 DIV PUSH26 0x3A2B6D734C3A59F599B457794F109890A7F2FCB50131C7E510FA CALL OR 0xDA 0x23 CALLVALUE 0x4B PUSH15 0x50403670B103E8B1B0FEA27F1FB697 PUSH29 0x76473F7A1D148B69A5526768AC7032CE91F0E138973B3E4D30745FDF22 DUP5 PUSH13 0x8FC4704252020B4A141726EF71 EXTCODEHASH 0x5E 0xDA PUSH1 0x5D 0xED DUP2 DUP15 0xE6 SWAP14 LT EQ SWAP1 0xD5 0xA8 0xB6 SMOD SWAP12 SHL 0xC5 ISZERO DUP4 DUP16 BYTE 0xD8 CALLDATALOAD 0xD8 PUSH23 0x23ADEF3B1673CA9735AB72D8FC938E206A524E5820D47A PUSH8 0x5B313CD4B857527F RETURNDATACOPY PUSH14 0xDD2B5646E5FD9F206AAD5BCFAAE6 0xCB MULMOD PC 0xE6 MOD 0x4E PUSH26 0xC61F6D53A00688E7F217A0C8579BA3DAF9D4DF5DEC16F013A124 COINBASE EXTCODEHASH ISZERO 0x23 DUP4 0xC6 0xF7 0x5C BYTE CODECOPY 0x2E PUSH15 0x1375277F1130C2274D8668773ADDB7 DUP4 KECCAK256 PUSH29 0xF58CF4C0B61FC40E1150F35476075A72E0EE5366FB0655CF4A0497D1F4 0xE0 PUSH9 0xE5DF2AD7299205C9DF RETURN 0x2C 0x5C DUP4 PUSH8 0x5EEDFCE89D2270AE BALANCE ISZERO 0xD2 0xCE SWAP9 0xDD PUSH29 0xBE37603BCE52504E8022DE7321EF7D49D583634074D556FB103ED40B53 SSTORE 0xA6 EQ JUMPI 0xE7 SDIV JUMPDEST 0x22 XOR 0xFC PUSH3 0xE269D STOP PUSH0 STOP PUSH30 0x6B2F3E7BA54CD6A2BEB190223080A1FD94230F409AB223C5B7940C5E61CD STATICCALL 0xBE 0x2E 0xB8 XOR DUP16 PUSH17 0xCAC4D7B7CDEED9B964792D7DFB6FC0B228 0xA7 0x27 0xE SLOAD 0x2A PC PUSH11 0x34C5B50461B05614CBF3CE 0x22 DUP13 SGT SDIV 0x22 MLOAD CALLDATACOPY SWAP4 0xEC 0x26 EXTCODEHASH SWAP11 STATICCALL SWAP7 0xE2 EXTCODEHASH 0x4E GAS 0x25 0xCC RETURN ADD PUSH9 0xE9EF4FD1CB902C95CA DUP14 PUSH8 0xA13580DD07994094 0xB2 0x21 PUSH17 0x8F8C7D6797107DFA97FD9047FAE9CF80F4 DUP12 KECCAK256 PUSH9 0x84949B324E4AB03212 RETURN 0x29 DUP13 BASEFEE XOR SWAP9 PUSH23 0x961CFF7A1FCB4F40C410CEB353CB8AB907A0F6B2821DBF DUP3 PUSH23 0x6EC762967BA2394420B8533E0AB744D5DB86E30A3E73A8 SIGNEXTEND 0xF6 0x21 LOG2 0xB5 0xD8 SSTORE JUMPDEST 0xF 0xC4 AND CODESIZE SWAP14 0x5C CREATE2 ORIGIN PUSH6 0xC9D9B203B72 0xE7 DUP9 PUSH32 0xBC30AC7978146860EA4AA1FF0D96DCA2C65666304CACBB1B84D4AFA11231F3A4 LOG3 0xC6 0x2A STOP 0x29 LOG3 SWAP16 0x5E LOG3 SAR SWAP1 PUSH27 0x92070494990427E7CA6F8814107581EDE64E20DCE54FFFBC6443CE 0xC3 0xCA SHR 0xB0 SDIV 0x4C MLOAD TIMESTAMP XOR PUSH29 0xD21BCB166B7916737E84151E0282876E43177C3830524E3B6AC2EAB243 LOG0 PUSH8 0xDE3319F8D0B8B42B LOG3 EXTCODECOPY 0xAD 0xC4 CALL PUSH25 0x7F00A8A107C76E563325B43A6646961320196DBFC00C4F22DA 0x2A 0xD6 0xE0 PUSH30 0xEFCB0C49B161FE87DF3CFD5EB9A824FD772A69712E947B3B1CFB21D40B96 CALLCODE DUP1 0xC9 PUSH24 0xD717EB22A136EC5D2830FD84AFB5096CEF17868A451961BB DUP5 PUSH8 0x2CB182B3ACE6BE4F SWAP4 NOT 0xB6 0x5C 0x2A 0xE1 0xE6 PUSH19 0xD5A27B5FDF78973FEE79C7BD09C81AEE019E15 0xE RETURNDATASIZE SWAP10 0x2F MLOAD PUSH22 0xDD609D7B7468A978428A5BBF291B77F900D1C682CBA1 0xBF 0x2C DIV RETURN 0xDB SWAP4 0xC0 DUP8 0xD 0xB5 LOG4 CODECOPY 0xE9 SELFDESTRUCT 0xF 0x2A 0xC6 0x5D NOT 0xED 0xDA BALANCE 0xF6 0xBF PUSH5 0xE9F827516B EXTCODEHASH PUSH9 0xE72E6C4CE5C33D2F1D STOP 0xD4 0xC7 0xC6 SWAP2 0xE5 0xD3 SWAP14 INVALID LOG1 0xC0 0xEB MSIZE 0xD 0xE7 PUSH24 0xE5FE64365545646F01879179E76AED29E2392A6DF0AC85EA PUSH11 0x285E0D3A1112E8593C23C3 0xE3 RETURNDATASIZE CREATE2 LOG2 ADDMOD PUSH10 0x75BBB71F10A74A76F43B 0xCB STOP CALLDATALOAD BASEFEE XOR PUSH1 0xC6 SELFBALANCE DUP16 0x23 INVALID SWAP2 0x4D DELEGATECALL 0x49 0xB5 0xE JUMP 0xC4 SWAP3 0x2C PUSH16 0xEB5C47AD32B1054C98E31DF1659881F8 DUP5 SWAP4 SWAP6 CALLDATASIZE SWAP7 SHL 0xED 0xEF 0xF8 0xCF 0xBB PUSH15 0x12820549855C647DCDF03D05C6A490 0xD5 SLOAD LT SWAP9 0xD6 0xD8 EXTCODESIZE 0xAE PUSH30 0xA0112A822E0ABCECE25020F9C4E3FCFA0D305A923E4FB0D9EF583CB141DE 0xBF 0xEB SWAP4 SHR SWAP1 SWAP15 CALL 0xD4 REVERT 0xF6 0xEA 0xC9 SDIV LOG3 0xB3 PUSH7 0x3E889C49EB5920 0xE7 PUSH10 0xBBFE9F9DFC905554300B 0xB2 0xB4 0x28 0x5C PUSH11 0x5889B2741F9E528D112BD8 LOG0 MSIZE 0xEA 0xA5 LT 0xCB 0xD9 0xA7 GASLIMIT DUP6 SWAP9 0xD2 PUSH24 0x75BCF6D851A0D359EBB81DEC011469A48978D7076FCA2AF2 DUP13 MSIZE PUSH26 0x2502DD9DFAFD8198891EC51EACE408F26B164C3F0507F0A41247 0xBA SWAP13 0xC3 SMOD 0xB4 0xB9 0x4B RETURNDATASIZE EXTCODEHASH 0x5D JUMP PC 0x4E SWAP9 JUMPI 0xAB SWAP11 PUSH3 0x171FD1 LOG4 SWAP6 0x22 PUSH22 0x11480052B638116E221C76D0F32004F3B18905CC8BB2 SIGNEXTEND REVERT LOG3 0xF7 DUP14 LOG0 0xB8 CREATE2 BYTE SWAP4 0xB9 PUSH0 DUP1 0xB8 0x4B PUSH24 0xB1C52BE3E7D00588B0BA9D3E4259080B42C95B31B541473 0x2F DUP4 STOP 0x2E 0xD3 0x1E 0xAC LOG2 MSTORE8 OR PUSH7 0xA09552EB1667A9 COINBASE SWAP2 SWAP3 0xCA CALLER JUMPDEST ADDMOD 0xD9 CALLDATASIZE SWAP4 0xE5 PC 0x4A 0xBC 0xF 0xEC 0xCD 0xB5 CALLER GASLIMIT 0xBD 0xAE PUSH20 0x49C42B119570C762F1F5497EAF898E4BA2D378D9 0xD8 0xD2 0xD XOR 0xD0 SAR CODESIZE 0xCB PUSH11 0xC78D93961C1ECBFAADD4B0 0xCF SWAP10 SWAP12 SWAP8 0x2C 0xE4 SWAP1 0xC 0xEE SWAP16 0xAA 0xCD 0xF8 0x29 DUP11 0x1F BALANCE 0xCE STATICCALL SSTORE CREATE2 0xF9 ADDRESS 0xD1 0x49 0xB6 EXTCODESIZE PUSH27 0x33E385A688AA8A4FF3FF8D88E501DD7466B4751A02607DC91FD27E 0xBB MOD PUSH12 0x51F8DCA8D64DEC062D3F8EA6 LOG3 0xE2 DUP6 SWAP14 SGT SWAP13 OR 0xE9 CALLCODE 0x25 0xBC 0xE5 0xF6 0xC CREATE2 0xC7 0x2F 0xE5 DUP12 MLOAD NOT DUP4 0xC0 PUSH8 0xECAB88071786FEB4 0xF6 0xCF DUP4 0xE1 0xB5 0xAC CALLDATALOAD DUP8 DUP15 NOT SWAP15 0xA7 0xD2 CHAINID PUSH31 0xA66B53853F7BA20A91BB44A4A5F621404375051CBAC31997A3661641E4CE35 0xBE 0xB4 0x4E RETURNDATASIZE STOP REVERT SWAP12 PUSH27 0x3BD47E118FCB21C62281B148DFE4097C147E11227CF6075DBC7987 0xEB 0xCE PC PUSH18 0x1ED50E2B6A94C1478DB414A834345CB2B5C2 SHR 0xB5 0x25 0x2B 0xDF SWAP4 0xE4 0xBC 0x24 0xD6 CODECOPY 0xE1 0xEB 0xD8 SDIV POP STOP 0x1F 0xA9 0xAA 0x1E PUSH30 0x6ABCBA326C2B2FEADE8FD8D90D98245785A60FAADBC0C044B2E2E0AC808E AND INVALID 0xC6 SIGNEXTEND EXTCODESIZE PUSH20 0xBAEDD29ACEE1A34418A77190DDB42DD8BE0F0172 PUSH30 0x46FAA6E2F1EFD9704D30F9A969470E4DA9840714F25459703BDA113AA3C2 DUP2 0x2D DUP5 0x1E SDIV EXTCODESIZE 0x5C ADDMOD 0xCF 0xDD 0x2D DUP14 SWAP3 0xEF PUSH27 0xBB685E53D211B7DEDFAE2EE1A8C3EC8D9AC7E35F291D4793E4BF0 MLOAD ISZERO 0xA7 0xEB PUSH28 0xCC164A1F53D80F03CBD30FB82D7807479517B4E29B3DA4950B96A023 LOG3 BALANCE 0xE5 0x2C PUSH19 0x1C66F5E2292BB6D910684EB13C86F172F66F59 LOG0 SWAP4 0xF8 LOG0 MUL CALLER EXTCODECOPY DUP8 PUSH8 0xBD594CEB63E9C6A2 0xC4 0x1F ORIGIN 0xB4 DUP5 PUSH25 0x58F72BC734DF639C032604AE71FF65AFBBDCF42ACC7EC195F3 LOG3 SWAP13 0x2A 0xF BYTE 0xDF PUSH3 0x30DE39 SWAP6 0xBC 0xE0 0x23 0xCD 0xFC PUSH11 0xF1E85D9121F84DE4A34B9C PUSH32 0xC4FF920C7617FA977E81DAC861E637D8D9E4636487AFA55618F35F7455AF8321 0xF8 0xD6 0xD5 0xD PUSH15 0x9F9221E154AD381A5B58D1C8771BE 0x1F SELFBALANCE RETURN 0xAA 0xE8 0xA9 PUSH23 0x9151CD84C1434FABCB9B0EA204DBFBD3E404128C8252D6 SMOD AND SWAP15 CREATE2 ADDRESS JUMPDEST 0xB1 0x2A MSIZE 0xE4 0x4A 0xC4 0xBE SWAP2 SELFBALANCE SDIV GAS PUSH16 0x200D2547A25E17E027BDA4423048F3C6 0xC5 SWAP6 0xD6 0xF8 BALANCE 0x24 PUSH23 0x7DA34E0E4B96C26F5C940CBD5F2D0CEA7678B80AEED4B0 0xDE PUSH25 0x259C86A2C207DC0F28FCBE22A1252E5D3C1A9B6C59C30E6D1E EXTCODECOPY 0x5E STATICCALL 0xE2 PUSH27 0xCC27E9B7BD23AF3DD7963A0AA8361B4DF2F24312B6C60FBF4CD948 ADD ADDRESS SMOD GT BALANCE SWAP7 0xF6 0xAC OR NUMBER STATICCALL PUSH31 0x5EA98B243DE8DCD13C1E74D81754B2B575981673E3D30C65DDAD7F120E97AA 0x29 DUP2 DUP5 PUSH25 0xEB56702759F4B78F822764D40D5E2BDD09263E2B6E6E9FFE9A 0xC9 CALLDATALOAD 0xAB PUSH8 0xE9DB1F40A1021184 MULMOD 0xDC SWAP10 0xA6 0x23 0xDF 0xE2 ADDMOD DUP5 SWAP7 CALLVALUE SWAP4 SWAP2 PUSH5 0x215AF8831F DUP14 0xEE 0x4C EXTCODECOPY EXP 0xE3 PUSH14 0x54691C9C8389211C2CE04645153 0xC8 PUSH9 0x372F37D106C5C4BFBA 0x4E 0x2F PUSH20 0x309D53390894A6B2338810DA3F0D103E33717F00 0xCA 0xDD 0xC1 ADDMOD ORIGIN CALLDATALOAD PUSH21 0xDE85C6887720561AD0C9946BC510BD3954AD4D2644 PUSH2 0xFB0D 0x2D 0xEA SUB 0xB8 ISZERO SWAP7 SWAP15 SHL 0x2B 0xBE 0xB9 SWAP6 0xD3 0xF PUSH24 0x4FA49411323D20EA4F4F1652161A104AD60C9B35EF38783A SWAP16 SWAP6 SHL 0xD9 PUSH10 0xE107846AFFC11754708B PUSH10 0x4168AB9922AE691ABDEA GAS 0xC8 CALL 0x2F SWAP1 LOG1 LOG1 SELFBALANCE 0xB5 0xAC PUSH4 0x88F4C3D 0xE3 0x2E DUP2 0xD3 DUP15 PUSH26 0xA93612D9F91286D17DC13DCABF49975E2A37743D997EBC56D11B PUSH18 0xC2E430890EB9FB7C7D3B1411153DB0712935 DUP13 SWAP15 0xBF 0xD8 0x49 0xD1 LOG1 0x2D 0xE7 SELFDESTRUCT CODECOPY 0xEC GASLIMIT DUP12 PUSH2 0x6A3E PUSH9 0x85BEE7114F7A0A98B9 SWAP7 PUSH9 0x1AFA7F3A7EA25FC6D9 CALLCODE 0xB4 DUP11 0xF7 0xC5 0xD8 0xC8 0xDB 0xD SSTORE DUP10 0x2B 0xB6 PREVRANDAO PUSH2 0x752F SWAP4 0x28 CODESIZE 0xA6 0xC 0xC9 0xAA DUP8 OR DELEGATECALL ADDRESS DUP15 PUSH1 0x74 SWAP10 PUSH12 0x7B71F077A1FD9D8353AF5C08 PUSH11 0xEBED16B70CA94104744857 0x2C SWAP5 PUSH27 0x8308B479F74524A74C384D926E4BE36E8068BC635DF62ECA6B343A PUSH27 0x210D0D33C3B4AF4A7ABBC05FE1E9BB5F05D813C4B345F87D92731A SSTORE PUSH0 0xDC MUL 0x23 SWAP15 PUSH5 0xE699A0452F DUP7 0xCF BASEFEE DUP10 PUSH29 0xA897335CE11E771A7023596868E32FAC0DC1FE2D940E1F4F616AC0EBBE 0x2A RETURNDATASIZE MULMOD 0xAF 0xE8 0x1E 0xB7 0xD3 SWAP14 0xC4 CREATE SAR 0xB8 0xFC PUSH2 0x36A 0xF 0xE3 GAS 0xE3 SWAP6 0xAD 0xCF JUMPDEST 0xC2 LOG3 0x28 0x4D PUSH0 0xA8 DUP8 ADD 0x4D 0xCB PUSH16 0x5249F5E12A4844FD2767D4141080379 SDIV 0xD1 0x1E DUP7 0xA5 0xA9 0xD3 0xB0 EXTCODECOPY 0xBE ADDRESS SWAP5 0xE9 CHAINID DUP14 EXTCODEHASH 0xB3 0xC1 LOG2 SMOD CODESIZE 0xC0 DUP9 PUSH24 0x269A69147E1F79D21604DCFB2CA75A44E38AA87CF8F3F56F PUSH4 0x9C8501D3 CALLDATASIZE CALLCODE 0xE7 0x2A DUP8 BASEFEE PUSH7 0x9520898E9F4EAB PUSH28 0xF918E10B9FC35A024F4D0578C0E46463CBF360606FA47ADE409B993 PUSH19 0xD699342F4C7E3C807A133EE3BE1C92422CF2F0 0xE5 0x49 0x21 CALLDATASIZE 0xE8 ISZERO MOD LT COINBASE EQ 0x2A 0xD7 PUSH30 0x8E80C9A778BC04E8A62E550908C55974693603D8670BF9205553BF7F22F3 LOG3 BYTE LOG3 0xF9 RETURN 0xC0 BLOCKHASH DIV DUP14 CALLCODE PUSH24 0x10A8E485049ABFABB71B51CBBD87126E83CF2403459743B0 0xCA DUP3 LOG0 DUP1 EQ ISZERO 0xEA AND SIGNEXTEND 0xAD SWAP14 ORIGIN PUSH9 0x88DB19EA8B86BBCFAC 0xB4 DUP11 0xC3 0xC4 SLT DIV SWAP2 0xB8 SWAP4 SWAP14 SMOD CREATE SMOD 0x4C PREVRANDAO 0x4E 0xE0 0x2F PUSH26 0x917F5DED067D7E0529B0437B71FE6355170E2BCF73774C5976AC 0xFB 0xC9 SWAP12 GT AND CODESIZE 0x4B GT SWAP4 SIGNEXTEND 0xCA PUSH2 0x87DA 0xC5 0xE6 PUSH3 0xBB9250 BASEFEE PUSH32 0x845244615CB6C1B8F74AAD86D9F900CEFF74EE731A9DFFEBC26096A1E6A7726 DUP1 0xF7 SGT 0xD9 PUSH5 0x52A6838856 0xD4 0x29 SWAP9 PUSH3 0x7803EE 0x2F GT 0xB5 0xC9 0x2A 0xEF 0xE2 CALLER SELFBALANCE 0xDC 0xA7 PUSH15 0x56925AF421EBDC1084EBFF25636EE 0xCB 0x49 PUSH26 0xBAE3EF273BF07F263DB1AB126CD0AE2EFCD17E262A259618E7EB 0xBC 0x22 PUSH30 0x2834CCD1106EECBDFD16DD9AE0591ED64166F06C1BB101CA18EDA5F2EBB5 SGT 0xCB 0xBE 0xE5 PUSH24 0xB5E3BB8AE3F3A1022A5E47E08A06B8FC708A772284C84A00 PC XOR MOD AND DUP9 INVALID GASLIMIT SELFDESTRUCT CALLDATACOPY 0xD6 STATICCALL 0x24 0xB4 0xF9 SWAP6 DUP8 0xFC 0x5E SWAP11 SLT ADDMOD 0xB3 0xED DELEGATECALL 0xD0 PUSH1 0xD0 0xC 0xFC 0xF SWAP2 DUP12 PUSH20 0x9604150598B74B981255A70D772A67F23F51C342 SLT SWAP6 DUP12 GASLIMIT LOG0 CALLDATALOAD 0x25 CALLDATACOPY 0xC9 PUSH5 0xC421601B62 PUSH25 0x7E6EB7307B99A9D6EEFD0286F927FB25F22E7E9EAF951E3031 0xE CHAINID MOD 0xC2 0x28 0xE2 CREATE2 0xC3 0xDF RETURNDATACOPY 0xEA MUL GASLIMIT PUSH28 0xB4777AF8546FB61BB1434221D998840F5CAAB9C8ADA0B5A094DD9129 0xEE 0xA5 TIMESTAMP SHR SGT KECCAK256 0xAE PUSH27 0x666B56C960BE0DD4C1EDDC1DD1DEF16E2A0FFC68A449BE9D160B00 0xCA CALLDATALOAD MSIZE SWAP15 PUSH27 0xD7CD1AFDAE000CBC76DEA82AE0EB79A34FA9A3C73BD9F1ECA8731A 0xEA SWAP2 EXTCODECOPY 0xA7 0xD1 CODESIZE SWAP6 DUP11 ORIGIN 0xC0 SWAP13 SHR MSTORE SAR 0xF6 LOG2 0x28 SELFDESTRUCT PUSH9 0x9E68FDC639C1901196 DIV 0xC9 DUP11 XOR GASLIMIT DUP1 PUSH11 0x317AF901568EC8DC475939 ISZERO CALL SHL 0xD5 0xA5 DUP7 0xF SWAP4 POP 0xE CODECOPY CALLDATALOAD ISZERO KECCAK256 0xDA PUSH0 MULMOD 0x5E 0xC6 SSTORE PUSH32 0x54E0D5628FE9CF1A20D52C426C021F0968BCEFD07AC634D7E6E02D45EB6AFA85 0xD2 DUP12 ADDRESS PUSH32 0x5D2E3F2CD6D744FB4421F2833D7149F60D11DCBB89EE41FB333BC14037365BE8 BLOCKHASH 0xE5 SWAP15 DUP11 DUP2 0x25 CALLER PUSH28 0x5B0E7FE46C0BA668AAF4F86C425B774B92962238E74504C1AA28C900 BALANCE EXTCODEHASH CHAINID DELEGATECALL LOG3 SDIV 0xEA 0xBC 0xD9 0xE8 SWAP8 0xA6 PUSH20 0x272F5ABE83D4D8D9115470BDA3725F442EC9D671 MULMOD PUSH20 0xF9BC178D1F105079DA9461B9CAAE4BACAEE5A859 0xDB 0xFB NUMBER 0xCE PUSH29 0x43D8779A8813ECC3AE11FDBA29CB4C24BB0E770EB1D4E5C23D9A51A3CC DUP7 0xC7 0xD4 SHL CALLDATALOAD BALANCE 0x2F 0xC5 0xC9 NUMBER 0xF9 PUSH6 0x5F0E7DA79E6 ISZERO 0xA6 OR SSTORE 0xED GASLIMIT 0x26 DUP10 0x2B TIMESTAMP 0xCE 0x1E DUP1 0xB5 0xB0 0x27 MSTORE8 PUSH28 0xF53F0B536D4BBC0B1EB2F81535A276E50897A2BAF3BBFD981468B91F 0xCC 0xFB 0xEC PUSH13 0xEC8BDC988F00235015D6CE1DB4 MSTORE8 MUL 0xF8 0xE2 DUP7 0xE9 PUSH15 0x26E4F64EF5534AB8A55A9FFE215F89 PUSH14 0x7AE7BFFD1315122998316A3BB389 0xBF LOG1 EQ PUSH14 0x940D7E2718EDB570F12CDCC57377 0xF8 0xCA 0x23 PUSH25 0x23F10E9F89B3F0A2C44497C8A7B705786220397DCE0083335 MUL PUSH27 0x9CE9839F60234A05BD730E143866824A0E9B7672ADAA64B679DFDD DUP7 0xC8 0xE5 0x4F 0xB2 0xDF DUP4 NUMBER DUP13 KECCAK256 0x2D 0x23 0xC1 0xA9 DUP8 0xDB PUSH27 0x304A2D504E5C4573592C119FCDA1CCFE5A07D5643C4A9C0633029B DIV 0xE1 0x4D 0xE5 CALLDATASIZE PUSH24 0xBF90DC7BADDE802E588FDCA2B9081BA20F4712E662C12ADB 0x26 EXTCODEHASH 0x5E 0x4F 0xD8 SWAP4 PUSH17 0x4C5F229914CD8F37BDC3F9409E61750785 MOD DIV CALLCODE CREATE2 SWAP14 CODECOPY 0xF 0xE6 SGT JUMP 0xEC GASPRICE ISZERO JUMPI EXTCODEHASH PUSH22 0xC899E017E73B010F13E7DA632944C0FD82C0306520C0 0x29 0x4F SHR 0xC2 0xBD 0xBA LOG1 0xBB ISZERO PUSH14 0x612FAE11081C85317B706A2FA61A LT 0x1F 0x2D 0x4D 0xA6 0xEF PUSH7 0xE293EA2B08DFBA NOT COINBASE CALLDATASIZE PUSH20 0x3553EC65648FC7842FA0A29D44F7D1F4C157AF7B 0x29 0xBD MUL 0xD7 0x1F 0xC1 0x21 0xAE 0xE6 LOG1 0xFC 0xB2 0xDF 0xD1 PUSH28 0xC1C8F305FDD81C168809A74BB54EA5869B1A41F19D1386AF604CBB13 DUP15 INVALID DUP14 0xDA BASEFEE STOP PUSH1 0x75 DUP15 0x27 0x4B 0xDF POP 0x2D 0x2B 0xCF SWAP12 MSTORE LT 0xE3 OR SWAP9 0xB0 DUP11 0xDC MOD 0xAD 0xEC 0x49 PUSH14 0x6A730820969CFBF60AB07A2A8F7C 0xFC 0xFC CALLCODE MUL 0xD 0x4C 0xAC PUSH1 0xD1 0x27 INVALID STATICCALL INVALID MOD 0xC3 SWAP16 0x25 0xAF OR BASEFEE DUP5 DUP13 CALLDATACOPY 0xD1 0xEA 0xBB 0xD6 0xA8 0x4A SWAP11 PUSH20 0x5AFCE06A5922E8A80AF1BFC7EB5F213DBB816F4A 0xC8 PUSH27 0xA15AEF8541B1ABE3FB4D11D8B0B082989A0FFF41AD9BDB2C1E41CB 0xE3 BASEFEE 0xA7 RETURN 0xD5 0xE2 BLOCKHASH DUP14 NOT 0xB2 PUSH9 0x17183D1F6D3B51F27A SWAP2 MSTORE PUSH21 0xEFD9598FF18A1568510B7BB366F4387EEA8FD2B20F 0xDD SWAP6 0xFB PUSH11 0x612958B5C25262C32AB3EE 0xD7 0x5C ADDMOD MSTORE SGT CALLDATASIZE 0xBD 0xDF COINBASE SSTORE PUSH12 0x79CEE9B90B0C1CB4D36245C2 GAS PUSH32 0x8B248567FB4248313D2D0893B893B14EAF3AED6820AE987B88DA0CBA5DAD3C5B 0x26 PUSH29 0x9012405514767B01540A25E982AE7E1C98D06B14CC56241AB9B0954344 MULMOD JUMPI 0xBF 0xBE 0xB9 0xC3 DUP5 0xA7 0x4B PUSH6 0x1744FC2B7CA4 0xE1 SWAP11 GASLIMIT SUB 0x1F 0xC8 CODESIZE 0xED 0xB3 DUP1 MSIZE PUSH5 0xD6533A4A55 DUP4 0xAC JUMPI 0xD9 0xA9 0xF6 0xE6 0xDA PUSH6 0x31F33736336 JUMPDEST 0xC9 0xB5 REVERT BASEFEE LOG4 PUSH31 0xEA62400D67F2EA62958D6BE5AAECAC89816A750694411D68A42334EFCF85A8 0xC9 0xA7 0xBE DUP4 LOG1 0xBF 0xAF 0xB6 SWAP6 CREATE XOR 0xB7 SLT 0xB2 CHAINID PUSH31 0xA0EE670A007512AA7D8366D1A3D2B42E79B1D4DA40B35516129B8C702AD81A PUSH32 0x98FF65FA182637CD5A4109CE830689C683ABEE5C84210EAF1765DC8CB5A37F14 0xC8 0xB6 0xB5 SWAP10 0x2D EXTCODECOPY SWAP8 PUSH25 0xD5CB3AB0BFE4B296E2ED90ED19619B8B353C1043B40E03B568 LOG0 0x49 LOG4 OR 0x27 PUSH13 0xB455CC5D461DB37B0B4F6B34F1 0xBB TIMESTAMP SWAP11 PUSH23 0x968726205617095E1D39B92D09DAE1C6D2E4114C5439C8 SHL 0xAA 0x28 MSIZE 0x4C 0xC0 0xAB PUSH23 0xE7F32C25C4F780C9E9D6E46A5A0A23D3BEDFE1B14BFF3E 0xEC CALLDATASIZE 0x49 0x2B 0xB9 ORIGIN SWAP16 JUMP 0xDD 0xBF PUSH32 0x5E1F122838E96DCFE98C4613A1149CF273A308C777146D7F4BE2160AAC12980D SWAP8 PUSH7 0x1FAD18CF682B7C 0x5E 0x24 0x2B PUSH21 0xAAA132494D280CA444D5D2A99CD2BD426FF82D443E 0x2B PREVRANDAO 0xB8 PREVRANDAO OR CALLER 0xBD GASLIMIT 0xD 0x29 0xB8 BLOCKHASH GASPRICE CODESIZE NUMBER 0xD4 0xA7 PUSH28 0x6C70539D8965E57AF369D6F32FEAB13450F3FA985AED18142569F4EF ADDMOD 0xC2 LOG1 SWAP5 PUSH30 0xCB6E99B5AC52CDD5876C50F02BD6AFD62FC810A755110F47BD52A43C690F PUSH6 0x8374E9F7C2BC TIMESTAMP DUP6 0xC6 COINBASE 0xC7 GT PUSH11 0x4CCD2C94F684CBEB7F2A17 LOG2 SWAP16 AND 0xB6 CHAINID 0xEB 0xE9 0x4C 0x4B 0x2E 0x2C 0x4B 0xC3 PUSH22 0xCD7B002111DD55C4D212E9360CEC88C188098BA052F4 PUSH22 0xE7CB4A6E7200D33425128781EAF3D355AD53A1B998C6 0xB7 PUSH20 0x8252010FC33B3E282BEEE7DC668308B10BF602C3 0xDF PUSH30 0x350D3DA0502CDCAAA7208EF32B3D056C6314E54E7DAE918489566F31F7DA 0xBE BALANCE DUP15 SIGNEXTEND SWAP14 0xD8 0x4A 0xDD 0xDA GT DUP10 0xD3 DUP4 LOG1 SAR MSTORE COINBASE PUSH27 0x894DF6CE25F92E97D2086495B8C9ACDD9F312FFF2AA2524D2E1143 DUP14 0xF PUSH19 0x26BCC9AED34857296CE6DD82B82F1D086AC24D EXTCODESIZE SWAP15 MLOAD 0xEC EXTCODECOPY PUSH23 0x7A89E0E0D10FDEE6A4513D6EC8F9E2D416C8B87B0C1DEA 0xF6 PUSH8 0x2EF14B11F42F975 0x4A 0xE6 DUP9 0xC2 KECCAK256 ISZERO 0x1E PUSH31 0x27C0331111BF9346DB0F4A36D000AC49D03C561A45E23383A0B61D2717CF33 0x1E 0xDB NUMBER LOG2 0x27 0xBE 0x4C 0xC3 0xAE 0x2D 0xD0 SWAP10 SWAP15 SMOD MSIZE GASPRICE SWAP6 0xE6 0x2C 0xB1 PUSH17 0xD4E11787CA9032A411B76E488A5EB5703A PUSH4 0xE3C43341 0xCD GT GT COINBASE 0xC3 CALLDATALOAD RETURNDATASIZE PUSH13 0x634422E63A8EE3A948E62AAA17 0xBE MSTORE8 NOT LOG2 0xC4 0xB8 ISZERO SWAP8 0xC8 PUSH27 0x78DD744742127D8F4C942E30A6884A7C40C05A1CEB38F341D5107F BALANCE ADDRESS DUP16 CODECOPY DUP6 0xD7 0x27 SMOD 0xEE 0x4C 0xC4 POP 0xAE 0xB7 SWAP12 BALANCE 0x22 0xD1 DUP11 0xB3 0xA8 GT 0xCA ORIGIN 0x26 0xDB 0xF8 SWAP9 PUSH12 0xE11183F7BD4BCFC17DB4B68F 0xE9 0xA9 0x2C 0xC4 SWAP3 0x1F 0xE1 PUSH27 0xA0352F5778718601A871C9A11AC0EAC37ADF26C0E380D9E4D4D4C1 PREVRANDAO SHL 0xCD MSTORE NUMBER DUP4 ORIGIN RETURN 0xEC SHL 0xCE 0x2C SAR 0xBD 0xA7 0xCE DUP9 TIMESTAMP PC 0xEC 0xBF 0x26 0xF6 0xE4 STOP 0x29 0xD7 PUSH17 0xEBBE895AC8CE51007D38939C48CF3ED31B 0xE5 0xE7 MSTORE CALLDATACOPY BALANCE 0x4F PUSH6 0x70DEC86F57B2 PUSH27 0x19AD986E3070688999218F5EF741ABDB302A72EDE4E7A6441460B7 ORIGIN DUP10 0xEE 0x24 MULMOD EXP CALLDATALOAD PUSH31 0x7752CF5820DC8E949BA37881518729E2A51EC1246CD16A5566177ADD7278A5 PUSH3 0x1052E6 0xA7 PUSH10 0xF43D0603332CC618E1C 0xC1 0xF8 EQ SWAP13 DUP15 0x2B PUSH24 0xA892261A86C37BBC1586B3E8E0C6A77847D3B94D32FBE3E6 EQ 0xB8 0xA5 MSTORE DUP13 CODECOPY PUSH31 0xE0565C1D305C4679583C7A2273A4263FD7C0E4C0C3CD1593D70F1645829FDD 0xD2 0x2D EXTCODESIZE 0x28 INVALID PUSH1 0x8E 0xBA PUSH3 0x2B2DD6 PUSH30 0xC8282192DA3762413BA678AB7F0908DFFA0610AC0133C5F7BDFE3469934C PUSH25 0xBCB4177D2C1FC618BBAC6C2EDE6A05C83EE4F9CA0F735C449B BALANCE 0xEB 0xAF PUSH1 0xE1 DUP5 DUP9 EXP PUSH29 0xE6053DBE5C6ABF673B02BC2213ECF7B788D4FAB17371A424493BB49447 DUP6 0x5C 0xFB COINBASE GASPRICE CALL BALANCE 0xDE MSTORE 0xBD PUSH22 0xA50B706D0602AFC4587FBCBE9DA6DAF807C3EFC632BB DUP16 0xBC DUP11 EXTCODECOPY 0xCA 0xDA 0xF7 EXTCODESIZE DUP3 PUSH22 0x42745FA828BD99E6AE097936294DB584BB7EEFA8DD7B PUSH4 0x144064F7 GT BLOCKHASH COINBASE 0xA8 DUP15 PUSH10 0xD6E9C6053751EF135A8F PUSH6 0x49527E22BFC0 PC EXP MUL 0xA7 0xDD PUSH19 0xE9EB6B6A6E73B3F6EC2690251C32A5E4B55B02 0x2F SWAP13 0xC7 EXTCODEHASH 0xD5 DUP6 TIMESTAMP 0x4A INVALID 0xDC 0xD1 SELFDESTRUCT 0xBF PUSH31 0x46D2A8E3A86B52A937A6291ABFF8FFDE1DE3ADD8B76C0A6F372E2B921D601C PUSH0 BALANCE 0x28 0xE5 DUP6 OR MOD 0xEB PUSH1 0xAE PUSH28 0x2820E0459978A083B67D71ECD1F963B5CC7EEDF8334FE85839F968FB 0xA8 JUMPI LOG2 BALANCE SWAP16 0x27 0xB0 LOG4 ADDRESS 0xB6 0xED RETURNDATASIZE MULMOD 0xE7 0xF9 SHL REVERT PUSH17 0xCBD9677656B8B31B140F215FD20CA25C0A 0xE2 0xD SIGNEXTEND 0xE8 PUSH8 0xF7F893F3FD8631D4 0x1E PUSH24 0xCE901EDBCD29DF2AE3E3D61869EE4163105D12006B141B52 PUSH24 0xC0AFB385B10C30F42EDED577B0E99FCDAFB69648BC81C015 0xDA CALLCODE 0x2D PUSH26 0xB8879E27E7000430ADCD96D6F7C67FCF386A473752668E64C09B 0x2F DUP1 LT LOG3 DIV PUSH22 0xCFBF8A76A0346F7DF43A3EBA83F47F139060103130B1 LOG4 DUP5 0xE7 DUP2 CHAINID 0x23 0xD8 SLOAD SGT 0xBE PUSH12 0x6D4CA7746460F0466A5068D5 0x4D 0xC9 CALLDATACOPY DUP15 0xC2 0xE4 PUSH13 0xDA7D08DEB8A254260E2701EDCD PUSH29 0xEDEAAE1C11DE85B2FD1E5DAB42FA36E547682937FF684364921B513F1F JUMPI EXP 0x24 0xF 0xD0 SWAP13 0xBC PUSH16 0xDD1FFB9183668427B376483F723438DE 0xE5 0xCC GAS PUSH15 0xB961A12EADF23A07B9FEFD2E17EE0D PUSH21 0xDB1EF80CAA7745B9C9F7685FEC9B02E5EBB13B2F66 DUP10 MSTORE8 0xCF SWAP2 INVALID INVALID SIGNEXTEND PREVRANDAO 0x1F CREATE PUSH27 0x2F2938F468BC7EFD380BEF43A030E5FDC41A71118EAC608EF4B794 0xEF 0xE0 GASPRICE 0x23 0xDD SUB 0x4F SGT ISZERO PUSH13 0x2F2762E6E8772B11C7DCF8DDF RETURN 0x2B SWAP5 0x2A PUSH5 0x4366C746C LT 0xE3 MOD PUSH0 0x1F PUSH26 0x32E240446C85C3F8EE5AAB85B7727506FB03F113EB05DAC7306C PUSH22 0x8FB6565545232934CFE1A99A5FC63945A4B6D1A652D0 0x2A PUSH0 0x2B EXTCODECOPY 0xA6 STOP 0xB1 SUB CALLDATALOAD STATICCALL BALANCE 0x24 BLOCKHASH 0xE1 BALANCE 0x4C 0xD 0xE 0xC8 0xC 0xE8 0xA5 0xD3 SWAP8 CALLER 0xEB 0xF7 AND 0xB7 PUSH15 0x6E010FAB721321F8C4CB709DC6EE73 MULMOD PREVRANDAO GASLIMIT CODECOPY PUSH25 0x383E604695B098845ACC161C28FE2A8338A9A5ABAE29F5D98D PUSH11 0xF2AD0372B92CA7B779CE0E 0xE3 0xA7 SWAP11 0xDC SHR 0xB4 0x26 0x2E 0xB5 0x2D 0xAB 0xEF 0xEF JUMPI 0xA8 LOG4 SELFDESTRUCT SMOD SELFDESTRUCT 0xD5 0xD5 OR 0xEB 0x5C 0xAA 0xDC DUP5 0xCE ORIGIN 0xD2 SLOAD 0xBA 0x4B PUSH21 0x6D19D19B89A5311192D39B9A603BBA160DA80FDA04 PUSH10 0xB41C2255AC4D0A46402A 0x28 PREVRANDAO 0x22 PUSH0 REVERT 0x25 CODECOPY 0x2F CHAINID PUSH6 0x8280CE7B17E4 0xE 0xEF 0xB5 0x29 PUSH8 0x3A2B3D8F6E25757E SWAP11 PREVRANDAO 0x5E PREVRANDAO 0xC7 0xA7 EQ SWAP12 0xEC 0xE4 ADD 0xDE PUSH21 0x823933559559239322E9363220D322CEA2DDBA2F6D JUMP LT INVALID DUP9 CODESIZE DUP6 SWAP9 PUSH14 0x15C53CFDDB0F8BCCEDAEE3A4492F 0x2A 0xC1 0xBE SSTORE 0xD6 CREATE 0xB2 CALL 0xE7 0xAF PUSH0 0x4C 0xAF CALL ADD PUSH24 0x904F2BA1A14949B45D15D45E07B4B3C206ED751F86B5F37D PUSH17 0xA24A4D8A7DC389AAF71839769F1F11E180 PUSH4 0xE3BC10C4 SWAP1 0xBC SLOAD PUSH14 0x8B35242A93EC4D6B61CACEE4F1D4 0xB0 XOR STOP 0xF7 0xC3 SGT PUSH31 0xBC9AC731F7B4D6375C01A874F29000C1B3F4727B65C77A2D51051BFCDECE5C PUSH3 0x826292 0xCA LOG2 0xDA PUSH15 0xC16B9974D2EB7FD3C2C20D1863DB12 0xEF EQ BLOCKHASH 0xBE MULMOD 0xC6 SWAP7 0xE6 MOD PUSH32 0xA41AD890EE8388C0290186E494CBC202E7667D19B56353CECE99092B1D93EED7 0xD2 PUSH5 0x56F285906A LOG1 SWAP7 SDIV SWAP15 0xBB 0xBC ISZERO PUSH32 0xBDE72B8ACAB6BE8EFCE28D2CCB3B61DB9903623CC781638310A16F00286BDEA8 PUSH9 0x4A462FA0F5604337 0x1E 0x26 0xB3 SWAP15 SAR SLOAD LOG4 RETURN 0xE8 0xD8 0xA8 0x4D SWAP8 GAS 0xE2 PUSH8 0xF7E0B886137B4969 0xB4 0xAE PUSH9 0x8AC9462D3B1AB6AE 0xFC 0xC6 0xDF 0xD4 0xC6 0xD8 0xC4 SWAP12 0xAF DUP7 PUSH13 0x8CEAFFBA9AF800D551CD8EBB6F 0xB6 SAR 0xC7 SWAP4 PREVRANDAO 0x23 ISZERO ADDMOD 0xEA MSIZE DUP12 EQ CALLCODE 0xB9 0x2A ORIGIN DELEGATECALL 0xEC 0xFC 0x2E SAR 0xED CALLVALUE POP 0x5D 0xB0 BLOCKHASH 0x21 PUSH16 0xDD1307594FB8F07D225265CACA14DCCB 0x26 0x2C NUMBER 0x23 0xD 0xEF LOG4 0x4D PUSH26 0xEFBF96195B8852817B9C2A1A0CEE7B065A720651F4D30A03B234 GASLIMIT 0xD5 DUP9 0xA6 JUMPI 0xEC DUP2 DUP9 SHL CODESIZE 0xA6 0xCA PUSH29 0x96AE7D30A228EDA72F8F278929640191DE8B4C95A163F7B35D9FC5F38D 0xD1 EQ SWAP10 0xE2 RETURN CREATE BASEFEE 0x4F 0xEE 0x4D 0x4E 0x2E PUSH8 0xE80ED738C79C531B 0xB0 CALLVALUE 0xD0 0xE3 0xF7 PUSH17 0x3AE1CD93D0334F8CCE0E6FD7BBEEB9CD1A 0x4B LOG1 PUSH9 0x24F4DF329914BAF49F 0xE4 0xAE 0x2E MLOAD DUP14 DUP6 0xCD DUP9 0xBC 0x2A 0x4D PUSH22 0x11486305611AA901D1333F199A38FC9C772C5B6DDE72 0xD9 0xD9 0xEF SWAP1 0xDB 0xE2 0xA7 SELFDESTRUCT KECCAK256 0xCB SWAP7 DUP6 0xC2 0xB3 0xE 0xF8 0xC MOD PUSH10 0x95DA220811544BD79B86 PUSH30 0x6A45C5F9D5F81246EE7BD867BAE77CE1F1A5FD1347A12AC6258EA35211B6 0xBA BYTE DUP7 DUP4 NOT ISZERO DUP5 RETURNDATASIZE DUP9 DUP10 PUSH15 0x58F458F0D5765917C35E035FED90D0 PUSH3 0x19D345 0xC5 0xEC PUSH30 0x3A0AE95883CEDE928ACB380F8EF8B4B6859EF9652ABCBB767E6E79B2DD22 0xE5 SWAP8 DUP15 0xED RETURNDATACOPY 0xDD PUSH6 0xFC15F583B875 0xD1 0x4E 0x2D 0xC2 CALLCODE LOG0 0xD8 SLOAD EXTCODECOPY SUB 0xE5 SWAP10 0xFC 0xAF 0xEF 0xC6 PUSH30 0xBE7AB22B856E4E31201C5375C3B33927AFE8894ADEFADBB90A284CBAF5F5 SHL BYTE 0xCA 0xD8 PUSH19 0x34B1B54A7D39EAB320C9A28687261383DB782C ADD JUMPI KECCAK256 DUP9 0xB9 EQ 0xAB PREVRANDAO 0xD9 SWAP4 0xBF 0xDC PUSH19 0x73E34954B1BBF0DBC661D1C4081B3E81DA92DD 0xFC 0xC5 0x2A SDIV 0xE0 0xE9 PUSH29 0xB23E1404FF3331F83623C8F4C394B5D49037BB8CF64B6414D60779217E SLOAD SMOD CODECOPY 0xDD DUP6 BYTE 0x21 0xE6 0xD PUSH8 0x1A6DBA94845F4248 PUSH29 0x32EC098A9C4C0C198198431B389BD1A4D6C9F88D6FBB6BEB8C25A7F861 MLOAD 0xDA ADDRESS BASEFEE 0xFB 0x29 0xCE POP PUSH1 0x76 RETURN 0xB7 CALLER SWAP8 ADD 0xF6 0xD 0xDB 0xCD 0xE5 0x29 CALLCODE 0xAD 0xCD 0xEB 0xD2 0xBF MUL SWAP5 0xC BYTE SWAP11 CALLDATACOPY DUP15 DIV DUP9 0xC2 SWAP11 EXP 0xC3 DUP11 OR 0xA9 GT DUP12 0xC5 AND 0x5C 0xEA 0x4C CALLER PUSH2 0xC2B7 0xED 0xC4 DUP6 0xFB SWAP1 0xF7 DUP9 0xD1 0xB4 0xEC CALLCODE 0x49 0xB3 DUP8 ADD 0xCE 0x1E CREATE SELFBALANCE KECCAK256 SUB 0xD9 0xDB 0xA7 SIGNEXTEND 0xCB 0xBC 0x1E SSTORE SWAP10 0xB6 SGT DUP1 STATICCALL 0xE8 0xAA PUSH29 0x48F7DC2C543713FFC9A72A801E1A77F9F37C810CF8A31E0BB5EB4CDB46 CALLCODE 0xFC PUSH0 0xCA SWAP8 SGT GASPRICE 0xD0 GASPRICE 0xB9 0xCF MSTORE8 DUP9 EXTCODESIZE 0x27 EXP ADD 0x26 0xC PUSH29 0x534A0E20CD40E05E747FB3BDC07B3CFC50B3CEAC18F059EF4F65565F44 PUSH19 0x8335FB828DF7CB07583A984136302CD3BAF3B RETURNDATASIZE SWAP16 SWAP2 PUSH24 0xEF97F584B0DAAB7F0493D2577326D35E5C2E4F1092A13399 XOR 0xCB 0xDB 0xFC 0xB5 0xB1 0xDD 0xA8 0x2C BALANCE DUP2 SUB BLOCKHASH SAR 0x4A SWAP15 DUP16 0xC3 0x21 DUP2 MSIZE MULMOD 0xDA 0xF6 SIGNEXTEND 0xCB ORIGIN 0xE3 PUSH17 0x20E105D8B9BC3AA31900CD3459046AB97E 0xB2 0x28 PUSH8 0x5846B691180E9F20 PUSH28 0x3AE8C1BC03BA74AC6509F094C0F38B729EF60C4C7B50851903CC5610 DUP13 PUSH23 0x2E6D29F106AD148CFEF47E8479947C29ADC1AA4B32CF6E CALLDATALOAD PUSH21 0xBBA10C0B05616E878EEE4C82E3229CA0D438BFFEBA 0xD4 DUP6 0xCA 0xCE 0xE4 0xED 0x2A 0x22 0xCD PUSH5 0x971813EFB1 SUB DUP11 0xAF GASPRICE TIMESTAMP 0xFC SWAP11 JUMPI 0x21 0xF6 SWAP12 PUSH28 0xB52A6CE9EA6E3E58B180BE065509AB930AC979932E59D3453F983DFF SWAP1 0xE4 PUSH0 SWAP2 PUSH29 0xD74501A646319FD22C952F3152B077D56558401F0BF595DB464070AB32 SSTORE EXTCODESIZE MULMOD PUSH0 PREVRANDAO 0x21 MSTORE 0x4C KECCAK256 JUMP DUP14 0xF7 0xAC DUP1 GASPRICE RETURNDATASIZE 0x29 SWAP12 RETURNDATASIZE 0xAB JUMP DUP14 SIGNEXTEND PUSH9 0xD795EB7B68B11C333B CODESIZE BYTE 0x28 CODESIZE 0xBD SWAP4 SWAP9 INVALID CALLDATACOPY 0x1F ADDMOD 0xD4 DUP16 0x2D 0xED 0x24 0xE6 0xE MUL PUSH6 0x4F18B33A4CD6 0xEE 0xB8 PUSH12 0x9FAFE856F33753CA1CC6756D 0xC4 0xF8 NUMBER 0xE0 ADDRESS CODECOPY 0xDF 0xDE DUP8 SWAP11 PUSH23 0xB715E0EE169AFA10D37A8062AECE61391764FFC6D4DC6D 0xDC 0xB5 PUSH16 0x35880BB13C705625C616A97B05678348 0xCE SAR MSTORE PUSH18 0x8BB1D8521CFF5A3D2CE5B37F7C190DC47862 0x28 0x26 LOG0 DUP9 0x2F 0x49 0xD8 0xC0 REVERT EXTCODESIZE 0xE1 0x24 0xEF PUSH22 0xA7A107778FF66B5BE2B66C0B64C2084809EDE3070DBC PUSH31 0x5DE51FF90466AE52B47A293B4CFF6F0CB064B6DDE4E00650A68B154129426F 0xAA SWAP11 0x23 PUSH31 0x4BF88EB59B094786CF49A96FDC54CF6C819E1B67E2B0D687070F1BD148D0B2 STATICCALL DELEGATECALL PUSH7 0x59E6DB194BFDD5 0xD0 CALLDATACOPY 0xAE LOG0 PUSH1 0x73 PUSH26 0x52BC30026F8547737D057BB63C3CFDBCBDAFCF387BCB4FC35F34 PUSH24 0xA87E3CCBAF160E2D20C48A71DF9E305D73A39971D2C9A4BD PUSH21 0x7A5DDEE537FA604400FD37215765E44250F2105AF 0x23 0x4B DUP6 EXTCODECOPY PUSH5 0x7B34639391 0x21 PUSH2 0x2EB3 ADD 0xCE LOG2 DUP3 CREATE 0xC1 0xD6 PUSH26 0xAE8902417E66C9F1F5FB1BBF10B5716793E28145726E9198D745 PUSH27 0xF95C327F336967B14AD14FD25FA0FE0ADA5D6553E357275B59357F 0xC2 0x21 RETURNDATACOPY 0x1F 0xAF PUSH18 0x4A22EEE3D5D3D502838FCDE32E542E73F204 0xBA 0xF6 SWAP2 PUSH11 0x3AF968DB423019F558A87C LT 0x4C MLOAD 0x4B 0xD8 CALL PUSH5 0xD03D3DEBA7 0xE8 SAR 0x29 0xD8 SWAP7 0xAA 0xE4 MULMOD 0xCA 0xD9 NOT 0xA9 SWAP6 0xCC DUP8 OR 0xB7 LOG0 PUSH25 0xC623BD3AF80C056DC1716D04353903644E9C312415BD756683 PUSH10 0x7EB1BA4FEA32C710D0F0 SLT SWAP11 0xE7 JUMP SWAP9 0x4B MSTORE PUSH2 0x1993 0x25 GAS MULMOD SLT AND PUSH27 0xC123D1A2C9B10380A309D7F3B067B628E9DA5085D98B90B0CD852D SLOAD 0xCF 0x1E 0x29 PUSH18 0xB4C37D511FBD55CA08E2B56EE7FB91386192 SSTORE PUSH0 OR JUMPI 0xDD 0xE4 PC PUSH1 0x1C 0xE2 DUP8 0xC5 0xE5 0xB6 GT SELFDESTRUCT PUSH0 0xB5 DUP8 MLOAD 0xB3 0xEB DUP4 CALLDATALOAD 0xA8 0xB5 0xCD 0xE2 REVERT 0x28 PUSH20 0x522CEA0E9BF6F5C5560CA0091A58EE20042AC022 CALLDATACOPY 0xBF ADD DUP5 CODESIZE DUP7 0xE4 NUMBER SWAP14 DUP6 SWAP11 PUSH25 0x5362913C0CEAD1E4691F47E5AC7EC132D0C7136A9487FB0C6C CALLCODE SWAP3 0xB0 PUSH31 0x5515EB2AE942D4AAEF2DFC7F29B08F57557514CDEAC066D9EEA594A5C5388E DUP16 LT PUSH5 0xDCF19FE4BE AND 0xD5 PUSH28 0xD411F5962D5EE0C6521D26C8C6FE86327B03254322ABDBA93545FD5 0xE4 ADD 0xB3 0xE5 BALANCE SWAP1 ISZERO SWAP2 SWAP4 CODECOPY RETURNDATASIZE 0xB9 SWAP1 SWAP16 0xA9 PUSH8 0x6E06AB64C9E48AE9 SWAP9 SAR 0x2E PUSH10 0xDE2DD98343508EB30B6E 0x21 0xD7 ADDRESS RETURNDATASIZE SWAP10 0xB1 CALLDATACOPY PUSH19 0xC5E79DF4F97C1BBC6FD5E3C84BD65F35B2DEFC MOD EQ DUP16 PC SUB 0x2D GAS LOG0 PUSH30 0x8CC37953BB5F5D2AABEA56E1B0B161EED95DEAFBB48EF9E8B233D5CB164F SHL PUSH15 0xB4908F591B45BC4D4385A161CF46BC SHL 0x28 PUSH20 0x69A5EECDFCFD140B62E0188576C886EECBE7191A PUSH21 0x6798F0FB4BFA0C7182C135EF595EF570294F7AEC7 SGT SWAP7 0xE7 0xB2 DUP11 0xB6 PUSH27 0xCCF1C37DE37EBC942BED502F53651A61FC62A1DCFC29D1CE5E11AA 0x2D 0xD7 0xE1 PUSH6 0x9029917E203C 0xC8 AND 0xAB 0xC5 CALLER 0xDC 0xA9 NUMBER PUSH7 0x4BFE41E3D298AB 0xF6 0x4D 0xC3 0xD SIGNEXTEND 0xD1 0xEC EXTCODECOPY LOG0 ORIGIN 0xB7 0xD2 PUSH28 0x8BF71A2E76CCD0C4A313642B6AAD073167B8B133CE76790A7414FCD2 SWAP13 0x4F BALANCE 0xDF PUSH31 0x37573A174B7C889DD737F94B684A8B25D8972355897802E3D9093C471054EB INVALID OR 0xAB DUP2 0xC9 0xB7 0xC3 0xBA SWAP7 SWAP2 PUSH10 0x3FE99C34802330498B1E 0xD8 REVERT 0x26 MUL 0xA9 0xD7 ADDMOD MSIZE 0x29 ADDRESS SHR MLOAD 0x21 STOP SWAP15 0x4B SWAP2 DUP8 LOG0 PUSH13 0x767EF9ACEAB2202D20926E03C1 0xEF ADD 0xE3 DUP7 0x2F SWAP2 CALLCODE 0xE8 PUSH9 0xC1E148E0F7DC729798 SWAP13 CALLDATALOAD 0x2C 0xD6 0xE5 PUSH9 0x79888E7E21C0948F52 0x29 SMOD SSTORE TIMESTAMP 0x29 0x2F CREATE2 0xD8 DELEGATECALL 0xD6 0xBF MUL 0xB2 PUSH31 0x289F82BC3934EC7BCF5D4CE5D7AA9DBF2F5F21F44B7C70AA59847E1DB36CCF ADDRESS 0xB8 LOG3 EXTCODEHASH LOG1 EXTCODECOPY 0x5E CODESIZE DUP16 CREATE2 0xB9 0x2D 0xB2 0xFC 0x5D PUSH14 0xA62FB51A65E37AD91961D99C8583 0xA8 OR 0x2B SWAP14 0x24 PUSH20 0x52118CEE44B22465BEF9865665A47E132192686D EQ 0xD2 SHL LOG0 DUP9 PUSH11 0xF62D7F0EB51F413FF2BD98 BALANCE PUSH11 0x356183F58208A416185C7B 0xAC 0xCB 0xC0 0x2F EQ 0x1E SELFDESTRUCT RETURN 0xFB 0x4A SWAP6 0xE8 0xD3 0xB2 PUSH10 0x5A0F0690C232D8B39605 0xB4 PUSH9 0x85FB305BC541A04645 0xFB PUSH16 0x733B27D7950A233599CED31AD97E8D32 SWAP8 MULMOD 0x4D 0xBA 0x4A 0xBD PUSH16 0x295BE8A9589AC33D6F04A426390F6E6C 0xD7 EXP 0xEC 0x28 SWAP11 PUSH14 0x1EF3264C887280AD42A8103C52BB 0x27 ADDMOD 0xE2 0xA6 SWAP2 PUSH31 0xFB3FD9145BD1729C2C9FA67F01ABA05AB47C56441CDF0816A0B76CABC81CC9 0xF6 0xBA 0xE4 0xDE PUSH4 0x668F12AE PUSH7 0x9284B5AECA54BE PUSH8 0x80354B726E0A7BFF 0x23 DUP13 0xB5 0xCB 0x4C 0x21 PUSH16 0xCF0F507F40D3679C0ACBAEF83DD4B5B0 0xDB 0x2A SWAP15 MSTORE 0xC3 0xA6 DIV DUP16 OR 0xC7 SWAP13 0x4A PUSH27 0xBAFDFF1D3F955B5DA5E0816D44F817B705F484C771F1BAC2942897 EXTCODESIZE ADDRESS DUP8 0x4C SLT CALLDATASIZE OR PUSH27 0xDC709F0A6B2D32745835162F5ED9CE69F36F156031E40B2E26C32A 0xDD 0xC2 0xCE 0xB2 SWAP8 PUSH5 0x8D3FC271A5 BASEFEE 0xB9 0xBF PUSH25 0x8BFF4B2023CAB820C4A4EE8F201BBB92DCD070B78863668016 0xC2 COINBASE PUSH1 0xC2 0xC0 MSTORE8 0xDA 0xDB 0x24 STOP BYTE DELEGATECALL DIV 0x2A 0x1E MLOAD 0x24 PUSH1 0x33 SMOD POP PUSH22 0x5DD11A39D879137103F9972AD0F6D79EA24CC16610E SHR SWAP14 0xD1 SWAP9 0x4C 0xDA DUP8 BYTE DUP3 PUSH13 0xE5032975F4592FBD0F5263322C 0xCE PUSH31 0x33FDFB2D490FB4E80B7D17DE89AD1558B7B9D3F4BD40213CC2AF89CA9145E8 0xB3 PREVRANDAO 0xD1 0xBF POP 0x4B 0xF6 0x25 PUSH16 0xAE4E8C478ADB09DC052ADD4308658ECC 0xC8 0xE6 DUP11 0xE4 0xF8 ADD 0x2D SDIV DELEGATECALL PUSH19 0xB4C1C625A39319BCA758748B08D4989195C225 0xDC 0xB4 SSTORE PUSH32 0xFB9DBB42CC431F4ECFDB0ADF7E327CD5218B56B33723FDE2D94AD2036E9A9430 0x4B 0xC1 0x21 0xF6 0xC1 DUP5 GAS SGT 0x27 0xD8 SWAP11 PUSH16 0x55BB9CA81EB91E07CD0F43871C3AC1F1 0xE3 PUSH28 0xD2755613ED7B3A3EC11A3EB8FFF749AB22F92446F62F85152339E3E3 PUSH20 0xC4E4AD9B657F5E665676790CA0BF8E005767AEDD TIMESTAMP PUSH10 0xD107D4F11E6B4BC7A2E4 0x21 PUSH29 0x1C3CC2E298E450D010FD622C47E2CD7880E64B2E6B2E6FDF28958CA1AE PUSH6 0x967871544BD1 0xAF 0xD7 SHR MOD 0xB4 0xB3 SWAP4 XOR 0xD5 LOG0 PUSH23 0x91A1266627AD1B40F0CEB66234377758D63F8C56E66C0 0xAF PUSH5 0x4EAD06B4E9 DUP8 0xBD 0xE9 JUMPI CHAINID PUSH31 0x75938F14040E31FE264D2CC1F55A3FCE3CE86A68196D2A06336102C14D0CC8 SWAP3 0xFC DUP8 SAR PUSH16 0x4219B29228092E58A02047D8DEBF48BA EQ TIMESTAMP 0xEA CODESIZE 0xAC 0xEB DUP3 PUSH1 0x5E DUP12 STATICCALL PUSH21 0x60C49AF4960E0528AE6D904BB6C6379FEF10CB1D1B 0xC6 0xE8 PUSH8 0x54ACF978041CE99 0xBE 0xCE 0xFB 0x21 SWAP4 0x22 0xEF LOG1 0x5C 0x26 LOG1 COINBASE PUSH17 0x452119318CB1073B15B978FD05C40A5001 JUMP 0xE 0xDF 0x21 0xDF 0x4A 0xAC AND 0xA5 CALLVALUE 0xDA JUMPDEST MSTORE 0xC6 PUSH19 0xBB3326879104EB32DB6E815036DC9E43A1D414 0x4A RETURN EXTCODEHASH MULMOD 0xE7 SHR LOG3 0xCD DUP6 0x5C ORIGIN 0x5D 0xBF 0xD0 0xF9 0xE7 0x24 CALL PREVRANDAO 0xD2 0xC3 SWAP7 0xC8 EXTCODESIZE CALLER STOP LOG1 0xBB 0xF6 SWAP2 0xD3 GASPRICE TIMESTAMP PUSH10 0xB796F80484FF397EF370 0x4D PUSH8 0x7718224F0ECCD23A GASLIMIT 0x4A PC 0x4A 0xD7 JUMP EXTCODESIZE 0xCD SWAP2 PUSH13 0x624A6D9FAC09BAC86D726AA8C5 DELEGATECALL 0xC6 0xC4 0x5D 0xE2 DUP4 PUSH14 0x6D88F69CECC73EC17C882E29C728 0xB3 SMOD DUP4 AND JUMP SWAP15 0xAF PUSH24 0xC8EC57E85B52EE30CD6212133A17CA3A4E87BCFD75075986 AND 0x21 0x4D 0xE 0x2B XOR DUP16 OR RETURNDATACOPY 0xE8 PUSH13 0xCE1A411C0D2FF80E1EAD326474 CALLDATALOAD DUP14 0xBF COINBASE 0x2F DUP15 SLOAD 0xC ADD 0xAA SWAP2 OR EXTCODEHASH PUSH22 0x2E069ECC268A7427E0935DB3ACD27FB7BC097E2B2C58 0xD5 0xA6 0xAC 0xDD 0x1F 0xB4 0xC1 0xE 0xF7 SUB 0xB9 PUSH9 0x7C4C6F9DEDDC9C9D3E CREATE2 0xBA SAR SWAP11 DUP8 MSTORE SWAP14 EXP PUSH20 0x87BC569C6C642913C425FA7538CB83E2A689D5CA 0xEA 0xC5 JUMPDEST ORIGIN 0x5D CALLDATALOAD SWAP8 SLOAD PUSH31 0xF6C8DC122A2A6D000C344EEC023E56786B482A73477D0FD36701F0EDDD0829 DUP15 NUMBER SWAP2 BALANCE PREVRANDAO 0xC3 0xF7 0xB8 PUSH26 0xD09887612EFEC260ABD0D45688E61558F0288CBDDD8B5774E484 PUSH7 0xF164D5E522B544 SGT EQ EQ 0xD6 CALLCODE INVALID BYTE PUSH22 0xDC3F898674BCA43B786B3EEBB0E2AC53EA6336D2D049 PUSH16 0x23399C133EEF87007A5128B3F86D3FF9 0x4B 0xDD BYTE ADD NUMBER 0xB2 DUP14 0x4B PUSH19 0xE7B02B2022147764B03A20A11D5FB29AA2AB37 CALLCODE SWAP2 PUSH30 0xB42EF10170B5F8614BC6E4DECDA4186DFAFBA37A2646970667358221220 DUP6 0x5E SWAP7 0x2D GT EXTCODESIZE 0x1F 0xD7 0xE6 0xA9 LOG3 0xCF JUMP EXTCODECOPY 0xF9 0x22 DUP12 0xB9 SWAP9 0xC4 DUP13 0xC0 DUP14 PUSH30 0x2EE7D95C5CBB48DE64736F6C63430008170033223D042D480E6B8AA96EE9 0x2C 0x5D 0xC0 MSTORE8 0xD7 0xCB 0xAC SWAP15 0xEB SLT 0xB2 0x5C PUSH25 0x79EF678BC1B67CEE0411C9A50FE4FD731C874EA1C7F6411E6E 0xA6 SUB PUSH19 0x66E687D27CC15452527A38A61C366FB513BD70 PUSH2 0xF1FF 0xE1 0xB0 AND PUSH26 0xEF6935509BDEBB0F6A2359ED3C2C55167A8C06C41AE91C52F2B2 PUSH32 0x7BF76E73F6299CE59F6F67C03B5C1D15EE23CCBACE2CF12FAD2A9783FC2BA490 ADD 0xEA 0xCD GASPRICE CALLER 0xE3 0x4C ADDRESS 0x27 MSTORE8 PUSH4 0x6D3C4635 PUSH23 0x36DAE6C8B2024B19C6002888DCD3E33699C10634A806D2 0xAA 0xE2 0x24 0xC3 0xD7 0xE5 SWAP13 0xEC GAS SWAP12 DUP8 NOT 0xB0 PUSH7 0xD2640C3BC3C927 MSTORE8 CALLVALUE DIV 0xB7 PUSH2 0x8B19 ADDMOD 0x2E 0x24 0xEB 0x2C LOG3 CALLVALUE 0xE7 0xBF SWAP14 0xCE 0xB9 PC 0xBD CALLDATALOAD MLOAD 0xE9 INVALID PUSH32 0x57270E9BCC58594F6192A2B99D2846F622DE39B5937B2A7323CC45E25FCB2093 0xD0 0x1E PUSH30 0x1A66AAFFD026340C02261FD998650C044A8B0C7FD711E04213A1CD2CD351 0x24 0x24 PREVRANDAO 0x4F EXTCODESIZE CALLDATASIZE 0x21 0xDF DUP13 CALLDATASIZE 0xB2 PC RETURN SSTORE 0x4A SWAP13 0x5E 0x2A 0x21 0xA5 CALLER OR OR 0xC8 0xAB LOG3 CHAINID 0xC7 0xAC PUSH4 0xC97616E0 CALLDATASIZE 0xC1 0xA8 DUP16 SWAP9 EXTCODECOPY DUP3 0x22 PUSH25 0x49B01847266A1175919AC332C27799549CE18D36EE0B0CA3B0 BASEFEE EXTCODECOPY DUP15 TIMESTAMP 0xC9 NOT PREVRANDAO 0x24 0x2F 0xC3 PUSH12 0x40CA910518F9D85A25BE8E4A PUSH31 0xF43663AD110CF5E0D819A05A811F7A0C166628530BA6F6D353E8E6A433C064 0xD6 STATICCALL 0xDF MOD 0xC NOT 0xBC 0xE7 JUMP 0xE1 ISZERO DUP5 SAR 0xD9 0x4F DELEGATECALL GASLIMIT COINBASE 0xD5 0xAD PUSH25 0x130187D67F3C560C2A590BD0937657090DD7A106857421EB01 0xA5 0xBF 0xC3 DUP3 GASPRICE 0xA5 0xEB DUP8 PUSH28 0x1E10E8BDF45DE359928B28D1CA3927B6C7AF8F5185344561CDFC3A5B DIV SWAP14 CODESIZE 0x1F 0xDE NOT 0xA6 0xC1 0xD1 PUSH25 0xC748B30BC5B89CB315EA7C4084328D608B151E9B174A74FB47 0xF8 0x4C 0xD5 0xCC 0x4C SWAP1 SWAP4 0xF6 RETURNDATASIZE 0x23 0xD8 0xF6 PUSH8 0x4010D1C16CF84A7 0x4F 0xBA 0xAE 0xC2 0x1F ADD SWAP1 0xD8 DUP8 0x25 EQ BLOCKHASH SSTORE SWAP4 DUP10 PUSH20 0x9FA03A9C82722C6A538014FAEBE5560369EC0B88 SMOD 0xA8 DUP15 0xCF LOG0 MOD 0xF7 0xF9 PUSH26 0x5CAF1BFCFE261555534CF4E78D0C962615261CA9C1F65CD755E0 SIGNEXTEND 0xC0 SGT 0xAB CALL MSTORE8 GASPRICE SLT 0xE8 SHL DUP1 0xB3 0x2F 0xC4 SHL 0xD 0x1F 0xA8 PUSH14 0x2792793DF783C78305175C60E000 0xC5 EXTCODEHASH 0xD9 PUSH15 0xE07CEB78E470A6C64A1B477C553420 SWAP7 0xD8 0xBC 0x28 0xB6 DUP8 0xF CALLDATASIZE 0xFC PUSH9 0x5E6509823ED5943390 GT 0xCB PUSH14 0xDE0E8F8D7CC1CC582E109542C42E PUSH25 0x79D5F2509059905ECE1BD8860E7C820343AA1B30461DF91EAE SWAP6 0x1E 0xEA PUSH9 0x62AE37A2A4392C5801 PUSH20 0x7849ADB507F0A3137699241517A3F1EBBB3A4809 RETURNDATASIZE RETURNDATACOPY MOD PUSH21 0x8B6704617F4CFFEEAB1A9C5B788923F7FE09A49874 SWAP14 0xD9 0xAC SWAP16 ORIGIN MSTORE8 0x2E PUSH0 SWAP2 PUSH32 0xA4593965B59FBD36E7644390BA01391B8379A4A204C1C29FD1D17CDE2A0DCCFC 0x2E PUSH14 0x40DE5187062A63A944A907D0D7BB PUSH15 0xB30533A3454057778ED3AF1B8F8915 SWAP13 PUSH24 0x20C893F3CB7A2A4CC3085DAFDAB413391192963D2D6F8A7 SHL PUSH30 0xF073AE26EAB905914AC7ACDB75527B816507BF5874F1B62510B138763C6 SWAP9 SHL 0x2E INVALID PUSH23 0x868B9464962FEB51DEECA8613AF2840C9A8DDC52577042 EXTCODEHASH COINBASE ADDMOD SWAP15 0xDC PUSH12 0x246BB276850C226ED5AE364E SWAP2 0xF8 BLOCKHASH 0xB7 0xBE EXP SWAP7 RETURNDATASIZE 0xDE PUSH31 0xA0A2BCB2F32EA644064B2F6A7A99B512977E15A4A74D0F72D1EBA14B0C87E9 0xB6 SELFBALANCE TIMESTAMP BYTE 0xAE 0xD7 0x25 PUSH3 0x744C14 BYTE CHAINID POP ADD CALL SWAP12 SDIV 0xDC CODESIZE LOG4 SWAP2 0xB2 BASEFEE 0xC9 PUSH31 0xC7920C03DA29E69D805DF6DAE9AD29C6B80ED2C6A0818F6E04BD3AA8E1A17B 0xD PUSH8 0xC6815FEEB8BFE9B3 0xA5 PUSH22 0xBDE437AB71141CB929C4998D91A32BAAE52FC164831F 0xF6 0xBD SLT SELFBALANCE 0x4C 0xD8 0xC9 GT DUP10 0xB6 SWAP16 0x1E DUP13 0xDB PUSH18 0x640C5BE902277C48337D1DB6B1FB81C89E86 DUP10 0xCB LT 0xB7 0xEE PUSH11 0xF8B9FC5975A730F6EB2DD8 CALLDATACOPY LOG4 PUSH16 0x2BA2EE8EA9442A9EEBD87ED57F594F04 0x4C PUSH25 0x60B39595EAE6CE4D0E119BC8B722E52FF60236302B2E6F4A13 SWAP16 ISZERO 0xE6 GASPRICE LOG0 PUSH5 0x1AE765F3E7 SHR ORIGIN 0xFB PUSH22 0x9D25214F618153620B583FBD2ABC2EEF9A26789F3B52 SWAP7 0xE9 SDIV MLOAD DUP8 PUSH27 0x37D362DC95013C611347B3D133ED9045BE2C36F8689A0120C4078D SLT 0xD8 0xCD 0x28 0xC0 MOD 0xBC PUSH2 0xDDA2 0x2F EXP SWAP6 MSIZE 0xEC 0xA7 0xCC PUSH22 0xDB51C369B05E74C952D5A8AE39B06ED01C8698F4D74D PC 0xDC 0xF 0xEE 0x28 KECCAK256 0x26 0xBC GT EXTCODECOPY 0xC2 MLOAD PC SIGNEXTEND 0xEA 0xB7 0xBF 0xBD 0xDF 0x22 MULMOD SDIV PUSH16 0xCE08C4E356B1A06F1BC9440D019AB06A CALLDATALOAD JUMPDEST 0xDB STATICCALL MLOAD 0xB1 0xE5 0xB8 SWAP16 0xA8 0xE1 0xA5 SWAP13 0xC3 0xED PUSH25 0xEFDEBF14CCCD425778A0F124C852FFD0BEC3EB73101770BF74 0xC9 AND PUSH13 0x2C319E247E5C5B8249EAD357AF NUMBER SLT SLT PUSH23 0x5C73A5A074F7EB1B6D2C28C7C6B2AB38D9C3B722B38D1 0xE1 0xC7 0xE3 CALLDATASIZE NOT DUP16 0x25 XOR CALLVALUE 0xBB SDIV BYTE 0xC6 PUSH12 0x2BF5D94722271108FF7809E0 0xC DUP12 0xA5 0xE6 0xD4 PUSH25 0x6D99E65953E3D828358BC8E9B03C31481E07909D86CC838649 0x4A LOG0 0xC6 0xB1 REVERT 0xDB PUSH15 0x83911200D2D5BF21309D93CA7E97B5 0x5D NUMBER 0xC9 CODECOPY PUSH16 0x92716FF1AD99B73DC929C566DE6C6C72 SHL 0xD0 BASEFEE ADDMOD PUSH7 0x6E4182C159D4CF 0xD3 SDIV 0xE1 0xF6 CREATE2 0xCF 0xE4 0xCE SWAP3 NUMBER 0xAB MSTORE8 DUP9 0xC2 0xA5 LOG0 0xAB PUSH21 0xB600E4BD5E28CFB007611BDA022F417D399841A00E SLOAD EXTCODESIZE EQ SMOD PUSH7 0x72113B21E9BDF4 SWAP5 0x2E 0xB3 0xFC SLT DUP2 0xDF DELEGATECALL SWAP5 ADDRESS 0xDB 0xC9 0xD0 PUSH21 0x8814312F5356A1024539516AE19E8B6EB6379421CC DUP4 0x24 RETURNDATASIZE 0xC2 0xB6 BLOCKHASH 0xAB 0xC1 PUSH19 0x8422276BA4AD24CAB39FC7D1EF6CF3D82FE82C SWAP16 DUP10 0xEF 0xAA PUSH28 0x5CFF4D9542E3250C36BF32561E274F8FA928DD3A8D11F4F76C36A4 0xCD 0xEB 0x5E PUSH5 0x20B886F895 NUMBER 0xB5 0x4F DIV SUB MULMOD SAR MLOAD 0xCD DUP9 DUP10 PUSH0 0xBD SSTORE 0xAE 0xA8 PUSH14 0x19DB8B89CFD55255F8030C0AA800 0x2F 0xB1 0x4F 0xB9 0xB4 INVALID 0xDA PUSH20 0x7C210D4289D62A014E4BDBF708AD21B53EF62D96 0x25 0xE7 SWAP12 PUSH17 0xD1EE02EB3F6C25BFAA7B9A4E1566B0FA70 0xC6 0xC0 0xCA SMOD 0x21 SWAP2 DUP10 PUSH25 0x38A3601F5834E4B1F3C4C2BE7D246854A9826812062CE203A9 0xF7 DUP2 DUP11 0xB8 DUP5 LOG0 ADDRESS PUSH12 0x3622121C37E25E942CEDBF3B 0xDB 0xD4 0xA5 EXTCODECOPY RETURN 0xCB CHAINID 0x28 LOG3 PUSH1 0x81 0xE1 DUP3 0x4A 0xA5 DUP4 0xAD 0xD4 0xBA 0xFC SWAP2 0xA6 0x2A 0xFB PUSH10 0x7DF29510DCE8C6D157E PUSH2 0x2B5E PUSH19 0x7779E8B3E7FD963468244BECB827B928E70C1E 0x2E 0xA6 LOG0 0x1E SELFBALANCE 0xE3 0xCF PUSH4 0xE6BBF4FB BASEFEE EXP LT PUSH11 0xE94BF1B7711FA98C010B9E JUMPDEST 0xD PUSH7 0x70F5A24582A747 0xE1 0xD1 0xAE 0x1E 0xE DUP14 0xA6 RETURNDATASIZE PUSH30 0x202210D96DD5078FA58ECCD43E361FE26476A17C1DDA8D2D1B630CCD263E 0xCD JUMP PREVRANDAO MSTORE SWAP11 0xFC RETURNDATACOPY 0x29 PUSH20 0xF6961FF3F8712627464F05A8EBB85E8E46559961 0x4C 0xED PUSH28 0xEC41FCDA74EC9F51AE39C392672BC7242AB9A6D1C669A478CEB584E3 0xBC PUSH15 0x1635E3202EC53CBB6F3CC42BBFD765 SWAP7 SMOD 0xC0 0xD 0xD6 RETURNDATACOPY OR SWAP3 0x2E 0x2E SWAP6 0x5C CODESIZE 0xD4 PUSH20 0x47FD269336D27CB9B9C7A3218C3808507BBC994D NOT MSIZE GASPRICE CALLER POP 0xD5 PUSH1 0x45 SWAP9 MSTORE8 0xC SWAP4 CALLDATASIZE 0x2E 0x28 CALLDATASIZE 0xF9 0xF PUSH30 0xAA675F73B40BC04D67B0625E3D1682034112BE41166846A800DEC3F04DC4 PUSH0 PUSH25 0x78BD2C5493E443F44EFC5C08AF0828E223EE37C2D4DFA133C8 0xDF PUSH21 0x7C3DDD415DA67E911F2F5CB609A58DF64BD0127BFD SLOAD SWAP15 0x5E DUP14 0xCF 0x4B 0x22 0x29 OR ISZERO CALLCODE 0xAD JUMP PUSH9 0xCD6C711C2A39C3FFEB 0xE9 ORIGIN NUMBER 0xDF BLOCKHASH 0xB0 0xD 0xC2 0xC6 ISZERO SWAP6 0xD6 MUL DELEGATECALL 0xF7 0xB0 GASPRICE 0xF6 0xA9 NOT 0x26 CODECOPY JUMP 0xB5 SWAP5 EXTCODECOPY 0xB3 CREATE2 0xF8 SWAP1 0xBD 0xE7 0xD 0xE7 CALLER PUSH3 0x338712 PUSH20 0xF3665D807E7209EB64729EA54EA6C825CD711A8F XOR DUP11 PUSH29 0x8DBFD0626E74A40BFDA4E183722FAF414237FA9ED12319FB5EE54D43AB SWAP6 0x5E STOP GASLIMIT CODESIZE ADD SWAP9 0x2D 0xB9 PUSH17 0x16FEA2E34746AFB310849831A045EAA63D LOG4 PUSH21 0x4F1C2B576A49F12273F48CE5D311264FA5D1E44469 PUSH8 0xB2178473890CC925 0x2E 0xD1 MUL 0xC5 0xDB PUSH13 0x56368A0987C6FFBB7519546A16 AND 0xAC 0xA8 CALLCODE SMOD 0xE8 PUSH22 0xEBF37977F96C1DFA32DDF16D7EADED9047AB15142F19 MSTORE8 0xBC 0xAA 0xD2 0xE1 GASLIMIT 0xCB 0x2A PUSH22 0x9CDD65EB7CF493B281B71B0FAA6010E30A38B5127519 0x2F 0xDB 0x1E RETURN GT CALLDATALOAD SUB 0xA9 0xDB PUSH9 0x8B32A0B79F3A8125D7 SWAP7 PUSH28 0x3962373FB886332A135F7706D774B685F236C190A046EC7FC6147A84 0x26 SMOD SWAP5 0xC5 NUMBER 0x23 0xC 0x4D EXTCODEHASH SWAP1 0xCC MULMOD SAR 0xE PUSH1 0x2C 0xB5 0xB7 PUSH16 0x44713C49CC24CB3E1715BA081787296B SWAP5 0xDB 0xE2 GAS 0xB5 PUSH24 0x42EBF6553DF405159D91BD6A0A9C639B0CC27CC39DAE457F GASLIMIT 0x22 0x5C 0x4B 0xB5 SLOAD 0x26 0x4A 0xF8 0xE2 0x29 0xA5 0x25 0x24 GT POP ADD 0xB9 0xE8 0xD8 0xB1 CHAINID EXTCODECOPY 0xD8 PUSH11 0x16C3610F87FC2A10F63BD 0xFC 0xC0 0xC STATICCALL SWAP10 CALLDATALOAD GASPRICE 0x4C BYTE MSTORE SLT SSTORE CALLDATACOPY 0xCF PUSH1 0x72 PUSH2 0x5205 0xC3 DUP1 GASLIMIT 0xB8 0xAD BALANCE 0xD1 SSTORE 0xBD 0xD8 0xAC 0xF8 0xC PUSH30 0xC627A7506E642A177C2E83916C6303325ED9513361098830271102AC5DBF 0x28 0x5E 0x26 GASLIMIT SWAP2 0x5E 0xED 0xA7 PUSH27 0x56931CE67DD1EDCAAC1B03358EB6B2AD3780BD1CD201B91D4BB2E6 SUB 0xE0 SLT PUSH26 0x351FD10F6023308217B2764EB38CF098E1C6C012990E188AF207 ADDRESS PC PUSH19 0x92407996A3931169ABB3CF5BEC07393AD7585C 0xEE 0xE7 DUP8 MLOAD 0xFB CREATE2 SELFDESTRUCT TIMESTAMP 0x49 ADD PUSH20 0x7AB76642AA52BC9F296B6C4E7849D8A1DC8FAC95 DELEGATECALL DUP16 0xDB DUP13 PUSH19 0x807D23A5F2C03978154FD39761DC221EA1E1DA 0xB1 CHAINID ORIGIN SIGNEXTEND 0xEB INVALID GASPRICE ADD DUP4 DUP7 GT ORIGIN 0xEA SGT 0xAC 0xF7 SWAP6 PUSH32 0x9A66F2E61D3B12CEA7F31255C43AF69BE48744C759DE67F363030B809EA5BE5D 0xE7 SMOD SLOAD 0x5D 0x1F 0x29 0xDB 0xFC 0xD2 PUSH19 0x110B2F7AC7D7B3F94893762FCA13700B74CEC6 SWAP2 0xBC JUMPI 0xD2 AND 0xBA DIV 0xE9 SWAP3 0xBD 0xD 0xC9 SELFBALANCE MOD MSTORE 0xC5 0xB2 0xBA PUSH28 0x972DD68BF8C271556B57AD4521C067A072D75EE09268562CEA9D1E6D 0xB4 0xB3 0xE0 XOR PUSH0 0x2A 0xDD 0xD 0x49 0xD6 0xE AND AND DUP13 0x2F RETURNDATACOPY 0xA9 0x1E 0x2C 0xB0 JUMP PUSH25 0xF2C9D9ABE232B3400A96B6EED42E7041C98BAA152253971225 CALLDATACOPY DUP11 0xC4 0xCD SWAP6 DUP10 0xC8 0xC 0xEA 0x28 0xC0 PUSH12 0x5706782650EF83382C54CCFA 0xBA STATICCALL 0xEC DUP1 SWAP7 0xC5 NOT 0xAB JUMP PUSH17 0xC7D4DEA2535C64DB2B7DFCB5531664DBFA CREATE DELEGATECALL 0x5D PUSH13 0xE2782683F87E6C9E9B7176F085 GT 0xAC AND PUSH4 0x869ADF93 CALLDATACOPY 0xEE CREATE 0x21 0x2A 0xE8 SWAP1 PUSH24 0x61700BDEA4B480F20F788DD08CA4126DCF4EA462E890F302 PUSH4 0x44760E50 0xA7 0x4C CALL GASPRICE SWAP16 0x5C RETURNDATACOPY 0xAC CALLER LOG3 DUP13 PUSH16 0x9E8D3C2638BEE309A4180AFD6097C527 PUSH7 0xE41377037809E6 SWAP1 0x22 0x2F SWAP11 0xFC 0xA6 0xE1 0xEE CODECOPY 0xBA SWAP6 DUP5 PUSH12 0xBE912379A938F6FFCB493F5C 0xBC 0x2F DUP8 0xAE 0x4A GAS JUMP 0x4F PUSH26 0x5B6078C1E1511C63404183176BFC6F03EC587766D8868CEC0787 MOD CALLCODE GASPRICE PUSH19 0x811EFCAC3F7CD3A6CC38973D57ADBF99BB615D DUP15 CALLDATASIZE 0x4D 0x4C POP 0xC9 CALLDATALOAD 0x2F DIV PC 0xA9 0x2E XOR DUP2 PUSH24 0xE4BCE9F874DC537AAD6CD91252F12B862FD0A167A95E41C9 MUL SMOD CREATE 0xA7 0x2E TIMESTAMP SUB PUSH5 0x482932D911 PUSH32 0x37989FD77FF9721943ED566B65624A02CA8A10CEE567471A2B01CFA286F30957 SGT SELFDESTRUCT 0xE5 DUP6 0x5C MOD CALL PUSH18 0x58E33E9EBFDC1C792A88239EA34B3E8A5D1D 0x26 MSIZE SWAP16 0xCF GASLIMIT CALLDATALOAD CALLDATACOPY 0xFB AND 0xA9 0x1F SWAP6 KECCAK256 BALANCE PUSH27 0x1C7DE1BB5A768D72509B3A1BB0C0BE55876C4B91957B7E8641265 0x4B CALLCODE PUSH19 0xB7B9C52F2217E9713C7DCC2CEA70065CB1BF0B PUSH9 0xC86A3592A5134384BE DUP12 LT 0xDE STOP 0x4C BALANCE 0x23 EXTCODESIZE PUSH25 0x3577694DC613AA1864F9D5017A46CB107BE441F821A85315B7 SWAP16 CODECOPY SWAP7 DUP14 PUSH5 0x7F343A2C6 NOT SWAP9 STOP SDIV CALLCODE PUSH25 0xBAE49A9A15A54132C50388E69F4211CEDDEE99195F07736B50 0x2F 0xAD 0xEE SUB MUL 0xA7 DUP7 0xD7 SWAP13 0x25 LOG2 0xBE 0x29 PUSH31 0xDD39EAEE413DC553146FF7D83BBBB8BC71447B66052EAF36A4DAE40401CFA5 PUSH18 0xB55AD8B5FBCED37E67860085BC6AFC5412D8 MULMOD 0xCE DUP11 AND PUSH14 0x4B67DEBDF8E674BD6074BF67031 0xD3 0xB4 0xC5 PC PUSH5 0x7DC4A3C544 RETURNDATACOPY 0xBA 0x23 ADDMOD PUSH7 0x83232F97FA7F39 SGT 0x23 0xE0 PUSH7 0x175FEB3572AED6 0xC CALLVALUE EXTCODECOPY RETURNDATACOPY EXTCODECOPY GT 0xED ADDRESS SWAP13 STOP SELFDESTRUCT LOG2 SWAP13 0xDD CALLDATACOPY KECCAK256 SWAP16 0xBB 0xEE CODESIZE CALLCODE 0xDD 0xA9 0xC1 SWAP9 CHAINID PC STATICCALL 0x4A 0xB5 PUSH26 0x4A3A5FD19DA7613C554CEE69DB7A51D50271F86B9BC2D6EC259D 0xE0 SLOAD SHL 0xAD DUP14 KECCAK256 PUSH17 0x75DD0547401A7DE8A0B1DAA2667E6427DF 0x2B ADD 0xC1 SIGNEXTEND CREATE2 PUSH12 0x288B324AC4CEF462DFEFEBD9 0x27 BLOCKHASH 0xE7 0x21 PUSH12 0x15EB1A85B182E30B61EB77F4 0x2C 0x4E 0xFC SIGNEXTEND ISZERO SGT 0xD4 DUP7 0xDE PUSH4 0xD1023F31 PUSH10 0xE5E76C3BBED64B4CA350 0xE9 PUSH5 0x1FF842CD59 PUSH24 0x8FB6C75D197511F3158ECAC8FAFD21DB5FA652725BE43458 0xF 0xF9 0x21 MULMOD 0x5E PUSH15 0xEFDDA8F7648172826E435E08A93109 0xB1 CREATE BLOCKHASH 0xD8 DUP15 0xC1 0xB0 SHR 0xE3 0xE2 0xDF 0xA5 SWAP3 MUL PUSH21 0x6D05612699C335D4031F388561FA2C6B3A4C224DF7 COINBASE BLOCKHASH 0xC5 DUP13 0x5D 0xD7 CODECOPY EQ MSIZE XOR 0x24 0x27 REVERT 0xF7 0xEC SIGNEXTEND DUP13 GAS PUSH17 0x3E3AE6C19D8DA47804A75D62BA4A1F8CE XOR CALLDATALOAD 0xD7 0xEB PUSH7 0xDCFAD648630A6 SUB PUSH19 0x41A73AF244B1612EB375D852712A10182E1339 0xD1 PUSH23 0x471F24611B2E7AAD1A1FBA1F1EB3193A87A0261E98DBE7 PUSH32 0xB30944EDC6EF5726ACDA2DF51DF9C66F51695783648873BC167BC8199AFDCF98 0xA6 LOG3 SWAP14 0xFC EQ SWAP4 CALLDATASIZE CALLVALUE 0xCC 0x25 STOP 0xBA DUP6 LOG4 0xD7 JUMPI 0xB2 0xBB 0x24 CALLCODE PUSH9 0x6C8FC2B20D23F68ECC JUMPDEST 0xBD DUP9 SWAP14 PUSH17 0xDB8222F9C94EEB2A615FC377BD707E1D29 PUSH30 0xF70F60076D184EA30144439D2A02827CCC4B74D6D5083FF5F9B4474040E1 0xDB SWAP6 0xE7 0xDD 0x4A 0xC0 DUP12 0xC4 SWAP16 0xD CREATE2 0xE0 0x4B AND ADD 0xE5 BALANCE ADDMOD PUSH27 0x66E1A9A009736EB920F83DA4D3D81D49A3D16A2718B7AF21F590D1 KECCAK256 0xAC JUMPI PUSH22 0xD56E87966717C8DD6F1CF33271C97CED9829C0500A83 MSTORE8 0xD9 0x22 LOG4 0xEE CALLDATASIZE 0xCD 0x2A PUSH5 0xE8EF99DB06 0xB0 0x2B 0x4F 0xE1 RETURNDATACOPY MOD 0xCB 0xC8 0xE9 CREATE 0xFB STOP PUSH32 0x7FEB24277FEF8CE8403846D681B8B77C7FE85CA42DF40A5F7F4555887344C54F 0xDC 0xCA 0x24 0xD SWAP15 SLT KECCAK256 0xC9 0xDF DUP11 ADDRESS PUSH0 0x4A PUSH15 0xD0B5FCF3258C26E306F7F4400A8B46 PUSH11 0x46F73B1BB30628E8F53AE1 DUP4 OR SWAP11 DUP10 0xEA MULMOD 0xBC 0xAB BYTE 0xBE DUP13 NOT SUB LOG2 SWAP3 0xE8 SAR 0xB1 ADDMOD 0xE9 0xAF 0x23 0xCD SHR PUSH19 0x49087803195EF86AF9D7AEF43F671BBE28D505 0xC9 0x2B MLOAD PUSH8 0xE06202018A4B1C48 0x2D 0xDE PREVRANDAO DUP7 DIV PUSH26 0x3A2B6D734C3A59F599B457794F109890A7F2FCB50131C7E510FA CALL OR 0xDA 0x23 CALLVALUE 0x4B PUSH15 0x50403670B103E8B1B0FEA27F1FB697 PUSH29 0x76473F7A1D148B69A5526768AC7032CE91F0E138973B3E4D30745FDF22 DUP5 PUSH13 0x8FC4704252020B4A141726EF71 EXTCODEHASH 0x5E 0xDA PUSH1 0x5D 0xED DUP2 DUP15 0xE6 SWAP14 LT EQ SWAP1 0xD5 0xA8 0xB6 SMOD SWAP12 SHL 0xC5 ISZERO DUP4 DUP16 BYTE 0xD8 CALLDATALOAD 0xD8 PUSH23 0x23ADEF3B1673CA9735AB72D8FC938E206A524E5820D47A PUSH8 0x5B313CD4B857527F RETURNDATACOPY PUSH14 0xDD2B5646E5FD9F206AAD5BCFAAE6 0xCB MULMOD PC 0xE6 MOD 0x4E PUSH26 0xC61F6D53A00688E7F217A0C8579BA3DAF9D4DF5DEC16F013A124 COINBASE EXTCODEHASH ISZERO 0x23 DUP4 0xC6 0xF7 0x5C BYTE CODECOPY 0x2E PUSH15 0x1375277F1130C2274D8668773ADDB7 DUP4 KECCAK256 PUSH29 0xF58CF4C0B61FC40E1150F35476075A72E0EE5366FB0655CF4A0497D1F4 0xE0 PUSH9 0xE5DF2AD7299205C9DF RETURN 0x2C 0x5C DUP4 PUSH8 0x5EEDFCE89D2270AE BALANCE ISZERO 0xD2 0xCE SWAP9 0xDD PUSH29 0xBE37603BCE52504E8022DE7321EF7D49D583634074D556FB103ED40B53 SSTORE 0xA6 EQ JUMPI 0xE7 SDIV JUMPDEST 0x22 XOR 0xFC PUSH3 0xE269D STOP PUSH0 STOP PUSH30 0x6B2F3E7BA54CD6A2BEB190223080A1FD94230F409AB223C5B7940C5E61CD STATICCALL 0xBE 0x2E 0xB8 XOR DUP16 PUSH17 0xCAC4D7B7CDEED9B964792D7DFB6FC0B228 0xA7 0x27 0xE SLOAD 0x2A PC PUSH11 0x34C5B50461B05614CBF3CE 0x22 DUP13 SGT SDIV 0x22 MLOAD CALLDATACOPY SWAP4 0xEC 0x26 EXTCODEHASH SWAP11 STATICCALL SWAP7 0xE2 EXTCODEHASH 0x4E GAS 0x25 0xCC RETURN ADD PUSH9 0xE9EF4FD1CB902C95CA DUP14 PUSH8 0xA13580DD07994094 0xB2 0x21 PUSH17 0x8F8C7D6797107DFA97FD9047FAE9CF80F4 DUP12 KECCAK256 PUSH9 0x84949B324E4AB03212 RETURN 0x29 DUP13 BASEFEE XOR SWAP9 PUSH23 0x961CFF7A1FCB4F40C410CEB353CB8AB907A0F6B2821DBF DUP3 PUSH23 0x6EC762967BA2394420B8533E0AB744D5DB86E30A3E73A8 SIGNEXTEND 0xF6 0x21 LOG2 0xB5 0xD8 SSTORE JUMPDEST 0xF 0xC4 AND CODESIZE SWAP14 0x5C CREATE2 ORIGIN PUSH6 0xC9D9B203B72 0xE7 DUP9 PUSH32 0xBC30AC7978146860EA4AA1FF0D96DCA2C65666304CACBB1B84D4AFA11231F3A4 LOG3 0xC6 0x2A STOP 0x29 LOG3 SWAP16 0x5E LOG3 SAR SWAP1 PUSH27 0x92070494990427E7CA6F8814107581EDE64E20DCE54FFFBC6443CE 0xC3 0xCA SHR 0xB0 SDIV 0x4C MLOAD TIMESTAMP XOR PUSH29 0xD21BCB166B7916737E84151E0282876E43177C3830524E3B6AC2EAB243 LOG0 PUSH8 0xDE3319F8D0B8B42B LOG3 EXTCODECOPY 0xAD 0xC4 CALL PUSH25 0x7F00A8A107C76E563325B43A6646961320196DBFC00C4F22DA 0x2A 0xD6 0xE0 PUSH30 0xEFCB0C49B161FE87DF3CFD5EB9A824FD772A69712E947B3B1CFB21D40B96 CALLCODE DUP1 0xC9 PUSH24 0xD717EB22A136EC5D2830FD84AFB5096CEF17868A451961BB DUP5 PUSH8 0x2CB182B3ACE6BE4F SWAP4 NOT 0xB6 0x5C 0x2A 0xE1 0xE6 PUSH19 0xD5A27B5FDF78973FEE79C7BD09C81AEE019E15 0xE RETURNDATASIZE SWAP10 0x2F MLOAD PUSH22 0xDD609D7B7468A978428A5BBF291B77F900D1C682CBA1 0xBF 0x2C DIV RETURN 0xDB SWAP4 0xC0 DUP8 0xD 0xB5 LOG4 CODECOPY 0xE9 SELFDESTRUCT 0xF 0x2A 0xC6 0x5D NOT 0xED 0xDA BALANCE 0xF6 0xBF PUSH5 0xE9F827516B EXTCODEHASH PUSH9 0xE72E6C4CE5C33D2F1D STOP 0xD4 0xC7 0xC6 SWAP2 0xE5 0xD3 SWAP14 INVALID LOG1 0xC0 0xEB MSIZE 0xD 0xE7 PUSH24 0xE5FE64365545646F01879179E76AED29E2392A6DF0AC85EA PUSH11 0x285E0D3A1112E8593C23C3 0xE3 RETURNDATASIZE CREATE2 LOG2 ADDMOD PUSH10 0x75BBB71F10A74A76F43B 0xCB STOP CALLDATALOAD BASEFEE XOR PUSH1 0xC6 SELFBALANCE DUP16 0x23 INVALID SWAP2 0x4D DELEGATECALL 0x49 0xB5 0xE JUMP 0xC4 SWAP3 0x2C PUSH16 0xEB5C47AD32B1054C98E31DF1659881F8 DUP5 SWAP4 SWAP6 CALLDATASIZE SWAP7 SHL 0xED 0xEF 0xF8 0xCF 0xBB PUSH15 0x12820549855C647DCDF03D05C6A490 0xD5 SLOAD LT SWAP9 0xD6 0xD8 EXTCODESIZE 0xAE PUSH30 0xA0112A822E0ABCECE25020F9C4E3FCFA0D305A923E4FB0D9EF583CB141DE 0xBF 0xEB SWAP4 SHR SWAP1 SWAP15 CALL 0xD4 REVERT 0xF6 0xEA 0xC9 SDIV LOG3 0xB3 PUSH7 0x3E889C49EB5920 0xE7 PUSH10 0xBBFE9F9DFC905554300B 0xB2 0xB4 0x28 0x5C PUSH11 0x5889B2741F9E528D112BD8 LOG0 MSIZE 0xEA 0xA5 LT 0xCB 0xD9 0xA7 GASLIMIT DUP6 SWAP9 0xD2 PUSH24 0x75BCF6D851A0D359EBB81DEC011469A48978D7076FCA2AF2 DUP13 MSIZE PUSH26 0x2502DD9DFAFD8198891EC51EACE408F26B164C3F0507F0A41247 0xBA SWAP13 0xC3 SMOD 0xB4 0xB9 0x4B RETURNDATASIZE EXTCODEHASH 0x5D JUMP PC 0x4E SWAP9 JUMPI 0xAB SWAP11 PUSH3 0x171FD1 LOG4 SWAP6 0x22 PUSH22 0x11480052B638116E221C76D0F32004F3B18905CC8BB2 SIGNEXTEND REVERT LOG3 0xF7 DUP14 LOG0 0xB8 CREATE2 BYTE SWAP4 0xB9 PUSH0 DUP1 0xB8 0x4B PUSH24 0xB1C52BE3E7D00588B0BA9D3E4259080B42C95B31B541473 0x2F DUP4 STOP 0x2E 0xD3 0x1E 0xAC LOG2 MSTORE8 OR PUSH7 0xA09552EB1667A9 COINBASE SWAP2 SWAP3 0xCA CALLER JUMPDEST ADDMOD 0xD9 CALLDATASIZE SWAP4 0xE5 PC 0x4A 0xBC 0xF 0xEC 0xCD 0xB5 CALLER GASLIMIT 0xBD 0xAE PUSH20 0x49C42B119570C762F1F5497EAF898E4BA2D378D9 0xD8 0xD2 0xD XOR 0xD0 SAR CODESIZE 0xCB PUSH11 0xC78D93961C1ECBFAADD4B0 0xCF SWAP10 SWAP12 SWAP8 0x2C 0xE4 SWAP1 0xC 0xEE SWAP16 0xAA 0xCD 0xF8 0x29 DUP11 0x1F BALANCE 0xCE STATICCALL SSTORE CREATE2 0xF9 ADDRESS 0xD1 0x49 0xB6 EXTCODESIZE PUSH27 0x33E385A688AA8A4FF3FF8D88E501DD7466B4751A02607DC91FD27E 0xBB MOD PUSH12 0x51F8DCA8D64DEC062D3F8EA6 LOG3 0xE2 DUP6 SWAP14 SGT SWAP13 OR 0xE9 CALLCODE 0x25 0xBC 0xE5 0xF6 0xC CREATE2 0xC7 0x2F 0xE5 DUP12 MLOAD NOT DUP4 0xC0 PUSH8 0xECAB88071786FEB4 0xF6 0xCF DUP4 0xE1 0xB5 0xAC CALLDATALOAD DUP8 DUP15 NOT SWAP15 0xA7 0xD2 CHAINID PUSH31 0xA66B53853F7BA20A91BB44A4A5F621404375051CBAC31997A3661641E4CE35 0xBE 0xB4 0x4E RETURNDATASIZE STOP REVERT SWAP12 PUSH27 0x3BD47E118FCB21C62281B148DFE4097C147E11227CF6075DBC7987 0xEB 0xCE PC PUSH18 0x1ED50E2B6A94C1478DB414A834345CB2B5C2 SHR 0xB5 0x25 0x2B 0xDF SWAP4 0xE4 0xBC 0x24 0xD6 CODECOPY 0xE1 0xEB 0xD8 SDIV POP STOP 0x1F 0xA9 0xAA 0x1E PUSH30 0x6ABCBA326C2B2FEADE8FD8D90D98245785A60FAADBC0C044B2E2E0AC808E AND INVALID 0xC6 SIGNEXTEND EXTCODESIZE PUSH20 0xBAEDD29ACEE1A34418A77190DDB42DD8BE0F0172 PUSH30 0x46FAA6E2F1EFD9704D30F9A969470E4DA9840714F25459703BDA113AA3C2 DUP2 0x2D DUP5 0x1E SDIV EXTCODESIZE 0x5C ADDMOD 0xCF 0xDD 0x2D DUP14 SWAP3 0xEF PUSH27 0xBB685E53D211B7DEDFAE2EE1A8C3EC8D9AC7E35F291D4793E4BF0 MLOAD ISZERO 0xA7 0xEB PUSH28 0xCC164A1F53D80F03CBD30FB82D7807479517B4E29B3DA4950B96A023 LOG3 BALANCE 0xE5 0x2C PUSH19 0x1C66F5E2292BB6D910684EB13C86F172F66F59 LOG0 SWAP4 0xF8 LOG0 MUL CALLER EXTCODECOPY DUP8 PUSH8 0xBD594CEB63E9C6A2 0xC4 0x1F ORIGIN 0xB4 DUP5 PUSH25 0x58F72BC734DF639C032604AE71FF65AFBBDCF42ACC7EC195F3 LOG3 SWAP13 0x2A 0xF BYTE 0xDF PUSH3 0x30DE39 SWAP6 0xBC 0xE0 0x23 0xCD 0xFC PUSH11 0xF1E85D9121F84DE4A34B9C PUSH32 0xC4FF920C7617FA977E81DAC861E637D8D9E4636487AFA55618F35F7455AF8321 0xF8 0xD6 0xD5 0xD PUSH15 0x9F9221E154AD381A5B58D1C8771BE 0x1F SELFBALANCE RETURN 0xAA 0xE8 0xA9 PUSH23 0x9151CD84C1434FABCB9B0EA204DBFBD3E404128C8252D6 SMOD AND SWAP15 CREATE2 ADDRESS JUMPDEST 0xB1 0x2A MSIZE 0xE4 0x4A 0xC4 0xBE SWAP2 SELFBALANCE SDIV GAS PUSH16 0x200D2547A25E17E027BDA4423048F3C6 0xC5 SWAP6 0xD6 0xF8 BALANCE 0x24 PUSH23 0x7DA34E0E4B96C26F5C940CBD5F2D0CEA7678B80AEED4B0 0xDE PUSH25 0x259C86A2C207DC0F28FCBE22A1252E5D3C1A9B6C59C30E6D1E EXTCODECOPY 0x5E STATICCALL 0xE2 PUSH27 0xCC27E9B7BD23AF3DD7963A0AA8361B4DF2F24312B6C60FBF4CD948 ADD ADDRESS SMOD GT BALANCE SWAP7 0xF6 0xAC OR NUMBER STATICCALL PUSH31 0x5EA98B243DE8DCD13C1E74D81754B2B575981673E3D30C65DDAD7F120E97AA 0x29 DUP2 DUP5 PUSH25 0xEB56702759F4B78F822764D40D5E2BDD09263E2B6E6E9FFE9A 0xC9 CALLDATALOAD 0xAB PUSH8 0xE9DB1F40A1021184 MULMOD 0xDC SWAP10 0xA6 0x23 0xDF 0xE2 ADDMOD DUP5 SWAP7 CALLVALUE SWAP4 SWAP2 PUSH5 0x215AF8831F DUP14 0xEE 0x4C EXTCODECOPY EXP 0xE3 PUSH14 0x54691C9C8389211C2CE04645153 0xC8 PUSH9 0x372F37D106C5C4BFBA 0x4E 0x2F PUSH20 0x309D53390894A6B2338810DA3F0D103E33717F00 0xCA 0xDD 0xC1 ADDMOD ORIGIN CALLDATALOAD PUSH21 0xDE85C6887720561AD0C9946BC510BD3954AD4D2644 PUSH2 0xFB0D 0x2D 0xEA SUB 0xB8 ISZERO SWAP7 SWAP15 SHL 0x2B 0xBE 0xB9 SWAP6 0xD3 0xF PUSH24 0x4FA49411323D20EA4F4F1652161A104AD60C9B35EF38783A SWAP16 SWAP6 SHL 0xD9 PUSH10 0xE107846AFFC11754708B PUSH10 0x4168AB9922AE691ABDEA GAS 0xC8 CALL 0x2F SWAP1 LOG1 LOG1 SELFBALANCE 0xB5 0xAC PUSH4 0x88F4C3D 0xE3 0x2E DUP2 0xD3 DUP15 PUSH26 0xA93612D9F91286D17DC13DCABF49975E2A37743D997EBC56D11B PUSH18 0xC2E430890EB9FB7C7D3B1411153DB0712935 DUP13 SWAP15 0xBF 0xD8 0x49 0xD1 LOG1 0x2D 0xE7 SELFDESTRUCT CODECOPY 0xEC GASLIMIT DUP12 PUSH2 0x6A3E PUSH9 0x85BEE7114F7A0A98B9 SWAP7 PUSH9 0x1AFA7F3A7EA25FC6D9 CALLCODE 0xB4 DUP11 0xF7 0xC5 0xD8 0xC8 0xDB 0xD SSTORE DUP10 0x2B 0xB6 PREVRANDAO PUSH2 0x752F SWAP4 0x28 CODESIZE 0xA6 0xC 0xC9 0xAA DUP8 OR DELEGATECALL ADDRESS DUP15 PUSH1 0x74 SWAP10 PUSH12 0x7B71F077A1FD9D8353AF5C08 PUSH11 0xEBED16B70CA94104744857 0x2C SWAP5 PUSH27 0x8308B479F74524A74C384D926E4BE36E8068BC635DF62ECA6B343A PUSH27 0x210D0D33C3B4AF4A7ABBC05FE1E9BB5F05D813C4B345F87D92731A SSTORE PUSH0 0xDC MUL 0x23 SWAP15 PUSH5 0xE699A0452F DUP7 0xCF BASEFEE DUP10 PUSH29 0xA897335CE11E771A7023596868E32FAC0DC1FE2D940E1F4F616AC0EBBE 0x2A RETURNDATASIZE MULMOD 0xAF 0xE8 0x1E 0xB7 0xD3 SWAP14 0xC4 CREATE SAR 0xB8 0xFC PUSH2 0x36A 0xF 0xE3 GAS 0xE3 SWAP6 0xAD 0xCF JUMPDEST 0xC2 LOG3 0x28 0x4D PUSH0 0xA8 DUP8 ADD 0x4D 0xCB PUSH16 0x5249F5E12A4844FD2767D4141080379 SDIV 0xD1 0x1E DUP7 0xA5 0xA9 0xD3 0xB0 EXTCODECOPY 0xBE ADDRESS SWAP5 0xE9 CHAINID DUP14 EXTCODEHASH 0xB3 0xC1 LOG2 SMOD CODESIZE 0xC0 DUP9 PUSH24 0x269A69147E1F79D21604DCFB2CA75A44E38AA87CF8F3F56F PUSH4 0x9C8501D3 CALLDATASIZE CALLCODE 0xE7 0x2A DUP8 BASEFEE PUSH7 0x9520898E9F4EAB PUSH28 0xF918E10B9FC35A024F4D0578C0E46463CBF360606FA47ADE409B993 PUSH19 0xD699342F4C7E3C807A133EE3BE1C92422CF2F0 0xE5 0x49 0x21 CALLDATASIZE 0xE8 ISZERO MOD LT COINBASE EQ 0x2A 0xD7 PUSH30 0x8E80C9A778BC04E8A62E550908C55974693603D8670BF9205553BF7F22F3 LOG3 BYTE LOG3 0xF9 RETURN 0xC0 BLOCKHASH DIV DUP14 CALLCODE PUSH24 0x10A8E485049ABFABB71B51CBBD87126E83CF2403459743B0 0xCA DUP3 LOG0 DUP1 EQ ISZERO 0xEA AND SIGNEXTEND 0xAD SWAP14 ORIGIN PUSH9 0x88DB19EA8B86BBCFAC 0xB4 DUP11 0xC3 0xC4 SLT DIV SWAP2 0xB8 SWAP4 SWAP14 SMOD CREATE SMOD 0x4C PREVRANDAO 0x4E 0xE0 0x2F PUSH26 0x917F5DED067D7E0529B0437B71FE6355170E2BCF73774C5976AC 0xFB 0xC9 SWAP12 GT AND CODESIZE 0x4B GT SWAP4 SIGNEXTEND 0xCA PUSH2 0x87DA 0xC5 0xE6 PUSH3 0xBB9250 BASEFEE PUSH32 0x845244615CB6C1B8F74AAD86D9F900CEFF74EE731A9DFFEBC26096A1E6A7726 DUP1 0xF7 SGT 0xD9 PUSH5 0x52A6838856 0xD4 0x29 SWAP9 PUSH3 0x7803EE 0x2F GT 0xB5 0xC9 0x2A 0xEF 0xE2 CALLER SELFBALANCE 0xDC 0xA7 PUSH15 0x56925AF421EBDC1084EBFF25636EE 0xCB 0x49 PUSH26 0xBAE3EF273BF07F263DB1AB126CD0AE2EFCD17E262A259618E7EB 0xBC 0x22 PUSH30 0x2834CCD1106EECBDFD16DD9AE0591ED64166F06C1BB101CA18EDA5F2EBB5 SGT 0xCB 0xBE 0xE5 PUSH24 0xB5E3BB8AE3F3A1022A5E47E08A06B8FC708A772284C84A00 PC XOR MOD AND DUP9 INVALID GASLIMIT SELFDESTRUCT CALLDATACOPY 0xD6 STATICCALL 0x24 0xB4 0xF9 SWAP6 DUP8 0xFC 0x5E SWAP11 SLT ADDMOD 0xB3 0xED DELEGATECALL 0xD0 PUSH1 0xD0 0xC 0xFC 0xF SWAP2 DUP12 PUSH20 0x9604150598B74B981255A70D772A67F23F51C342 SLT SWAP6 DUP12 GASLIMIT LOG0 CALLDATALOAD 0x25 CALLDATACOPY 0xC9 PUSH5 0xC421601B62 PUSH25 0x7E6EB7307B99A9D6EEFD0286F927FB25F22E7E9EAF951E3031 0xE CHAINID MOD 0xC2 0x28 0xE2 CREATE2 0xC3 0xDF RETURNDATACOPY 0xEA MUL GASLIMIT PUSH28 0xB4777AF8546FB61BB1434221D998840F5CAAB9C8ADA0B5A094DD9129 0xEE 0xA5 TIMESTAMP SHR SGT KECCAK256 0xAE PUSH27 0x666B56C960BE0DD4C1EDDC1DD1DEF16E2A0FFC68A449BE9D160B00 0xCA CALLDATALOAD MSIZE SWAP15 PUSH27 0xD7CD1AFDAE000CBC76DEA82AE0EB79A34FA9A3C73BD9F1ECA8731A 0xEA SWAP2 EXTCODECOPY 0xA7 0xD1 CODESIZE SWAP6 DUP11 ORIGIN 0xC0 SWAP13 SHR MSTORE SAR 0xF6 LOG2 0x28 SELFDESTRUCT PUSH9 0x9E68FDC639C1901196 DIV 0xC9 DUP11 XOR GASLIMIT DUP1 PUSH11 0x317AF901568EC8DC475939 ISZERO CALL SHL 0xD5 0xA5 DUP7 0xF SWAP4 POP 0xE CODECOPY CALLDATALOAD ISZERO KECCAK256 0xDA PUSH0 MULMOD 0x5E 0xC6 SSTORE PUSH32 0x54E0D5628FE9CF1A20D52C426C021F0968BCEFD07AC634D7E6E02D45EB6AFA85 0xD2 DUP12 ADDRESS PUSH32 0x5D2E3F2CD6D744FB4421F2833D7149F60D11DCBB89EE41FB333BC14037365BE8 BLOCKHASH 0xE5 SWAP15 DUP11 DUP2 0x25 CALLER PUSH28 0x5B0E7FE46C0BA668AAF4F86C425B774B92962238E74504C1AA28C900 BALANCE EXTCODEHASH CHAINID DELEGATECALL LOG3 SDIV 0xEA 0xBC 0xD9 0xE8 SWAP8 0xA6 PUSH20 0x272F5ABE83D4D8D9115470BDA3725F442EC9D671 MULMOD PUSH20 0xF9BC178D1F105079DA9461B9CAAE4BACAEE5A859 0xDB 0xFB NUMBER 0xCE PUSH29 0x43D8779A8813ECC3AE11FDBA29CB4C24BB0E770EB1D4E5C23D9A51A3CC DUP7 0xC7 0xD4 SHL CALLDATALOAD BALANCE 0x2F 0xC5 0xC9 NUMBER 0xF9 PUSH6 0x5F0E7DA79E6 ISZERO 0xA6 OR SSTORE 0xED GASLIMIT 0x26 DUP10 0x2B TIMESTAMP 0xCE 0x1E DUP1 0xB5 0xB0 0x27 MSTORE8 PUSH28 0xF53F0B536D4BBC0B1EB2F81535A276E50897A2BAF3BBFD981468B91F 0xCC 0xFB 0xEC PUSH13 0xEC8BDC988F00235015D6CE1DB4 MSTORE8 MUL 0xF8 0xE2 DUP7 0xE9 PUSH15 0x26E4F64EF5534AB8A55A9FFE215F89 PUSH14 0x7AE7BFFD1315122998316A3BB389 0xBF LOG1 EQ PUSH14 0x940D7E2718EDB570F12CDCC57377 0xF8 0xCA 0x23 PUSH25 0x23F10E9F89B3F0A2C44497C8A7B705786220397DCE0083335 MUL PUSH27 0x9CE9839F60234A05BD730E143866824A0E9B7672ADAA64B679DFDD DUP7 0xC8 0xE5 0x4F 0xB2 0xDF DUP4 NUMBER DUP13 KECCAK256 0x2D 0x23 0xC1 0xA9 DUP8 0xDB PUSH27 0x304A2D504E5C4573592C119FCDA1CCFE5A07D5643C4A9C0633029B DIV 0xE1 0x4D 0xE5 CALLDATASIZE PUSH24 0xBF90DC7BADDE802E588FDCA2B9081BA20F4712E662C12ADB 0x26 EXTCODEHASH 0x5E 0x4F 0xD8 SWAP4 PUSH17 0x4C5F229914CD8F37BDC3F9409E61750785 MOD DIV CALLCODE CREATE2 SWAP14 CODECOPY 0xF 0xE6 SGT JUMP 0xEC GASPRICE ISZERO JUMPI EXTCODEHASH PUSH22 0xC899E017E73B010F13E7DA632944C0FD82C0306520C0 0x29 0x4F SHR 0xC2 0xBD 0xBA LOG1 0xBB ISZERO PUSH14 0x612FAE11081C85317B706A2FA61A LT 0x1F 0x2D 0x4D 0xA6 0xEF PUSH7 0xE293EA2B08DFBA NOT COINBASE CALLDATASIZE PUSH20 0x3553EC65648FC7842FA0A29D44F7D1F4C157AF7B 0x29 0xBD MUL 0xD7 0x1F 0xC1 0x21 0xAE 0xE6 LOG1 0xFC 0xB2 0xDF 0xD1 PUSH28 0xC1C8F305FDD81C168809A74BB54EA5869B1A41F19D1386AF604CBB13 DUP15 INVALID DUP14 0xDA BASEFEE STOP PUSH1 0x75 DUP15 0x27 0x4B 0xDF POP 0x2D 0x2B 0xCF SWAP12 MSTORE LT 0xE3 OR SWAP9 0xB0 DUP11 0xDC MOD 0xAD 0xEC 0x49 PUSH14 0x6A730820969CFBF60AB07A2A8F7C 0xFC 0xFC CALLCODE MUL 0xD 0x4C 0xAC PUSH1 0xD1 0x27 INVALID STATICCALL INVALID MOD 0xC3 SWAP16 0x25 0xAF OR BASEFEE DUP5 DUP13 CALLDATACOPY 0xD1 0xEA 0xBB 0xD6 0xA8 0x4A SWAP11 PUSH20 0x5AFCE06A5922E8A80AF1BFC7EB5F213DBB816F4A 0xC8 PUSH27 0xA15AEF8541B1ABE3FB4D11D8B0B082989A0FFF41AD9BDB2C1E41CB 0xE3 BASEFEE 0xA7 RETURN 0xD5 0xE2 BLOCKHASH DUP14 NOT 0xB2 PUSH9 0x17183D1F6D3B51F27A SWAP2 MSTORE PUSH21 0xEFD9598FF18A1568510B7BB366F4387EEA8FD2B20F 0xDD SWAP6 0xFB PUSH11 0x612958B5C25262C32AB3EE 0xD7 0x5C ADDMOD MSTORE SGT CALLDATASIZE 0xBD 0xDF COINBASE SSTORE PUSH12 0x79CEE9B90B0C1CB4D36245C2 GAS PUSH32 0x8B248567FB4248313D2D0893B893B14EAF3AED6820AE987B88DA0CBA5DAD3C5B 0x26 PUSH29 0x9012405514767B01540A25E982AE7E1C98D06B14CC56241AB9B0954344 MULMOD JUMPI 0xBF 0xBE 0xB9 0xC3 DUP5 0xA7 0x4B PUSH6 0x1744FC2B7CA4 0xE1 SWAP11 GASLIMIT SUB 0x1F 0xC8 CODESIZE 0xED 0xB3 DUP1 MSIZE PUSH5 0xD6533A4A55 DUP4 0xAC JUMPI 0xD9 0xA9 0xF6 0xE6 0xDA PUSH6 0x31F33736336 JUMPDEST 0xC9 0xB5 REVERT BASEFEE LOG4 PUSH31 0xEA62400D67F2EA62958D6BE5AAECAC89816A750694411D68A42334EFCF85A8 0xC9 0xA7 0xBE DUP4 LOG1 0xBF 0xAF 0xB6 SWAP6 CREATE XOR 0xB7 SLT 0xB2 CHAINID PUSH31 0xA0EE670A007512AA7D8366D1A3D2B42E79B1D4DA40B35516129B8C702AD81A PUSH32 0x98FF65FA182637CD5A4109CE830689C683ABEE5C84210EAF1765DC8CB5A37F14 0xC8 0xB6 0xB5 SWAP10 0x2D EXTCODECOPY SWAP8 PUSH25 0xD5CB3AB0BFE4B296E2ED90ED19619B8B353C1043B40E03B568 LOG0 0x49 LOG4 OR 0x27 PUSH13 0xB455CC5D461DB37B0B4F6B34F1 0xBB TIMESTAMP SWAP11 PUSH23 0x968726205617095E1D39B92D09DAE1C6D2E4114C5439C8 SHL 0xAA 0x28 MSIZE 0x4C 0xC0 0xAB PUSH23 0xE7F32C25C4F780C9E9D6E46A5A0A23D3BEDFE1B14BFF3E 0xEC CALLDATASIZE 0x49 0x2B 0xB9 ORIGIN SWAP16 JUMP 0xDD 0xBF PUSH32 0x5E1F122838E96DCFE98C4613A1149CF273A308C777146D7F4BE2160AAC12980D SWAP8 PUSH7 0x1FAD18CF682B7C 0x5E 0x24 0x2B PUSH21 0xAAA132494D280CA444D5D2A99CD2BD426FF82D443E 0x2B PREVRANDAO 0xB8 PREVRANDAO OR CALLER 0xBD GASLIMIT 0xD 0x29 0xB8 BLOCKHASH GASPRICE CODESIZE NUMBER 0xD4 0xA7 PUSH28 0x6C70539D8965E57AF369D6F32FEAB13450F3FA985AED18142569F4EF ADDMOD 0xC2 LOG1 SWAP5 PUSH30 0xCB6E99B5AC52CDD5876C50F02BD6AFD62FC810A755110F47BD52A43C690F PUSH6 0x8374E9F7C2BC TIMESTAMP DUP6 0xC6 COINBASE 0xC7 GT PUSH11 0x4CCD2C94F684CBEB7F2A17 LOG2 SWAP16 AND 0xB6 CHAINID 0xEB 0xE9 0x4C 0x4B 0x2E 0x2C 0x4B 0xC3 PUSH22 0xCD7B002111DD55C4D212E9360CEC88C188098BA052F4 PUSH22 0xE7CB4A6E7200D33425128781EAF3D355AD53A1B998C6 0xB7 PUSH20 0x8252010FC33B3E282BEEE7DC668308B10BF602C3 0xDF PUSH30 0x350D3DA0502CDCAAA7208EF32B3D056C6314E54E7DAE918489566F31F7DA 0xBE BALANCE DUP15 SIGNEXTEND SWAP14 0xD8 0x4A 0xDD 0xDA GT DUP10 0xD3 DUP4 LOG1 SAR MSTORE COINBASE PUSH27 0x894DF6CE25F92E97D2086495B8C9ACDD9F312FFF2AA2524D2E1143 DUP14 0xF PUSH19 0x26BCC9AED34857296CE6DD82B82F1D086AC24D EXTCODESIZE SWAP15 MLOAD 0xEC EXTCODECOPY PUSH23 0x7A89E0E0D10FDEE6A4513D6EC8F9E2D416C8B87B0C1DEA 0xF6 PUSH8 0x2EF14B11F42F975 0x4A 0xE6 DUP9 0xC2 KECCAK256 ISZERO 0x1E PUSH31 0x27C0331111BF9346DB0F4A36D000AC49D03C561A45E23383A0B61D2717CF33 0x1E 0xDB NUMBER LOG2 0x27 0xBE 0x4C 0xC3 0xAE 0x2D 0xD0 SWAP10 SWAP15 SMOD MSIZE GASPRICE SWAP6 0xE6 0x2C 0xB1 PUSH17 0xD4E11787CA9032A411B76E488A5EB5703A PUSH4 0xE3C43341 0xCD GT GT COINBASE 0xC3 CALLDATALOAD RETURNDATASIZE PUSH13 0x634422E63A8EE3A948E62AAA17 0xBE MSTORE8 NOT LOG2 0xC4 0xB8 ISZERO SWAP8 0xC8 PUSH27 0x78DD744742127D8F4C942E30A6884A7C40C05A1CEB38F341D5107F BALANCE ADDRESS DUP16 CODECOPY DUP6 0xD7 0x27 SMOD 0xEE 0x4C 0xC4 POP 0xAE 0xB7 SWAP12 BALANCE 0x22 0xD1 DUP11 0xB3 0xA8 GT 0xCA ORIGIN 0x26 0xDB 0xF8 SWAP9 PUSH12 0xE11183F7BD4BCFC17DB4B68F 0xE9 0xA9 0x2C 0xC4 SWAP3 0x1F 0xE1 PUSH27 0xA0352F5778718601A871C9A11AC0EAC37ADF26C0E380D9E4D4D4C1 PREVRANDAO SHL 0xCD MSTORE NUMBER DUP4 ORIGIN RETURN 0xEC SHL 0xCE 0x2C SAR 0xBD 0xA7 0xCE DUP9 TIMESTAMP PC 0xEC 0xBF 0x26 0xF6 0xE4 STOP 0x29 0xD7 PUSH17 0xEBBE895AC8CE51007D38939C48CF3ED31B 0xE5 0xE7 MSTORE CALLDATACOPY BALANCE 0x4F PUSH6 0x70DEC86F57B2 PUSH27 0x19AD986E3070688999218F5EF741ABDB302A72EDE4E7A6441460B7 ORIGIN DUP10 0xEE 0x24 MULMOD EXP CALLDATALOAD PUSH31 0x7752CF5820DC8E949BA37881518729E2A51EC1246CD16A5566177ADD7278A5 PUSH3 0x1052E6 0xA7 PUSH10 0xF43D0603332CC618E1C 0xC1 0xF8 EQ SWAP13 DUP15 0x2B PUSH24 0xA892261A86C37BBC1586B3E8E0C6A77847D3B94D32FBE3E6 EQ 0xB8 0xA5 MSTORE DUP13 CODECOPY PUSH31 0xE0565C1D305C4679583C7A2273A4263FD7C0E4C0C3CD1593D70F1645829FDD 0xD2 0x2D EXTCODESIZE 0x28 INVALID PUSH1 0x8E 0xBA PUSH3 0x2B2DD6 PUSH30 0xC8282192DA3762413BA678AB7F0908DFFA0610AC0133C5F7BDFE3469934C PUSH25 0xBCB4177D2C1FC618BBAC6C2EDE6A05C83EE4F9CA0F735C449B BALANCE 0xEB 0xAF PUSH1 0xE1 DUP5 DUP9 EXP PUSH29 0xE6053DBE5C6ABF673B02BC2213ECF7B788D4FAB17371A424493BB49447 DUP6 0x5C 0xFB COINBASE GASPRICE CALL BALANCE 0xDE MSTORE 0xBD PUSH22 0xA50B706D0602AFC4587FBCBE9DA6DAF807C3EFC632BB DUP16 0xBC DUP11 EXTCODECOPY 0xCA 0xDA 0xF7 EXTCODESIZE DUP3 PUSH22 0x42745FA828BD99E6AE097936294DB584BB7EEFA8DD7B PUSH4 0x144064F7 GT BLOCKHASH COINBASE 0xA8 DUP15 PUSH10 0xD6E9C6053751EF135A8F PUSH6 0x49527E22BFC0 PC EXP MUL 0xA7 0xDD PUSH19 0xE9EB6B6A6E73B3F6EC2690251C32A5E4B55B02 0x2F SWAP13 0xC7 EXTCODEHASH 0xD5 DUP6 TIMESTAMP 0x4A INVALID 0xDC 0xD1 SELFDESTRUCT 0xBF PUSH31 0x46D2A8E3A86B52A937A6291ABFF8FFDE1DE3ADD8B76C0A6F372E2B921D601C PUSH0 BALANCE 0x28 0xE5 DUP6 OR MOD 0xEB PUSH1 0xAE PUSH28 0x2820E0459978A083B67D71ECD1F963B5CC7EEDF8334FE85839F968FB 0xA8 JUMPI LOG2 BALANCE SWAP16 0x27 0xB0 LOG4 ADDRESS 0xB6 0xED RETURNDATASIZE MULMOD 0xE7 0xF9 SHL REVERT PUSH17 0xCBD9677656B8B31B140F215FD20CA25C0A 0xE2 0xD SIGNEXTEND 0xE8 PUSH8 0xF7F893F3FD8631D4 0x1E PUSH24 0xCE901EDBCD29DF2AE3E3D61869EE4163105D12006B141B52 PUSH24 0xC0AFB385B10C30F42EDED577B0E99FCDAFB69648BC81C015 0xDA CALLCODE 0x2D PUSH26 0xB8879E27E7000430ADCD96D6F7C67FCF386A473752668E64C09B 0x2F DUP1 LT LOG3 DIV PUSH22 0xCFBF8A76A0346F7DF43A3EBA83F47F139060103130B1 LOG4 DUP5 0xE7 DUP2 CHAINID 0x23 0xD8 SLOAD SGT 0xBE PUSH12 0x6D4CA7746460F0466A5068D5 0x4D 0xC9 CALLDATACOPY DUP15 0xC2 0xE4 PUSH13 0xDA7D08DEB8A254260E2701EDCD PUSH29 0xEDEAAE1C11DE85B2FD1E5DAB42FA36E547682937FF684364921B513F1F JUMPI EXP 0x24 0xF 0xD0 SWAP13 0xBC PUSH16 0xDD1FFB9183668427B376483F723438DE 0xE5 0xCC GAS PUSH15 0xB961A12EADF23A07B9FEFD2E17EE0D PUSH21 0xDB1EF80CAA7745B9C9F7685FEC9B02E5EBB13B2F66 DUP10 MSTORE8 0xCF SWAP2 INVALID INVALID SIGNEXTEND PREVRANDAO 0x1F CREATE PUSH27 0x2F2938F468BC7EFD380BEF43A030E5FDC41A71118EAC608EF4B794 0xEF 0xE0 GASPRICE 0x23 0xDD SUB 0x4F SGT ISZERO PUSH13 0x2F2762E6E8772B11C7DCF8DDF RETURN 0x2B SWAP5 0x2A PUSH5 0x4366C746C LT 0xE3 MOD PUSH0 0x1F PUSH26 0x32E240446C85C3F8EE5AAB85B7727506FB03F113EB05DAC7306C PUSH22 0x8FB6565545232934CFE1A99A5FC63945A4B6D1A652D0 0x2A PUSH0 0x2B EXTCODECOPY 0xA6 STOP 0xB1 SUB CALLDATALOAD STATICCALL BALANCE 0x24 BLOCKHASH 0xE1 BALANCE 0x4C 0xD 0xE 0xC8 0xC 0xE8 0xA5 0xD3 SWAP8 CALLER 0xEB 0xF7 AND 0xB7 PUSH15 0x6E010FAB721321F8C4CB709DC6EE73 MULMOD PREVRANDAO GASLIMIT CODECOPY PUSH25 0x383E604695B098845ACC161C28FE2A8338A9A5ABAE29F5D98D PUSH11 0xF2AD0372B92CA7B779CE0E 0xE3 0xA7 SWAP11 0xDC SHR 0xB4 0x26 0x2E 0xB5 0x2D 0xAB 0xEF 0xEF JUMPI 0xA8 LOG4 SELFDESTRUCT SMOD SELFDESTRUCT 0xD5 0xD5 OR 0xEB 0x5C 0xAA 0xDC DUP5 0xCE ORIGIN 0xD2 SLOAD 0xBA 0x4B PUSH21 0x6D19D19B89A5311192D39B9A603BBA160DA80FDA04 PUSH10 0xB41C2255AC4D0A46402A 0x28 PREVRANDAO 0x22 PUSH0 REVERT 0x25 CODECOPY 0x2F CHAINID PUSH6 0x8280CE7B17E4 0xE 0xEF 0xB5 0x29 PUSH8 0x3A2B3D8F6E25757E SWAP11 PREVRANDAO 0x5E PREVRANDAO 0xC7 0xA7 EQ SWAP12 0xEC 0xE4 ADD 0xDE PUSH21 0x823933559559239322E9363220D322CEA2DDBA2F6D JUMP LT INVALID DUP9 CODESIZE DUP6 SWAP9 PUSH14 0x15C53CFDDB0F8BCCEDAEE3A4492F 0x2A 0xC1 0xBE SSTORE 0xD6 CREATE 0xB2 CALL 0xE7 0xAF PUSH0 0x4C 0xAF CALL ADD PUSH24 0x904F2BA1A14949B45D15D45E07B4B3C206ED751F86B5F37D PUSH17 0xA24A4D8A7DC389AAF71839769F1F11E180 PUSH4 0xE3BC10C4 SWAP1 0xBC SLOAD PUSH14 0x8B35242A93EC4D6B61CACEE4F1D4 0xB0 XOR STOP 0xF7 0xC3 SGT PUSH31 0xBC9AC731F7B4D6375C01A874F29000C1B3F4727B65C77A2D51051BFCDECE5C PUSH3 0x826292 0xCA LOG2 0xDA PUSH15 0xC16B9974D2EB7FD3C2C20D1863DB12 0xEF EQ BLOCKHASH 0xBE MULMOD 0xC6 SWAP7 0xE6 MOD PUSH32 0xA41AD890EE8388C0290186E494CBC202E7667D19B56353CECE99092B1D93EED7 0xD2 PUSH5 0x56F285906A LOG1 SWAP7 SDIV SWAP15 0xBB 0xBC ISZERO PUSH32 0xBDE72B8ACAB6BE8EFCE28D2CCB3B61DB9903623CC781638310A16F00286BDEA8 PUSH9 0x4A462FA0F5604337 0x1E 0x26 0xB3 SWAP15 SAR SLOAD LOG4 RETURN 0xE8 0xD8 0xA8 0x4D SWAP8 GAS 0xE2 PUSH8 0xF7E0B886137B4969 0xB4 0xAE PUSH9 0x8AC9462D3B1AB6AE 0xFC 0xC6 0xDF 0xD4 0xC6 0xD8 0xC4 SWAP12 0xAF DUP7 PUSH13 0x8CEAFFBA9AF800D551CD8EBB6F 0xB6 SAR 0xC7 SWAP4 PREVRANDAO 0x23 ISZERO ADDMOD 0xEA MSIZE DUP12 EQ CALLCODE 0xB9 0x2A ORIGIN DELEGATECALL 0xEC 0xFC 0x2E SAR 0xED CALLVALUE POP 0x5D 0xB0 BLOCKHASH 0x21 PUSH16 0xDD1307594FB8F07D225265CACA14DCCB 0x26 0x2C NUMBER 0x23 0xD 0xEF LOG4 0x4D PUSH26 0xEFBF96195B8852817B9C2A1A0CEE7B065A720651F4D30A03B234 GASLIMIT 0xD5 DUP9 0xA6 JUMPI 0xEC DUP2 DUP9 SHL CODESIZE 0xA6 0xCA PUSH29 0x96AE7D30A228EDA72F8F278929640191DE8B4C95A163F7B35D9FC5F38D 0xD1 EQ SWAP10 0xE2 RETURN CREATE BASEFEE 0x4F 0xEE 0x4D 0x4E 0x2E PUSH8 0xE80ED738C79C531B 0xB0 CALLVALUE 0xD0 0xE3 0xF7 PUSH17 0x3AE1CD93D0334F8CCE0E6FD7BBEEB9CD1A 0x4B LOG1 PUSH9 0x24F4DF329914BAF49F 0xE4 0xAE 0x2E MLOAD DUP14 DUP6 0xCD DUP9 0xBC 0x2A 0x4D PUSH22 0x11486305611AA901D1333F199A38FC9C772C5B6DDE72 0xD9 0xD9 0xEF SWAP1 0xDB 0xE2 0xA7 SELFDESTRUCT KECCAK256 0xCB SWAP7 DUP6 0xC2 0xB3 0xE 0xF8 0xC MOD PUSH10 0x95DA220811544BD79B86 PUSH30 0x6A45C5F9D5F81246EE7BD867BAE77CE1F1A5FD1347A12AC6258EA35211B6 0xBA BYTE DUP7 DUP4 NOT ISZERO DUP5 RETURNDATASIZE DUP9 DUP10 PUSH15 0x58F458F0D5765917C35E035FED90D0 PUSH3 0x19D345 0xC5 0xEC PUSH30 0x3A0AE95883CEDE928ACB380F8EF8B4B6859EF9652ABCBB767E6E79B2DD22 0xE5 SWAP8 DUP15 0xED RETURNDATACOPY 0xDD PUSH6 0xFC15F583B875 0xD1 0x4E 0x2D 0xC2 CALLCODE LOG0 0xD8 SLOAD EXTCODECOPY SUB 0xE5 SWAP10 0xFC 0xAF 0xEF 0xC6 PUSH30 0xBE7AB22B856E4E31201C5375C3B33927AFE8894ADEFADBB90A284CBAF5F5 SHL BYTE 0xCA 0xD8 PUSH19 0x34B1B54A7D39EAB320C9A28687261383DB782C ADD JUMPI KECCAK256 DUP9 0xB9 EQ 0xAB PREVRANDAO 0xD9 SWAP4 0xBF 0xDC PUSH19 0x73E34954B1BBF0DBC661D1C4081B3E81DA92DD 0xFC 0xC5 0x2A SDIV 0xE0 0xE9 PUSH29 0xB23E1404FF3331F83623C8F4C394B5D49037BB8CF64B6414D60779217E SLOAD SMOD CODECOPY 0xDD DUP6 BYTE 0x21 0xE6 0xD PUSH8 0x1A6DBA94845F4248 PUSH29 0x32EC098A9C4C0C198198431B389BD1A4D6C9F88D6FBB6BEB8C25A7F861 MLOAD 0xDA ADDRESS BASEFEE 0xFB 0x29 0xCE POP PUSH1 0x76 RETURN 0xB7 CALLER SWAP8 ADD 0xF6 0xD 0xDB 0xCD 0xE5 0x29 CALLCODE 0xAD 0xCD 0xEB 0xD2 0xBF MUL SWAP5 0xC BYTE SWAP11 CALLDATACOPY DUP15 DIV DUP9 0xC2 SWAP11 EXP 0xC3 DUP11 OR 0xA9 GT DUP12 0xC5 AND 0x5C 0xEA 0x4C CALLER PUSH2 0xC2B7 0xED 0xC4 DUP6 0xFB SWAP1 0xF7 DUP9 0xD1 0xB4 0xEC CALLCODE 0x49 0xB3 DUP8 ADD 0xCE 0x1E CREATE SELFBALANCE KECCAK256 SUB 0xD9 0xDB 0xA7 SIGNEXTEND 0xCB 0xBC 0x1E SSTORE SWAP10 0xB6 SGT DUP1 STATICCALL 0xE8 0xAA PUSH29 0x48F7DC2C543713FFC9A72A801E1A77F9F37C810CF8A31E0BB5EB4CDB46 CALLCODE 0xFC PUSH0 0xCA SWAP8 SGT GASPRICE 0xD0 GASPRICE 0xB9 0xCF MSTORE8 DUP9 EXTCODESIZE 0x27 EXP ADD 0x26 0xC PUSH29 0x534A0E20CD40E05E747FB3BDC07B3CFC50B3CEAC18F059EF4F65565F44 PUSH19 0x8335FB828DF7CB07583A984136302CD3BAF3B RETURNDATASIZE SWAP16 SWAP2 PUSH24 0xEF97F584B0DAAB7F0493D2577326D35E5C2E4F1092A13399 XOR 0xCB 0xDB 0xFC 0xB5 0xB1 0xDD 0xA8 0x2C BALANCE DUP2 SUB BLOCKHASH SAR 0x4A SWAP15 DUP16 0xC3 0x21 DUP2 MSIZE MULMOD 0xDA 0xF6 SIGNEXTEND 0xCB ORIGIN 0xE3 PUSH17 0x20E105D8B9BC3AA31900CD3459046AB97E 0xB2 0x28 PUSH8 0x5846B691180E9F20 PUSH28 0x3AE8C1BC03BA74AC6509F094C0F38B729EF60C4C7B50851903CC5610 DUP13 PUSH23 0x2E6D29F106AD148CFEF47E8479947C29ADC1AA4B32CF6E CALLDATALOAD PUSH21 0xBBA10C0B05616E878EEE4C82E3229CA0D438BFFEBA 0xD4 DUP6 0xCA 0xCE 0xE4 0xED 0x2A 0x22 0xCD PUSH5 0x971813EFB1 SUB DUP11 0xAF GASPRICE TIMESTAMP 0xFC SWAP11 JUMPI 0x21 0xF6 SWAP12 PUSH28 0xB52A6CE9EA6E3E58B180BE065509AB930AC979932E59D3453F983DFF SWAP1 0xE4 PUSH0 SWAP2 PUSH29 0xD74501A646319FD22C952F3152B077D56558401F0BF595DB464070AB32 SSTORE EXTCODESIZE MULMOD PUSH0 PREVRANDAO 0x21 MSTORE 0x4C KECCAK256 JUMP DUP14 0xF7 0xAC DUP1 GASPRICE RETURNDATASIZE 0x29 SWAP12 RETURNDATASIZE 0xAB JUMP DUP14 SIGNEXTEND PUSH9 0xD795EB7B68B11C333B CODESIZE BYTE 0x28 CODESIZE 0xBD SWAP4 SWAP9 INVALID CALLDATACOPY 0x1F ADDMOD 0xD4 DUP16 0x2D 0xED 0x24 0xE6 0xE MUL PUSH6 0x4F18B33A4CD6 0xEE 0xB8 PUSH12 0x9FAFE856F33753CA1CC6756D 0xC4 0xF8 NUMBER 0xE0 ADDRESS CODECOPY 0xDF 0xDE DUP8 SWAP11 PUSH23 0xB715E0EE169AFA10D37A8062AECE61391764FFC6D4DC6D 0xDC 0xB5 PUSH16 0x35880BB13C705625C616A97B05678348 0xCE SAR MSTORE PUSH18 0x8BB1D8521CFF5A3D2CE5B37F7C190DC47862 0x28 0x26 LOG0 DUP9 0x2F 0x49 0xD8 0xC0 REVERT EXTCODESIZE 0xE1 0x24 0xEF PUSH22 0xA7A107778FF66B5BE2B66C0B64C2084809EDE3070DBC PUSH31 0x5DE51FF90466AE52B47A293B4CFF6F0CB064B6DDE4E00650A68B154129426F 0xAA SWAP11 0x23 PUSH31 0x4BF88EB59B094786CF49A96FDC54CF6C819E1B67E2B0D687070F1BD148D0B2 STATICCALL DELEGATECALL PUSH7 0x59E6DB194BFDD5 0xD0 CALLDATACOPY 0xAE LOG0 PUSH1 0x73 PUSH26 0x52BC30026F8547737D057BB63C3CFDBCBDAFCF387BCB4FC35F34 PUSH24 0xA87E3CCBAF160E2D20C48A71DF9E305D73A39971D2C9A4BD PUSH21 0x7A5DDEE537FA604400FD37215765E44250F2105AF 0x23 0x4B DUP6 EXTCODECOPY PUSH5 0x7B34639391 0x21 PUSH2 0x2EB3 ADD 0xCE LOG2 DUP3 CREATE 0xC1 0xD6 PUSH26 0xAE8902417E66C9F1F5FB1BBF10B5716793E28145726E9198D745 PUSH27 0xF95C327F336967B14AD14FD25FA0FE0ADA5D6553E357275B59357F 0xC2 0x21 RETURNDATACOPY 0x1F 0xAF PUSH18 0x4A22EEE3D5D3D502838FCDE32E542E73F204 0xBA 0xF6 SWAP2 PUSH11 0x3AF968DB423019F558A87C LT 0x4C MLOAD 0x4B 0xD8 CALL PUSH5 0xD03D3DEBA7 0xE8 SAR 0x29 0xD8 SWAP7 0xAA 0xE4 MULMOD 0xCA 0xD9 NOT 0xA9 SWAP6 0xCC DUP8 OR 0xB7 LOG0 PUSH25 0xC623BD3AF80C056DC1716D04353903644E9C312415BD756683 PUSH10 0x7EB1BA4FEA32C710D0F0 SLT SWAP11 0xE7 JUMP SWAP9 0x4B MSTORE PUSH2 0x1993 0x25 GAS MULMOD SLT AND PUSH27 0xC123D1A2C9B10380A309D7F3B067B628E9DA5085D98B90B0CD852D SLOAD 0xCF 0x1E 0x29 PUSH18 0xB4C37D511FBD55CA08E2B56EE7FB91386192 SSTORE PUSH0 OR JUMPI 0xDD 0xE4 PC PUSH1 0x1C 0xE2 DUP8 0xC5 0xE5 0xB6 GT SELFDESTRUCT PUSH0 0xB5 DUP8 MLOAD 0xB3 0xEB DUP4 CALLDATALOAD 0xA8 0xB5 0xCD 0xE2 REVERT 0x28 PUSH20 0x522CEA0E9BF6F5C5560CA0091A58EE20042AC022 CALLDATACOPY 0xBF ADD DUP5 CODESIZE DUP7 0xE4 NUMBER SWAP14 DUP6 SWAP11 PUSH25 0x5362913C0CEAD1E4691F47E5AC7EC132D0C7136A9487FB0C6C CALLCODE SWAP3 0xB0 PUSH31 0x5515EB2AE942D4AAEF2DFC7F29B08F57557514CDEAC066D9EEA594A5C5388E DUP16 LT PUSH5 0xDCF19FE4BE AND 0xD5 PUSH28 0xD411F5962D5EE0C6521D26C8C6FE86327B03254322ABDBA93545FD5 0xE4 ADD 0xB3 0xE5 BALANCE SWAP1 ISZERO SWAP2 SWAP4 CODECOPY RETURNDATASIZE 0xB9 SWAP1 SWAP16 0xA9 PUSH8 0x6E06AB64C9E48AE9 SWAP9 SAR 0x2E PUSH10 0xDE2DD98343508EB30B6E 0x21 0xD7 ADDRESS RETURNDATASIZE SWAP10 0xB1 CALLDATACOPY PUSH19 0xC5E79DF4F97C1BBC6FD5E3C84BD65F35B2DEFC MOD EQ DUP16 PC SUB 0x2D GAS LOG0 PUSH30 0x8CC37953BB5F5D2AABEA56E1B0B161EED95DEAFBB48EF9E8B233D5CB164F SHL PUSH15 0xB4908F591B45BC4D4385A161CF46BC SHL 0x28 PUSH20 0x69A5EECDFCFD140B62E0188576C886EECBE7191A PUSH21 0x6798F0FB4BFA0C7182C135EF595EF570294F7AEC7 SGT SWAP7 0xE7 0xB2 DUP11 0xB6 PUSH27 0xCCF1C37DE37EBC942BED502F53651A61FC62A1DCFC29D1CE5E11AA 0x2D 0xD7 0xE1 PUSH6 0x9029917E203C 0xC8 AND 0xAB 0xC5 CALLER 0xDC 0xA9 NUMBER PUSH7 0x4BFE41E3D298AB 0xF6 0x4D 0xC3 0xD SIGNEXTEND 0xD1 0xEC EXTCODECOPY LOG0 ORIGIN 0xB7 0xD2 PUSH28 0x8BF71A2E76CCD0C4A313642B6AAD073167B8B133CE76790A7414FCD2 SWAP13 0x4F BALANCE 0xDF PUSH31 0x37573A174B7C889DD737F94B684A8B25D8972355897802E3D9093C471054EB INVALID OR 0xAB DUP2 0xC9 0xB7 0xC3 0xBA SWAP7 SWAP2 PUSH10 0x3FE99C34802330498B1E 0xD8 REVERT 0x26 MUL 0xA9 0xD7 ADDMOD MSIZE 0x29 ADDRESS SHR MLOAD 0x21 STOP SWAP15 0x4B SWAP2 DUP8 LOG0 PUSH13 0x767EF9ACEAB2202D20926E03C1 0xEF ADD 0xE3 DUP7 0x2F SWAP2 CALLCODE 0xE8 PUSH9 0xC1E148E0F7DC729798 SWAP13 CALLDATALOAD 0x2C 0xD6 0xE5 PUSH9 0x79888E7E21C0948F52 0x29 SMOD SSTORE TIMESTAMP 0x29 0x2F CREATE2 0xD8 DELEGATECALL 0xD6 0xBF MUL 0xB2 PUSH31 0x289F82BC3934EC7BCF5D4CE5D7AA9DBF2F5F21F44B7C70AA59847E1DB36CCF ADDRESS 0xB8 LOG3 EXTCODEHASH LOG1 EXTCODECOPY 0x5E CODESIZE DUP16 CREATE2 0xB9 0x2D 0xB2 0xFC 0x5D PUSH14 0xA62FB51A65E37AD91961D99C8583 0xA8 OR 0x2B SWAP14 0x24 PUSH20 0x52118CEE44B22465BEF9865665A47E132192686D EQ 0xD2 SHL LOG0 DUP9 PUSH11 0xF62D7F0EB51F413FF2BD98 BALANCE PUSH11 0x356183F58208A416185C7B 0xAC 0xCB 0xC0 0x2F EQ 0x1E SELFDESTRUCT RETURN 0xFB 0x4A SWAP6 0xE8 0xD3 0xB2 PUSH10 0x5A0F0690C232D8B39605 0xB4 PUSH9 0x85FB305BC541A04645 0xFB PUSH16 0x733B27D7950A233599CED31AD97E8D32 SWAP8 MULMOD 0x4D 0xBA 0x4A 0xBD PUSH16 0x295BE8A9589AC33D6F04A426390F6E6C 0xD7 EXP 0xEC 0x28 SWAP11 PUSH14 0x1EF3264C887280AD42A8103C52BB 0x27 ADDMOD 0xE2 0xA6 SWAP2 PUSH31 0xFB3FD9145BD1729C2C9FA67F01ABA05AB47C56441CDF0816A0B76CABC81CC9 0xF6 0xBA 0xE4 0xDE PUSH4 0x668F12AE PUSH7 0x9284B5AECA54BE PUSH8 0x80354B726E0A7BFF 0x23 DUP13 0xB5 0xCB 0x4C 0x21 PUSH16 0xCF0F507F40D3679C0ACBAEF83DD4B5B0 0xDB 0x2A SWAP15 MSTORE 0xC3 0xA6 DIV DUP16 OR 0xC7 SWAP13 0x4A PUSH27 0xBAFDFF1D3F955B5DA5E0816D44F817B705F484C771F1BAC2942897 EXTCODESIZE ADDRESS DUP8 0x4C SLT CALLDATASIZE OR PUSH27 0xDC709F0A6B2D32745835162F5ED9CE69F36F156031E40B2E26C32A 0xDD 0xC2 0xCE 0xB2 SWAP8 PUSH5 0x8D3FC271A5 BASEFEE 0xB9 0xBF PUSH25 0x8BFF4B2023CAB820C4A4EE8F201BBB92DCD070B78863668016 0xC2 COINBASE PUSH1 0xC2 0xC0 MSTORE8 0xDA 0xDB 0x24 STOP BYTE DELEGATECALL DIV 0x2A 0x1E MLOAD 0x24 PUSH1 0x33 SMOD POP PUSH22 0x5DD11A39D879137103F9972AD0F6D79EA24CC16610E SHR SWAP14 0xD1 SWAP9 0x4C 0xDA DUP8 BYTE DUP3 PUSH13 0xE5032975F4592FBD0F5263322C 0xCE PUSH31 0x33FDFB2D490FB4E80B7D17DE89AD1558B7B9D3F4BD40213CC2AF89CA9145E8 0xB3 PREVRANDAO 0xD1 0xBF POP 0x4B 0xF6 0x25 PUSH16 0xAE4E8C478ADB09DC052ADD4308658ECC 0xC8 0xE6 DUP11 0xE4 0xF8 ADD 0x2D SDIV DELEGATECALL PUSH19 0xB4C1C625A39319BCA758748B08D4989195C225 0xDC 0xB4 SSTORE PUSH32 0xFB9DBB42CC431F4ECFDB0ADF7E327CD5218B56B33723FDE2D94AD2036E9A9430 0x4B 0xC1 0x21 0xF6 0xC1 DUP5 GAS SGT 0x27 0xD8 SWAP11 PUSH16 0x55BB9CA81EB91E07CD0F43871C3AC1F1 0xE3 PUSH28 0xD2755613ED7B3A3EC11A3EB8FFF749AB22F92446F62F85152339E3E3 PUSH20 0xC4E4AD9B657F5E665676790CA0BF8E005767AEDD TIMESTAMP PUSH10 0xD107D4F11E6B4BC7A2E4 0x21 PUSH29 0x1C3CC2E298E450D010FD622C47E2CD7880E64B2E6B2E6FDF28958CA1AE PUSH6 0x967871544BD1 0xAF 0xD7 SHR MOD 0xB4 0xB3 SWAP4 XOR 0xD5 LOG0 PUSH23 0x91A1266627AD1B40F0CEB66234377758D63F8C56E66C0 0xAF PUSH5 0x4EAD06B4E9 DUP8 0xBD 0xE9 JUMPI CHAINID PUSH31 0x75938F14040E31FE264D2CC1F55A3FCE3CE86A68196D2A06336102C14D0CC8 SWAP3 0xFC DUP8 SAR PUSH16 0x4219B29228092E58A02047D8DEBF48BA EQ TIMESTAMP 0xEA CODESIZE 0xAC 0xEB DUP3 PUSH1 0x5E DUP12 STATICCALL PUSH21 0x60C49AF4960E0528AE6D904BB6C6379FEF10CB1D1B 0xC6 0xE8 PUSH8 0x54ACF978041CE99 0xBE 0xCE 0xFB 0x21 SWAP4 0x22 0xEF LOG1 0x5C 0x26 LOG1 COINBASE PUSH17 0x452119318CB1073B15B978FD05C40A5001 JUMP 0xE 0xDF 0x21 0xDF 0x4A 0xAC AND 0xA5 CALLVALUE 0xDA JUMPDEST MSTORE 0xC6 PUSH19 0xBB3326879104EB32DB6E815036DC9E43A1D414 0x4A RETURN EXTCODEHASH MULMOD 0xE7 SHR LOG3 0xCD DUP6 0x5C ORIGIN 0x5D 0xBF 0xD0 0xF9 0xE7 0x24 CALL PREVRANDAO 0xD2 0xC3 SWAP7 0xC8 EXTCODESIZE CALLER STOP LOG1 0xBB 0xF6 SWAP2 0xD3 GASPRICE TIMESTAMP PUSH10 0xB796F80484FF397EF370 0x4D PUSH8 0x7718224F0ECCD23A GASLIMIT 0x4A PC 0x4A 0xD7 JUMP EXTCODESIZE 0xCD SWAP2 PUSH13 0x624A6D9FAC09BAC86D726AA8C5 DELEGATECALL 0xC6 0xC4 0x5D 0xE2 DUP4 PUSH14 0x6D88F69CECC73EC17C882E29C728 0xB3 SMOD DUP4 AND JUMP SWAP15 0xAF PUSH24 0xC8EC57E85B52EE30CD6212133A17CA3A4E87BCFD75075986 AND 0x21 0x4D 0xE 0x2B XOR DUP16 OR RETURNDATACOPY 0xE8 PUSH13 0xCE1A411C0D2FF80E1EAD326474 CALLDATALOAD DUP14 0xBF COINBASE 0x2F DUP15 SLOAD 0xC ADD 0xAA SWAP2 OR EXTCODEHASH PUSH22 0x2E069ECC268A7427E0935DB3ACD27FB7BC097E2B2C58 0xD5 0xA6 0xAC 0xDD 0x1F 0xB4 0xC1 0xE 0xF7 SUB 0xB9 PUSH9 0x7C4C6F9DEDDC9C9D3E CREATE2 0xBA SAR SWAP11 DUP8 MSTORE SWAP14 EXP PUSH20 0x87BC569C6C642913C425FA7538CB83E2A689D5CA 0xEA 0xC5 JUMPDEST ORIGIN 0x5D CALLDATALOAD SWAP8 SLOAD PUSH31 0xF6C8DC122A2A6D000C344EEC023E56786B482A73477D0FD36701F0EDDD0829 DUP15 NUMBER SWAP2 BALANCE PREVRANDAO 0xC3 0xF7 0xB8 PUSH26 0xD09887612EFEC260ABD0D45688E61558F0288CBDDD8B5774E484 PUSH7 0xF164D5E522B544 SGT EQ EQ 0xD6 CALLCODE INVALID BYTE PUSH22 0xDC3F898674BCA43B786B3EEBB0E2AC53EA6336D2D049 PUSH16 0x23399C133EEF87007A5128B3F86D3FF9 0x4B 0xDD BYTE ADD NUMBER 0xB2 DUP14 0x4B PUSH19 0xE7B02B2022147764B03A20A11D5FB29AA2AB37 CALLCODE SWAP2 PUSH30 0xB42EF10170B5F8614BC6E4DECDA4186DFAFBA3700000000000000000000 "},"methodIdentifiers":{"verifyProof(uint256[2],uint256[2][2],uint256[2],uint256[4],uint256)":"a23f0199"}}}}}