{
  "_format": "hh-sol-artifact-1",
  "contractName": "GovernanceExecutor",
  "sourceName": "contracts/GovernanceExecutor.sol",
  "abi": [
    {
      "inputs": [
        {
          "internalType": "address",
          "name": "_dao",
          "type": "address"
        }
      ],
      "stateMutability": "nonpayable",
      "type": "constructor"
    },
    {
      "anonymous": false,
      "inputs": [
        {
          "indexed": true,
          "internalType": "uint256",
          "name": "proposalId",
          "type": "uint256"
        },
        {
          "indexed": false,
          "internalType": "address",
          "name": "target",
          "type": "address"
        },
        {
          "indexed": false,
          "internalType": "uint256",
          "name": "value",
          "type": "uint256"
        }
      ],
      "name": "ActionExecuted",
      "type": "event"
    },
    {
      "inputs": [],
      "name": "dao",
      "outputs": [
        {
          "internalType": "address",
          "name": "",
          "type": "address"
        }
      ],
      "stateMutability": "view",
      "type": "function"
    },
    {
      "inputs": [
        {
          "internalType": "uint256",
          "name": "proposalId",
          "type": "uint256"
        },
        {
          "internalType": "address",
          "name": "target",
          "type": "address"
        },
        {
          "internalType": "uint256",
          "name": "value",
          "type": "uint256"
        },
        {
          "internalType": "bytes",
          "name": "data",
          "type": "bytes"
        }
      ],
      "name": "execute",
      "outputs": [],
      "stateMutability": "nonpayable",
      "type": "function"
    }
  ],
  "bytecode": "0x608060405234801561001057600080fd5b50604051610694380380610694833981810160405281019061003291906100db565b806000806101000a81548173ffffffffffffffffffffffffffffffffffffffff021916908373ffffffffffffffffffffffffffffffffffffffff16021790555050610108565b600080fd5b600073ffffffffffffffffffffffffffffffffffffffff82169050919050565b60006100a88261007d565b9050919050565b6100b88161009d565b81146100c357600080fd5b50565b6000815190506100d5816100af565b92915050565b6000602082840312156100f1576100f0610078565b5b60006100ff848285016100c6565b91505092915050565b61057d806101176000396000f3fe608060405234801561001057600080fd5b50600436106100365760003560e01c80634162169f1461003b57806344c028fe14610059575b600080fd5b610043610075565b604051610050919061025a565b60405180910390f35b610073600480360381019061006e9190610346565b610099565b005b60008054906101000a900473ffffffffffffffffffffffffffffffffffffffff1681565b60008054906101000a900473ffffffffffffffffffffffffffffffffffffffff1673ffffffffffffffffffffffffffffffffffffffff163373ffffffffffffffffffffffffffffffffffffffff1614610127576040517f08c379a000000000000000000000000000000000000000000000000000000000815260040161011e9061042b565b60405180910390fd5b60008473ffffffffffffffffffffffffffffffffffffffff1684848460405161015192919061048a565b60006040518083038185875af1925050503d806000811461018e576040519150601f19603f3d011682016040523d82523d6000602084013e610193565b606091505b50509050806101d7576040517f08c379a00000000000000000000000000000000000000000000000000000000081526004016101ce906104ef565b60405180910390fd5b857f2ce4239ce51f7366f0a28baaaeeb5395025fb8de17e1b68dce8f7aa84b6ab95f868660405161020992919061051e565b60405180910390a2505050505050565b600073ffffffffffffffffffffffffffffffffffffffff82169050919050565b600061024482610219565b9050919050565b61025481610239565b82525050565b600060208201905061026f600083018461024b565b92915050565b600080fd5b600080fd5b6000819050919050565b6102928161027f565b811461029d57600080fd5b50565b6000813590506102af81610289565b92915050565b6102be81610239565b81146102c957600080fd5b50565b6000813590506102db816102b5565b92915050565b600080fd5b600080fd5b600080fd5b60008083601f840112610306576103056102e1565b5b8235905067ffffffffffffffff811115610323576103226102e6565b5b60208301915083600182028301111561033f5761033e6102eb565b5b9250929050565b60008060008060006080868803121561036257610361610275565b5b6000610370888289016102a0565b9550506020610381888289016102cc565b9450506040610392888289016102a0565b935050606086013567ffffffffffffffff8111156103b3576103b261027a565b5b6103bf888289016102f0565b92509250509295509295909350565b600082825260208201905092915050565b7f6f6e6c792064616f000000000000000000000000000000000000000000000000600082015250565b60006104156008836103ce565b9150610420826103df565b602082019050919050565b6000602082019050818103600083015261044481610408565b9050919050565b600081905092915050565b82818337600083830152505050565b6000610471838561044b565b935061047e838584610456565b82840190509392505050565b6000610497828486610465565b91508190509392505050565b7f65786563206661696c6564000000000000000000000000000000000000000000600082015250565b60006104d9600b836103ce565b91506104e4826104a3565b602082019050919050565b60006020820190508181036000830152610508816104cc565b9050919050565b6105188161027f565b82525050565b6000604082019050610533600083018561024b565b610540602083018461050f565b939250505056fea26469706673582212202d861d823db6dc01fc9d2799ed3adf56c7e8a98272e4072aaa042b03790b952564736f6c63430008140033",
  "linkReferences": {},
  "deployedLinkReferences": {}
}