{
  "_format": "hh-sol-artifact-1",
  "contractName": "ZIONDollar",
  "sourceName": "contracts/ZIONDollar.sol",
  "abi": [
    {
      "inputs": [
        {
          "internalType": "contract ILayerZeroEndpoint",
          "name": "_endpoint",
          "type": "address"
        },
        {
          "internalType": "uint256",
          "name": "_quorumPercent",
          "type": "uint256"
        }
      ],
      "stateMutability": "nonpayable",
      "type": "constructor"
    },
    {
      "inputs": [
        {
          "internalType": "address",
          "name": "spender",
          "type": "address"
        },
        {
          "internalType": "uint256",
          "name": "allowance",
          "type": "uint256"
        },
        {
          "internalType": "uint256",
          "name": "needed",
          "type": "uint256"
        }
      ],
      "name": "ERC20InsufficientAllowance",
      "type": "error"
    },
    {
      "inputs": [
        {
          "internalType": "address",
          "name": "sender",
          "type": "address"
        },
        {
          "internalType": "uint256",
          "name": "balance",
          "type": "uint256"
        },
        {
          "internalType": "uint256",
          "name": "needed",
          "type": "uint256"
        }
      ],
      "name": "ERC20InsufficientBalance",
      "type": "error"
    },
    {
      "inputs": [
        {
          "internalType": "address",
          "name": "approver",
          "type": "address"
        }
      ],
      "name": "ERC20InvalidApprover",
      "type": "error"
    },
    {
      "inputs": [
        {
          "internalType": "address",
          "name": "receiver",
          "type": "address"
        }
      ],
      "name": "ERC20InvalidReceiver",
      "type": "error"
    },
    {
      "inputs": [
        {
          "internalType": "address",
          "name": "sender",
          "type": "address"
        }
      ],
      "name": "ERC20InvalidSender",
      "type": "error"
    },
    {
      "inputs": [
        {
          "internalType": "address",
          "name": "spender",
          "type": "address"
        }
      ],
      "name": "ERC20InvalidSpender",
      "type": "error"
    },
    {
      "anonymous": false,
      "inputs": [
        {
          "indexed": true,
          "internalType": "address",
          "name": "owner",
          "type": "address"
        },
        {
          "indexed": true,
          "internalType": "address",
          "name": "spender",
          "type": "address"
        },
        {
          "indexed": false,
          "internalType": "uint256",
          "name": "value",
          "type": "uint256"
        }
      ],
      "name": "Approval",
      "type": "event"
    },
    {
      "anonymous": false,
      "inputs": [
        {
          "indexed": true,
          "internalType": "uint16",
          "name": "chainId",
          "type": "uint16"
        },
        {
          "indexed": true,
          "internalType": "address",
          "name": "from",
          "type": "address"
        },
        {
          "indexed": false,
          "internalType": "uint256",
          "name": "amount",
          "type": "uint256"
        }
      ],
      "name": "Bridged",
      "type": "event"
    },
    {
      "anonymous": false,
      "inputs": [
        {
          "indexed": true,
          "internalType": "address",
          "name": "from",
          "type": "address"
        },
        {
          "indexed": true,
          "internalType": "address",
          "name": "to",
          "type": "address"
        },
        {
          "indexed": false,
          "internalType": "uint256",
          "name": "value",
          "type": "uint256"
        }
      ],
      "name": "Transfer",
      "type": "event"
    },
    {
      "inputs": [
        {
          "internalType": "address",
          "name": "owner",
          "type": "address"
        },
        {
          "internalType": "address",
          "name": "spender",
          "type": "address"
        }
      ],
      "name": "allowance",
      "outputs": [
        {
          "internalType": "uint256",
          "name": "",
          "type": "uint256"
        }
      ],
      "stateMutability": "view",
      "type": "function"
    },
    {
      "inputs": [
        {
          "internalType": "address",
          "name": "spender",
          "type": "address"
        },
        {
          "internalType": "uint256",
          "name": "value",
          "type": "uint256"
        }
      ],
      "name": "approve",
      "outputs": [
        {
          "internalType": "bool",
          "name": "",
          "type": "bool"
        }
      ],
      "stateMutability": "nonpayable",
      "type": "function"
    },
    {
      "inputs": [
        {
          "internalType": "address",
          "name": "account",
          "type": "address"
        }
      ],
      "name": "balanceOf",
      "outputs": [
        {
          "internalType": "uint256",
          "name": "",
          "type": "uint256"
        }
      ],
      "stateMutability": "view",
      "type": "function"
    },
    {
      "inputs": [
        {
          "internalType": "uint16",
          "name": "chainId",
          "type": "uint16"
        },
        {
          "internalType": "bytes",
          "name": "destination",
          "type": "bytes"
        },
        {
          "internalType": "uint256",
          "name": "amount",
          "type": "uint256"
        }
      ],
      "name": "bridgeTo",
      "outputs": [],
      "stateMutability": "payable",
      "type": "function"
    },
    {
      "inputs": [
        {
          "internalType": "uint256",
          "name": "value",
          "type": "uint256"
        }
      ],
      "name": "burn",
      "outputs": [],
      "stateMutability": "nonpayable",
      "type": "function"
    },
    {
      "inputs": [
        {
          "internalType": "address",
          "name": "account",
          "type": "address"
        },
        {
          "internalType": "uint256",
          "name": "value",
          "type": "uint256"
        }
      ],
      "name": "burnFrom",
      "outputs": [],
      "stateMutability": "nonpayable",
      "type": "function"
    },
    {
      "inputs": [],
      "name": "decimals",
      "outputs": [
        {
          "internalType": "uint8",
          "name": "",
          "type": "uint8"
        }
      ],
      "stateMutability": "view",
      "type": "function"
    },
    {
      "inputs": [],
      "name": "endpoint",
      "outputs": [
        {
          "internalType": "contract ILayerZeroEndpoint",
          "name": "",
          "type": "address"
        }
      ],
      "stateMutability": "view",
      "type": "function"
    },
    {
      "inputs": [
        {
          "internalType": "uint16",
          "name": "",
          "type": "uint16"
        },
        {
          "internalType": "bytes",
          "name": "",
          "type": "bytes"
        },
        {
          "internalType": "uint64",
          "name": "",
          "type": "uint64"
        },
        {
          "internalType": "bytes",
          "name": "payload",
          "type": "bytes"
        }
      ],
      "name": "lzReceive",
      "outputs": [],
      "stateMutability": "nonpayable",
      "type": "function"
    },
    {
      "inputs": [],
      "name": "name",
      "outputs": [
        {
          "internalType": "string",
          "name": "",
          "type": "string"
        }
      ],
      "stateMutability": "view",
      "type": "function"
    },
    {
      "inputs": [],
      "name": "quorumPercent",
      "outputs": [
        {
          "internalType": "uint256",
          "name": "",
          "type": "uint256"
        }
      ],
      "stateMutability": "view",
      "type": "function"
    },
    {
      "inputs": [
        {
          "internalType": "uint256",
          "name": "newPercent",
          "type": "uint256"
        }
      ],
      "name": "setQuorumPercent",
      "outputs": [],
      "stateMutability": "nonpayable",
      "type": "function"
    },
    {
      "inputs": [],
      "name": "symbol",
      "outputs": [
        {
          "internalType": "string",
          "name": "",
          "type": "string"
        }
      ],
      "stateMutability": "view",
      "type": "function"
    },
    {
      "inputs": [],
      "name": "totalSupply",
      "outputs": [
        {
          "internalType": "uint256",
          "name": "",
          "type": "uint256"
        }
      ],
      "stateMutability": "view",
      "type": "function"
    },
    {
      "inputs": [
        {
          "internalType": "address",
          "name": "to",
          "type": "address"
        },
        {
          "internalType": "uint256",
          "name": "value",
          "type": "uint256"
        }
      ],
      "name": "transfer",
      "outputs": [
        {
          "internalType": "bool",
          "name": "",
          "type": "bool"
        }
      ],
      "stateMutability": "nonpayable",
      "type": "function"
    },
    {
      "inputs": [
        {
          "internalType": "address",
          "name": "from",
          "type": "address"
        },
        {
          "internalType": "address",
          "name": "to",
          "type": "address"
        },
        {
          "internalType": "uint256",
          "name": "value",
          "type": "uint256"
        }
      ],
      "name": "transferFrom",
      "outputs": [
        {
          "internalType": "bool",
          "name": "",
          "type": "bool"
        }
      ],
      "stateMutability": "nonpayable",
      "type": "function"
    }
  ],
  "bytecode": "0x60806040523480156200001157600080fd5b5060405162001dfc38038062001dfc8339818101604052810190620000379190620001d2565b6040518060400160405280600b81526020017f5a494f4e20446f6c6c61720000000000000000000000000000000000000000008152506040518060400160405280600581526020017f5a494f4e240000000000000000000000000000000000000000000000000000008152508160039081620000b4919062000489565b508060049081620000c6919062000489565b50505081600560006101000a81548173ffffffffffffffffffffffffffffffffffffffff021916908373ffffffffffffffffffffffffffffffffffffffff16021790555080600681905550505062000570565b600080fd5b600073ffffffffffffffffffffffffffffffffffffffff82169050919050565b60006200014b826200011e565b9050919050565b60006200015f826200013e565b9050919050565b620001718162000152565b81146200017d57600080fd5b50565b600081519050620001918162000166565b92915050565b6000819050919050565b620001ac8162000197565b8114620001b857600080fd5b50565b600081519050620001cc81620001a1565b92915050565b60008060408385031215620001ec57620001eb62000119565b5b6000620001fc8582860162000180565b92505060206200020f85828601620001bb565b9150509250929050565b600081519050919050565b7f4e487b7100000000000000000000000000000000000000000000000000000000600052604160045260246000fd5b7f4e487b7100000000000000000000000000000000000000000000000000000000600052602260045260246000fd5b600060028204905060018216806200029b57607f821691505b602082108103620002b157620002b062000253565b5b50919050565b60008190508160005260206000209050919050565b60006020601f8301049050919050565b600082821b905092915050565b6000600883026200031b7fffffffffffffffffffffffffffffffffffffffffffffffffffffffffffffffff82620002dc565b620003278683620002dc565b95508019841693508086168417925050509392505050565b6000819050919050565b60006200036a620003646200035e8462000197565b6200033f565b62000197565b9050919050565b6000819050919050565b620003868362000349565b6200039e620003958262000371565b848454620002e9565b825550505050565b600090565b620003b5620003a6565b620003c28184846200037b565b505050565b5b81811015620003ea57620003de600082620003ab565b600181019050620003c8565b5050565b601f82111562000439576200040381620002b7565b6200040e84620002cc565b810160208510156200041e578190505b620004366200042d85620002cc565b830182620003c7565b50505b505050565b600082821c905092915050565b60006200045e600019846008026200043e565b1980831691505092915050565b60006200047983836200044b565b9150826002028217905092915050565b620004948262000219565b67ffffffffffffffff811115620004b057620004af62000224565b5b620004bc825462000282565b620004c9828285620003ee565b600060209050601f831160018114620005015760008415620004ec578287015190505b620004f885826200046b565b86555062000568565b601f1984166200051186620002b7565b60005b828110156200053b5784890151825560018201915060208501945060208101905062000514565b868310156200055b578489015162000557601f8916826200044b565b8355505b6001600288020188555050505b505050505050565b61187c80620005806000396000f3fe6080604052600436106100f25760003560e01c806370a082311161008a57806395d89b411161005957806395d89b411461031a578063a9059cbb14610345578063dd62ed3e14610382578063f81cbd26146103bf576100f2565b806370a082311461026f578063797294ac146102ac57806379cc6790146102d55780638e27a45c146102fe576100f2565b806323b872dd116100c657806323b872dd146101b3578063313ce567146101f057806342966c681461021b5780635e280f1114610244576100f2565b80621d3567146100f757806306fdde0314610120578063095ea7b31461014b57806318160ddd14610188575b600080fd5b34801561010357600080fd5b5061011e60048036038101906101199190611049565b6103ea565b005b34801561012c57600080fd5b506101356104a4565b6040516101429190611180565b60405180910390f35b34801561015757600080fd5b50610172600480360381019061016d9190611236565b610536565b60405161017f9190611291565b60405180910390f35b34801561019457600080fd5b5061019d610559565b6040516101aa91906112bb565b60405180910390f35b3480156101bf57600080fd5b506101da60048036038101906101d591906112d6565b610563565b6040516101e79190611291565b60405180910390f35b3480156101fc57600080fd5b50610205610592565b6040516102129190611345565b60405180910390f35b34801561022757600080fd5b50610242600480360381019061023d9190611360565b61059b565b005b34801561025057600080fd5b506102596105af565b60405161026691906113ec565b60405180910390f35b34801561027b57600080fd5b5061029660048036038101906102919190611407565b6105d5565b6040516102a391906112bb565b60405180910390f35b3480156102b857600080fd5b506102d360048036038101906102ce9190611360565b61061d565b005b3480156102e157600080fd5b506102fc60048036038101906102f79190611236565b610627565b005b61031860048036038101906103139190611434565b610647565b005b34801561032657600080fd5b5061032f61077b565b60405161033c9190611180565b60405180910390f35b34801561035157600080fd5b5061036c60048036038101906103679190611236565b61080d565b6040516103799190611291565b60405180910390f35b34801561038e57600080fd5b506103a960048036038101906103a491906114a8565b610830565b6040516103b691906112bb565b60405180910390f35b3480156103cb57600080fd5b506103d46108b7565b6040516103e191906112bb565b60405180910390f35b600560009054906101000a900473ffffffffffffffffffffffffffffffffffffffff1673ffffffffffffffffffffffffffffffffffffffff163373ffffffffffffffffffffffffffffffffffffffff161461047a576040517f08c379a000000000000000000000000000000000000000000000000000000000815260040161047190611534565b60405180910390fd5b600080838381019061048c9190611592565b9150915061049a82826108bd565b5050505050505050565b6060600380546104b390611601565b80601f01602080910402602001604051908101604052809291908181526020018280546104df90611601565b801561052c5780601f106105015761010080835404028352916020019161052c565b820191906000526020600020905b81548152906001019060200180831161050f57829003601f168201915b5050505050905090565b60008061054161093f565b905061054e818585610947565b600191505092915050565b6000600254905090565b60008061056e61093f565b905061057b858285610959565b6105868585856109ee565b60019150509392505050565b60006012905090565b6105ac6105a661093f565b82610ae2565b50565b600560009054906101000a900473ffffffffffffffffffffffffffffffffffffffff1681565b60008060008373ffffffffffffffffffffffffffffffffffffffff1673ffffffffffffffffffffffffffffffffffffffff168152602001908152602001600020549050919050565b8060068190555050565b6106398261063361093f565b83610959565b6106438282610ae2565b5050565b6106513382610ae2565b60003382604051602001610666929190611641565b6040516020818303038152906040529050600560009054906101000a900473ffffffffffffffffffffffffffffffffffffffff1673ffffffffffffffffffffffffffffffffffffffff1663c58031003487878786336000604051806020016040528060008152506040518963ffffffff1660e01b81526004016106ef9796959493929190611719565b6000604051808303818588803b15801561070857600080fd5b505af115801561071c573d6000803e3d6000fd5b50505050503373ffffffffffffffffffffffffffffffffffffffff168561ffff167f80f089699fd0f2bd2beca5e14f9f10f1f9c66b611430a42b0826fe0daf3f22cb8460405161076c91906112bb565b60405180910390a35050505050565b60606004805461078a90611601565b80601f01602080910402602001604051908101604052809291908181526020018280546107b690611601565b80156108035780601f106107d857610100808354040283529160200191610803565b820191906000526020600020905b8154815290600101906020018083116107e657829003601f168201915b5050505050905090565b60008061081861093f565b90506108258185856109ee565b600191505092915050565b6000600160008473ffffffffffffffffffffffffffffffffffffffff1673ffffffffffffffffffffffffffffffffffffffff16815260200190815260200160002060008373ffffffffffffffffffffffffffffffffffffffff1673ffffffffffffffffffffffffffffffffffffffff16815260200190815260200160002054905092915050565b60065481565b600073ffffffffffffffffffffffffffffffffffffffff168273ffffffffffffffffffffffffffffffffffffffff160361092f5760006040517fec442f050000000000000000000000000000000000000000000000000000000081526004016109269190611791565b60405180910390fd5b61093b60008383610b64565b5050565b600033905090565b6109548383836001610d89565b505050565b60006109658484610830565b90507fffffffffffffffffffffffffffffffffffffffffffffffffffffffffffffffff8110156109e857818110156109d8578281836040517ffb8f41b20000000000000000000000000000000000000000000000000000000081526004016109cf939291906117ac565b60405180910390fd5b6109e784848484036000610d89565b5b50505050565b600073ffffffffffffffffffffffffffffffffffffffff168373ffffffffffffffffffffffffffffffffffffffff1603610a605760006040517f96c6fd1e000000000000000000000000000000000000000000000000000000008152600401610a579190611791565b60405180910390fd5b600073ffffffffffffffffffffffffffffffffffffffff168273ffffffffffffffffffffffffffffffffffffffff1603610ad25760006040517fec442f05000000000000000000000000000000000000000000000000000000008152600401610ac99190611791565b60405180910390fd5b610add838383610b64565b505050565b600073ffffffffffffffffffffffffffffffffffffffff168273ffffffffffffffffffffffffffffffffffffffff1603610b545760006040517f96c6fd1e000000000000000000000000000000000000000000000000000000008152600401610b4b9190611791565b60405180910390fd5b610b6082600083610b64565b5050565b600073ffffffffffffffffffffffffffffffffffffffff168373ffffffffffffffffffffffffffffffffffffffff1603610bb6578060026000828254610baa9190611812565b92505081905550610c89565b60008060008573ffffffffffffffffffffffffffffffffffffffff1673ffffffffffffffffffffffffffffffffffffffff16815260200190815260200160002054905081811015610c42578381836040517fe450d38c000000000000000000000000000000000000000000000000000000008152600401610c39939291906117ac565b60405180910390fd5b8181036000808673ffffffffffffffffffffffffffffffffffffffff1673ffffffffffffffffffffffffffffffffffffffff16815260200190815260200160002081905550505b600073ffffffffffffffffffffffffffffffffffffffff168273ffffffffffffffffffffffffffffffffffffffff1603610cd25780600260008282540392505081905550610d1f565b806000808473ffffffffffffffffffffffffffffffffffffffff1673ffffffffffffffffffffffffffffffffffffffff168152602001908152602001600020600082825401925050819055505b8173ffffffffffffffffffffffffffffffffffffffff168373ffffffffffffffffffffffffffffffffffffffff167fddf252ad1be2c89b69c2b068fc378daa952ba7f163c4a11628f55a4df523b3ef83604051610d7c91906112bb565b60405180910390a3505050565b600073ffffffffffffffffffffffffffffffffffffffff168473ffffffffffffffffffffffffffffffffffffffff1603610dfb5760006040517fe602df05000000000000000000000000000000000000000000000000000000008152600401610df29190611791565b60405180910390fd5b600073ffffffffffffffffffffffffffffffffffffffff168373ffffffffffffffffffffffffffffffffffffffff1603610e6d5760006040517f94280d62000000000000000000000000000000000000000000000000000000008152600401610e649190611791565b60405180910390fd5b81600160008673ffffffffffffffffffffffffffffffffffffffff1673ffffffffffffffffffffffffffffffffffffffff16815260200190815260200160002060008573ffffffffffffffffffffffffffffffffffffffff1673ffffffffffffffffffffffffffffffffffffffff168152602001908152602001600020819055508015610f5a578273ffffffffffffffffffffffffffffffffffffffff168473ffffffffffffffffffffffffffffffffffffffff167f8c5be1e5ebec7d5bd14f71427d1e84f3dd0314c0f7b2291e5b200ac8c7c3b92584604051610f5191906112bb565b60405180910390a35b50505050565b600080fd5b600080fd5b600061ffff82169050919050565b610f8181610f6a565b8114610f8c57600080fd5b50565b600081359050610f9e81610f78565b92915050565b600080fd5b600080fd5b600080fd5b60008083601f840112610fc957610fc8610fa4565b5b8235905067ffffffffffffffff811115610fe657610fe5610fa9565b5b60208301915083600182028301111561100257611001610fae565b5b9250929050565b600067ffffffffffffffff82169050919050565b61102681611009565b811461103157600080fd5b50565b6000813590506110438161101d565b92915050565b6000806000806000806080878903121561106657611065610f60565b5b600061107489828a01610f8f565b965050602087013567ffffffffffffffff81111561109557611094610f65565b5b6110a189828a01610fb3565b955095505060406110b489828a01611034565b935050606087013567ffffffffffffffff8111156110d5576110d4610f65565b5b6110e189828a01610fb3565b92509250509295509295509295565b600081519050919050565b600082825260208201905092915050565b60005b8381101561112a57808201518184015260208101905061110f565b60008484015250505050565b6000601f19601f8301169050919050565b6000611152826110f0565b61115c81856110fb565b935061116c81856020860161110c565b61117581611136565b840191505092915050565b6000602082019050818103600083015261119a8184611147565b905092915050565b600073ffffffffffffffffffffffffffffffffffffffff82169050919050565b60006111cd826111a2565b9050919050565b6111dd816111c2565b81146111e857600080fd5b50565b6000813590506111fa816111d4565b92915050565b6000819050919050565b61121381611200565b811461121e57600080fd5b50565b6000813590506112308161120a565b92915050565b6000806040838503121561124d5761124c610f60565b5b600061125b858286016111eb565b925050602061126c85828601611221565b9150509250929050565b60008115159050919050565b61128b81611276565b82525050565b60006020820190506112a66000830184611282565b92915050565b6112b581611200565b82525050565b60006020820190506112d060008301846112ac565b92915050565b6000806000606084860312156112ef576112ee610f60565b5b60006112fd868287016111eb565b935050602061130e868287016111eb565b925050604061131f86828701611221565b9150509250925092565b600060ff82169050919050565b61133f81611329565b82525050565b600060208201905061135a6000830184611336565b92915050565b60006020828403121561137657611375610f60565b5b600061138484828501611221565b91505092915050565b6000819050919050565b60006113b26113ad6113a8846111a2565b61138d565b6111a2565b9050919050565b60006113c482611397565b9050919050565b60006113d6826113b9565b9050919050565b6113e6816113cb565b82525050565b600060208201905061140160008301846113dd565b92915050565b60006020828403121561141d5761141c610f60565b5b600061142b848285016111eb565b91505092915050565b6000806000806060858703121561144e5761144d610f60565b5b600061145c87828801610f8f565b945050602085013567ffffffffffffffff81111561147d5761147c610f65565b5b61148987828801610fb3565b9350935050604061149c87828801611221565b91505092959194509250565b600080604083850312156114bf576114be610f60565b5b60006114cd858286016111eb565b92505060206114de858286016111eb565b9150509250929050565b7f696e76616c69642073656e646572000000000000000000000000000000000000600082015250565b600061151e600e836110fb565b9150611529826114e8565b602082019050919050565b6000602082019050818103600083015261154d81611511565b9050919050565b600061155f826111a2565b9050919050565b61156f81611554565b811461157a57600080fd5b50565b60008135905061158c81611566565b92915050565b600080604083850312156115a9576115a8610f60565b5b60006115b78582860161157d565b92505060206115c885828601611221565b9150509250929050565b7f4e487b7100000000000000000000000000000000000000000000000000000000600052602260045260246000fd5b6000600282049050600182168061161957607f821691505b60208210810361162c5761162b6115d2565b5b50919050565b61163b816111c2565b82525050565b60006040820190506116566000830185611632565b61166360208301846112ac565b9392505050565b61167381610f6a565b82525050565b600082825260208201905092915050565b82818337600083830152505050565b60006116a58385611679565b93506116b283858461168a565b6116bb83611136565b840190509392505050565b600081519050919050565b60006116dc826116c6565b6116e68185611679565b93506116f681856020860161110c565b6116ff81611136565b840191505092915050565b61171381611554565b82525050565b600060c08201905061172e600083018a61166a565b818103602083015261174181888a611699565b9050818103604083015261175581876116d1565b9050611764606083018661170a565b6117716080830185611632565b81810360a083015261178381846116d1565b905098975050505050505050565b60006020820190506117a66000830184611632565b92915050565b60006060820190506117c16000830186611632565b6117ce60208301856112ac565b6117db60408301846112ac565b949350505050565b7f4e487b7100000000000000000000000000000000000000000000000000000000600052601160045260246000fd5b600061181d82611200565b915061182883611200565b92508282019050808211156118405761183f6117e3565b5b9291505056fea26469706673582212205a572c6742f7e1bf7fd2197d3fa045bd1ff3456f5bacef94ba2a410e936690e464736f6c63430008140033",
  "linkReferences": {},
  "deployedLinkReferences": {}
}