{
  "contracts/GovernanceExecutor.sol": {
    "GovernanceExecutor": {
      "abi": [
        {
          "inputs": [
            {
              "internalType": "address",
              "name": "_dao",
              "type": "address"
            }
          ],
          "stateMutability": "nonpayable",
          "type": "constructor"
        },
        {
          "anonymous": false,
          "inputs": [
            {
              "indexed": true,
              "internalType": "uint256",
              "name": "proposalId",
              "type": "uint256"
            },
            {
              "indexed": false,
              "internalType": "address",
              "name": "target",
              "type": "address"
            },
            {
              "indexed": false,
              "internalType": "uint256",
              "name": "value",
              "type": "uint256"
            }
          ],
          "name": "ActionExecuted",
          "type": "event"
        },
        {
          "inputs": [],
          "name": "dao",
          "outputs": [
            {
              "internalType": "address",
              "name": "",
              "type": "address"
            }
          ],
          "stateMutability": "view",
          "type": "function"
        },
        {
          "inputs": [
            {
              "internalType": "uint256",
              "name": "proposalId",
              "type": "uint256"
            },
            {
              "internalType": "address",
              "name": "target",
              "type": "address"
            },
            {
              "internalType": "uint256",
              "name": "value",
              "type": "uint256"
            },
            {
              "internalType": "bytes",
              "name": "data",
              "type": "bytes"
            }
          ],
          "name": "execute",
          "outputs": [],
          "stateMutability": "nonpayable",
          "type": "function"
        }
      ],
      "evm": {
        "bytecode": {
          "linkReferences": {},
          "object": "608060405234801561001057600080fd5b50604051610694380380610694833981810160405281019061003291906100db565b806000806101000a81548173ffffffffffffffffffffffffffffffffffffffff021916908373ffffffffffffffffffffffffffffffffffffffff16021790555050610108565b600080fd5b600073ffffffffffffffffffffffffffffffffffffffff82169050919050565b60006100a88261007d565b9050919050565b6100b88161009d565b81146100c357600080fd5b50565b6000815190506100d5816100af565b92915050565b6000602082840312156100f1576100f0610078565b5b60006100ff848285016100c6565b91505092915050565b61057d806101176000396000f3fe608060405234801561001057600080fd5b50600436106100365760003560e01c80634162169f1461003b57806344c028fe14610059575b600080fd5b610043610075565b604051610050919061025a565b60405180910390f35b610073600480360381019061006e9190610346565b610099565b005b60008054906101000a900473ffffffffffffffffffffffffffffffffffffffff1681565b60008054906101000a900473ffffffffffffffffffffffffffffffffffffffff1673ffffffffffffffffffffffffffffffffffffffff163373ffffffffffffffffffffffffffffffffffffffff1614610127576040517f08c379a000000000000000000000000000000000000000000000000000000000815260040161011e9061042b565b60405180910390fd5b60008473ffffffffffffffffffffffffffffffffffffffff1684848460405161015192919061048a565b60006040518083038185875af1925050503d806000811461018e576040519150601f19603f3d011682016040523d82523d6000602084013e610193565b606091505b50509050806101d7576040517f08c379a00000000000000000000000000000000000000000000000000000000081526004016101ce906104ef565b60405180910390fd5b857f2ce4239ce51f7366f0a28baaaeeb5395025fb8de17e1b68dce8f7aa84b6ab95f868660405161020992919061051e565b60405180910390a2505050505050565b600073ffffffffffffffffffffffffffffffffffffffff82169050919050565b600061024482610219565b9050919050565b61025481610239565b82525050565b600060208201905061026f600083018461024b565b92915050565b600080fd5b600080fd5b6000819050919050565b6102928161027f565b811461029d57600080fd5b50565b6000813590506102af81610289565b92915050565b6102be81610239565b81146102c957600080fd5b50565b6000813590506102db816102b5565b92915050565b600080fd5b600080fd5b600080fd5b60008083601f840112610306576103056102e1565b5b8235905067ffffffffffffffff811115610323576103226102e6565b5b60208301915083600182028301111561033f5761033e6102eb565b5b9250929050565b60008060008060006080868803121561036257610361610275565b5b6000610370888289016102a0565b9550506020610381888289016102cc565b9450506040610392888289016102a0565b935050606086013567ffffffffffffffff8111156103b3576103b261027a565b5b6103bf888289016102f0565b92509250509295509295909350565b600082825260208201905092915050565b7f6f6e6c792064616f000000000000000000000000000000000000000000000000600082015250565b60006104156008836103ce565b9150610420826103df565b602082019050919050565b6000602082019050818103600083015261044481610408565b9050919050565b600081905092915050565b82818337600083830152505050565b6000610471838561044b565b935061047e838584610456565b82840190509392505050565b6000610497828486610465565b91508190509392505050565b7f65786563206661696c6564000000000000000000000000000000000000000000600082015250565b60006104d9600b836103ce565b91506104e4826104a3565b602082019050919050565b60006020820190508181036000830152610508816104cc565b9050919050565b6105188161027f565b82525050565b6000604082019050610533600083018561024b565b610540602083018461050f565b939250505056fea26469706673582212202d861d823db6dc01fc9d2799ed3adf56c7e8a98272e4072aaa042b03790b952564736f6c63430008140033",
          "opcodes": "PUSH1 0x80 PUSH1 0x40 MSTORE CALLVALUE DUP1 ISZERO PUSH2 0x10 JUMPI PUSH1 0x0 DUP1 REVERT JUMPDEST POP PUSH1 0x40 MLOAD PUSH2 0x694 CODESIZE SUB DUP1 PUSH2 0x694 DUP4 CODECOPY DUP2 DUP2 ADD PUSH1 0x40 MSTORE DUP2 ADD SWAP1 PUSH2 0x32 SWAP2 SWAP1 PUSH2 0xDB JUMP JUMPDEST DUP1 PUSH1 0x0 DUP1 PUSH2 0x100 EXP DUP2 SLOAD DUP2 PUSH20 0xFFFFFFFFFFFFFFFFFFFFFFFFFFFFFFFFFFFFFFFF MUL NOT AND SWAP1 DUP4 PUSH20 0xFFFFFFFFFFFFFFFFFFFFFFFFFFFFFFFFFFFFFFFF AND MUL OR SWAP1 SSTORE POP POP PUSH2 0x108 JUMP JUMPDEST PUSH1 0x0 DUP1 REVERT JUMPDEST PUSH1 0x0 PUSH20 0xFFFFFFFFFFFFFFFFFFFFFFFFFFFFFFFFFFFFFFFF DUP3 AND SWAP1 POP SWAP2 SWAP1 POP JUMP JUMPDEST PUSH1 0x0 PUSH2 0xA8 DUP3 PUSH2 0x7D JUMP JUMPDEST SWAP1 POP SWAP2 SWAP1 POP JUMP JUMPDEST PUSH2 0xB8 DUP2 PUSH2 0x9D JUMP JUMPDEST DUP2 EQ PUSH2 0xC3 JUMPI PUSH1 0x0 DUP1 REVERT JUMPDEST POP JUMP JUMPDEST PUSH1 0x0 DUP2 MLOAD SWAP1 POP PUSH2 0xD5 DUP2 PUSH2 0xAF JUMP JUMPDEST SWAP3 SWAP2 POP POP JUMP JUMPDEST PUSH1 0x0 PUSH1 0x20 DUP3 DUP5 SUB SLT ISZERO PUSH2 0xF1 JUMPI PUSH2 0xF0 PUSH2 0x78 JUMP JUMPDEST JUMPDEST PUSH1 0x0 PUSH2 0xFF DUP5 DUP3 DUP6 ADD PUSH2 0xC6 JUMP JUMPDEST SWAP2 POP POP SWAP3 SWAP2 POP POP JUMP JUMPDEST PUSH2 0x57D DUP1 PUSH2 0x117 PUSH1 0x0 CODECOPY PUSH1 0x0 RETURN INVALID PUSH1 0x80 PUSH1 0x40 MSTORE CALLVALUE DUP1 ISZERO PUSH2 0x10 JUMPI PUSH1 0x0 DUP1 REVERT JUMPDEST POP PUSH1 0x4 CALLDATASIZE LT PUSH2 0x36 JUMPI PUSH1 0x0 CALLDATALOAD PUSH1 0xE0 SHR DUP1 PUSH4 0x4162169F EQ PUSH2 0x3B JUMPI DUP1 PUSH4 0x44C028FE EQ PUSH2 0x59 JUMPI JUMPDEST PUSH1 0x0 DUP1 REVERT JUMPDEST PUSH2 0x43 PUSH2 0x75 JUMP JUMPDEST PUSH1 0x40 MLOAD PUSH2 0x50 SWAP2 SWAP1 PUSH2 0x25A JUMP JUMPDEST PUSH1 0x40 MLOAD DUP1 SWAP2 SUB SWAP1 RETURN JUMPDEST PUSH2 0x73 PUSH1 0x4 DUP1 CALLDATASIZE SUB DUP2 ADD SWAP1 PUSH2 0x6E SWAP2 SWAP1 PUSH2 0x346 JUMP JUMPDEST PUSH2 0x99 JUMP JUMPDEST STOP JUMPDEST PUSH1 0x0 DUP1 SLOAD SWAP1 PUSH2 0x100 EXP SWAP1 DIV PUSH20 0xFFFFFFFFFFFFFFFFFFFFFFFFFFFFFFFFFFFFFFFF AND DUP2 JUMP JUMPDEST PUSH1 0x0 DUP1 SLOAD SWAP1 PUSH2 0x100 EXP SWAP1 DIV PUSH20 0xFFFFFFFFFFFFFFFFFFFFFFFFFFFFFFFFFFFFFFFF AND PUSH20 0xFFFFFFFFFFFFFFFFFFFFFFFFFFFFFFFFFFFFFFFF AND CALLER PUSH20 0xFFFFFFFFFFFFFFFFFFFFFFFFFFFFFFFFFFFFFFFF AND EQ PUSH2 0x127 JUMPI PUSH1 0x40 MLOAD PUSH32 0x8C379A000000000000000000000000000000000000000000000000000000000 DUP2 MSTORE PUSH1 0x4 ADD PUSH2 0x11E SWAP1 PUSH2 0x42B JUMP JUMPDEST PUSH1 0x40 MLOAD DUP1 SWAP2 SUB SWAP1 REVERT JUMPDEST PUSH1 0x0 DUP5 PUSH20 0xFFFFFFFFFFFFFFFFFFFFFFFFFFFFFFFFFFFFFFFF AND DUP5 DUP5 DUP5 PUSH1 0x40 MLOAD PUSH2 0x151 SWAP3 SWAP2 SWAP1 PUSH2 0x48A JUMP JUMPDEST PUSH1 0x0 PUSH1 0x40 MLOAD DUP1 DUP4 SUB DUP2 DUP6 DUP8 GAS CALL SWAP3 POP POP POP RETURNDATASIZE DUP1 PUSH1 0x0 DUP2 EQ PUSH2 0x18E JUMPI PUSH1 0x40 MLOAD SWAP2 POP PUSH1 0x1F NOT PUSH1 0x3F RETURNDATASIZE ADD AND DUP3 ADD PUSH1 0x40 MSTORE RETURNDATASIZE DUP3 MSTORE RETURNDATASIZE PUSH1 0x0 PUSH1 0x20 DUP5 ADD RETURNDATACOPY PUSH2 0x193 JUMP JUMPDEST PUSH1 0x60 SWAP2 POP JUMPDEST POP POP SWAP1 POP DUP1 PUSH2 0x1D7 JUMPI PUSH1 0x40 MLOAD PUSH32 0x8C379A000000000000000000000000000000000000000000000000000000000 DUP2 MSTORE PUSH1 0x4 ADD PUSH2 0x1CE SWAP1 PUSH2 0x4EF JUMP JUMPDEST PUSH1 0x40 MLOAD DUP1 SWAP2 SUB SWAP1 REVERT JUMPDEST DUP6 PUSH32 0x2CE4239CE51F7366F0A28BAAAEEB5395025FB8DE17E1B68DCE8F7AA84B6AB95F DUP7 DUP7 PUSH1 0x40 MLOAD PUSH2 0x209 SWAP3 SWAP2 SWAP1 PUSH2 0x51E JUMP JUMPDEST PUSH1 0x40 MLOAD DUP1 SWAP2 SUB SWAP1 LOG2 POP POP POP POP POP POP JUMP JUMPDEST PUSH1 0x0 PUSH20 0xFFFFFFFFFFFFFFFFFFFFFFFFFFFFFFFFFFFFFFFF DUP3 AND SWAP1 POP SWAP2 SWAP1 POP JUMP JUMPDEST PUSH1 0x0 PUSH2 0x244 DUP3 PUSH2 0x219 JUMP JUMPDEST SWAP1 POP SWAP2 SWAP1 POP JUMP JUMPDEST PUSH2 0x254 DUP2 PUSH2 0x239 JUMP JUMPDEST DUP3 MSTORE POP POP JUMP JUMPDEST PUSH1 0x0 PUSH1 0x20 DUP3 ADD SWAP1 POP PUSH2 0x26F PUSH1 0x0 DUP4 ADD DUP5 PUSH2 0x24B JUMP JUMPDEST SWAP3 SWAP2 POP POP JUMP JUMPDEST PUSH1 0x0 DUP1 REVERT JUMPDEST PUSH1 0x0 DUP1 REVERT JUMPDEST PUSH1 0x0 DUP2 SWAP1 POP SWAP2 SWAP1 POP JUMP JUMPDEST PUSH2 0x292 DUP2 PUSH2 0x27F JUMP JUMPDEST DUP2 EQ PUSH2 0x29D JUMPI PUSH1 0x0 DUP1 REVERT JUMPDEST POP JUMP JUMPDEST PUSH1 0x0 DUP2 CALLDATALOAD SWAP1 POP PUSH2 0x2AF DUP2 PUSH2 0x289 JUMP JUMPDEST SWAP3 SWAP2 POP POP JUMP JUMPDEST PUSH2 0x2BE DUP2 PUSH2 0x239 JUMP JUMPDEST DUP2 EQ PUSH2 0x2C9 JUMPI PUSH1 0x0 DUP1 REVERT JUMPDEST POP JUMP JUMPDEST PUSH1 0x0 DUP2 CALLDATALOAD SWAP1 POP PUSH2 0x2DB DUP2 PUSH2 0x2B5 JUMP JUMPDEST SWAP3 SWAP2 POP POP JUMP JUMPDEST PUSH1 0x0 DUP1 REVERT JUMPDEST PUSH1 0x0 DUP1 REVERT JUMPDEST PUSH1 0x0 DUP1 REVERT JUMPDEST PUSH1 0x0 DUP1 DUP4 PUSH1 0x1F DUP5 ADD SLT PUSH2 0x306 JUMPI PUSH2 0x305 PUSH2 0x2E1 JUMP JUMPDEST JUMPDEST DUP3 CALLDATALOAD SWAP1 POP PUSH8 0xFFFFFFFFFFFFFFFF DUP2 GT ISZERO PUSH2 0x323 JUMPI PUSH2 0x322 PUSH2 0x2E6 JUMP JUMPDEST JUMPDEST PUSH1 0x20 DUP4 ADD SWAP2 POP DUP4 PUSH1 0x1 DUP3 MUL DUP4 ADD GT ISZERO PUSH2 0x33F JUMPI PUSH2 0x33E PUSH2 0x2EB JUMP JUMPDEST JUMPDEST SWAP3 POP SWAP3 SWAP1 POP JUMP JUMPDEST PUSH1 0x0 DUP1 PUSH1 0x0 DUP1 PUSH1 0x0 PUSH1 0x80 DUP7 DUP9 SUB SLT ISZERO PUSH2 0x362 JUMPI PUSH2 0x361 PUSH2 0x275 JUMP JUMPDEST JUMPDEST PUSH1 0x0 PUSH2 0x370 DUP9 DUP3 DUP10 ADD PUSH2 0x2A0 JUMP JUMPDEST SWAP6 POP POP PUSH1 0x20 PUSH2 0x381 DUP9 DUP3 DUP10 ADD PUSH2 0x2CC JUMP JUMPDEST SWAP5 POP POP PUSH1 0x40 PUSH2 0x392 DUP9 DUP3 DUP10 ADD PUSH2 0x2A0 JUMP JUMPDEST SWAP4 POP POP PUSH1 0x60 DUP7 ADD CALLDATALOAD PUSH8 0xFFFFFFFFFFFFFFFF DUP2 GT ISZERO PUSH2 0x3B3 JUMPI PUSH2 0x3B2 PUSH2 0x27A JUMP JUMPDEST JUMPDEST PUSH2 0x3BF DUP9 DUP3 DUP10 ADD PUSH2 0x2F0 JUMP JUMPDEST SWAP3 POP SWAP3 POP POP SWAP3 SWAP6 POP SWAP3 SWAP6 SWAP1 SWAP4 POP JUMP JUMPDEST PUSH1 0x0 DUP3 DUP3 MSTORE PUSH1 0x20 DUP3 ADD SWAP1 POP SWAP3 SWAP2 POP POP JUMP JUMPDEST PUSH32 0x6F6E6C792064616F000000000000000000000000000000000000000000000000 PUSH1 0x0 DUP3 ADD MSTORE POP JUMP JUMPDEST PUSH1 0x0 PUSH2 0x415 PUSH1 0x8 DUP4 PUSH2 0x3CE JUMP JUMPDEST SWAP2 POP PUSH2 0x420 DUP3 PUSH2 0x3DF JUMP JUMPDEST PUSH1 0x20 DUP3 ADD SWAP1 POP SWAP2 SWAP1 POP JUMP JUMPDEST PUSH1 0x0 PUSH1 0x20 DUP3 ADD SWAP1 POP DUP2 DUP2 SUB PUSH1 0x0 DUP4 ADD MSTORE PUSH2 0x444 DUP2 PUSH2 0x408 JUMP JUMPDEST SWAP1 POP SWAP2 SWAP1 POP JUMP JUMPDEST PUSH1 0x0 DUP2 SWAP1 POP SWAP3 SWAP2 POP POP JUMP JUMPDEST DUP3 DUP2 DUP4 CALLDATACOPY PUSH1 0x0 DUP4 DUP4 ADD MSTORE POP POP POP JUMP JUMPDEST PUSH1 0x0 PUSH2 0x471 DUP4 DUP6 PUSH2 0x44B JUMP JUMPDEST SWAP4 POP PUSH2 0x47E DUP4 DUP6 DUP5 PUSH2 0x456 JUMP JUMPDEST DUP3 DUP5 ADD SWAP1 POP SWAP4 SWAP3 POP POP POP JUMP JUMPDEST PUSH1 0x0 PUSH2 0x497 DUP3 DUP5 DUP7 PUSH2 0x465 JUMP JUMPDEST SWAP2 POP DUP2 SWAP1 POP SWAP4 SWAP3 POP POP POP JUMP JUMPDEST PUSH32 0x65786563206661696C6564000000000000000000000000000000000000000000 PUSH1 0x0 DUP3 ADD MSTORE POP JUMP JUMPDEST PUSH1 0x0 PUSH2 0x4D9 PUSH1 0xB DUP4 PUSH2 0x3CE JUMP JUMPDEST SWAP2 POP PUSH2 0x4E4 DUP3 PUSH2 0x4A3 JUMP JUMPDEST PUSH1 0x20 DUP3 ADD SWAP1 POP SWAP2 SWAP1 POP JUMP JUMPDEST PUSH1 0x0 PUSH1 0x20 DUP3 ADD SWAP1 POP DUP2 DUP2 SUB PUSH1 0x0 DUP4 ADD MSTORE PUSH2 0x508 DUP2 PUSH2 0x4CC JUMP JUMPDEST SWAP1 POP SWAP2 SWAP1 POP JUMP JUMPDEST PUSH2 0x518 DUP2 PUSH2 0x27F JUMP JUMPDEST DUP3 MSTORE POP POP JUMP JUMPDEST PUSH1 0x0 PUSH1 0x40 DUP3 ADD SWAP1 POP PUSH2 0x533 PUSH1 0x0 DUP4 ADD DUP6 PUSH2 0x24B JUMP JUMPDEST PUSH2 0x540 PUSH1 0x20 DUP4 ADD DUP5 PUSH2 0x50F JUMP JUMPDEST SWAP4 SWAP3 POP POP POP JUMP INVALID LOG2 PUSH5 0x6970667358 0x22 SLT KECCAK256 0x2D DUP7 SAR DUP3 RETURNDATASIZE 0xB6 0xDC ADD 0xFC SWAP14 0x27 SWAP10 0xED GASPRICE 0xDF JUMP 0xC7 0xE8 0xA9 DUP3 PUSH19 0xE4072AAA042B03790B952564736F6C63430008 EQ STOP CALLER "
        },
        "methodIdentifiers": {
          "dao()": "4162169f",
          "execute(uint256,address,uint256,bytes)": "44c028fe"
        }
      }
    }
  }
}