{
  "_format": "hh-sol-artifact-1",
  "contractName": "ZIONToken",
  "sourceName": "contracts/ZIONToken.sol",
  "abi": [
    {
      "inputs": [
        {
          "internalType": "address",
          "name": "initialOwner",
          "type": "address"
        }
      ],
      "stateMutability": "nonpayable",
      "type": "constructor"
    },
    {
      "inputs": [
        {
          "internalType": "address",
          "name": "spender",
          "type": "address"
        },
        {
          "internalType": "uint256",
          "name": "allowance",
          "type": "uint256"
        },
        {
          "internalType": "uint256",
          "name": "needed",
          "type": "uint256"
        }
      ],
      "name": "ERC20InsufficientAllowance",
      "type": "error"
    },
    {
      "inputs": [
        {
          "internalType": "address",
          "name": "sender",
          "type": "address"
        },
        {
          "internalType": "uint256",
          "name": "balance",
          "type": "uint256"
        },
        {
          "internalType": "uint256",
          "name": "needed",
          "type": "uint256"
        }
      ],
      "name": "ERC20InsufficientBalance",
      "type": "error"
    },
    {
      "inputs": [
        {
          "internalType": "address",
          "name": "approver",
          "type": "address"
        }
      ],
      "name": "ERC20InvalidApprover",
      "type": "error"
    },
    {
      "inputs": [
        {
          "internalType": "address",
          "name": "receiver",
          "type": "address"
        }
      ],
      "name": "ERC20InvalidReceiver",
      "type": "error"
    },
    {
      "inputs": [
        {
          "internalType": "address",
          "name": "sender",
          "type": "address"
        }
      ],
      "name": "ERC20InvalidSender",
      "type": "error"
    },
    {
      "inputs": [
        {
          "internalType": "address",
          "name": "spender",
          "type": "address"
        }
      ],
      "name": "ERC20InvalidSpender",
      "type": "error"
    },
    {
      "inputs": [
        {
          "internalType": "address",
          "name": "owner",
          "type": "address"
        }
      ],
      "name": "OwnableInvalidOwner",
      "type": "error"
    },
    {
      "inputs": [
        {
          "internalType": "address",
          "name": "account",
          "type": "address"
        }
      ],
      "name": "OwnableUnauthorizedAccount",
      "type": "error"
    },
    {
      "anonymous": false,
      "inputs": [
        {
          "indexed": true,
          "internalType": "address",
          "name": "owner",
          "type": "address"
        },
        {
          "indexed": true,
          "internalType": "address",
          "name": "spender",
          "type": "address"
        },
        {
          "indexed": false,
          "internalType": "uint256",
          "name": "value",
          "type": "uint256"
        }
      ],
      "name": "Approval",
      "type": "event"
    },
    {
      "anonymous": false,
      "inputs": [
        {
          "indexed": true,
          "internalType": "address",
          "name": "previousOwner",
          "type": "address"
        },
        {
          "indexed": true,
          "internalType": "address",
          "name": "newOwner",
          "type": "address"
        }
      ],
      "name": "OwnershipTransferred",
      "type": "event"
    },
    {
      "anonymous": false,
      "inputs": [
        {
          "indexed": true,
          "internalType": "address",
          "name": "from",
          "type": "address"
        },
        {
          "indexed": true,
          "internalType": "address",
          "name": "to",
          "type": "address"
        },
        {
          "indexed": false,
          "internalType": "uint256",
          "name": "value",
          "type": "uint256"
        }
      ],
      "name": "Transfer",
      "type": "event"
    },
    {
      "inputs": [],
      "name": "MAX_SUPPLY",
      "outputs": [
        {
          "internalType": "uint256",
          "name": "",
          "type": "uint256"
        }
      ],
      "stateMutability": "view",
      "type": "function"
    },
    {
      "inputs": [
        {
          "internalType": "address",
          "name": "owner",
          "type": "address"
        },
        {
          "internalType": "address",
          "name": "spender",
          "type": "address"
        }
      ],
      "name": "allowance",
      "outputs": [
        {
          "internalType": "uint256",
          "name": "",
          "type": "uint256"
        }
      ],
      "stateMutability": "view",
      "type": "function"
    },
    {
      "inputs": [
        {
          "internalType": "address",
          "name": "spender",
          "type": "address"
        },
        {
          "internalType": "uint256",
          "name": "value",
          "type": "uint256"
        }
      ],
      "name": "approve",
      "outputs": [
        {
          "internalType": "bool",
          "name": "",
          "type": "bool"
        }
      ],
      "stateMutability": "nonpayable",
      "type": "function"
    },
    {
      "inputs": [
        {
          "internalType": "address",
          "name": "account",
          "type": "address"
        }
      ],
      "name": "balanceOf",
      "outputs": [
        {
          "internalType": "uint256",
          "name": "",
          "type": "uint256"
        }
      ],
      "stateMutability": "view",
      "type": "function"
    },
    {
      "inputs": [
        {
          "internalType": "uint256",
          "name": "value",
          "type": "uint256"
        }
      ],
      "name": "burn",
      "outputs": [],
      "stateMutability": "nonpayable",
      "type": "function"
    },
    {
      "inputs": [
        {
          "internalType": "address",
          "name": "account",
          "type": "address"
        },
        {
          "internalType": "uint256",
          "name": "value",
          "type": "uint256"
        }
      ],
      "name": "burnFrom",
      "outputs": [],
      "stateMutability": "nonpayable",
      "type": "function"
    },
    {
      "inputs": [],
      "name": "decimals",
      "outputs": [
        {
          "internalType": "uint8",
          "name": "",
          "type": "uint8"
        }
      ],
      "stateMutability": "view",
      "type": "function"
    },
    {
      "inputs": [],
      "name": "name",
      "outputs": [
        {
          "internalType": "string",
          "name": "",
          "type": "string"
        }
      ],
      "stateMutability": "view",
      "type": "function"
    },
    {
      "inputs": [],
      "name": "owner",
      "outputs": [
        {
          "internalType": "address",
          "name": "",
          "type": "address"
        }
      ],
      "stateMutability": "view",
      "type": "function"
    },
    {
      "inputs": [],
      "name": "renounceOwnership",
      "outputs": [],
      "stateMutability": "nonpayable",
      "type": "function"
    },
    {
      "inputs": [],
      "name": "symbol",
      "outputs": [
        {
          "internalType": "string",
          "name": "",
          "type": "string"
        }
      ],
      "stateMutability": "view",
      "type": "function"
    },
    {
      "inputs": [],
      "name": "totalSupply",
      "outputs": [
        {
          "internalType": "uint256",
          "name": "",
          "type": "uint256"
        }
      ],
      "stateMutability": "view",
      "type": "function"
    },
    {
      "inputs": [
        {
          "internalType": "address",
          "name": "to",
          "type": "address"
        },
        {
          "internalType": "uint256",
          "name": "value",
          "type": "uint256"
        }
      ],
      "name": "transfer",
      "outputs": [
        {
          "internalType": "bool",
          "name": "",
          "type": "bool"
        }
      ],
      "stateMutability": "nonpayable",
      "type": "function"
    },
    {
      "inputs": [
        {
          "internalType": "address",
          "name": "from",
          "type": "address"
        },
        {
          "internalType": "address",
          "name": "to",
          "type": "address"
        },
        {
          "internalType": "uint256",
          "name": "value",
          "type": "uint256"
        }
      ],
      "name": "transferFrom",
      "outputs": [
        {
          "internalType": "bool",
          "name": "",
          "type": "bool"
        }
      ],
      "stateMutability": "nonpayable",
      "type": "function"
    },
    {
      "inputs": [
        {
          "internalType": "address",
          "name": "newOwner",
          "type": "address"
        }
      ],
      "name": "transferOwnership",
      "outputs": [],
      "stateMutability": "nonpayable",
      "type": "function"
    }
  ],
  "bytecode": "0x60806040523480156200001157600080fd5b5060405162000dcb38038062000dcb8339810160408190526200003491620002b6565b806040518060400160405280600a8152602001692d24a7a7102a37b5b2b760b11b815250604051806040016040528060048152602001632d24a7a760e11b81525081600390816200008691906200038f565b5060046200009582826200038f565b5050506001600160a01b038116620000c857604051631e4fbdf760e01b8152600060048201526024015b60405180910390fd5b620000d381620000f3565b50620000ec816b033b2e3c9fd0803ce800000062000145565b5062000483565b600580546001600160a01b038381166001600160a01b0319831681179093556040519116919082907f8be0079c531659141344cd1fd0a4f28419497f9722a3daafe3b4186f6b6457e090600090a35050565b6001600160a01b038216620001715760405163ec442f0560e01b815260006004820152602401620000bf565b6200017f6000838362000183565b5050565b6001600160a01b038316620001b2578060026000828254620001a691906200045b565b90915550620002269050565b6001600160a01b03831660009081526020819052604090205481811015620002075760405163391434e360e21b81526001600160a01b03851660048201526024810182905260448101839052606401620000bf565b6001600160a01b03841660009081526020819052604090209082900390555b6001600160a01b038216620002445760028054829003905562000263565b6001600160a01b03821660009081526020819052604090208054820190555b816001600160a01b0316836001600160a01b03167fddf252ad1be2c89b69c2b068fc378daa952ba7f163c4a11628f55a4df523b3ef83604051620002a991815260200190565b60405180910390a3505050565b600060208284031215620002c957600080fd5b81516001600160a01b0381168114620002e157600080fd5b9392505050565b634e487b7160e01b600052604160045260246000fd5b600181811c908216806200031357607f821691505b6020821081036200033457634e487b7160e01b600052602260045260246000fd5b50919050565b601f8211156200038a576000816000526020600020601f850160051c81016020861015620003655750805b601f850160051c820191505b81811015620003865782815560010162000371565b5050505b505050565b81516001600160401b03811115620003ab57620003ab620002e8565b620003c381620003bc8454620002fe565b846200033a565b602080601f831160018114620003fb5760008415620003e25750858301515b600019600386901b1c1916600185901b17855562000386565b600085815260208120601f198616915b828110156200042c578886015182559484019460019091019084016200040b565b50858210156200044b5787850151600019600388901b60f8161c191681555b5050505050600190811b01905550565b808201808211156200047d57634e487b7160e01b600052601160045260246000fd5b92915050565b61093880620004936000396000f3fe608060405234801561001057600080fd5b50600436106100f55760003560e01c806370a082311161009757806395d89b411161006657806395d89b41146101f6578063a9059cbb146101fe578063dd62ed3e14610211578063f2fde38b1461024a57600080fd5b806370a0823114610197578063715018a6146101c057806379cc6790146101c85780638da5cb5b146101db57600080fd5b806323b872dd116100d357806323b872dd1461014d578063313ce5671461016057806332cb6b0c1461016f57806342966c681461018257600080fd5b806306fdde03146100fa578063095ea7b31461011857806318160ddd1461013b575b600080fd5b61010261025d565b60405161010f9190610768565b60405180910390f35b61012b6101263660046107d3565b6102ef565b604051901515815260200161010f565b6002545b60405190815260200161010f565b61012b61015b3660046107fd565b610309565b6040516012815260200161010f565b61013f6b033b2e3c9fd0803ce800000081565b610195610190366004610839565b61032d565b005b61013f6101a5366004610852565b6001600160a01b031660009081526020819052604090205490565b61019561033a565b6101956101d63660046107d3565b61034e565b6005546040516001600160a01b03909116815260200161010f565b610102610367565b61012b61020c3660046107d3565b610376565b61013f61021f366004610874565b6001600160a01b03918216600090815260016020908152604080832093909416825291909152205490565b610195610258366004610852565b610384565b60606003805461026c906108a7565b80601f0160208091040260200160405190810160405280929190818152602001828054610298906108a7565b80156102e55780601f106102ba576101008083540402835291602001916102e5565b820191906000526020600020905b8154815290600101906020018083116102c857829003601f168201915b5050505050905090565b6000336102fd8185856103c4565b60019150505b92915050565b6000336103178582856103d6565b610322858585610455565b506001949350505050565b61033733826104b4565b50565b6103426104ea565b61034c6000610517565b565b6103598233836103d6565b61036382826104b4565b5050565b60606004805461026c906108a7565b6000336102fd818585610455565b61038c6104ea565b6001600160a01b0381166103bb57604051631e4fbdf760e01b8152600060048201526024015b60405180910390fd5b61033781610517565b6103d18383836001610569565b505050565b6001600160a01b0383811660009081526001602090815260408083209386168352929052205460001981101561044f578181101561044057604051637dc7a0d960e11b81526001600160a01b038416600482015260248101829052604481018390526064016103b2565b61044f84848484036000610569565b50505050565b6001600160a01b03831661047f57604051634b637e8f60e11b8152600060048201526024016103b2565b6001600160a01b0382166104a95760405163ec442f0560e01b8152600060048201526024016103b2565b6103d183838361063e565b6001600160a01b0382166104de57604051634b637e8f60e11b8152600060048201526024016103b2565b6103638260008361063e565b6005546001600160a01b0316331461034c5760405163118cdaa760e01b81523360048201526024016103b2565b600580546001600160a01b038381166001600160a01b0319831681179093556040519116919082907f8be0079c531659141344cd1fd0a4f28419497f9722a3daafe3b4186f6b6457e090600090a35050565b6001600160a01b0384166105935760405163e602df0560e01b8152600060048201526024016103b2565b6001600160a01b0383166105bd57604051634a1406b160e11b8152600060048201526024016103b2565b6001600160a01b038085166000908152600160209081526040808320938716835292905220829055801561044f57826001600160a01b0316846001600160a01b03167f8c5be1e5ebec7d5bd14f71427d1e84f3dd0314c0f7b2291e5b200ac8c7c3b9258460405161063091815260200190565b60405180910390a350505050565b6001600160a01b03831661066957806002600082825461065e91906108e1565b909155506106db9050565b6001600160a01b038316600090815260208190526040902054818110156106bc5760405163391434e360e21b81526001600160a01b038516600482015260248101829052604481018390526064016103b2565b6001600160a01b03841660009081526020819052604090209082900390555b6001600160a01b0382166106f757600280548290039055610716565b6001600160a01b03821660009081526020819052604090208054820190555b816001600160a01b0316836001600160a01b03167fddf252ad1be2c89b69c2b068fc378daa952ba7f163c4a11628f55a4df523b3ef8360405161075b91815260200190565b60405180910390a3505050565b60006020808352835180602085015260005b818110156107965785810183015185820160400152820161077a565b506000604082860101526040601f19601f8301168501019250505092915050565b80356001600160a01b03811681146107ce57600080fd5b919050565b600080604083850312156107e657600080fd5b6107ef836107b7565b946020939093013593505050565b60008060006060848603121561081257600080fd5b61081b846107b7565b9250610829602085016107b7565b9150604084013590509250925092565b60006020828403121561084b57600080fd5b5035919050565b60006020828403121561086457600080fd5b61086d826107b7565b9392505050565b6000806040838503121561088757600080fd5b610890836107b7565b915061089e602084016107b7565b90509250929050565b600181811c908216806108bb57607f821691505b6020821081036108db57634e487b7160e01b600052602260045260246000fd5b50919050565b8082018082111561030357634e487b7160e01b600052601160045260246000fdfea26469706673582212207243832dcff2161eee26ae0e1476739d3d8033d011c0e7ad87ecbde680cf014764736f6c63430008180033",
  "linkReferences": {},
  "deployedLinkReferences": {}
}