{
  "_format": "hh-sol-artifact-1",
  "contractName": "GovernanceExecutor",
  "sourceName": "contracts/governance/GovernanceExecutor.sol",
  "abi": [
    {
      "inputs": [
        {
          "internalType": "address",
          "name": "_voteToken",
          "type": "address"
        },
        {
          "internalType": "address",
          "name": "_timelock",
          "type": "address"
        },
        {
          "internalType": "address",
          "name": "_rewardVault",
          "type": "address"
        }
      ],
      "stateMutability": "nonpayable",
      "type": "constructor"
    },
    {
      "anonymous": false,
      "inputs": [
        {
          "indexed": true,
          "internalType": "address",
          "name": "owner",
          "type": "address"
        }
      ],
      "name": "OwnerUpdated",
      "type": "event"
    },
    {
      "anonymous": false,
      "inputs": [
        {
          "indexed": true,
          "internalType": "uint256",
          "name": "proposalId",
          "type": "uint256"
        },
        {
          "indexed": false,
          "internalType": "bytes32",
          "name": "proposalHash",
          "type": "bytes32"
        }
      ],
      "name": "ProposalFinalized",
      "type": "event"
    },
    {
      "anonymous": false,
      "inputs": [
        {
          "indexed": true,
          "internalType": "address",
          "name": "rewardVault",
          "type": "address"
        }
      ],
      "name": "RewardVaultUpdated",
      "type": "event"
    },
    {
      "anonymous": false,
      "inputs": [
        {
          "indexed": true,
          "internalType": "address",
          "name": "timelock",
          "type": "address"
        }
      ],
      "name": "TimelockUpdated",
      "type": "event"
    },
    {
      "anonymous": false,
      "inputs": [
        {
          "indexed": true,
          "internalType": "uint256",
          "name": "proposalId",
          "type": "uint256"
        },
        {
          "indexed": false,
          "internalType": "uint256",
          "name": "forVotes",
          "type": "uint256"
        },
        {
          "indexed": false,
          "internalType": "uint256",
          "name": "againstVotes",
          "type": "uint256"
        }
      ],
      "name": "VoteMirrored",
      "type": "event"
    },
    {
      "inputs": [
        {
          "internalType": "bytes32",
          "name": "id",
          "type": "bytes32"
        },
        {
          "internalType": "address",
          "name": "target",
          "type": "address"
        },
        {
          "internalType": "uint256",
          "name": "value",
          "type": "uint256"
        },
        {
          "internalType": "bytes",
          "name": "data",
          "type": "bytes"
        }
      ],
      "name": "executeTimelock",
      "outputs": [],
      "stateMutability": "payable",
      "type": "function"
    },
    {
      "inputs": [
        {
          "internalType": "bytes32",
          "name": "proposalHash",
          "type": "bytes32"
        },
        {
          "internalType": "uint256",
          "name": "proposalId",
          "type": "uint256"
        }
      ],
      "name": "onProposal",
      "outputs": [],
      "stateMutability": "nonpayable",
      "type": "function"
    },
    {
      "inputs": [
        {
          "internalType": "uint256",
          "name": "proposalId",
          "type": "uint256"
        },
        {
          "internalType": "uint256",
          "name": "forVotes",
          "type": "uint256"
        },
        {
          "internalType": "uint256",
          "name": "againstVotes",
          "type": "uint256"
        }
      ],
      "name": "onVoteMirror",
      "outputs": [],
      "stateMutability": "nonpayable",
      "type": "function"
    },
    {
      "inputs": [],
      "name": "owner",
      "outputs": [
        {
          "internalType": "address",
          "name": "",
          "type": "address"
        }
      ],
      "stateMutability": "view",
      "type": "function"
    },
    {
      "inputs": [],
      "name": "rewardVault",
      "outputs": [
        {
          "internalType": "address",
          "name": "",
          "type": "address"
        }
      ],
      "stateMutability": "view",
      "type": "function"
    },
    {
      "inputs": [
        {
          "internalType": "bytes32",
          "name": "id",
          "type": "bytes32"
        },
        {
          "internalType": "address",
          "name": "target",
          "type": "address"
        },
        {
          "internalType": "uint256",
          "name": "value",
          "type": "uint256"
        },
        {
          "internalType": "bytes",
          "name": "data",
          "type": "bytes"
        },
        {
          "internalType": "uint256",
          "name": "delay",
          "type": "uint256"
        }
      ],
      "name": "scheduleTimelock",
      "outputs": [],
      "stateMutability": "nonpayable",
      "type": "function"
    },
    {
      "inputs": [
        {
          "internalType": "address",
          "name": "_owner",
          "type": "address"
        }
      ],
      "name": "setOwner",
      "outputs": [],
      "stateMutability": "nonpayable",
      "type": "function"
    },
    {
      "inputs": [
        {
          "internalType": "address",
          "name": "_vault",
          "type": "address"
        }
      ],
      "name": "setRewardVault",
      "outputs": [],
      "stateMutability": "nonpayable",
      "type": "function"
    },
    {
      "inputs": [
        {
          "internalType": "address",
          "name": "_timelock",
          "type": "address"
        }
      ],
      "name": "setTimelock",
      "outputs": [],
      "stateMutability": "nonpayable",
      "type": "function"
    },
    {
      "inputs": [
        {
          "internalType": "uint256",
          "name": "",
          "type": "uint256"
        }
      ],
      "name": "tallies",
      "outputs": [
        {
          "internalType": "uint256",
          "name": "forVotes",
          "type": "uint256"
        },
        {
          "internalType": "uint256",
          "name": "againstVotes",
          "type": "uint256"
        }
      ],
      "stateMutability": "view",
      "type": "function"
    },
    {
      "inputs": [],
      "name": "timelock",
      "outputs": [
        {
          "internalType": "contract ITimelockControllerLike",
          "name": "",
          "type": "address"
        }
      ],
      "stateMutability": "view",
      "type": "function"
    },
    {
      "inputs": [
        {
          "internalType": "address",
          "name": "to",
          "type": "address"
        },
        {
          "internalType": "uint256",
          "name": "amount",
          "type": "uint256"
        }
      ],
      "name": "unlockRewards",
      "outputs": [],
      "stateMutability": "nonpayable",
      "type": "function"
    },
    {
      "inputs": [],
      "name": "voteToken",
      "outputs": [
        {
          "internalType": "address",
          "name": "",
          "type": "address"
        }
      ],
      "stateMutability": "view",
      "type": "function"
    }
  ],
  "bytecode": "0x6080346100d157601f6108f038819003918201601f19168301916001600160401b038311848410176100d6578084926060946040528339810103126100d157610047816100ec565b906100606040610059602084016100ec565b92016100ec565b60018060a01b0319923384600054161760005560018060a01b0392838092168560015416176001551683600254161760025516906003541617600355604051337f4ffd725fc4a22075e9ec71c59edf9c38cdeb588a91b24fc5b61388c5be41282b600080a26107ef90816101018239f35b600080fd5b634e487b7160e01b600052604160045260246000fd5b51906001600160a01b03821682036100d15756fe6080604081815260048036101561001557600080fd5b600092833560e01c90816302f9875c146106935750806313af4035146105f3578063160d66ae146105ca5780631a32b2371461059a578063290b33aa146104dd5780633a2c6777146104b45780638125dd10146104405780638da5cb5b146104185780638ea74bfd146102d5578063a433e82e14610238578063bdacb303146101c4578063d33219b4146101975763d9c6f9e7146100b257600080fd5b8291346101935760a0366003190112610193576100cd6106f2565b9160643567ffffffffffffffff811161018f576100ed9036908301610708565b855490946001600160a01b0392916101089084163314610736565b826002541691823b1561018b57879461015486928851998a978896879563b2f49b3360e01b8752803590870152166024850152604435604485015260a0606485015260a4840191610798565b608435608483015203925af1908115610182575061016f5750f35b6101789061076e565b61017f5780f35b80fd5b513d84823e3d90fd5b8780fd5b8480fd5b5050fd5b5050346101c057816003193601126101c05760025490516001600160a01b039091168152602090f35b5080fd5b833461017f57602036600319011261017f576101de6106d7565b81546001600160a01b0391906101f79083163314610736565b16806bffffffffffffffffffffffff60a01b60025416176002557fc046b9e8f0cd9b70a3b838962e9c229277fbb7abee68ea0fad4acf2898ed2ca98280a280f35b509190346101c05760603660031901126101c057823590602435604435825183810181811067ffffffffffffffff8211176102c0577f98009c8637dc965cbc9df1c7fb159da7e11b348a7ce99558848cdf15ef7db56095969760019186528483526020830190848252888a52602052858920925183555191015582519182526020820152a280f35b604188634e487b7160e01b6000525260246000fd5b5090346104145780600319360112610414576102ef6106d7565b8354602492916001600160a01b039161030b9083163314610736565b816003541690835192602084019163a9059cbb60e01b835216858401528435604484015260448352608083019267ffffffffffffffff938181108582111761040057855251879283929083905af1903d156103fa573d8181116103e857835191601f8201601f19908116603f01168301908111838210176103d457845281528560203d92013e5b1561039b578380f35b606492916020601492519362461bcd60e51b855284015282015273149155d0549117d514905394d1915497d190525360621b6044820152fd5b85604188634e487b7160e01b600052526000fd5b634e487b7160e01b8752604186528487fd5b50610392565b86604189634e487b7160e01b600052526000fd5b8280fd5b5050346101c057816003193601126101c057905490516001600160a01b039091168152602090f35b833461017f57602036600319011261017f5761045a6106d7565b81546001600160a01b0391906104739083163314610736565b16806bffffffffffffffffffffffff60a01b60035416176003557f176fa4a8779fa7a62f55171df9681dcdcc47129f40852b980f7fb1e287569ca18280a280f35b5050346101c057816003193601126101c05760035490516001600160a01b039091168152602090f35b5090608036600319011261041457826104f46106f2565b9260643567ffffffffffffffff8111610414576105149036908301610708565b9460018060a01b039261052b848654163314610736565b836002541692833b15610596576105749087519889968795869563fce670fd60e01b87528035908701521660248501526044356044850152608060648501526084840191610798565b039134905af1908115610182575061058a575080f35b6105939061076e565b80f35b8580fd5b50346104145760203660031901126104145791828293358252602052206001815491015482519182526020820152f35b5050346101c057816003193601126101c05760015490516001600160a01b039091168152602090f35b508290346101c05760203660031901126101c05761060f6106d7565b8254906001600160a01b03906106283383851614610736565b1691821561066657506001600160a01b031916811782557f4ffd725fc4a22075e9ec71c59edf9c38cdeb588a91b24fc5b61388c5be41282b8280a280f35b606490602086519162461bcd60e51b8352820152600760248201526606f776e65723d360cc1b6044820152fd5b929050346106d357366003190112610414573581527ff257e92ef4a8fc0160d45d7dd26b63eb640d66f9606ea581fe295301ca58b7d2602060243592a280f35b8380fd5b600435906001600160a01b03821682036106ed57565b600080fd5b602435906001600160a01b03821682036106ed57565b9181601f840112156106ed5782359167ffffffffffffffff83116106ed57602083818601950101116106ed57565b1561073d57565b60405162461bcd60e51b81526020600482015260096024820152682727aa2fa7aba722a960b91b6044820152606490fd5b67ffffffffffffffff811161078257604052565b634e487b7160e01b600052604160045260246000fd5b908060209392818452848401376000828201840152601f01601f191601019056fea2646970667358221220a38e2e7971efbb7bf48dc54266054ab8046244e1e8d797536c3729bfa09cd59b64736f6c63430008180033",
  "linkReferences": {},
  "deployedLinkReferences": {}
}