{
  "_format": "hh-sol-artifact-1",
  "contractName": "VoteRelay",
  "sourceName": "contracts/governance/VoteRelay.sol",
  "abi": [
    {
      "inputs": [
        {
          "internalType": "address",
          "name": "_bridge",
          "type": "address"
        },
        {
          "internalType": "address",
          "name": "_executor",
          "type": "address"
        }
      ],
      "stateMutability": "nonpayable",
      "type": "constructor"
    },
    {
      "anonymous": false,
      "inputs": [
        {
          "indexed": true,
          "internalType": "address",
          "name": "bridge",
          "type": "address"
        }
      ],
      "name": "BridgeUpdated",
      "type": "event"
    },
    {
      "anonymous": false,
      "inputs": [
        {
          "indexed": true,
          "internalType": "address",
          "name": "executor",
          "type": "address"
        }
      ],
      "name": "ExecutorUpdated",
      "type": "event"
    },
    {
      "anonymous": false,
      "inputs": [
        {
          "indexed": true,
          "internalType": "address",
          "name": "owner",
          "type": "address"
        }
      ],
      "name": "OwnerUpdated",
      "type": "event"
    },
    {
      "anonymous": false,
      "inputs": [
        {
          "indexed": true,
          "internalType": "uint256",
          "name": "proposalId",
          "type": "uint256"
        },
        {
          "indexed": false,
          "internalType": "bytes32",
          "name": "proposalHash",
          "type": "bytes32"
        },
        {
          "indexed": false,
          "internalType": "uint16",
          "name": "dstChainId",
          "type": "uint16"
        }
      ],
      "name": "ProposalSent",
      "type": "event"
    },
    {
      "anonymous": false,
      "inputs": [
        {
          "indexed": true,
          "internalType": "uint256",
          "name": "proposalId",
          "type": "uint256"
        },
        {
          "indexed": false,
          "internalType": "uint256",
          "name": "forVotes",
          "type": "uint256"
        },
        {
          "indexed": false,
          "internalType": "uint256",
          "name": "againstVotes",
          "type": "uint256"
        },
        {
          "indexed": false,
          "internalType": "uint16",
          "name": "dstChainId",
          "type": "uint16"
        }
      ],
      "name": "VoteMirrorSent",
      "type": "event"
    },
    {
      "inputs": [],
      "name": "bridge",
      "outputs": [
        {
          "internalType": "contract IBridgeAdapter",
          "name": "",
          "type": "address"
        }
      ],
      "stateMutability": "view",
      "type": "function"
    },
    {
      "inputs": [],
      "name": "executor",
      "outputs": [
        {
          "internalType": "address",
          "name": "",
          "type": "address"
        }
      ],
      "stateMutability": "view",
      "type": "function"
    },
    {
      "inputs": [],
      "name": "owner",
      "outputs": [
        {
          "internalType": "address",
          "name": "",
          "type": "address"
        }
      ],
      "stateMutability": "view",
      "type": "function"
    },
    {
      "inputs": [
        {
          "internalType": "uint256",
          "name": "",
          "type": "uint256"
        }
      ],
      "name": "proposalHashById",
      "outputs": [
        {
          "internalType": "bytes32",
          "name": "",
          "type": "bytes32"
        }
      ],
      "stateMutability": "view",
      "type": "function"
    },
    {
      "inputs": [
        {
          "internalType": "uint16",
          "name": "dstChainId",
          "type": "uint16"
        },
        {
          "internalType": "bytes",
          "name": "dstAddress",
          "type": "bytes"
        },
        {
          "internalType": "uint256",
          "name": "proposalId",
          "type": "uint256"
        },
        {
          "internalType": "bytes32",
          "name": "proposalHash",
          "type": "bytes32"
        }
      ],
      "name": "sendProposal",
      "outputs": [],
      "stateMutability": "payable",
      "type": "function"
    },
    {
      "inputs": [
        {
          "internalType": "uint16",
          "name": "dstChainId",
          "type": "uint16"
        },
        {
          "internalType": "bytes",
          "name": "dstAddress",
          "type": "bytes"
        },
        {
          "internalType": "uint256",
          "name": "proposalId",
          "type": "uint256"
        },
        {
          "internalType": "uint256",
          "name": "forVotes",
          "type": "uint256"
        },
        {
          "internalType": "uint256",
          "name": "againstVotes",
          "type": "uint256"
        }
      ],
      "name": "sendVoteMirror",
      "outputs": [],
      "stateMutability": "payable",
      "type": "function"
    },
    {
      "inputs": [
        {
          "internalType": "address",
          "name": "_bridge",
          "type": "address"
        }
      ],
      "name": "setBridge",
      "outputs": [],
      "stateMutability": "nonpayable",
      "type": "function"
    },
    {
      "inputs": [
        {
          "internalType": "address",
          "name": "_executor",
          "type": "address"
        }
      ],
      "name": "setExecutor",
      "outputs": [],
      "stateMutability": "nonpayable",
      "type": "function"
    }
  ],
  "bytecode": "0x6080346100b857601f6106fb38819003918201601f19168301916001600160401b038311848410176100bd5780849260409485528339810103126100b857610052602061004b836100d3565b92016100d3565b9060018060a01b0319913383600054161760005560018060a01b0380921683600154161760015516906002541617600255604051337f4ffd725fc4a22075e9ec71c59edf9c38cdeb588a91b24fc5b61388c5be41282b600080a261061390816100e88239f35b600080fd5b634e487b7160e01b600052604160045260246000fd5b51906001600160a01b03821682036100b85756fe6040608081526004908136101561001557600080fd5b600091823560e01c90816310c906841461034857816319ce3005146101fe5781631c3c0ea8146101905781634c6da1b4146101685781638da5cb5b146101405781638dd14802146100ce57508063c34c08e5146100a65763e78cea921461007b57600080fd5b346100a257816003193601126100a25760015490516001600160a01b039091168152602090f35b5080fd5b50346100a257816003193601126100a25760025490516001600160a01b039091168152602090f35b8390346100a25760203660031901126100a257356001600160a01b038181169182900361013c576101039083541633146104f9565b600180546001600160a01b031916821790557fe1694c0b21fdceff6411daed547c7463c2341b9695387bc82595b5b9b1851d4a8280a280f35b8280fd5b5050346100a257816003193601126100a257905490516001600160a01b039091168152602090f35b90503461013c57602036600319011261013c5760209282913581526003845220549051908152f35b8390346100a25760203660031901126100a257356001600160a01b038181169182900361013c576101c59083541633146104f9565b600280546001600160a01b031916821790557fd9436ef9ce00ffeabc5da2489701502d3bd1a5ed7b254a1981fc5ffef9828e118280a280f35b919050608036600319011261013c576102156104b5565b9067ffffffffffffffff60243581811161032f5761023690369086016104cb565b9190604435956064359360018060a01b03610255818b541633146104f9565b888a52600360205285878b205586519260016020850152898885015286606085015260608452608084019584871090871117610333575090849392918a9588526001541690813b1561032f5763c662cc5960e01b8552859385938492607f19926102c59183918e6084840161055b565b03019134905af180156103255761030d575b505061ffff7f290979fd9c1246d69340b1a76779f3ab7f7de2828b453fa61726cf62f7b49c01938351928352166020820152a280f35b61031690610531565b6103215784386102d7565b8480fd5b84513d84823e3d90fd5b8580fd5b604190634e487b7160e01b6000525260246000fd5b91905060a036600319011261013c5761035f6104b5565b67ffffffffffffffff919060243583811161032f5761038190369086016104cb565b909360443595606435956084359360018060a01b036103a4818c541633146104f9565b875193600260208601528a898601528960608601528660808601526080855260a0850195858710908711176104a25750908a9392918589526001541691823b156103215763c662cc5960e01b865285938492609f199261040a9183918c60a4840161055b565b03019134905af1801561049857610458575b508251938452602084015261ffff16908201527ff1a12c4ae9132afa67c014a772ae2bbbf165690affe525ddd7da0f8d211aa86b90606090a280f35b7ff1a12c4ae9132afa67c014a772ae2bbbf165690affe525ddd7da0f8d211aa86b9492606094929761048c61ffff93610531565b9792945092945061041c565b84513d89823e3d90fd5b634e487b7160e01b8c526041905260248bfd5b6004359061ffff821682036104c657565b600080fd5b9181601f840112156104c65782359167ffffffffffffffff83116104c657602083818601950101116104c657565b1561050057565b60405162461bcd60e51b81526020600482015260096024820152682727aa2fa7aba722a960b91b6044820152606490fd5b67ffffffffffffffff811161054557604052565b634e487b7160e01b600052604160045260246000fd5b9261ffff601f93929695961684528060209260606020870152816060870152608086013760006080828601015282199283910116830192604060808286030191015284519081608085015260005b8281106105c957505060a093945080600085601f93860101520116010190565b86810182015185820160a0015281016105a956fea2646970667358221220c4f0248847b92be2b0e64813c6f3ddbf6f7cab25f58cd4a679c769f896d37ee664736f6c63430008180033",
  "linkReferences": {},
  "deployedLinkReferences": {}
}