{
  "_format": "hh-sol-artifact-1",
  "contractName": "ZkTreasury",
  "sourceName": "contracts/ZkTreasury.sol",
  "abi": [
    {
      "inputs": [
        {
          "internalType": "address",
          "name": "_admin",
          "type": "address"
        },
        {
          "internalType": "address",
          "name": "_token",
          "type": "address"
        }
      ],
      "stateMutability": "nonpayable",
      "type": "constructor"
    },
    {
      "inputs": [],
      "name": "NotAdmin",
      "type": "error"
    },
    {
      "inputs": [],
      "name": "QuorumNotReached",
      "type": "error"
    },
    {
      "inputs": [],
      "name": "TransferFailed",
      "type": "error"
    },
    {
      "inputs": [],
      "name": "VotingNotEnded",
      "type": "error"
    },
    {
      "anonymous": false,
      "inputs": [
        {
          "indexed": false,
          "internalType": "address",
          "name": "to",
          "type": "address"
        },
        {
          "indexed": false,
          "internalType": "uint256",
          "name": "amount",
          "type": "uint256"
        },
        {
          "indexed": false,
          "internalType": "uint256",
          "name": "optionId",
          "type": "uint256"
        }
      ],
      "name": "FundsReleased",
      "type": "event"
    },
    {
      "inputs": [],
      "name": "admin",
      "outputs": [
        {
          "internalType": "address",
          "name": "",
          "type": "address"
        }
      ],
      "stateMutability": "view",
      "type": "function"
    },
    {
      "inputs": [
        {
          "internalType": "address",
          "name": "ballot",
          "type": "address"
        },
        {
          "internalType": "uint256",
          "name": "optionId",
          "type": "uint256"
        },
        {
          "internalType": "uint256",
          "name": "quorum",
          "type": "uint256"
        },
        {
          "internalType": "address payable",
          "name": "to",
          "type": "address"
        },
        {
          "internalType": "uint256",
          "name": "amount",
          "type": "uint256"
        }
      ],
      "name": "releaseIfQuorum",
      "outputs": [],
      "stateMutability": "nonpayable",
      "type": "function"
    },
    {
      "inputs": [],
      "name": "token",
      "outputs": [
        {
          "internalType": "address",
          "name": "",
          "type": "address"
        }
      ],
      "stateMutability": "view",
      "type": "function"
    },
    {
      "stateMutability": "payable",
      "type": "receive"
    }
  ],
  "bytecode": "0x60c060405234801561001057600080fd5b50604051610da7380380610da783398181016040528101906100329190610104565b8173ffffffffffffffffffffffffffffffffffffffff1660808173ffffffffffffffffffffffffffffffffffffffff16815250508073ffffffffffffffffffffffffffffffffffffffff1660a08173ffffffffffffffffffffffffffffffffffffffff16815250505050610144565b600080fd5b600073ffffffffffffffffffffffffffffffffffffffff82169050919050565b60006100d1826100a6565b9050919050565b6100e1816100c6565b81146100ec57600080fd5b50565b6000815190506100fe816100d8565b92915050565b6000806040838503121561011b5761011a6100a1565b5b6000610129858286016100ef565b925050602061013a858286016100ef565b9150509250929050565b60805160a051610c2a61017d6000396000818161031e0152818161040601526105ef01526000818160c501526105cb0152610c2a6000f3fe6080604052600436106100385760003560e01c8063ae154feb14610044578063f851a4401461006d578063fc0c546a146100985761003f565b3661003f57005b600080fd5b34801561005057600080fd5b5061006b600480360381019061006691906106f7565b6100c3565b005b34801561007957600080fd5b506100826105c9565b60405161008f9190610781565b60405180910390f35b3480156100a457600080fd5b506100ad6105ed565b6040516100ba9190610781565b60405180910390f35b7f000000000000000000000000000000000000000000000000000000000000000073ffffffffffffffffffffffffffffffffffffffff163373ffffffffffffffffffffffffffffffffffffffff1614610148576040517f7bfa4b9f00000000000000000000000000000000000000000000000000000000815260040160405180910390fd5b60008573ffffffffffffffffffffffffffffffffffffffff1663280ee4ee6040518163ffffffff1660e01b8152600401602060405180830381865afa158015610195573d6000803e3d6000fd5b505050506040513d601f19601f820116820180604052508101906101b991906107dc565b90508067ffffffffffffffff1642116101fe576040517f7f8617a200000000000000000000000000000000000000000000000000000000815260040160405180910390fd5b60008673ffffffffffffffffffffffffffffffffffffffff16630619e92a6040518163ffffffff1660e01b8152600401600060405180830381865afa15801561024b573d6000803e3d6000fd5b505050506040513d6000823e3d601f19601f820116820180604052508101906102749190610977565b9050805186106102b0576040517faa26a69300000000000000000000000000000000000000000000000000000000815260040160405180910390fd5b848187815181106102c4576102c36109c0565b5b60200260200101511015610304576040517faa26a69300000000000000000000000000000000000000000000000000000000815260040160405180910390fd5b600073ffffffffffffffffffffffffffffffffffffffff167f000000000000000000000000000000000000000000000000000000000000000073ffffffffffffffffffffffffffffffffffffffff16036104015760008473ffffffffffffffffffffffffffffffffffffffff168460405161037e90610a20565b60006040518083038185875af1925050503d80600081146103bb576040519150601f19603f3d011682016040523d82523d6000602084013e6103c0565b606091505b50509050806103fb576040517f90b8ec1800000000000000000000000000000000000000000000000000000000815260040160405180910390fd5b50610585565b6000807f000000000000000000000000000000000000000000000000000000000000000073ffffffffffffffffffffffffffffffffffffffff16868660405160240161044e929190610a53565b6040516020818303038152906040527fa9059cbb000000000000000000000000000000000000000000000000000000007bffffffffffffffffffffffffffffffffffffffffffffffffffffffff19166020820180517bffffffffffffffffffffffffffffffffffffffffffffffffffffffff83818316178352505050506040516104d89190610ae2565b6000604051808303816000865af19150503d8060008114610515576040519150601f19603f3d011682016040523d82523d6000602084013e61051a565b606091505b509150915081158061054b5750600081511415801561054a5750808060200190518101906105489190610b31565b155b5b15610582576040517f90b8ec1800000000000000000000000000000000000000000000000000000000815260040160405180910390fd5b50505b7fc90c76155d237557f9162f07cd0da2ff40418cd82028c0e89535270fb9de51048484886040516105b893929190610bbd565b60405180910390a150505050505050565b7f000000000000000000000000000000000000000000000000000000000000000081565b7f000000000000000000000000000000000000000000000000000000000000000081565b6000604051905090565b600080fd5b600080fd5b600073ffffffffffffffffffffffffffffffffffffffff82169050919050565b600061065082610625565b9050919050565b61066081610645565b811461066b57600080fd5b50565b60008135905061067d81610657565b92915050565b6000819050919050565b61069681610683565b81146106a157600080fd5b50565b6000813590506106b38161068d565b92915050565b60006106c482610625565b9050919050565b6106d4816106b9565b81146106df57600080fd5b50565b6000813590506106f1816106cb565b92915050565b600080600080600060a086880312156107135761071261061b565b5b60006107218882890161066e565b9550506020610732888289016106a4565b9450506040610743888289016106a4565b9350506060610754888289016106e2565b9250506080610765888289016106a4565b9150509295509295909350565b61077b81610645565b82525050565b60006020820190506107966000830184610772565b92915050565b600067ffffffffffffffff82169050919050565b6107b98161079c565b81146107c457600080fd5b50565b6000815190506107d6816107b0565b92915050565b6000602082840312156107f2576107f161061b565b5b6000610800848285016107c7565b91505092915050565b600080fd5b6000601f19601f8301169050919050565b7f4e487b7100000000000000000000000000000000000000000000000000000000600052604160045260246000fd5b6108578261080e565b810181811067ffffffffffffffff821117156108765761087561081f565b5b80604052505050565b6000610889610611565b9050610895828261084e565b919050565b600067ffffffffffffffff8211156108b5576108b461081f565b5b602082029050602081019050919050565b600080fd5b6000815190506108da8161068d565b92915050565b60006108f36108ee8461089a565b61087f565b90508083825260208201905060208402830185811115610916576109156108c6565b5b835b8181101561093f578061092b88826108cb565b845260208401935050602081019050610918565b5050509392505050565b600082601f83011261095e5761095d610809565b5b815161096e8482602086016108e0565b91505092915050565b60006020828403121561098d5761098c61061b565b5b600082015167ffffffffffffffff8111156109ab576109aa610620565b5b6109b784828501610949565b91505092915050565b7f4e487b7100000000000000000000000000000000000000000000000000000000600052603260045260246000fd5b600081905092915050565b50565b6000610a0a6000836109ef565b9150610a15826109fa565b600082019050919050565b6000610a2b826109fd565b9150819050919050565b610a3e816106b9565b82525050565b610a4d81610683565b82525050565b6000604082019050610a686000830185610a35565b610a756020830184610a44565b9392505050565b600081519050919050565b60005b83811015610aa5578082015181840152602081019050610a8a565b60008484015250505050565b6000610abc82610a7c565b610ac681856109ef565b9350610ad6818560208601610a87565b80840191505092915050565b6000610aee8284610ab1565b915081905092915050565b60008115159050919050565b610b0e81610af9565b8114610b1957600080fd5b50565b600081519050610b2b81610b05565b92915050565b600060208284031215610b4757610b4661061b565b5b6000610b5584828501610b1c565b91505092915050565b6000819050919050565b6000610b83610b7e610b7984610625565b610b5e565b610625565b9050919050565b6000610b9582610b68565b9050919050565b6000610ba782610b8a565b9050919050565b610bb781610b9c565b82525050565b6000606082019050610bd26000830186610bae565b610bdf6020830185610a44565b610bec6040830184610a44565b94935050505056fea2646970667358221220eb10cb031b3f28237e2f95dad8e71a35ce471c79db3796106c9494d28dc3172464736f6c63430008170033",
  "linkReferences": {},
  "deployedLinkReferences": {}
}