{
  "_format": "hh-sol-artifact-1",
  "contractName": "ZkBallot",
  "sourceName": "contracts/ZkBallot.sol",
  "abi": [
    {
      "inputs": [
        {
          "internalType": "address",
          "name": "_verifier",
          "type": "address"
        },
        {
          "internalType": "uint256",
          "name": "_groupId",
          "type": "uint256"
        },
        {
          "internalType": "uint64",
          "name": "_votingStarts",
          "type": "uint64"
        },
        {
          "internalType": "uint64",
          "name": "_votingEnds",
          "type": "uint64"
        },
        {
          "components": [
            {
              "internalType": "string",
              "name": "title",
              "type": "string"
            },
            {
              "internalType": "string",
              "name": "description",
              "type": "string"
            }
          ],
          "internalType": "struct ZkBallot.Proposal[]",
          "name": "_proposals",
          "type": "tuple[]"
        }
      ],
      "stateMutability": "nonpayable",
      "type": "constructor"
    },
    {
      "inputs": [],
      "name": "InvalidOption",
      "type": "error"
    },
    {
      "inputs": [],
      "name": "InvalidProof",
      "type": "error"
    },
    {
      "inputs": [],
      "name": "NotAdmin",
      "type": "error"
    },
    {
      "inputs": [],
      "name": "NullifierUsed",
      "type": "error"
    },
    {
      "inputs": [],
      "name": "VotingClosed",
      "type": "error"
    },
    {
      "inputs": [],
      "name": "VotingNotStarted",
      "type": "error"
    },
    {
      "anonymous": false,
      "inputs": [],
      "name": "ResultsFinalized",
      "type": "event"
    },
    {
      "anonymous": false,
      "inputs": [
        {
          "indexed": true,
          "internalType": "uint256",
          "name": "optionId",
          "type": "uint256"
        },
        {
          "indexed": false,
          "internalType": "uint256",
          "name": "weight",
          "type": "uint256"
        },
        {
          "indexed": false,
          "internalType": "uint256",
          "name": "nullifierHash",
          "type": "uint256"
        }
      ],
      "name": "VoteSubmitted",
      "type": "event"
    },
    {
      "inputs": [],
      "name": "admin",
      "outputs": [
        {
          "internalType": "address",
          "name": "",
          "type": "address"
        }
      ],
      "stateMutability": "view",
      "type": "function"
    },
    {
      "inputs": [],
      "name": "finalizeResults",
      "outputs": [],
      "stateMutability": "nonpayable",
      "type": "function"
    },
    {
      "inputs": [],
      "name": "getWeightedTotals",
      "outputs": [
        {
          "internalType": "uint256[]",
          "name": "",
          "type": "uint256[]"
        }
      ],
      "stateMutability": "view",
      "type": "function"
    },
    {
      "inputs": [],
      "name": "groupId",
      "outputs": [
        {
          "internalType": "uint256",
          "name": "",
          "type": "uint256"
        }
      ],
      "stateMutability": "view",
      "type": "function"
    },
    {
      "inputs": [
        {
          "internalType": "uint256",
          "name": "",
          "type": "uint256"
        }
      ],
      "name": "nullifierUsed",
      "outputs": [
        {
          "internalType": "bool",
          "name": "",
          "type": "bool"
        }
      ],
      "stateMutability": "view",
      "type": "function"
    },
    {
      "inputs": [],
      "name": "numProposals",
      "outputs": [
        {
          "internalType": "uint256",
          "name": "",
          "type": "uint256"
        }
      ],
      "stateMutability": "view",
      "type": "function"
    },
    {
      "inputs": [
        {
          "internalType": "uint256",
          "name": "",
          "type": "uint256"
        }
      ],
      "name": "optionIdToWeightedTotal",
      "outputs": [
        {
          "internalType": "uint256",
          "name": "",
          "type": "uint256"
        }
      ],
      "stateMutability": "view",
      "type": "function"
    },
    {
      "inputs": [
        {
          "internalType": "uint256",
          "name": "",
          "type": "uint256"
        }
      ],
      "name": "proposals",
      "outputs": [
        {
          "internalType": "string",
          "name": "title",
          "type": "string"
        },
        {
          "internalType": "string",
          "name": "description",
          "type": "string"
        }
      ],
      "stateMutability": "view",
      "type": "function"
    },
    {
      "inputs": [
        {
          "components": [
            {
              "internalType": "uint256[2]",
              "name": "pA",
              "type": "uint256[2]"
            },
            {
              "internalType": "uint256[2][2]",
              "name": "pB",
              "type": "uint256[2][2]"
            },
            {
              "internalType": "uint256[2]",
              "name": "pC",
              "type": "uint256[2]"
            },
            {
              "internalType": "uint256[4]",
              "name": "pubSignals",
              "type": "uint256[4]"
            },
            {
              "internalType": "uint32",
              "name": "merkleTreeDepth",
              "type": "uint32"
            },
            {
              "internalType": "uint256",
              "name": "weight",
              "type": "uint256"
            }
          ],
          "internalType": "struct ZkBallot.VoteProof",
          "name": "proof",
          "type": "tuple"
        },
        {
          "internalType": "uint256",
          "name": "optionId",
          "type": "uint256"
        }
      ],
      "name": "submitVote",
      "outputs": [],
      "stateMutability": "nonpayable",
      "type": "function"
    },
    {
      "inputs": [],
      "name": "verifier",
      "outputs": [
        {
          "internalType": "contract ISemaphoreVerifier",
          "name": "",
          "type": "address"
        }
      ],
      "stateMutability": "view",
      "type": "function"
    },
    {
      "inputs": [],
      "name": "votingEnds",
      "outputs": [
        {
          "internalType": "uint64",
          "name": "",
          "type": "uint64"
        }
      ],
      "stateMutability": "view",
      "type": "function"
    },
    {
      "inputs": [],
      "name": "votingStarts",
      "outputs": [
        {
          "internalType": "uint64",
          "name": "",
          "type": "uint64"
        }
      ],
      "stateMutability": "view",
      "type": "function"
    }
  ],
  "bytecode": "0x6101206040523480156200001257600080fd5b5060405162001f3538038062001f358339818101604052810190620000389190620006ab565b600073ffffffffffffffffffffffffffffffffffffffff168573ffffffffffffffffffffffffffffffffffffffff1603620000aa576040517f08c379a0000000000000000000000000000000000000000000000000000000008152600401620000a190620007b3565b60405180910390fd5b8167ffffffffffffffff168367ffffffffffffffff161062000103576040517f08c379a0000000000000000000000000000000000000000000000000000000008152600401620000fa9062000825565b60405180910390fd5b6002815110156200014b576040517f08c379a0000000000000000000000000000000000000000000000000000000008152600401620001429062000897565b60405180910390fd5b3373ffffffffffffffffffffffffffffffffffffffff1660808173ffffffffffffffffffffffffffffffffffffffff16815250508473ffffffffffffffffffffffffffffffffffffffff1660a08173ffffffffffffffffffffffffffffffffffffffff16815250508360c081815250508267ffffffffffffffff1660e08167ffffffffffffffff16815250508167ffffffffffffffff166101008167ffffffffffffffff168152505060005b81518110156200028a576000828281518110620002195762000218620008b9565b5b60200260200101519080600181540180825580915050600190039060005260206000209060020201600090919091909150600082015181600001908162000261919062000b29565b50602082015181600101908162000279919062000b29565b5050508080600101915050620001f7565b50505050505062000c10565b6000604051905090565b600080fd5b600080fd5b600073ffffffffffffffffffffffffffffffffffffffff82169050919050565b6000620002d782620002aa565b9050919050565b620002e981620002ca565b8114620002f557600080fd5b50565b6000815190506200030981620002de565b92915050565b6000819050919050565b62000324816200030f565b81146200033057600080fd5b50565b600081519050620003448162000319565b92915050565b600067ffffffffffffffff82169050919050565b62000369816200034a565b81146200037557600080fd5b50565b60008151905062000389816200035e565b92915050565b600080fd5b6000601f19601f8301169050919050565b7f4e487b7100000000000000000000000000000000000000000000000000000000600052604160045260246000fd5b620003df8262000394565b810181811067ffffffffffffffff82111715620004015762000400620003a5565b5b80604052505050565b60006200041662000296565b9050620004248282620003d4565b919050565b600067ffffffffffffffff821115620004475762000446620003a5565b5b602082029050602081019050919050565b600080fd5b600080fd5b600080fd5b600080fd5b600067ffffffffffffffff8211156200048a5762000489620003a5565b5b620004958262000394565b9050602081019050919050565b60005b83811015620004c2578082015181840152602081019050620004a5565b60008484015250505050565b6000620004e5620004df846200046c565b6200040a565b90508281526020810184848401111562000504576200050362000467565b5b62000511848285620004a2565b509392505050565b600082601f8301126200053157620005306200038f565b5b815162000543848260208601620004ce565b91505092915050565b6000604082840312156200056557620005646200045d565b5b6200057160406200040a565b9050600082015167ffffffffffffffff81111562000594576200059362000462565b5b620005a28482850162000519565b600083015250602082015167ffffffffffffffff811115620005c957620005c862000462565b5b620005d78482850162000519565b60208301525092915050565b6000620005fa620005f48462000429565b6200040a565b9050808382526020820190506020840283018581111562000620576200061f62000458565b5b835b818110156200066e57805167ffffffffffffffff8111156200064957620006486200038f565b5b8086016200065889826200054c565b8552602085019450505060208101905062000622565b5050509392505050565b600082601f83011262000690576200068f6200038f565b5b8151620006a2848260208601620005e3565b91505092915050565b600080600080600060a08688031215620006ca57620006c9620002a0565b5b6000620006da88828901620002f8565b9550506020620006ed8882890162000333565b9450506040620007008882890162000378565b9350506060620007138882890162000378565b925050608086015167ffffffffffffffff811115620007375762000736620002a5565b5b620007458882890162000678565b9150509295509295909350565b600082825260208201905092915050565b7f7665726966696572000000000000000000000000000000000000000000000000600082015250565b60006200079b60088362000752565b9150620007a88262000763565b602082019050919050565b60006020820190508181036000830152620007ce816200078c565b9050919050565b7f74696d6500000000000000000000000000000000000000000000000000000000600082015250565b60006200080d60048362000752565b91506200081a82620007d5565b602082019050919050565b600060208201905081810360008301526200084081620007fe565b9050919050565b7f6d696e2032206f7074696f6e7300000000000000000000000000000000000000600082015250565b60006200087f600d8362000752565b91506200088c8262000847565b602082019050919050565b60006020820190508181036000830152620008b28162000870565b9050919050565b7f4e487b7100000000000000000000000000000000000000000000000000000000600052603260045260246000fd5b600081519050919050565b7f4e487b7100000000000000000000000000000000000000000000000000000000600052602260045260246000fd5b600060028204905060018216806200093b57607f821691505b602082108103620009515762000950620008f3565b5b50919050565b60008190508160005260206000209050919050565b60006020601f8301049050919050565b600082821b905092915050565b600060088302620009bb7fffffffffffffffffffffffffffffffffffffffffffffffffffffffffffffffff826200097c565b620009c786836200097c565b95508019841693508086168417925050509392505050565b6000819050919050565b600062000a0a62000a04620009fe846200030f565b620009df565b6200030f565b9050919050565b6000819050919050565b62000a2683620009e9565b62000a3e62000a358262000a11565b84845462000989565b825550505050565b600090565b62000a5562000a46565b62000a6281848462000a1b565b505050565b5b8181101562000a8a5762000a7e60008262000a4b565b60018101905062000a68565b5050565b601f82111562000ad95762000aa38162000957565b62000aae846200096c565b8101602085101562000abe578190505b62000ad662000acd856200096c565b83018262000a67565b50505b505050565b600082821c905092915050565b600062000afe6000198460080262000ade565b1980831691505092915050565b600062000b19838362000aeb565b9150826002028217905092915050565b62000b3482620008e8565b67ffffffffffffffff81111562000b505762000b4f620003a5565b5b62000b5c825462000922565b62000b6982828562000a8e565b600060209050601f83116001811462000ba1576000841562000b8c578287015190505b62000b98858262000b0b565b86555062000c08565b601f19841662000bb18662000957565b60005b8281101562000bdb5784890151825560018201915060208501945060208101905062000bb4565b8683101562000bfb578489015162000bf7601f89168262000aeb565b8355505b6001600288020188555050505b505050505050565b60805160a05160c05160e051610100516112b662000c7f6000396000818161049701528181610837015261099001526000818161043301526108c30152600081816105f401526108e701526000818161069a015261085b01526000818161090b0152610a2101526112b66000f3fe608060405234801561001057600080fd5b50600436106100b45760003560e01c806360eeb0b81161007157806360eeb0b81461017e57806379f95ee9146101ae5780639331e613146101de578063a0f44c92146101fc578063f7d3d4f31461021a578063f851a44014610224576100b4565b8063013cf08b146100b95780630619e92a146100ea57806318afea4214610108578063280ee4ee146101245780632b7ac3f314610142578063400e394914610160575b600080fd5b6100d360048036038101906100ce9190610a7e565b610242565b6040516100e1929190610b3b565b60405180910390f35b6100f2610386565b6040516100ff9190610c30565b60405180910390f35b610122600480360381019061011d9190610c77565b610431565b005b61012c610835565b6040516101399190610cdc565b60405180910390f35b61014a610859565b6040516101579190610d76565b60405180910390f35b61016861087d565b6040516101759190610da0565b60405180910390f35b61019860048036038101906101939190610a7e565b610889565b6040516101a59190610da0565b60405180910390f35b6101c860048036038101906101c39190610a7e565b6108a1565b6040516101d59190610dd6565b60405180910390f35b6101e66108c1565b6040516101f39190610cdc565b60405180910390f35b6102046108e5565b6040516102119190610da0565b60405180910390f35b610222610909565b005b61022c610a1f565b6040516102399190610e12565b60405180910390f35b6000818154811061025257600080fd5b906000526020600020906002020160009150905080600001805461027590610e5c565b80601f01602080910402602001604051908101604052809291908181526020018280546102a190610e5c565b80156102ee5780601f106102c3576101008083540402835291602001916102ee565b820191906000526020600020905b8154815290600101906020018083116102d157829003601f168201915b50505050509080600101805461030390610e5c565b80601f016020809104026020016040519081016040528092919081815260200182805461032f90610e5c565b801561037c5780601f106103515761010080835404028352916020019161037c565b820191906000526020600020905b81548152906001019060200180831161035f57829003601f168201915b5050505050905082565b60606000808054905067ffffffffffffffff8111156103a8576103a7610e8d565b5b6040519080825280602002602001820160405280156103d65781602001602082028036833780820191505090505b50905060005b6000805490508110156104295760016000828152602001908152602001600020548282815181106104105761040f610ebc565b5b60200260200101818152505080806001019150506103dc565b508091505090565b7f000000000000000000000000000000000000000000000000000000000000000067ffffffffffffffff16421015610495576040517f7fa0120200000000000000000000000000000000000000000000000000000000815260040160405180910390fd5b7f000000000000000000000000000000000000000000000000000000000000000067ffffffffffffffff164211156104f9576040517f66b6cb4a00000000000000000000000000000000000000000000000000000000815260040160405180910390fd5b6000805490508110610537576040517f2a71953100000000000000000000000000000000000000000000000000000000815260040160405180910390fd5b6000826101000160006004811061055157610550610ebc565b5b602002013590506000836101000160016004811061057257610571610ebc565b5b602002013590506000846101000160026004811061059357610592610ebc565b5b602002013590506002600084815260200190815260200160002060009054906101000a900460ff16156105f2576040517f9281498500000000000000000000000000000000000000000000000000000000815260040160405180910390fd5b7f00000000000000000000000000000000000000000000000000000000000000008114610654576040517f08c379a000000000000000000000000000000000000000000000000000000000815260040161064b90610f37565b60405180910390fd5b838214610696576040517f08c379a000000000000000000000000000000000000000000000000000000000815260040161068d90610fa3565b60405180910390fd5b60007f000000000000000000000000000000000000000000000000000000000000000073ffffffffffffffffffffffffffffffffffffffff1663a23f019987600001886040018960c0018a610100018b6101800160208101906106f99190610fff565b6040518663ffffffff1660e01b8152600401610719959493929190611145565b602060405180830381865afa158015610736573d6000803e3d6000fd5b505050506040513d601f19601f8201168201806040525081019061075a91906111c7565b905080610793576040517f09bde33900000000000000000000000000000000000000000000000000000000815260040160405180910390fd5b60016002600086815260200190815260200160002060006101000a81548160ff021916908315150217905550856101a001356001600087815260200190815260200160002060008282546107e79190611223565b92505081905550847feae33df196a32d272e8aa809e6cf4f18536005fa3f76c93c4b4072f5c4766903876101a0013586604051610825929190611257565b60405180910390a2505050505050565b7f000000000000000000000000000000000000000000000000000000000000000081565b7f000000000000000000000000000000000000000000000000000000000000000081565b60008080549050905090565b60016020528060005260406000206000915090505481565b60026020528060005260406000206000915054906101000a900460ff1681565b7f000000000000000000000000000000000000000000000000000000000000000081565b7f000000000000000000000000000000000000000000000000000000000000000081565b7f000000000000000000000000000000000000000000000000000000000000000073ffffffffffffffffffffffffffffffffffffffff163373ffffffffffffffffffffffffffffffffffffffff161461098e576040517f7bfa4b9f00000000000000000000000000000000000000000000000000000000815260040160405180910390fd5b7f000000000000000000000000000000000000000000000000000000000000000067ffffffffffffffff1642116109f1576040517f66b6cb4a00000000000000000000000000000000000000000000000000000000815260040160405180910390fd5b7f53e61ec939fc5f8af4177b0bfacd0a92acdc2b8da37b061a0868e3bd5c542cb160405160405180910390a1565b7f000000000000000000000000000000000000000000000000000000000000000081565b600080fd5b6000819050919050565b610a5b81610a48565b8114610a6657600080fd5b50565b600081359050610a7881610a52565b92915050565b600060208284031215610a9457610a93610a43565b5b6000610aa284828501610a69565b91505092915050565b600081519050919050565b600082825260208201905092915050565b60005b83811015610ae5578082015181840152602081019050610aca565b60008484015250505050565b6000601f19601f8301169050919050565b6000610b0d82610aab565b610b178185610ab6565b9350610b27818560208601610ac7565b610b3081610af1565b840191505092915050565b60006040820190508181036000830152610b558185610b02565b90508181036020830152610b698184610b02565b90509392505050565b600081519050919050565b600082825260208201905092915050565b6000819050602082019050919050565b610ba781610a48565b82525050565b6000610bb98383610b9e565b60208301905092915050565b6000602082019050919050565b6000610bdd82610b72565b610be78185610b7d565b9350610bf283610b8e565b8060005b83811015610c23578151610c0a8882610bad565b9750610c1583610bc5565b925050600181019050610bf6565b5085935050505092915050565b60006020820190508181036000830152610c4a8184610bd2565b905092915050565b600080fd5b60006101c08284031215610c6e57610c6d610c52565b5b81905092915050565b6000806101e08385031215610c8f57610c8e610a43565b5b6000610c9d85828601610c57565b9250506101c0610caf85828601610a69565b9150509250929050565b600067ffffffffffffffff82169050919050565b610cd681610cb9565b82525050565b6000602082019050610cf16000830184610ccd565b92915050565b600073ffffffffffffffffffffffffffffffffffffffff82169050919050565b6000819050919050565b6000610d3c610d37610d3284610cf7565b610d17565b610cf7565b9050919050565b6000610d4e82610d21565b9050919050565b6000610d6082610d43565b9050919050565b610d7081610d55565b82525050565b6000602082019050610d8b6000830184610d67565b92915050565b610d9a81610a48565b82525050565b6000602082019050610db56000830184610d91565b92915050565b60008115159050919050565b610dd081610dbb565b82525050565b6000602082019050610deb6000830184610dc7565b92915050565b6000610dfc82610cf7565b9050919050565b610e0c81610df1565b82525050565b6000602082019050610e276000830184610e03565b92915050565b7f4e487b7100000000000000000000000000000000000000000000000000000000600052602260045260246000fd5b60006002820490506001821680610e7457607f821691505b602082108103610e8757610e86610e2d565b5b50919050565b7f4e487b7100000000000000000000000000000000000000000000000000000000600052604160045260246000fd5b7f4e487b7100000000000000000000000000000000000000000000000000000000600052603260045260246000fd5b7f62616420454e0000000000000000000000000000000000000000000000000000600082015250565b6000610f21600683610ab6565b9150610f2c82610eeb565b602082019050919050565b60006020820190508181036000830152610f5081610f14565b9050919050565b7f626164207369676e616c00000000000000000000000000000000000000000000600082015250565b6000610f8d600a83610ab6565b9150610f9882610f57565b602082019050919050565b60006020820190508181036000830152610fbc81610f80565b9050919050565b600063ffffffff82169050919050565b610fdc81610fc3565b8114610fe757600080fd5b50565b600081359050610ff981610fd3565b92915050565b60006020828403121561101557611014610a43565b5b600061102384828501610fea565b91505092915050565b82818337505050565b6110416040838361102c565b5050565b600060029050919050565b600081905092915050565b6000819050919050565b6110716040838361102c565b5050565b60006110818383611065565b60408301905092915050565b600082905092915050565b6000604082019050919050565b6110ae81611045565b6110b88184611050565b92506110c38261105b565b8060005b838110156110fc576110d9828461108d565b6110e38782611075565b96506110ee83611098565b9250506001810190506110c7565b505050505050565b6111106080838361102c565b5050565b600061112f61112a61112584610fc3565b610d17565b610a48565b9050919050565b61113f81611114565b82525050565b60006101a08201905061115b6000830188611035565b61116860408301876110a5565b61117560c0830186611035565b611183610100830185611104565b611191610180830184611136565b9695505050505050565b6111a481610dbb565b81146111af57600080fd5b50565b6000815190506111c18161119b565b92915050565b6000602082840312156111dd576111dc610a43565b5b60006111eb848285016111b2565b91505092915050565b7f4e487b7100000000000000000000000000000000000000000000000000000000600052601160045260246000fd5b600061122e82610a48565b915061123983610a48565b9250828201905080821115611251576112506111f4565b5b92915050565b600060408201905061126c6000830185610d91565b6112796020830184610d91565b939250505056fea26469706673582212208bc7d4346c65696fdf84cb60fc540cf35a093c0a073376649e508f27d955145364736f6c63430008170033",
  "linkReferences": {},
  "deployedLinkReferences": {}
}